{
  "transactions": [
    {
      "hash": "0x0107309790981b1c526f7686d5291684d34c292fb21291370c865f7df539df59",
      "transactionType": "CALL",
      "contractName": "SLMinterOracle",
      "contractAddress": "0xC7f2Cf4845C6db0e1a1e91ED41Bcd0FcC1b0E141",
      "function": "createBrand(string,string,uint256,address)",
      "arguments": [
        "\"testing\"",
        "\"test\"",
        "54000",
        "0xAe443A7dbB2252Ee2AF1b4c9eEE755a1b2417ab4"
      ],
      "transaction": {
        "type": "0x02",
        "from": "0xae443a7dbb2252ee2af1b4c9eee755a1b2417ab4",
        "to": "0xc7f2cf4845c6db0e1a1e91ed41bcd0fcc1b0e141",
        "gas": "0x7992",
        "value": "0x0",
        "data": "0x920c46c3000000000000000000000000000000000000000000000000000000000000008000000000000000000000000000000000000000000000000000000000000000c0000000000000000000000000000000000000000000000000000000000000d2f0000000000000000000000000ae443a7dbb2252ee2af1b4c9eee755a1b2417ab4000000000000000000000000000000000000000000000000000000000000000774657374696e670000000000000000000000000000000000000000000000000000000000000000000000000000000000000000000000000000000000000000047465737400000000000000000000000000000000000000000000000000000000",
        "nonce": "0x0",
        "accessList": []
      },
      "additionalContracts": [],
      "isFixedGasLimit": false
    },
    {
      "hash": "0xbc422e20fcfa79af92427cba36fa6b7d8877ebbcb0bca4121da410f219aa53b6",
      "transactionType": "CALL",
      "contractName": "SLMinterOracle",
      "contractAddress": "0xC7f2Cf4845C6db0e1a1e91ED41Bcd0FcC1b0E141",
      "function": "createBrand(string,string,uint256,address)",
      "arguments": [
        "\"Delta\"",
        "\"Miles\"",
        "54000",
        "0xAe443A7dbB2252Ee2AF1b4c9eEE755a1b2417ab4"
      ],
      "transaction": {
        "type": "0x02",
        "from": "0xae443a7dbb2252ee2af1b4c9eee755a1b2417ab4",
        "to": "0xc7f2cf4845c6db0e1a1e91ed41bcd0fcc1b0e141",
        "gas": "0x7981",
        "value": "0x0",
        "data": "0x920c46c3000000000000000000000000000000000000000000000000000000000000008000000000000000000000000000000000000000000000000000000000000000c0000000000000000000000000000000000000000000000000000000000000d2f0000000000000000000000000ae443a7dbb2252ee2af1b4c9eee755a1b2417ab4000000000000000000000000000000000000000000000000000000000000000544656c746100000000000000000000000000000000000000000000000000000000000000000000000000000000000000000000000000000000000000000000054d696c6573000000000000000000000000000000000000000000000000000000",
        "nonce": "0x1",
        "accessList": []
      },
      "additionalContracts": [],
      "isFixedGasLimit": false
    },
    {
      "hash": "0xa605044877e8c74216b9abde57f08f948f3f3377f8f06556f59717b41329893a",
      "transactionType": "CALL",
      "contractName": "SLMinterOracle",
      "contractAddress": "0xC7f2Cf4845C6db0e1a1e91ED41Bcd0FcC1b0E141",
      "function": "createBrand(string,string,uint256,address)",
      "arguments": [
        "\"Starbucks\"",
        "\"Points\"",
        "2476",
        "0xAe443A7dbB2252Ee2AF1b4c9eEE755a1b2417ab4"
      ],
      "transaction": {
        "type": "0x02",
        "from": "0xae443a7dbb2252ee2af1b4c9eee755a1b2417ab4",
        "to": "0xc7f2cf4845c6db0e1a1e91ed41bcd0fcc1b0e141",
        "gas": "0x79d4",
        "value": "0x0",
        "data": "0x920c46c3000000000000000000000000000000000000000000000000000000000000008000000000000000000000000000000000000000000000000000000000000000c000000000000000000000000000000000000000000000000000000000000009ac000000000000000000000000ae443a7dbb2252ee2af1b4c9eee755a1b2417ab40000000000000000000000000000000000000000000000000000000000000009537461726275636b7300000000000000000000000000000000000000000000000000000000000000000000000000000000000000000000000000000000000006506f696e74730000000000000000000000000000000000000000000000000000",
        "nonce": "0x2",
        "accessList": []
      },
      "additionalContracts": [],
      "isFixedGasLimit": false
    },
    {
      "hash": "0x0a47ceb634c9e20b7e8b946be649920a8895b7eea0b07656668ea10c8ef5741e",
      "transactionType": "CALL",
      "contractName": "SLMinterOracle",
      "contractAddress": "0xC7f2Cf4845C6db0e1a1e91ED41Bcd0FcC1b0E141",
      "function": "createBrand(string,string,uint256,address)",
      "arguments": [
        "\"Walmart\"",
        "\"Points\"",
        "2300",
        "0xAe443A7dbB2252Ee2AF1b4c9eEE755a1b2417ab4"
      ],
      "transaction": {
        "type": "0x02",
        "from": "0xae443a7dbb2252ee2af1b4c9eee755a1b2417ab4",
        "to": "0xc7f2cf4845c6db0e1a1e91ed41bcd0fcc1b0e141",
        "gas": "0x79b2",
        "value": "0x0",
        "data": "0x920c46c3000000000000000000000000000000000000000000000000000000000000008000000000000000000000000000000000000000000000000000000000000000c000000000000000000000000000000000000000000000000000000000000008fc000000000000000000000000ae443a7dbb2252ee2af1b4c9eee755a1b2417ab4000000000000000000000000000000000000000000000000000000000000000757616c6d617274000000000000000000000000000000000000000000000000000000000000000000000000000000000000000000000000000000000000000006506f696e74730000000000000000000000000000000000000000000000000000",
        "nonce": "0x3",
        "accessList": []
      },
      "additionalContracts": [],
      "isFixedGasLimit": false
    },
    {
      "hash": "0xc1cf115de19a1d1e545a0c6f6a27bb9bc2829d4487e769c112d5a6cfb4f1150d",
      "transactionType": "CALL",
      "contractName": "SLMinterOracle",
      "contractAddress": "0xC7f2Cf4845C6db0e1a1e91ED41Bcd0FcC1b0E141",
      "function": "createBrand(string,string,uint256,address)",
      "arguments": [
        "\"Shell\"",
        "\"Gallons\"",
        "744",
        "0xAe443A7dbB2252Ee2AF1b4c9eEE755a1b2417ab4"
      ],
      "transaction": {
        "type": "0x02",
        "from": "0xae443a7dbb2252ee2af1b4c9eee755a1b2417ab4",
        "to": "0xc7f2cf4845c6db0e1a1e91ed41bcd0fcc1b0e141",
        "gas": "0x79a2",
        "value": "0x0",
        "data": "0x920c46c3000000000000000000000000000000000000000000000000000000000000008000000000000000000000000000000000000000000000000000000000000000c000000000000000000000000000000000000000000000000000000000000002e8000000000000000000000000ae443a7dbb2252ee2af1b4c9eee755a1b2417ab400000000000000000000000000000000000000000000000000000000000000055368656c6c000000000000000000000000000000000000000000000000000000000000000000000000000000000000000000000000000000000000000000000747616c6c6f6e7300000000000000000000000000000000000000000000000000",
        "nonce": "0x4",
        "accessList": []
      },
      "additionalContracts": [],
      "isFixedGasLimit": false
    },
    {
      "hash": "0x53a8bdb5e39e481b8a66f9ce6eac80df543d3eb0e2f40497ec485c951eddbe47",
      "transactionType": "CALL",
      "contractName": "SLMinterOracle",
      "contractAddress": "0xC7f2Cf4845C6db0e1a1e91ED41Bcd0FcC1b0E141",
      "function": "createBrand(string,string,uint256,address)",
      "arguments": [
        "\"Regal Cinema\"",
        "\"Points\"",
        "3078",
        "0xAe443A7dbB2252Ee2AF1b4c9eEE755a1b2417ab4"
      ],
      "transaction": {
        "type": "0x02",
        "from": "0xae443a7dbb2252ee2af1b4c9eee755a1b2417ab4",
        "to": "0xc7f2cf4845c6db0e1a1e91ed41bcd0fcc1b0e141",
        "gas": "0x7a05",
        "value": "0x0",
        "data": "0x920c46c3000000000000000000000000000000000000000000000000000000000000008000000000000000000000000000000000000000000000000000000000000000c00000000000000000000000000000000000000000000000000000000000000c06000000000000000000000000ae443a7dbb2252ee2af1b4c9eee755a1b2417ab4000000000000000000000000000000000000000000000000000000000000000c526567616c2043696e656d6100000000000000000000000000000000000000000000000000000000000000000000000000000000000000000000000000000006506f696e74730000000000000000000000000000000000000000000000000000",
        "nonce": "0x5",
        "accessList": []
      },
      "additionalContracts": [],
      "isFixedGasLimit": false
    },
    {
      "hash": "0xbe07b82fb23104126587b16aab731743dfdc1bbe9c54c2f69effee57b65153ab",
      "transactionType": "CALL",
      "contractName": "SLMinterOracle",
      "contractAddress": "0xC7f2Cf4845C6db0e1a1e91ED41Bcd0FcC1b0E141",
      "function": "createBrand(string,string,uint256,address)",
      "arguments": [
        "\"McDonalds\"",
        "\"Points\"",
        "2667",
        "0xAe443A7dbB2252Ee2AF1b4c9eEE755a1b2417ab4"
      ],
      "transaction": {
        "type": "0x02",
        "from": "0xae443a7dbb2252ee2af1b4c9eee755a1b2417ab4",
        "to": "0xc7f2cf4845c6db0e1a1e91ed41bcd0fcc1b0e141",
        "gas": "0x79d4",
        "value": "0x0",
        "data": "0x920c46c3000000000000000000000000000000000000000000000000000000000000008000000000000000000000000000000000000000000000000000000000000000c00000000000000000000000000000000000000000000000000000000000000a6b000000000000000000000000ae443a7dbb2252ee2af1b4c9eee755a1b2417ab400000000000000000000000000000000000000000000000000000000000000094d63446f6e616c647300000000000000000000000000000000000000000000000000000000000000000000000000000000000000000000000000000000000006506f696e74730000000000000000000000000000000000000000000000000000",
        "nonce": "0x6",
        "accessList": []
      },
      "additionalContracts": [],
      "isFixedGasLimit": false
    },
    {
      "hash": "0xf26efe4d249db86fdae602626193f9b0880db31f1c0b870d830d72b378ce69bf",
      "transactionType": "CALL",
      "contractName": "SLMinterOracle",
      "contractAddress": "0xC7f2Cf4845C6db0e1a1e91ED41Bcd0FcC1b0E141",
      "function": "createBrand(string,string,uint256,address)",
      "arguments": [
        "\"Amazon\"",
        "\"Points\"",
        "2280",
        "0xAe443A7dbB2252Ee2AF1b4c9eEE755a1b2417ab4"
      ],
      "transaction": {
        "type": "0x02",
        "from": "0xae443a7dbb2252ee2af1b4c9eee755a1b2417ab4",
        "to": "0xc7f2cf4845c6db0e1a1e91ed41bcd0fcc1b0e141",
        "gas": "0x79a2",
        "value": "0x0",
        "data": "0x920c46c3000000000000000000000000000000000000000000000000000000000000008000000000000000000000000000000000000000000000000000000000000000c000000000000000000000000000000000000000000000000000000000000008e8000000000000000000000000ae443a7dbb2252ee2af1b4c9eee755a1b2417ab40000000000000000000000000000000000000000000000000000000000000006416d617a6f6e00000000000000000000000000000000000000000000000000000000000000000000000000000000000000000000000000000000000000000006506f696e74730000000000000000000000000000000000000000000000000000",
        "nonce": "0x7",
        "accessList": []
      },
      "additionalContracts": [],
      "isFixedGasLimit": false
    },
    {
      "hash": "0xc861d831c9f1f6f1f329f3ec9c5010b94455897c82cb9cac601699baa9b5df68",
      "transactionType": "CALL",
      "contractName": "SLMinterOracle",
      "contractAddress": "0xC7f2Cf4845C6db0e1a1e91ED41Bcd0FcC1b0E141",
      "function": "createBrand(string,string,uint256,address)",
      "arguments": [
        "\"Sephora\"",
        "\"Points\"",
        "2500",
        "0xAe443A7dbB2252Ee2AF1b4c9eEE755a1b2417ab4"
      ],
      "transaction": {
        "type": "0x02",
        "from": "0xae443a7dbb2252ee2af1b4c9eee755a1b2417ab4",
        "to": "0xc7f2cf4845c6db0e1a1e91ed41bcd0fcc1b0e141",
        "gas": "0x79b2",
        "value": "0x0",
        "data": "0x920c46c3000000000000000000000000000000000000000000000000000000000000008000000000000000000000000000000000000000000000000000000000000000c000000000000000000000000000000000000000000000000000000000000009c4000000000000000000000000ae443a7dbb2252ee2af1b4c9eee755a1b2417ab40000000000000000000000000000000000000000000000000000000000000007536570686f7261000000000000000000000000000000000000000000000000000000000000000000000000000000000000000000000000000000000000000006506f696e74730000000000000000000000000000000000000000000000000000",
        "nonce": "0x8",
        "accessList": []
      },
      "additionalContracts": [],
      "isFixedGasLimit": false
    },
    {
      "hash": "0x32b4cfdbe6521134939c31db1cd2b2b77e66657016f6749e8090be1226245e9b",
      "transactionType": "CALL",
      "contractName": "SLMinterOracle",
      "contractAddress": "0xC7f2Cf4845C6db0e1a1e91ED41Bcd0FcC1b0E141",
      "function": "createBrand(string,string,uint256,address)",
      "arguments": [
        "\"Walgreens\"",
        "\"Points\"",
        "3080",
        "0xAe443A7dbB2252Ee2AF1b4c9eEE755a1b2417ab4"
      ],
      "transaction": {
        "type": "0x02",
        "from": "0xae443a7dbb2252ee2af1b4c9eee755a1b2417ab4",
        "to": "0xc7f2cf4845c6db0e1a1e91ed41bcd0fcc1b0e141",
        "gas": "0x79d4",
        "value": "0x0",
        "data": "0x920c46c3000000000000000000000000000000000000000000000000000000000000008000000000000000000000000000000000000000000000000000000000000000c00000000000000000000000000000000000000000000000000000000000000c08000000000000000000000000ae443a7dbb2252ee2af1b4c9eee755a1b2417ab4000000000000000000000000000000000000000000000000000000000000000957616c677265656e7300000000000000000000000000000000000000000000000000000000000000000000000000000000000000000000000000000000000006506f696e74730000000000000000000000000000000000000000000000000000",
        "nonce": "0x9",
        "accessList": []
      },
      "additionalContracts": [],
      "isFixedGasLimit": false
    },
    {
      "hash": "0xc8a01eed3fe1721b876313bdcc1ad0b3862586a7bac1553155b3be75dfef6075",
      "transactionType": "CALL",
      "contractName": "SLMinterOracle",
      "contractAddress": "0xC7f2Cf4845C6db0e1a1e91ED41Bcd0FcC1b0E141",
      "function": "createBrand(string,string,uint256,address)",
      "arguments": [
        "\"Lyft\"",
        "\"Points\"",
        "2500",
        "0xAe443A7dbB2252Ee2AF1b4c9eEE755a1b2417ab4"
      ],
      "transaction": {
        "type": "0x02",
        "from": "0xae443a7dbb2252ee2af1b4c9eee755a1b2417ab4",
        "to": "0xc7f2cf4845c6db0e1a1e91ed41bcd0fcc1b0e141",
        "gas": "0x7981",
        "value": "0x0",
        "data": "0x920c46c3000000000000000000000000000000000000000000000000000000000000008000000000000000000000000000000000000000000000000000000000000000c000000000000000000000000000000000000000000000000000000000000009c4000000000000000000000000ae443a7dbb2252ee2af1b4c9eee755a1b2417ab400000000000000000000000000000000000000000000000000000000000000044c796674000000000000000000000000000000000000000000000000000000000000000000000000000000000000000000000000000000000000000000000006506f696e74730000000000000000000000000000000000000000000000000000",
        "nonce": "0xa",
        "accessList": []
      },
      "additionalContracts": [],
      "isFixedGasLimit": false
    },
    {
      "hash": "0x9c282cef5c7263daa043451e553b7911715eebb43764f0cc394e985436d209e7",
      "transactionType": "CALL",
      "contractName": "SLMinterOracle",
      "contractAddress": "0xC7f2Cf4845C6db0e1a1e91ED41Bcd0FcC1b0E141",
      "function": "returnCard(address)",
      "arguments": [
        "0x67cDE3E2d3e6e9d5413bD1Ecb01DC71BA3cF86E7"
      ],
      "transaction": {
        "type": "0x02",
        "from": "0xae443a7dbb2252ee2af1b4c9eee755a1b2417ab4",
        "to": "0xc7f2cf4845c6db0e1a1e91ed41bcd0fcc1b0e141",
        "gas": "0x73a2",
        "value": "0x0",
        "data": "0x056dc4fc00000000000000000000000067cde3e2d3e6e9d5413bd1ecb01dc71ba3cf86e7",
        "nonce": "0xb",
        "accessList": []
      },
      "additionalContracts": [],
      "isFixedGasLimit": false
    },
    {
      "hash": "0xc25ba8f1b10f78f01746ffbc2c0374513babff7ac4c99e4b151896ec2ac6e98f",
      "transactionType": "CALL",
      "contractName": "SLMinterOracle",
      "contractAddress": "0xC7f2Cf4845C6db0e1a1e91ED41Bcd0FcC1b0E141",
      "function": "returnCard(address)",
      "arguments": [
        "0x9bF642ef0bc3f1544b1776251AeAc4fF216E3384"
      ],
      "transaction": {
        "type": "0x02",
        "from": "0xae443a7dbb2252ee2af1b4c9eee755a1b2417ab4",
        "to": "0xc7f2cf4845c6db0e1a1e91ed41bcd0fcc1b0e141",
        "gas": "0x73a2",
        "value": "0x0",
        "data": "0x056dc4fc0000000000000000000000009bf642ef0bc3f1544b1776251aeac4ff216e3384",
        "nonce": "0xc",
        "accessList": []
      },
      "additionalContracts": [],
      "isFixedGasLimit": false
    },
    {
      "hash": "0xbb03340f4286119db7e2999b63baa743846cb729b342d19b806cd9f6a9b0250a",
      "transactionType": "CALL",
      "contractName": "SLMinterOracle",
      "contractAddress": "0xC7f2Cf4845C6db0e1a1e91ED41Bcd0FcC1b0E141",
      "function": "returnCard(address)",
      "arguments": [
        "0xEedBb16327A403a5229b6F95217dE9f338d74846"
      ],
      "transaction": {
        "type": "0x02",
        "from": "0xae443a7dbb2252ee2af1b4c9eee755a1b2417ab4",
        "to": "0xc7f2cf4845c6db0e1a1e91ed41bcd0fcc1b0e141",
        "gas": "0x73a2",
        "value": "0x0",
        "data": "0x056dc4fc000000000000000000000000eedbb16327a403a5229b6f95217de9f338d74846",
        "nonce": "0xd",
        "accessList": []
      },
      "additionalContracts": [],
      "isFixedGasLimit": false
    },
    {
      "hash": "0x8fcd7e17a7a20ef88ec560aeaeb9a851bd2526701c5631871e680e1af26be10e",
      "transactionType": "CALL",
      "contractName": "SLMinterOracle",
      "contractAddress": "0xC7f2Cf4845C6db0e1a1e91ED41Bcd0FcC1b0E141",
      "function": "returnCard(address)",
      "arguments": [
        "0x2B4707A92412D58a82d89EeAD6A5C7e35ce61450"
      ],
      "transaction": {
        "type": "0x02",
        "from": "0xae443a7dbb2252ee2af1b4c9eee755a1b2417ab4",
        "to": "0xc7f2cf4845c6db0e1a1e91ed41bcd0fcc1b0e141",
        "gas": "0x73a2",
        "value": "0x0",
        "data": "0x056dc4fc0000000000000000000000002b4707a92412d58a82d89eead6a5c7e35ce61450",
        "nonce": "0xe",
        "accessList": []
      },
      "additionalContracts": [],
      "isFixedGasLimit": false
    },
    {
      "hash": "0xd9c3319e703c27173d3eeeeb13c4867214161ba7f1380ddebd8b9070387b3b29",
      "transactionType": "CALL",
      "contractName": "SLMinterOracle",
      "contractAddress": "0xC7f2Cf4845C6db0e1a1e91ED41Bcd0FcC1b0E141",
      "function": "returnCard(address)",
      "arguments": [
        "0x1e8b6a99b4824793639d2873366c56D445a5f08d"
      ],
      "transaction": {
        "type": "0x02",
        "from": "0xae443a7dbb2252ee2af1b4c9eee755a1b2417ab4",
        "to": "0xc7f2cf4845c6db0e1a1e91ed41bcd0fcc1b0e141",
        "gas": "0x73a2",
        "value": "0x0",
        "data": "0x056dc4fc0000000000000000000000001e8b6a99b4824793639d2873366c56d445a5f08d",
        "nonce": "0xf",
        "accessList": []
      },
      "additionalContracts": [],
      "isFixedGasLimit": false
    },
    {
      "hash": "0x3e7c7f45b8cb535cf357a673ed3c0e5ed60bc6f817114925ffbe77de0333be5e",
      "transactionType": "CALL",
      "contractName": "SLMinterOracle",
      "contractAddress": "0xC7f2Cf4845C6db0e1a1e91ED41Bcd0FcC1b0E141",
      "function": "returnCard(address)",
      "arguments": [
        "0x7a68E92dF1aEF1F65c726810746Ed2a978434BbC"
      ],
      "transaction": {
        "type": "0x02",
        "from": "0xae443a7dbb2252ee2af1b4c9eee755a1b2417ab4",
        "to": "0xc7f2cf4845c6db0e1a1e91ed41bcd0fcc1b0e141",
        "gas": "0x73a2",
        "value": "0x0",
        "data": "0x056dc4fc0000000000000000000000007a68e92df1aef1f65c726810746ed2a978434bbc",
        "nonce": "0x10",
        "accessList": []
      },
      "additionalContracts": [],
      "isFixedGasLimit": false
    },
    {
      "hash": "0xde198f1e1f7d2a1733f6bb3e1422313d55576af25caa43c6ce6d041770504075",
      "transactionType": "CALL",
      "contractName": "SLMinterOracle",
      "contractAddress": "0xC7f2Cf4845C6db0e1a1e91ED41Bcd0FcC1b0E141",
      "function": "returnCard(address)",
      "arguments": [
        "0x62Bd6F648Efbbe964Ce38592640C71a29d586eE9"
      ],
      "transaction": {
        "type": "0x02",
        "from": "0xae443a7dbb2252ee2af1b4c9eee755a1b2417ab4",
        "to": "0xc7f2cf4845c6db0e1a1e91ed41bcd0fcc1b0e141",
        "gas": "0x73a2",
        "value": "0x0",
        "data": "0x056dc4fc00000000000000000000000062bd6f648efbbe964ce38592640c71a29d586ee9",
        "nonce": "0x11",
        "accessList": []
      },
      "additionalContracts": [],
      "isFixedGasLimit": false
    },
    {
      "hash": "0x01d85ac86a7fe90453413e7b65a5e31d7cee1da5b15cc033980ed9f1a9162b8e",
      "transactionType": "CALL",
      "contractName": "SLMinterOracle",
      "contractAddress": "0xC7f2Cf4845C6db0e1a1e91ED41Bcd0FcC1b0E141",
      "function": "returnCard(address)",
      "arguments": [
        "0x67a6e25c585E57F8Ef1a573f734a124cE60cb583"
      ],
      "transaction": {
        "type": "0x02",
        "from": "0xae443a7dbb2252ee2af1b4c9eee755a1b2417ab4",
        "to": "0xc7f2cf4845c6db0e1a1e91ed41bcd0fcc1b0e141",
        "gas": "0x73a2",
        "value": "0x0",
        "data": "0x056dc4fc00000000000000000000000067a6e25c585e57f8ef1a573f734a124ce60cb583",
        "nonce": "0x12",
        "accessList": []
      },
      "additionalContracts": [],
      "isFixedGasLimit": false
    },
    {
      "hash": "0xb728455020afacb4e0fb27d915326eb755f4842ea15b76fd3ccac9da92b77e86",
      "transactionType": "CALL",
      "contractName": "SLMinterOracle",
      "contractAddress": "0xC7f2Cf4845C6db0e1a1e91ED41Bcd0FcC1b0E141",
      "function": "returnCard(address)",
      "arguments": [
        "0xb6087b053C85389A143E69B3f7420bed8059A5fd"
      ],
      "transaction": {
        "type": "0x02",
        "from": "0xae443a7dbb2252ee2af1b4c9eee755a1b2417ab4",
        "to": "0xc7f2cf4845c6db0e1a1e91ed41bcd0fcc1b0e141",
        "gas": "0x73a2",
        "value": "0x0",
        "data": "0x056dc4fc000000000000000000000000b6087b053c85389a143e69b3f7420bed8059a5fd",
        "nonce": "0x13",
        "accessList": []
      },
      "additionalContracts": [],
      "isFixedGasLimit": false
    },
    {
      "hash": "0x3f416470811b4579c471e88b2277953f5df5b272ea751c75d4ce3f35e1168fff",
      "transactionType": "CALL",
      "contractName": "SLMinterOracle",
      "contractAddress": "0xC7f2Cf4845C6db0e1a1e91ED41Bcd0FcC1b0E141",
      "function": "returnCard(address)",
      "arguments": [
        "0x4a78bf6EF4A5472C3c73DE92e6AB876dbbbAf98F"
      ],
      "transaction": {
        "type": "0x02",
        "from": "0xae443a7dbb2252ee2af1b4c9eee755a1b2417ab4",
        "to": "0xc7f2cf4845c6db0e1a1e91ed41bcd0fcc1b0e141",
        "gas": "0x73a2",
        "value": "0x0",
        "data": "0x056dc4fc0000000000000000000000004a78bf6ef4a5472c3c73de92e6ab876dbbbaf98f",
        "nonce": "0x14",
        "accessList": []
      },
      "additionalContracts": [],
      "isFixedGasLimit": false
    },
    {
      "hash": "0x02c5a0b8fd8900896e4a75f179c621c6b76187ad17833e20d8502c901ba91e3d",
      "transactionType": "CALL",
      "contractName": "SLERC20",
      "contractAddress": "0x67cDE3E2d3e6e9d5413bD1Ecb01DC71BA3cF86E7",
      "function": "approve(address,uint256)",
      "arguments": [
        "0xC532a74256D3Db42D0Bf7a0400fEFDbad7694008",
        "52000000000000000000000"
      ],
      "transaction": {
        "type": "0x02",
        "from": "0xae443a7dbb2252ee2af1b4c9eee755a1b2417ab4",
        "to": "0x67cde3e2d3e6e9d5413bd1ecb01dc71ba3cf86e7",
        "gas": "0x74c6",
        "value": "0x0",
        "data": "0x095ea7b3000000000000000000000000c532a74256d3db42d0bf7a0400fefdbad7694008000000000000000000000000000000000000000000000b02ecf74c3138800000",
        "nonce": "0x15",
        "accessList": []
      },
      "additionalContracts": [],
      "isFixedGasLimit": false
    },
    {
      "hash": "0x73e0815747ff7bc77a2e756f8391059f2f85032350beaef5ee9069afed66ca20",
      "transactionType": "CALL",
      "contractName": "SLERC20",
      "contractAddress": "0x9bF642ef0bc3f1544b1776251AeAc4fF216E3384",
      "function": "approve(address,uint256)",
      "arguments": [
        "0xC532a74256D3Db42D0Bf7a0400fEFDbad7694008",
        "2440000000000000000000"
      ],
      "transaction": {
        "type": "0x02",
        "from": "0xae443a7dbb2252ee2af1b4c9eee755a1b2417ab4",
        "to": "0x9bf642ef0bc3f1544b1776251aeac4ff216e3384",
        "gas": "0x74b7",
        "value": "0x0",
        "data": "0x095ea7b3000000000000000000000000c532a74256d3db42d0bf7a0400fefdbad769400800000000000000000000000000000000000000000000008445cd605371200000",
        "nonce": "0x16",
        "accessList": []
      },
      "additionalContracts": [],
      "isFixedGasLimit": false
    },
    {
      "hash": "0xb35ea5d2bb72880103fab2e726ed41ebe57cdbd67405e2b16e19d8d3a0ca77e9",
      "transactionType": "CALL",
      "contractName": "SLERC20",
      "contractAddress": "0xEedBb16327A403a5229b6F95217dE9f338d74846",
      "function": "approve(address,uint256)",
      "arguments": [
        "0xC532a74256D3Db42D0Bf7a0400fEFDbad7694008",
        "2300000000000000000000"
      ],
      "transaction": {
        "type": "0x02",
        "from": "0xae443a7dbb2252ee2af1b4c9eee755a1b2417ab4",
        "to": "0xeedbb16327a403a5229b6f95217de9f338d74846",
        "gas": "0x74b7",
        "value": "0x0",
        "data": "0x095ea7b3000000000000000000000000c532a74256d3db42d0bf7a0400fefdbad769400800000000000000000000000000000000000000000000007caee97613e6700000",
        "nonce": "0x17",
        "accessList": []
      },
      "additionalContracts": [],
      "isFixedGasLimit": false
    },
    {
      "hash": "0x35e18c9d612cfe65e97ae749ab0eaff241f8b128dec38ed2571d749d371d55c7",
      "transactionType": "CALL",
      "contractName": "SLERC20",
      "contractAddress": "0x2B4707A92412D58a82d89EeAD6A5C7e35ce61450",
      "function": "approve(address,uint256)",
      "arguments": [
        "0xC532a74256D3Db42D0Bf7a0400fEFDbad7694008",
        "744000000000000000000"
      ],
      "transaction": {
        "type": "0x02",
        "from": "0xae443a7dbb2252ee2af1b4c9eee755a1b2417ab4",
        "to": "0x2b4707a92412d58a82d89eead6a5c7e35ce61450",
        "gas": "0x74b7",
        "value": "0x0",
        "data": "0x095ea7b3000000000000000000000000c532a74256d3db42d0bf7a0400fefdbad76940080000000000000000000000000000000000000000000000285512fa1e7aa00000",
        "nonce": "0x18",
        "accessList": []
      },
      "additionalContracts": [],
      "isFixedGasLimit": false
    },
    {
      "hash": "0x66c5b410c843929a86bbf331c5967124a085f9bcb2e114bcd6d95ccfe0971535",
      "transactionType": "CALL",
      "contractName": "SLERC20",
      "contractAddress": "0x1e8b6a99b4824793639d2873366c56D445a5f08d",
      "function": "approve(address,uint256)",
      "arguments": [
        "0xC532a74256D3Db42D0Bf7a0400fEFDbad7694008",
        "3078000000000000000000"
      ],
      "transaction": {
        "type": "0x02",
        "from": "0xae443a7dbb2252ee2af1b4c9eee755a1b2417ab4",
        "to": "0x1e8b6a99b4824793639d2873366c56d445a5f08d",
        "gas": "0x74b7",
        "value": "0x0",
        "data": "0x095ea7b3000000000000000000000000c532a74256d3db42d0bf7a0400fefdbad76940080000000000000000000000000000000000000000000000a6dbd4b40e9c580000",
        "nonce": "0x19",
        "accessList": []
      },
      "additionalContracts": [],
      "isFixedGasLimit": false
    },
    {
      "hash": "0x1b7faf581fc2bdd301bab9df92da7c37d8834f890f7e7b07e1dc2b759aa2ac83",
      "transactionType": "CALL",
      "contractName": "SLERC20",
      "contractAddress": "0x7a68E92dF1aEF1F65c726810746Ed2a978434BbC",
      "function": "approve(address,uint256)",
      "arguments": [
        "0xC532a74256D3Db42D0Bf7a0400fEFDbad7694008",
        "2667000000000000000000"
      ],
      "transaction": {
        "type": "0x02",
        "from": "0xae443a7dbb2252ee2af1b4c9eee755a1b2417ab4",
        "to": "0x7a68e92df1aef1f65c726810746ed2a978434bbc",
        "gas": "0x74b7",
        "value": "0x0",
        "data": "0x095ea7b3000000000000000000000000c532a74256d3db42d0bf7a0400fefdbad7694008000000000000000000000000000000000000000000000090940f61a0decc0000",
        "nonce": "0x1a",
        "accessList": []
      },
      "additionalContracts": [],
      "isFixedGasLimit": false
    },
    {
      "hash": "0x8ba4a45480f7131945b846148951f48c93dc41b6139692796c3740e4e8b6a48c",
      "transactionType": "CALL",
      "contractName": "SLERC20",
      "contractAddress": "0x62Bd6F648Efbbe964Ce38592640C71a29d586eE9",
      "function": "approve(address,uint256)",
      "arguments": [
        "0xC532a74256D3Db42D0Bf7a0400fEFDbad7694008",
        "2280000000000000000000"
      ],
      "transaction": {
        "type": "0x02",
        "from": "0xae443a7dbb2252ee2af1b4c9eee755a1b2417ab4",
        "to": "0x62bd6f648efbbe964ce38592640c71a29d586ee9",
        "gas": "0x74b7",
        "value": "0x0",
        "data": "0x095ea7b3000000000000000000000000c532a74256d3db42d0bf7a0400fefdbad769400800000000000000000000000000000000000000000000007b995b300ad2a00000",
        "nonce": "0x1b",
        "accessList": []
      },
      "additionalContracts": [],
      "isFixedGasLimit": false
    },
    {
      "hash": "0x852e6f3a206f996c99f1d66f18434029964eea85091a0e6126fcbee615791074",
      "transactionType": "CALL",
      "contractName": "SLERC20",
      "contractAddress": "0x67a6e25c585E57F8Ef1a573f734a124cE60cb583",
      "function": "approve(address,uint256)",
      "arguments": [
        "0xC532a74256D3Db42D0Bf7a0400fEFDbad7694008",
        "2500000000000000000000"
      ],
      "transaction": {
        "type": "0x02",
        "from": "0xae443a7dbb2252ee2af1b4c9eee755a1b2417ab4",
        "to": "0x67a6e25c585e57f8ef1a573f734a124ce60cb583",
        "gas": "0x74b7",
        "value": "0x0",
        "data": "0x095ea7b3000000000000000000000000c532a74256d3db42d0bf7a0400fefdbad76940080000000000000000000000000000000000000000000000878678326eac900000",
        "nonce": "0x1c",
        "accessList": []
      },
      "additionalContracts": [],
      "isFixedGasLimit": false
    },
    {
      "hash": "0x2e9080277323186916adbd812750c59d179fb9bcb368dd569dc214c1ab8fa4d2",
      "transactionType": "CALL",
      "contractName": "SLERC20",
      "contractAddress": "0xb6087b053C85389A143E69B3f7420bed8059A5fd",
      "function": "approve(address,uint256)",
      "arguments": [
        "0xC532a74256D3Db42D0Bf7a0400fEFDbad7694008",
        "3080000000000000000000"
      ],
      "transaction": {
        "type": "0x02",
        "from": "0xae443a7dbb2252ee2af1b4c9eee755a1b2417ab4",
        "to": "0xb6087b053c85389a143e69b3f7420bed8059a5fd",
        "gas": "0x74b7",
        "value": "0x0",
        "data": "0x095ea7b3000000000000000000000000c532a74256d3db42d0bf7a0400fefdbad76940080000000000000000000000000000000000000000000000a6f7962175eb200000",
        "nonce": "0x1d",
        "accessList": []
      },
      "additionalContracts": [],
      "isFixedGasLimit": false
    },
    {
      "hash": "0xff8854dffc8839a14180bc72fe8eaff9fc3975a057cb7411b1ff2df39b2b4994",
      "transactionType": "CALL",
      "contractName": "SLERC20",
      "contractAddress": "0x4a78bf6EF4A5472C3c73DE92e6AB876dbbbAf98F",
      "function": "approve(address,uint256)",
      "arguments": [
        "0xC532a74256D3Db42D0Bf7a0400fEFDbad7694008",
        "2500000000000000000000"
      ],
      "transaction": {
        "type": "0x02",
        "from": "0xae443a7dbb2252ee2af1b4c9eee755a1b2417ab4",
        "to": "0x4a78bf6ef4a5472c3c73de92e6ab876dbbbaf98f",
        "gas": "0x74b7",
        "value": "0x0",
        "data": "0x095ea7b3000000000000000000000000c532a74256d3db42d0bf7a0400fefdbad76940080000000000000000000000000000000000000000000000878678326eac900000",
        "nonce": "0x1e",
        "accessList": []
      },
      "additionalContracts": [],
      "isFixedGasLimit": false
    }
  ],
  "receipts": [
    {
      "transactionHash": "0x0107309790981b1c526f7686d5291684d34c292fb21291370c865f7df539df59",
      "transactionIndex": "0x0",
      "blockHash": "0xc4f5a4e04208697f0ff50416a9994aeb5ae88e2e02a5d6b91137d13941db3c1d",
      "blockNumber": "0x56a9be",
      "from": "0xAe443A7dbB2252Ee2AF1b4c9eEE755a1b2417ab4",
      "to": "0xC7f2Cf4845C6db0e1a1e91ED41Bcd0FcC1b0E141",
      "cumulativeGasUsed": "0x5804",
      "gasUsed": "0x5804",
      "contractAddress": null,
      "logs": [],
      "status": "0x1",
      "logsBloom": "0x00000000000000000000000000000000000000000000000000000000000000000000000000000000000000000000000000000000000000000000000000000000000000000000000000000000000000000000000000000000000000000000000000000000000000000000000000000000000000000000000000000000000000000000000000000000000000000000000000000000000000000000000000000000000000000000000000000000000000000000000000000000000000000000000000000000000000000000000000000000000000000000000000000000000000000000000000000000000000000000000000000000000000000000000000000000",
      "type": "0x2",
      "effectiveGasPrice": "0xb303f2f0"
    },
    {
      "transactionHash": "0xbc422e20fcfa79af92427cba36fa6b7d8877ebbcb0bca4121da410f219aa53b6",
      "transactionIndex": "0x0",
      "blockHash": "0xd2b8869895911e4a0404ddcbeafb13b61bb9471efb203bdd48491f0d7ec431b3",
      "blockNumber": "0x56a9bf",
      "from": "0xAe443A7dbB2252Ee2AF1b4c9eEE755a1b2417ab4",
      "to": "0xC7f2Cf4845C6db0e1a1e91ED41Bcd0FcC1b0E141",
      "cumulativeGasUsed": "0x57f8",
      "gasUsed": "0x57f8",
      "contractAddress": null,
      "logs": [],
      "status": "0x1",
      "logsBloom": "0x00000000000000000000000000000000000000000000000000000000000000000000000000000000000000000000000000000000000000000000000000000000000000000000000000000000000000000000000000000000000000000000000000000000000000000000000000000000000000000000000000000000000000000000000000000000000000000000000000000000000000000000000000000000000000000000000000000000000000000000000000000000000000000000000000000000000000000000000000000000000000000000000000000000000000000000000000000000000000000000000000000000000000000000000000000000",
      "type": "0x2",
      "effectiveGasPrice": "0xb2fd82cd"
    },
    {
      "transactionHash": "0xa605044877e8c74216b9abde57f08f948f3f3377f8f06556f59717b41329893a",
      "transactionIndex": "0x0",
      "blockHash": "0x38e0c303007995854769d96e06b50d8f337994269bc49cbbbd6cbd3e511416b6",
      "blockNumber": "0x56a9c0",
      "from": "0xAe443A7dbB2252Ee2AF1b4c9eEE755a1b2417ab4",
      "to": "0xC7f2Cf4845C6db0e1a1e91ED41Bcd0FcC1b0E141",
      "cumulativeGasUsed": "0x5834",
      "gasUsed": "0x5834",
      "contractAddress": null,
      "logs": [],
      "status": "0x1",
      "logsBloom": "0x00000000000000000000000000000000000000000000000000000000000000000000000000000000000000000000000000000000000000000000000000000000000000000000000000000000000000000000000000000000000000000000000000000000000000000000000000000000000000000000000000000000000000000000000000000000000000000000000000000000000000000000000000000000000000000000000000000000000000000000000000000000000000000000000000000000000000000000000000000000000000000000000000000000000000000000000000000000000000000000000000000000000000000000000000000000",
      "type": "0x2",
      "effectiveGasPrice": "0xb2f7e05f"
    },
    {
      "transactionHash": "0x0a47ceb634c9e20b7e8b946be649920a8895b7eea0b07656668ea10c8ef5741e",
      "transactionIndex": "0x0",
      "blockHash": "0x8ed6484007a7ac9fdebd0e557973b4be2566d5362a5b0329fb506a4807a82084",
      "blockNumber": "0x56a9c1",
      "from": "0xAe443A7dbB2252Ee2AF1b4c9eEE755a1b2417ab4",
      "to": "0xC7f2Cf4845C6db0e1a1e91ED41Bcd0FcC1b0E141",
      "cumulativeGasUsed": "0x581c",
      "gasUsed": "0x581c",
      "contractAddress": null,
      "logs": [],
      "status": "0x1",
      "logsBloom": "0x00000000000000000000000000000000000000000000000000000000000000000000000000000000000000000000000000000000000000000000000000000000000000000000000000000000000000000000000000000000000000000000000000000000000000000000000000000000000000000000000000000000000000000000000000000000000000000000000000000000000000000000000000000000000000000000000000000000000000000000000000000000000000000000000000000000000000000000000000000000000000000000000000000000000000000000000000000000000000000000000000000000000000000000000000000000",
      "type": "0x2",
      "effectiveGasPrice": "0xb2f2f1fb"
    },
    {
      "transactionHash": "0xc1cf115de19a1d1e545a0c6f6a27bb9bc2829d4487e769c112d5a6cfb4f1150d",
      "transactionIndex": "0x0",
      "blockHash": "0x412c43e9baf1a1401342bd485fdf93bdb8be869b34580997ae94c313ce54330c",
      "blockNumber": "0x56a9c2",
      "from": "0xAe443A7dbB2252Ee2AF1b4c9eEE755a1b2417ab4",
      "to": "0xC7f2Cf4845C6db0e1a1e91ED41Bcd0FcC1b0E141",
      "cumulativeGasUsed": "0x5810",
      "gasUsed": "0x5810",
      "contractAddress": null,
      "logs": [],
      "status": "0x1",
      "logsBloom": "0x00000000000000000000000000000000000000000000000000000000000000000000000000000000000000000000000000000000000000000000000000000000000000000000000000000000000000000000000000000000000000000000000000000000000000000000000000000000000000000000000000000000000000000000000000000000000000000000000000000000000000000000000000000000000000000000000000000000000000000000000000000000000000000000000000000000000000000000000000000000000000000000000000000000000000000000000000000000000000000000000000000000000000000000000000000000",
      "type": "0x2",
      "effectiveGasPrice": "0xb2eea126"
    },
    {
      "transactionHash": "0x53a8bdb5e39e481b8a66f9ce6eac80df543d3eb0e2f40497ec485c951eddbe47",
      "transactionIndex": "0x0",
      "blockHash": "0x605c48f050d912b6b63ccb5567e557fdd95f0bbda6ae9c345b30f7a1ef3ede26",
      "blockNumber": "0x56a9c3",
      "from": "0xAe443A7dbB2252Ee2AF1b4c9eEE755a1b2417ab4",
      "to": "0xC7f2Cf4845C6db0e1a1e91ED41Bcd0FcC1b0E141",
      "cumulativeGasUsed": "0x5858",
      "gasUsed": "0x5858",
      "contractAddress": null,
      "logs": [],
      "status": "0x1",
      "logsBloom": "0x00000000000000000000000000000000000000000000000000000000000000000000000000000000000000000000000000000000000000000000000000000000000000000000000000000000000000000000000000000000000000000000000000000000000000000000000000000000000000000000000000000000000000000000000000000000000000000000000000000000000000000000000000000000000000000000000000000000000000000000000000000000000000000000000000000000000000000000000000000000000000000000000000000000000000000000000000000000000000000000000000000000000000000000000000000000",
      "type": "0x2",
      "effectiveGasPrice": "0xb2eada36"
    },
    {
      "transactionHash": "0xbe07b82fb23104126587b16aab731743dfdc1bbe9c54c2f69effee57b65153ab",
      "transactionIndex": "0x0",
      "blockHash": "0x82d76e7dc68bbf5ba73dec70274d5e0ba24e3d9f0866c4af17721efe72c0b66b",
      "blockNumber": "0x56a9c4",
      "from": "0xAe443A7dbB2252Ee2AF1b4c9eEE755a1b2417ab4",
      "to": "0xC7f2Cf4845C6db0e1a1e91ED41Bcd0FcC1b0E141",
      "cumulativeGasUsed": "0x5834",
      "gasUsed": "0x5834",
      "contractAddress": null,
      "logs": [],
      "status": "0x1",
      "logsBloom": "0x00000000000000000000000000000000000000000000000000000000000000000000000000000000000000000000000000000000000000000000000000000000000000000000000000000000000000000000000000000000000000000000000000000000000000000000000000000000000000000000000000000000000000000000000000000000000000000000000000000000000000000000000000000000000000000000000000000000000000000000000000000000000000000000000000000000000000000000000000000000000000000000000000000000000000000000000000000000000000000000000000000000000000000000000000000000",
      "type": "0x2",
      "effectiveGasPrice": "0xb2e78bf7"
    },
    {
      "transactionHash": "0xf26efe4d249db86fdae602626193f9b0880db31f1c0b870d830d72b378ce69bf",
      "transactionIndex": "0x1",
      "blockHash": "0x82d76e7dc68bbf5ba73dec70274d5e0ba24e3d9f0866c4af17721efe72c0b66b",
      "blockNumber": "0x56a9c4",
      "from": "0xAe443A7dbB2252Ee2AF1b4c9eEE755a1b2417ab4",
      "to": "0xC7f2Cf4845C6db0e1a1e91ED41Bcd0FcC1b0E141",
      "cumulativeGasUsed": "0xb044",
      "gasUsed": "0xb044",
      "contractAddress": null,
      "logs": [],
      "status": "0x1",
      "logsBloom": "0x00000000000000000000000000000000000000000000000000000000000000000000000000000000000000000000000000000000000000000000000000000000000000000000000000000000000000000000000000000000000000000000000000000000000000000000000000000000000000000000000000000000000000000000000000000000000000000000000000000000000000000000000000000000000000000000000000000000000000000000000000000000000000000000000000000000000000000000000000000000000000000000000000000000000000000000000000000000000000000000000000000000000000000000000000000000",
      "type": "0x2",
      "effectiveGasPrice": "0xb2e78bf7"
    },
    {
      "transactionHash": "0xc861d831c9f1f6f1f329f3ec9c5010b94455897c82cb9cac601699baa9b5df68",
      "transactionIndex": "0x2",
      "blockHash": "0x82d76e7dc68bbf5ba73dec70274d5e0ba24e3d9f0866c4af17721efe72c0b66b",
      "blockNumber": "0x56a9c4",
      "from": "0xAe443A7dbB2252Ee2AF1b4c9eEE755a1b2417ab4",
      "to": "0xC7f2Cf4845C6db0e1a1e91ED41Bcd0FcC1b0E141",
      "cumulativeGasUsed": "0x10860",
      "gasUsed": "0x10860",
      "contractAddress": null,
      "logs": [],
      "status": "0x1",
      "logsBloom": "0x00000000000000000000000000000000000000000000000000000000000000000000000000000000000000000000000000000000000000000000000000000000000000000000000000000000000000000000000000000000000000000000000000000000000000000000000000000000000000000000000000000000000000000000000000000000000000000000000000000000000000000000000000000000000000000000000000000000000000000000000000000000000000000000000000000000000000000000000000000000000000000000000000000000000000000000000000000000000000000000000000000000000000000000000000000000",
      "type": "0x2",
      "effectiveGasPrice": "0xb2e78bf7"
    },
    {
      "transactionHash": "0x32b4cfdbe6521134939c31db1cd2b2b77e66657016f6749e8090be1226245e9b",
      "transactionIndex": "0x0",
      "blockHash": "0xee377264d6e00d54d0cf23f2fb7b39a7680b97ae2c36df5a813bd9360d852499",
      "blockNumber": "0x56a9c5",
      "from": "0xAe443A7dbB2252Ee2AF1b4c9eEE755a1b2417ab4",
      "to": "0xC7f2Cf4845C6db0e1a1e91ED41Bcd0FcC1b0E141",
      "cumulativeGasUsed": "0x5834",
      "gasUsed": "0x5834",
      "contractAddress": null,
      "logs": [],
      "status": "0x1",
      "logsBloom": "0x00000000000000000000000000000000000000000000000000000000000000000000000000000000000000000000000000000000000000000000000000000000000000000000000000000000000000000000000000000000000000000000000000000000000000000000000000000000000000000000000000000000000000000000000000000000000000000000000000000000000000000000000000000000000000000000000000000000000000000000000000000000000000000000000000000000000000000000000000000000000000000000000000000000000000000000000000000000000000000000000000000000000000000000000000000000",
      "type": "0x2",
      "effectiveGasPrice": "0xb2e4a991"
    },
    {
      "transactionHash": "0xc8a01eed3fe1721b876313bdcc1ad0b3862586a7bac1553155b3be75dfef6075",
      "transactionIndex": "0x0",
      "blockHash": "0x2da9b147982b35e35ba99fc80bfce4b581f070d18f19737d58f60005c95e87aa",
      "blockNumber": "0x56a9c6",
      "from": "0xAe443A7dbB2252Ee2AF1b4c9eEE755a1b2417ab4",
      "to": "0xC7f2Cf4845C6db0e1a1e91ED41Bcd0FcC1b0E141",
      "cumulativeGasUsed": "0x57f8",
      "gasUsed": "0x57f8",
      "contractAddress": null,
      "logs": [],
      "status": "0x1",
      "logsBloom": "0x00000000000000000000000000000000000000000000000000000000000000000000000000000000000000000000000000000000000000000000000000000000000000000000000000000000000000000000000000000000000000000000000000000000000000000000000000000000000000000000000000000000000000000000000000000000000000000000000000000000000000000000000000000000000000000000000000000000000000000000000000000000000000000000000000000000000000000000000000000000000000000000000000000000000000000000000000000000000000000000000000000000000000000000000000000000",
      "type": "0x2",
      "effectiveGasPrice": "0xb2e2211a"
    },
    {
      "transactionHash": "0x9c282cef5c7263daa043451e553b7911715eebb43764f0cc394e985436d209e7",
      "transactionIndex": "0x1",
      "blockHash": "0x2da9b147982b35e35ba99fc80bfce4b581f070d18f19737d58f60005c95e87aa",
      "blockNumber": "0x56a9c6",
      "from": "0xAe443A7dbB2252Ee2AF1b4c9eEE755a1b2417ab4",
      "to": "0xC7f2Cf4845C6db0e1a1e91ED41Bcd0FcC1b0E141",
      "cumulativeGasUsed": "0xabb0",
      "gasUsed": "0xabb0",
      "contractAddress": null,
      "logs": [],
      "status": "0x1",
      "logsBloom": "0x00000000000000000000000000000000000000000000000000000000000000000000000000000000000000000000000000000000000000000000000000000000000000000000000000000000000000000000000000000000000000000000000000000000000000000000000000000000000000000000000000000000000000000000000000000000000000000000000000000000000000000000000000000000000000000000000000000000000000000000000000000000000000000000000000000000000000000000000000000000000000000000000000000000000000000000000000000000000000000000000000000000000000000000000000000000",
      "type": "0x2",
      "effectiveGasPrice": "0xb2e2211a"
    },
    {
      "transactionHash": "0xc25ba8f1b10f78f01746ffbc2c0374513babff7ac4c99e4b151896ec2ac6e98f",
      "transactionIndex": "0x0",
      "blockHash": "0xf92a989710504be765cd0a13087e5d50bdf605c3c98dcb6353146e74909a4d68",
      "blockNumber": "0x56a9c7",
      "from": "0xAe443A7dbB2252Ee2AF1b4c9eEE755a1b2417ab4",
      "to": "0xC7f2Cf4845C6db0e1a1e91ED41Bcd0FcC1b0E141",
      "cumulativeGasUsed": "0x53b8",
      "gasUsed": "0x53b8",
      "contractAddress": null,
      "logs": [],
      "status": "0x1",
      "logsBloom": "0x00000000000000000000000000000000000000000000000000000000000000000000000000000000000000000000000000000000000000000000000000000000000000000000000000000000000000000000000000000000000000000000000000000000000000000000000000000000000000000000000000000000000000000000000000000000000000000000000000000000000000000000000000000000000000000000000000000000000000000000000000000000000000000000000000000000000000000000000000000000000000000000000000000000000000000000000000000000000000000000000000000000000000000000000000000000",
      "type": "0x2",
      "effectiveGasPrice": "0xb2dfea62"
    },
    {
      "transactionHash": "0xbb03340f4286119db7e2999b63baa743846cb729b342d19b806cd9f6a9b0250a",
      "transactionIndex": "0x1",
      "blockHash": "0xf92a989710504be765cd0a13087e5d50bdf605c3c98dcb6353146e74909a4d68",
      "blockNumber": "0x56a9c7",
      "from": "0xAe443A7dbB2252Ee2AF1b4c9eEE755a1b2417ab4",
      "to": "0xC7f2Cf4845C6db0e1a1e91ED41Bcd0FcC1b0E141",
      "cumulativeGasUsed": "0xa770",
      "gasUsed": "0xa770",
      "contractAddress": null,
      "logs": [],
      "status": "0x1",
      "logsBloom": "0x00000000000000000000000000000000000000000000000000000000000000000000000000000000000000000000000000000000000000000000000000000000000000000000000000000000000000000000000000000000000000000000000000000000000000000000000000000000000000000000000000000000000000000000000000000000000000000000000000000000000000000000000000000000000000000000000000000000000000000000000000000000000000000000000000000000000000000000000000000000000000000000000000000000000000000000000000000000000000000000000000000000000000000000000000000000",
      "type": "0x2",
      "effectiveGasPrice": "0xb2dfea62"
    },
    {
      "transactionHash": "0x8fcd7e17a7a20ef88ec560aeaeb9a851bd2526701c5631871e680e1af26be10e",
      "transactionIndex": "0x2",
      "blockHash": "0xf92a989710504be765cd0a13087e5d50bdf605c3c98dcb6353146e74909a4d68",
      "blockNumber": "0x56a9c7",
      "from": "0xAe443A7dbB2252Ee2AF1b4c9eEE755a1b2417ab4",
      "to": "0xC7f2Cf4845C6db0e1a1e91ED41Bcd0FcC1b0E141",
      "cumulativeGasUsed": "0xfb28",
      "gasUsed": "0xfb28",
      "contractAddress": null,
      "logs": [],
      "status": "0x1",
      "logsBloom": "0x00000000000000000000000000000000000000000000000000000000000000000000000000000000000000000000000000000000000000000000000000000000000000000000000000000000000000000000000000000000000000000000000000000000000000000000000000000000000000000000000000000000000000000000000000000000000000000000000000000000000000000000000000000000000000000000000000000000000000000000000000000000000000000000000000000000000000000000000000000000000000000000000000000000000000000000000000000000000000000000000000000000000000000000000000000000",
      "type": "0x2",
      "effectiveGasPrice": "0xb2dfea62"
    },
    {
      "transactionHash": "0xd9c3319e703c27173d3eeeeb13c4867214161ba7f1380ddebd8b9070387b3b29",
      "transactionIndex": "0x3",
      "blockHash": "0xf92a989710504be765cd0a13087e5d50bdf605c3c98dcb6353146e74909a4d68",
      "blockNumber": "0x56a9c7",
      "from": "0xAe443A7dbB2252Ee2AF1b4c9eEE755a1b2417ab4",
      "to": "0xC7f2Cf4845C6db0e1a1e91ED41Bcd0FcC1b0E141",
      "cumulativeGasUsed": "0x14ee0",
      "gasUsed": "0x14ee0",
      "contractAddress": null,
      "logs": [],
      "status": "0x1",
      "logsBloom": "0x00000000000000000000000000000000000000000000000000000000000000000000000000000000000000000000000000000000000000000000000000000000000000000000000000000000000000000000000000000000000000000000000000000000000000000000000000000000000000000000000000000000000000000000000000000000000000000000000000000000000000000000000000000000000000000000000000000000000000000000000000000000000000000000000000000000000000000000000000000000000000000000000000000000000000000000000000000000000000000000000000000000000000000000000000000000",
      "type": "0x2",
      "effectiveGasPrice": "0xb2dfea62"
    },
    {
      "transactionHash": "0x3e7c7f45b8cb535cf357a673ed3c0e5ed60bc6f817114925ffbe77de0333be5e",
      "transactionIndex": "0x0",
      "blockHash": "0x6949f5fe275e3b8be2d0c92aa3a1f9deadcc30c136be7daa765a4d5ed0703aac",
      "blockNumber": "0x56a9c8",
      "from": "0xAe443A7dbB2252Ee2AF1b4c9eEE755a1b2417ab4",
      "to": "0xC7f2Cf4845C6db0e1a1e91ED41Bcd0FcC1b0E141",
      "cumulativeGasUsed": "0x53b8",
      "gasUsed": "0x53b8",
      "contractAddress": null,
      "logs": [],
      "status": "0x1",
      "logsBloom": "0x00000000000000000000000000000000000000000000000000000000000000000000000000000000000000000000000000000000000000000000000000000000000000000000000000000000000000000000000000000000000000000000000000000000000000000000000000000000000000000000000000000000000000000000000000000000000000000000000000000000000000000000000000000000000000000000000000000000000000000000000000000000000000000000000000000000000000000000000000000000000000000000000000000000000000000000000000000000000000000000000000000000000000000000000000000000",
      "type": "0x2",
      "effectiveGasPrice": "0xb2ddfbae"
    },
    {
      "transactionHash": "0xde198f1e1f7d2a1733f6bb3e1422313d55576af25caa43c6ce6d041770504075",
      "transactionIndex": "0x0",
      "blockHash": "0xc2f7c447796e4422136d54e2be72d2b63a0a5dfa45365871b2df3ffe55146879",
      "blockNumber": "0x56a9c9",
      "from": "0xAe443A7dbB2252Ee2AF1b4c9eEE755a1b2417ab4",
      "to": "0xC7f2Cf4845C6db0e1a1e91ED41Bcd0FcC1b0E141",
      "cumulativeGasUsed": "0x53b8",
      "gasUsed": "0x53b8",
      "contractAddress": null,
      "logs": [],
      "status": "0x1",
      "logsBloom": "0x00000000000000000000000000000000000000000000000000000000000000000000000000000000000000000000000000000000000000000000000000000000000000000000000000000000000000000000000000000000000000000000000000000000000000000000000000000000000000000000000000000000000000000000000000000000000000000000000000000000000000000000000000000000000000000000000000000000000000000000000000000000000000000000000000000000000000000000000000000000000000000000000000000000000000000000000000000000000000000000000000000000000000000000000000000000",
      "type": "0x2",
      "effectiveGasPrice": "0xb2dc4898"
    },
    {
      "transactionHash": "0x01d85ac86a7fe90453413e7b65a5e31d7cee1da5b15cc033980ed9f1a9162b8e",
      "transactionIndex": "0x1",
      "blockHash": "0xc2f7c447796e4422136d54e2be72d2b63a0a5dfa45365871b2df3ffe55146879",
      "blockNumber": "0x56a9c9",
      "from": "0xAe443A7dbB2252Ee2AF1b4c9eEE755a1b2417ab4",
      "to": "0xC7f2Cf4845C6db0e1a1e91ED41Bcd0FcC1b0E141",
      "cumulativeGasUsed": "0xa770",
      "gasUsed": "0xa770",
      "contractAddress": null,
      "logs": [],
      "status": "0x1",
      "logsBloom": "0x00000000000000000000000000000000000000000000000000000000000000000000000000000000000000000000000000000000000000000000000000000000000000000000000000000000000000000000000000000000000000000000000000000000000000000000000000000000000000000000000000000000000000000000000000000000000000000000000000000000000000000000000000000000000000000000000000000000000000000000000000000000000000000000000000000000000000000000000000000000000000000000000000000000000000000000000000000000000000000000000000000000000000000000000000000000",
      "type": "0x2",
      "effectiveGasPrice": "0xb2dc4898"
    },
    {
      "transactionHash": "0xb728455020afacb4e0fb27d915326eb755f4842ea15b76fd3ccac9da92b77e86",
      "transactionIndex": "0x2",
      "blockHash": "0xc2f7c447796e4422136d54e2be72d2b63a0a5dfa45365871b2df3ffe55146879",
      "blockNumber": "0x56a9c9",
      "from": "0xAe443A7dbB2252Ee2AF1b4c9eEE755a1b2417ab4",
      "to": "0xC7f2Cf4845C6db0e1a1e91ED41Bcd0FcC1b0E141",
      "cumulativeGasUsed": "0xfb28",
      "gasUsed": "0xfb28",
      "contractAddress": null,
      "logs": [],
      "status": "0x1",
      "logsBloom": "0x00000000000000000000000000000000000000000000000000000000000000000000000000000000000000000000000000000000000000000000000000000000000000000000000000000000000000000000000000000000000000000000000000000000000000000000000000000000000000000000000000000000000000000000000000000000000000000000000000000000000000000000000000000000000000000000000000000000000000000000000000000000000000000000000000000000000000000000000000000000000000000000000000000000000000000000000000000000000000000000000000000000000000000000000000000000",
      "type": "0x2",
      "effectiveGasPrice": "0xb2dc4898"
    },
    {
      "transactionHash": "0x3f416470811b4579c471e88b2277953f5df5b272ea751c75d4ce3f35e1168fff",
      "transactionIndex": "0x3",
      "blockHash": "0xc2f7c447796e4422136d54e2be72d2b63a0a5dfa45365871b2df3ffe55146879",
      "blockNumber": "0x56a9c9",
      "from": "0xAe443A7dbB2252Ee2AF1b4c9eEE755a1b2417ab4",
      "to": "0xC7f2Cf4845C6db0e1a1e91ED41Bcd0FcC1b0E141",
      "cumulativeGasUsed": "0x14ee0",
      "gasUsed": "0x14ee0",
      "contractAddress": null,
      "logs": [],
      "status": "0x1",
      "logsBloom": "0x00000000000000000000000000000000000000000000000000000000000000000000000000000000000000000000000000000000000000000000000000000000000000000000000000000000000000000000000000000000000000000000000000000000000000000000000000000000000000000000000000000000000000000000000000000000000000000000000000000000000000000000000000000000000000000000000000000000000000000000000000000000000000000000000000000000000000000000000000000000000000000000000000000000000000000000000000000000000000000000000000000000000000000000000000000000",
      "type": "0x2",
      "effectiveGasPrice": "0xb2dc4898"
    },
    {
      "transactionHash": "0x02c5a0b8fd8900896e4a75f179c621c6b76187ad17833e20d8502c901ba91e3d",
      "transactionIndex": "0x0",
      "blockHash": "0x0f77f92f8a3497664256b6ac2cc68196a56fab4083a667a0cbbf300ce5e3cb80",
      "blockNumber": "0x56a9ca",
      "from": "0xAe443A7dbB2252Ee2AF1b4c9eEE755a1b2417ab4",
      "to": "0x67cDE3E2d3e6e9d5413bD1Ecb01DC71BA3cF86E7",
      "cumulativeGasUsed": "0x548c",
      "gasUsed": "0x548c",
      "contractAddress": null,
      "logs": [],
      "status": "0x1",
      "logsBloom": "0x00000000000000000000000000000000000000000000000000000000000000000000000000000000000000000000000000000000000000000000000000000000000000000000000000000000000000000000000000000000000000000000000000000000000000000000000000000000000000000000000000000000000000000000000000000000000000000000000000000000000000000000000000000000000000000000000000000000000000000000000000000000000000000000000000000000000000000000000000000000000000000000000000000000000000000000000000000000000000000000000000000000000000000000000000000000",
      "type": "0x2",
      "effectiveGasPrice": "0xb2dacd73"
    },
    {
      "transactionHash": "0x73e0815747ff7bc77a2e756f8391059f2f85032350beaef5ee9069afed66ca20",
      "transactionIndex": "0x1",
      "blockHash": "0x0f77f92f8a3497664256b6ac2cc68196a56fab4083a667a0cbbf300ce5e3cb80",
      "blockNumber": "0x56a9ca",
      "from": "0xAe443A7dbB2252Ee2AF1b4c9eEE755a1b2417ab4",
      "to": "0x9bF642ef0bc3f1544b1776251AeAc4fF216E3384",
      "cumulativeGasUsed": "0xa90c",
      "gasUsed": "0xa90c",
      "contractAddress": null,
      "logs": [],
      "status": "0x1",
      "logsBloom": "0x00000000000000000000000000000000000000000000000000000000000000000000000000000000000000000000000000000000000000000000000000000000000000000000000000000000000000000000000000000000000000000000000000000000000000000000000000000000000000000000000000000000000000000000000000000000000000000000000000000000000000000000000000000000000000000000000000000000000000000000000000000000000000000000000000000000000000000000000000000000000000000000000000000000000000000000000000000000000000000000000000000000000000000000000000000000",
      "type": "0x2",
      "effectiveGasPrice": "0xb2dacd73"
    },
    {
      "transactionHash": "0xb35ea5d2bb72880103fab2e726ed41ebe57cdbd67405e2b16e19d8d3a0ca77e9",
      "transactionIndex": "0x0",
      "blockHash": "0x886470586fc754bb3fa2356b652b10d6218f63520c668ec8b26b42724972bbdf",
      "blockNumber": "0x56a9cb",
      "from": "0xAe443A7dbB2252Ee2AF1b4c9eEE755a1b2417ab4",
      "to": "0xEedBb16327A403a5229b6F95217dE9f338d74846",
      "cumulativeGasUsed": "0x5480",
      "gasUsed": "0x5480",
      "contractAddress": null,
      "logs": [],
      "status": "0x1",
      "logsBloom": "0x00000000000000000000000000000000000000000000000000000000000000000000000000000000000000000000000000000000000000000000000000000000000000000000000000000000000000000000000000000000000000000000000000000000000000000000000000000000000000000000000000000000000000000000000000000000000000000000000000000000000000000000000000000000000000000000000000000000000000000000000000000000000000000000000000000000000000000000000000000000000000000000000000000000000000000000000000000000000000000000000000000000000000000000000000000000",
      "type": "0x2",
      "effectiveGasPrice": "0xb2d9807c"
    },
    {
      "transactionHash": "0x35e18c9d612cfe65e97ae749ab0eaff241f8b128dec38ed2571d749d371d55c7",
      "transactionIndex": "0x0",
      "blockHash": "0xba276e774724e299ef8e8d8f42db1518ff0391f1bc54a73415247dba3abdc1c2",
      "blockNumber": "0x56a9cc",
      "from": "0xAe443A7dbB2252Ee2AF1b4c9eEE755a1b2417ab4",
      "to": "0x2B4707A92412D58a82d89EeAD6A5C7e35ce61450",
      "cumulativeGasUsed": "0x5480",
      "gasUsed": "0x5480",
      "contractAddress": null,
      "logs": [],
      "status": "0x1",
      "logsBloom": "0x00000000000000000000000000000000000000000000000000000000000000000000000000000000000000000000000000000000000000000000000000000000000000000000000000000000000000000000000000000000000000000000000000000000000000000000000000000000000000000000000000000000000000000000000000000000000000000000000000000000000000000000000000000000000000000000000000000000000000000000000000000000000000000000000000000000000000000000000000000000000000000000000000000000000000000000000000000000000000000000000000000000000000000000000000000000",
      "type": "0x2",
      "effectiveGasPrice": "0xb2d85c99"
    },
    {
      "transactionHash": "0x66c5b410c843929a86bbf331c5967124a085f9bcb2e114bcd6d95ccfe0971535",
      "transactionIndex": "0x1",
      "blockHash": "0xba276e774724e299ef8e8d8f42db1518ff0391f1bc54a73415247dba3abdc1c2",
      "blockNumber": "0x56a9cc",
      "from": "0xAe443A7dbB2252Ee2AF1b4c9eEE755a1b2417ab4",
      "to": "0x1e8b6a99b4824793639d2873366c56D445a5f08d",
      "cumulativeGasUsed": "0xa900",
      "gasUsed": "0xa900",
      "contractAddress": null,
      "logs": [],
      "status": "0x1",
      "logsBloom": "0x00000000000000000000000000000000000000000000000000000000000000000000000000000000000000000000000000000000000000000000000000000000000000000000000000000000000000000000000000000000000000000000000000000000000000000000000000000000000000000000000000000000000000000000000000000000000000000000000000000000000000000000000000000000000000000000000000000000000000000000000000000000000000000000000000000000000000000000000000000000000000000000000000000000000000000000000000000000000000000000000000000000000000000000000000000000",
      "type": "0x2",
      "effectiveGasPrice": "0xb2d85c99"
    },
    {
      "transactionHash": "0x1b7faf581fc2bdd301bab9df92da7c37d8834f890f7e7b07e1dc2b759aa2ac83",
      "transactionIndex": "0x2",
      "blockHash": "0xba276e774724e299ef8e8d8f42db1518ff0391f1bc54a73415247dba3abdc1c2",
      "blockNumber": "0x56a9cc",
      "from": "0xAe443A7dbB2252Ee2AF1b4c9eEE755a1b2417ab4",
      "to": "0x7a68E92dF1aEF1F65c726810746Ed2a978434BbC",
      "cumulativeGasUsed": "0xfd80",
      "gasUsed": "0xfd80",
      "contractAddress": null,
      "logs": [],
      "status": "0x1",
      "logsBloom": "0x00000000000000000000000000000000000000000000000000000000000000000000000000000000000000000000000000000000000000000000000000000000000000000000000000000000000000000000000000000000000000000000000000000000000000000000000000000000000000000000000000000000000000000000000000000000000000000000000000000000000000000000000000000000000000000000000000000000000000000000000000000000000000000000000000000000000000000000000000000000000000000000000000000000000000000000000000000000000000000000000000000000000000000000000000000000",
      "type": "0x2",
      "effectiveGasPrice": "0xb2d85c99"
    },
    {
      "transactionHash": "0x8ba4a45480f7131945b846148951f48c93dc41b6139692796c3740e4e8b6a48c",
      "transactionIndex": "0x3",
      "blockHash": "0xba276e774724e299ef8e8d8f42db1518ff0391f1bc54a73415247dba3abdc1c2",
      "blockNumber": "0x56a9cc",
      "from": "0xAe443A7dbB2252Ee2AF1b4c9eEE755a1b2417ab4",
      "to": "0x62Bd6F648Efbbe964Ce38592640C71a29d586eE9",
      "cumulativeGasUsed": "0x15200",
      "gasUsed": "0x15200",
      "contractAddress": null,
      "logs": [],
      "status": "0x1",
      "logsBloom": "0x00000000000000000000000000000000000000000000000000000000000000000000000000000000000000000000000000000000000000000000000000000000000000000000000000000000000000000000000000000000000000000000000000000000000000000000000000000000000000000000000000000000000000000000000000000000000000000000000000000000000000000000000000000000000000000000000000000000000000000000000000000000000000000000000000000000000000000000000000000000000000000000000000000000000000000000000000000000000000000000000000000000000000000000000000000000",
      "type": "0x2",
      "effectiveGasPrice": "0xb2d85c99"
    },
    {
      "transactionHash": "0x852e6f3a206f996c99f1d66f18434029964eea85091a0e6126fcbee615791074",
      "transactionIndex": "0x4",
      "blockHash": "0xba276e774724e299ef8e8d8f42db1518ff0391f1bc54a73415247dba3abdc1c2",
      "blockNumber": "0x56a9cc",
      "from": "0xAe443A7dbB2252Ee2AF1b4c9eEE755a1b2417ab4",
      "to": "0x67a6e25c585E57F8Ef1a573f734a124cE60cb583",
      "cumulativeGasUsed": "0x1a680",
      "gasUsed": "0x1a680",
      "contractAddress": null,
      "logs": [],
      "status": "0x1",
      "logsBloom": "0x00000000000000000000000000000000000000000000000000000000000000000000000000000000000000000000000000000000000000000000000000000000000000000000000000000000000000000000000000000000000000000000000000000000000000000000000000000000000000000000000000000000000000000000000000000000000000000000000000000000000000000000000000000000000000000000000000000000000000000000000000000000000000000000000000000000000000000000000000000000000000000000000000000000000000000000000000000000000000000000000000000000000000000000000000000000",
      "type": "0x2",
      "effectiveGasPrice": "0xb2d85c99"
    },
    {
      "transactionHash": "0x2e9080277323186916adbd812750c59d179fb9bcb368dd569dc214c1ab8fa4d2",
      "transactionIndex": "0x5",
      "blockHash": "0xba276e774724e299ef8e8d8f42db1518ff0391f1bc54a73415247dba3abdc1c2",
      "blockNumber": "0x56a9cc",
      "from": "0xAe443A7dbB2252Ee2AF1b4c9eEE755a1b2417ab4",
      "to": "0xb6087b053C85389A143E69B3f7420bed8059A5fd",
      "cumulativeGasUsed": "0x1fb00",
      "gasUsed": "0x1fb00",
      "contractAddress": null,
      "logs": [],
      "status": "0x1",
      "logsBloom": "0x00000000000000000000000000000000000000000000000000000000000000000000000000000000000000000000000000000000000000000000000000000000000000000000000000000000000000000000000000000000000000000000000000000000000000000000000000000000000000000000000000000000000000000000000000000000000000000000000000000000000000000000000000000000000000000000000000000000000000000000000000000000000000000000000000000000000000000000000000000000000000000000000000000000000000000000000000000000000000000000000000000000000000000000000000000000",
      "type": "0x2",
      "effectiveGasPrice": "0xb2d85c99"
    },
    {
      "transactionHash": "0xff8854dffc8839a14180bc72fe8eaff9fc3975a057cb7411b1ff2df39b2b4994",
      "transactionIndex": "0x6",
      "blockHash": "0xba276e774724e299ef8e8d8f42db1518ff0391f1bc54a73415247dba3abdc1c2",
      "blockNumber": "0x56a9cc",
      "from": "0xAe443A7dbB2252Ee2AF1b4c9eEE755a1b2417ab4",
      "to": "0x4a78bf6EF4A5472C3c73DE92e6AB876dbbbAf98F",
      "cumulativeGasUsed": "0x24f80",
      "gasUsed": "0x24f80",
      "contractAddress": null,
      "logs": [],
      "status": "0x1",
      "logsBloom": "0x00000000000000000000000000000000000000000000000000000000000000000000000000000000000000000000000000000000000000000000000000000000000000000000000000000000000000000000000000000000000000000000000000000000000000000000000000000000000000000000000000000000000000000000000000000000000000000000000000000000000000000000000000000000000000000000000000000000000000000000000000000000000000000000000000000000000000000000000000000000000000000000000000000000000000000000000000000000000000000000000000000000000000000000000000000000",
      "type": "0x2",
      "effectiveGasPrice": "0xb2d85c99"
    }
  ],
  "libraries": [],
  "pending": [],
  "returns": {},
  "timestamp": 1712896667,
  "chain": 11155111,
  "commit": "b4485ba"
}