{
  "transactions": [
    {
      "hash": "0xcf5d948cba5fa76623636f4c8a577507442d7ea6f9eba524cba5039165fcd0a7",
      "transactionType": "CALL",
      "contractName": "SLMinterOracle",
      "contractAddress": "0xC7f2Cf4845C6db0e1a1e91ED41Bcd0FcC1b0E141",
      "function": "createBrand(string,string,uint256,address)",
      "arguments": [
        "\"Delta\"",
        "\"Miles\"",
        "54000",
        "0xB54271D82813D21F8508FFffc005EdeDf72E1Bf9"
      ],
      "transaction": {
        "type": "0x02",
        "from": "0xb54271d82813d21f8508ffffc005ededf72e1bf9",
        "to": "0xc7f2cf4845c6db0e1a1e91ed41bcd0fcc1b0e141",
        "gas": "0x7981",
        "value": "0x0",
        "data": "0x920c46c3000000000000000000000000000000000000000000000000000000000000008000000000000000000000000000000000000000000000000000000000000000c0000000000000000000000000000000000000000000000000000000000000d2f0000000000000000000000000b54271d82813d21f8508ffffc005ededf72e1bf9000000000000000000000000000000000000000000000000000000000000000544656c746100000000000000000000000000000000000000000000000000000000000000000000000000000000000000000000000000000000000000000000054d696c6573000000000000000000000000000000000000000000000000000000",
        "nonce": "0x4f",
        "accessList": []
      },
      "additionalContracts": [],
      "isFixedGasLimit": false
    },
    {
      "hash": "0x573e89053c710e4c2b9921d4479d30c488f954f6d7fd2f5ff52cd3fd104057e4",
      "transactionType": "CALL",
      "contractName": "SLMinterOracle",
      "contractAddress": "0xC7f2Cf4845C6db0e1a1e91ED41Bcd0FcC1b0E141",
      "function": "createBrand(string,string,uint256,address)",
      "arguments": [
        "\"Starbucks\"",
        "\"Points\"",
        "2476",
        "0xB54271D82813D21F8508FFffc005EdeDf72E1Bf9"
      ],
      "transaction": {
        "type": "0x02",
        "from": "0xb54271d82813d21f8508ffffc005ededf72e1bf9",
        "to": "0xc7f2cf4845c6db0e1a1e91ed41bcd0fcc1b0e141",
        "gas": "0x79d4",
        "value": "0x0",
        "data": "0x920c46c3000000000000000000000000000000000000000000000000000000000000008000000000000000000000000000000000000000000000000000000000000000c000000000000000000000000000000000000000000000000000000000000009ac000000000000000000000000b54271d82813d21f8508ffffc005ededf72e1bf90000000000000000000000000000000000000000000000000000000000000009537461726275636b7300000000000000000000000000000000000000000000000000000000000000000000000000000000000000000000000000000000000006506f696e74730000000000000000000000000000000000000000000000000000",
        "nonce": "0x50",
        "accessList": []
      },
      "additionalContracts": [],
      "isFixedGasLimit": false
    },
    {
      "hash": "0xaed48faf6db91028cddf050d5568399abdfa316a7f2904963f40744964ab9ea1",
      "transactionType": "CALL",
      "contractName": "SLMinterOracle",
      "contractAddress": "0xC7f2Cf4845C6db0e1a1e91ED41Bcd0FcC1b0E141",
      "function": "createBrand(string,string,uint256,address)",
      "arguments": [
        "\"Walmart\"",
        "\"Points\"",
        "2300",
        "0xB54271D82813D21F8508FFffc005EdeDf72E1Bf9"
      ],
      "transaction": {
        "type": "0x02",
        "from": "0xb54271d82813d21f8508ffffc005ededf72e1bf9",
        "to": "0xc7f2cf4845c6db0e1a1e91ed41bcd0fcc1b0e141",
        "gas": "0x79b2",
        "value": "0x0",
        "data": "0x920c46c3000000000000000000000000000000000000000000000000000000000000008000000000000000000000000000000000000000000000000000000000000000c000000000000000000000000000000000000000000000000000000000000008fc000000000000000000000000b54271d82813d21f8508ffffc005ededf72e1bf9000000000000000000000000000000000000000000000000000000000000000757616c6d617274000000000000000000000000000000000000000000000000000000000000000000000000000000000000000000000000000000000000000006506f696e74730000000000000000000000000000000000000000000000000000",
        "nonce": "0x51",
        "accessList": []
      },
      "additionalContracts": [],
      "isFixedGasLimit": false
    },
    {
      "hash": "0x044c7b95a6226097196afaa565de5ce3d85fdb4eb763a7a0707dce352d580703",
      "transactionType": "CALL",
      "contractName": "SLMinterOracle",
      "contractAddress": "0xC7f2Cf4845C6db0e1a1e91ED41Bcd0FcC1b0E141",
      "function": "createBrand(string,string,uint256,address)",
      "arguments": [
        "\"Shell\"",
        "\"Gallons\"",
        "744",
        "0xB54271D82813D21F8508FFffc005EdeDf72E1Bf9"
      ],
      "transaction": {
        "type": "0x02",
        "from": "0xb54271d82813d21f8508ffffc005ededf72e1bf9",
        "to": "0xc7f2cf4845c6db0e1a1e91ed41bcd0fcc1b0e141",
        "gas": "0x79a2",
        "value": "0x0",
        "data": "0x920c46c3000000000000000000000000000000000000000000000000000000000000008000000000000000000000000000000000000000000000000000000000000000c000000000000000000000000000000000000000000000000000000000000002e8000000000000000000000000b54271d82813d21f8508ffffc005ededf72e1bf900000000000000000000000000000000000000000000000000000000000000055368656c6c000000000000000000000000000000000000000000000000000000000000000000000000000000000000000000000000000000000000000000000747616c6c6f6e7300000000000000000000000000000000000000000000000000",
        "nonce": "0x52",
        "accessList": []
      },
      "additionalContracts": [],
      "isFixedGasLimit": false
    },
    {
      "hash": "0xdf43e574f7ed1ef4c810c8859f7105630dbb697a78b497d7fdf745e33a4aff24",
      "transactionType": "CALL",
      "contractName": "SLMinterOracle",
      "contractAddress": "0xC7f2Cf4845C6db0e1a1e91ED41Bcd0FcC1b0E141",
      "function": "createBrand(string,string,uint256,address)",
      "arguments": [
        "\"Regal Cinema\"",
        "\"Points\"",
        "3078",
        "0xB54271D82813D21F8508FFffc005EdeDf72E1Bf9"
      ],
      "transaction": {
        "type": "0x02",
        "from": "0xb54271d82813d21f8508ffffc005ededf72e1bf9",
        "to": "0xc7f2cf4845c6db0e1a1e91ed41bcd0fcc1b0e141",
        "gas": "0x7a05",
        "value": "0x0",
        "data": "0x920c46c3000000000000000000000000000000000000000000000000000000000000008000000000000000000000000000000000000000000000000000000000000000c00000000000000000000000000000000000000000000000000000000000000c06000000000000000000000000b54271d82813d21f8508ffffc005ededf72e1bf9000000000000000000000000000000000000000000000000000000000000000c526567616c2043696e656d6100000000000000000000000000000000000000000000000000000000000000000000000000000000000000000000000000000006506f696e74730000000000000000000000000000000000000000000000000000",
        "nonce": "0x53",
        "accessList": []
      },
      "additionalContracts": [],
      "isFixedGasLimit": false
    },
    {
      "hash": "0xa53e8be14b54dd14d821fe692eca748002c708baccdb52ee8173966768cc2bb7",
      "transactionType": "CALL",
      "contractName": "SLMinterOracle",
      "contractAddress": "0xC7f2Cf4845C6db0e1a1e91ED41Bcd0FcC1b0E141",
      "function": "createBrand(string,string,uint256,address)",
      "arguments": [
        "\"McDonalds\"",
        "\"Points\"",
        "2667",
        "0xB54271D82813D21F8508FFffc005EdeDf72E1Bf9"
      ],
      "transaction": {
        "type": "0x02",
        "from": "0xb54271d82813d21f8508ffffc005ededf72e1bf9",
        "to": "0xc7f2cf4845c6db0e1a1e91ed41bcd0fcc1b0e141",
        "gas": "0x79d4",
        "value": "0x0",
        "data": "0x920c46c3000000000000000000000000000000000000000000000000000000000000008000000000000000000000000000000000000000000000000000000000000000c00000000000000000000000000000000000000000000000000000000000000a6b000000000000000000000000b54271d82813d21f8508ffffc005ededf72e1bf900000000000000000000000000000000000000000000000000000000000000094d63446f6e616c647300000000000000000000000000000000000000000000000000000000000000000000000000000000000000000000000000000000000006506f696e74730000000000000000000000000000000000000000000000000000",
        "nonce": "0x54",
        "accessList": []
      },
      "additionalContracts": [],
      "isFixedGasLimit": false
    },
    {
      "hash": "0x573ba3a3db5a82e649b1d24fd33ab2d7652840640c8bea4fd22b5f7ac1f41b2b",
      "transactionType": "CALL",
      "contractName": "SLMinterOracle",
      "contractAddress": "0xC7f2Cf4845C6db0e1a1e91ED41Bcd0FcC1b0E141",
      "function": "createBrand(string,string,uint256,address)",
      "arguments": [
        "\"Amazon\"",
        "\"Points\"",
        "2280",
        "0xB54271D82813D21F8508FFffc005EdeDf72E1Bf9"
      ],
      "transaction": {
        "type": "0x02",
        "from": "0xb54271d82813d21f8508ffffc005ededf72e1bf9",
        "to": "0xc7f2cf4845c6db0e1a1e91ed41bcd0fcc1b0e141",
        "gas": "0x79a2",
        "value": "0x0",
        "data": "0x920c46c3000000000000000000000000000000000000000000000000000000000000008000000000000000000000000000000000000000000000000000000000000000c000000000000000000000000000000000000000000000000000000000000008e8000000000000000000000000b54271d82813d21f8508ffffc005ededf72e1bf90000000000000000000000000000000000000000000000000000000000000006416d617a6f6e00000000000000000000000000000000000000000000000000000000000000000000000000000000000000000000000000000000000000000006506f696e74730000000000000000000000000000000000000000000000000000",
        "nonce": "0x55",
        "accessList": []
      },
      "additionalContracts": [],
      "isFixedGasLimit": false
    },
    {
      "hash": "0xea32d42b9921c993f99ed8bc02a955850013218d8c413108a0de8f942f3a5fac",
      "transactionType": "CALL",
      "contractName": "SLMinterOracle",
      "contractAddress": "0xC7f2Cf4845C6db0e1a1e91ED41Bcd0FcC1b0E141",
      "function": "createBrand(string,string,uint256,address)",
      "arguments": [
        "\"Sephora\"",
        "\"Points\"",
        "2500",
        "0xB54271D82813D21F8508FFffc005EdeDf72E1Bf9"
      ],
      "transaction": {
        "type": "0x02",
        "from": "0xb54271d82813d21f8508ffffc005ededf72e1bf9",
        "to": "0xc7f2cf4845c6db0e1a1e91ed41bcd0fcc1b0e141",
        "gas": "0x79b2",
        "value": "0x0",
        "data": "0x920c46c3000000000000000000000000000000000000000000000000000000000000008000000000000000000000000000000000000000000000000000000000000000c000000000000000000000000000000000000000000000000000000000000009c4000000000000000000000000b54271d82813d21f8508ffffc005ededf72e1bf90000000000000000000000000000000000000000000000000000000000000007536570686f7261000000000000000000000000000000000000000000000000000000000000000000000000000000000000000000000000000000000000000006506f696e74730000000000000000000000000000000000000000000000000000",
        "nonce": "0x56",
        "accessList": []
      },
      "additionalContracts": [],
      "isFixedGasLimit": false
    },
    {
      "hash": "0xc44c06133c7ad455c6c5be837d39198452106c2f25658bd6496427a53e04fa4f",
      "transactionType": "CALL",
      "contractName": "SLMinterOracle",
      "contractAddress": "0xC7f2Cf4845C6db0e1a1e91ED41Bcd0FcC1b0E141",
      "function": "createBrand(string,string,uint256,address)",
      "arguments": [
        "\"Walgreens\"",
        "\"Points\"",
        "3080",
        "0xB54271D82813D21F8508FFffc005EdeDf72E1Bf9"
      ],
      "transaction": {
        "type": "0x02",
        "from": "0xb54271d82813d21f8508ffffc005ededf72e1bf9",
        "to": "0xc7f2cf4845c6db0e1a1e91ed41bcd0fcc1b0e141",
        "gas": "0x79d4",
        "value": "0x0",
        "data": "0x920c46c3000000000000000000000000000000000000000000000000000000000000008000000000000000000000000000000000000000000000000000000000000000c00000000000000000000000000000000000000000000000000000000000000c08000000000000000000000000b54271d82813d21f8508ffffc005ededf72e1bf9000000000000000000000000000000000000000000000000000000000000000957616c677265656e7300000000000000000000000000000000000000000000000000000000000000000000000000000000000000000000000000000000000006506f696e74730000000000000000000000000000000000000000000000000000",
        "nonce": "0x57",
        "accessList": []
      },
      "additionalContracts": [],
      "isFixedGasLimit": false
    },
    {
      "hash": "0x54fe6f0ea332fa602335109a08ac3e3d7c9962e168ca8ccf346c9eceb0203d18",
      "transactionType": "CALL",
      "contractName": "SLMinterOracle",
      "contractAddress": "0xC7f2Cf4845C6db0e1a1e91ED41Bcd0FcC1b0E141",
      "function": "createBrand(string,string,uint256,address)",
      "arguments": [
        "\"Lyft\"",
        "\"Points\"",
        "2500",
        "0xB54271D82813D21F8508FFffc005EdeDf72E1Bf9"
      ],
      "transaction": {
        "type": "0x02",
        "from": "0xb54271d82813d21f8508ffffc005ededf72e1bf9",
        "to": "0xc7f2cf4845c6db0e1a1e91ed41bcd0fcc1b0e141",
        "gas": "0x7981",
        "value": "0x0",
        "data": "0x920c46c3000000000000000000000000000000000000000000000000000000000000008000000000000000000000000000000000000000000000000000000000000000c000000000000000000000000000000000000000000000000000000000000009c4000000000000000000000000b54271d82813d21f8508ffffc005ededf72e1bf900000000000000000000000000000000000000000000000000000000000000044c796674000000000000000000000000000000000000000000000000000000000000000000000000000000000000000000000000000000000000000000000006506f696e74730000000000000000000000000000000000000000000000000000",
        "nonce": "0x58",
        "accessList": []
      },
      "additionalContracts": [],
      "isFixedGasLimit": false
    },
    {
      "hash": "0x2f09680457c54124c9e82b9fd99735241e15fd35d81c264fd08e222b7b9fb516",
      "transactionType": "CALL",
      "contractName": "SLMinterOracle",
      "contractAddress": "0xC7f2Cf4845C6db0e1a1e91ED41Bcd0FcC1b0E141",
      "function": "returnCard(address)",
      "arguments": [
        "0x7AaCc5300ec7Ac58fe86645D08f21b1BEcadf99a"
      ],
      "transaction": {
        "type": "0x02",
        "from": "0xb54271d82813d21f8508ffffc005ededf72e1bf9",
        "to": "0xc7f2cf4845c6db0e1a1e91ed41bcd0fcc1b0e141",
        "gas": "0x73a2",
        "value": "0x0",
        "data": "0x056dc4fc0000000000000000000000007aacc5300ec7ac58fe86645d08f21b1becadf99a",
        "nonce": "0x59",
        "accessList": []
      },
      "additionalContracts": [],
      "isFixedGasLimit": false
    },
    {
      "hash": "0x1b58993662353a7544e12f1456d99477bef9ed07c27b124cdc8300b70c3e30a2",
      "transactionType": "CALL",
      "contractName": "SLMinterOracle",
      "contractAddress": "0xC7f2Cf4845C6db0e1a1e91ED41Bcd0FcC1b0E141",
      "function": "returnCard(address)",
      "arguments": [
        "0x67cDE3E2d3e6e9d5413bD1Ecb01DC71BA3cF86E7"
      ],
      "transaction": {
        "type": "0x02",
        "from": "0xb54271d82813d21f8508ffffc005ededf72e1bf9",
        "to": "0xc7f2cf4845c6db0e1a1e91ed41bcd0fcc1b0e141",
        "gas": "0x73a2",
        "value": "0x0",
        "data": "0x056dc4fc00000000000000000000000067cde3e2d3e6e9d5413bd1ecb01dc71ba3cf86e7",
        "nonce": "0x5a",
        "accessList": []
      },
      "additionalContracts": [],
      "isFixedGasLimit": false
    },
    {
      "hash": "0x24c08ce70c7d77b8ef00517ceefb1ed58d6368edc585a6e1dc35e52e86a94107",
      "transactionType": "CALL",
      "contractName": "SLMinterOracle",
      "contractAddress": "0xC7f2Cf4845C6db0e1a1e91ED41Bcd0FcC1b0E141",
      "function": "returnCard(address)",
      "arguments": [
        "0x9bF642ef0bc3f1544b1776251AeAc4fF216E3384"
      ],
      "transaction": {
        "type": "0x02",
        "from": "0xb54271d82813d21f8508ffffc005ededf72e1bf9",
        "to": "0xc7f2cf4845c6db0e1a1e91ed41bcd0fcc1b0e141",
        "gas": "0x73a2",
        "value": "0x0",
        "data": "0x056dc4fc0000000000000000000000009bf642ef0bc3f1544b1776251aeac4ff216e3384",
        "nonce": "0x5b",
        "accessList": []
      },
      "additionalContracts": [],
      "isFixedGasLimit": false
    },
    {
      "hash": "0x0440306f77be929256f0f64d6f9369d598808b409506ee0ba4c1e6a94378bdc5",
      "transactionType": "CALL",
      "contractName": "SLMinterOracle",
      "contractAddress": "0xC7f2Cf4845C6db0e1a1e91ED41Bcd0FcC1b0E141",
      "function": "returnCard(address)",
      "arguments": [
        "0xEedBb16327A403a5229b6F95217dE9f338d74846"
      ],
      "transaction": {
        "type": "0x02",
        "from": "0xb54271d82813d21f8508ffffc005ededf72e1bf9",
        "to": "0xc7f2cf4845c6db0e1a1e91ed41bcd0fcc1b0e141",
        "gas": "0x73a2",
        "value": "0x0",
        "data": "0x056dc4fc000000000000000000000000eedbb16327a403a5229b6f95217de9f338d74846",
        "nonce": "0x5c",
        "accessList": []
      },
      "additionalContracts": [],
      "isFixedGasLimit": false
    },
    {
      "hash": "0x5366090d8c4141b3a51c0eaabb3326bcda18bb4b85633108e45c82e06752ddb8",
      "transactionType": "CALL",
      "contractName": "SLMinterOracle",
      "contractAddress": "0xC7f2Cf4845C6db0e1a1e91ED41Bcd0FcC1b0E141",
      "function": "returnCard(address)",
      "arguments": [
        "0x2B4707A92412D58a82d89EeAD6A5C7e35ce61450"
      ],
      "transaction": {
        "type": "0x02",
        "from": "0xb54271d82813d21f8508ffffc005ededf72e1bf9",
        "to": "0xc7f2cf4845c6db0e1a1e91ed41bcd0fcc1b0e141",
        "gas": "0x73a2",
        "value": "0x0",
        "data": "0x056dc4fc0000000000000000000000002b4707a92412d58a82d89eead6a5c7e35ce61450",
        "nonce": "0x5d",
        "accessList": []
      },
      "additionalContracts": [],
      "isFixedGasLimit": false
    },
    {
      "hash": "0x548da5144b7fa40ad4bcbd55c4ae16f3f0743cc176c5f6c7c353487fc0d5ac27",
      "transactionType": "CALL",
      "contractName": "SLMinterOracle",
      "contractAddress": "0xC7f2Cf4845C6db0e1a1e91ED41Bcd0FcC1b0E141",
      "function": "returnCard(address)",
      "arguments": [
        "0x1e8b6a99b4824793639d2873366c56D445a5f08d"
      ],
      "transaction": {
        "type": "0x02",
        "from": "0xb54271d82813d21f8508ffffc005ededf72e1bf9",
        "to": "0xc7f2cf4845c6db0e1a1e91ed41bcd0fcc1b0e141",
        "gas": "0x73a2",
        "value": "0x0",
        "data": "0x056dc4fc0000000000000000000000001e8b6a99b4824793639d2873366c56d445a5f08d",
        "nonce": "0x5e",
        "accessList": []
      },
      "additionalContracts": [],
      "isFixedGasLimit": false
    },
    {
      "hash": "0xcc168e3a5010625d943e03f2fff9f6020fc3d4125e95ebab04b5181a35534337",
      "transactionType": "CALL",
      "contractName": "SLMinterOracle",
      "contractAddress": "0xC7f2Cf4845C6db0e1a1e91ED41Bcd0FcC1b0E141",
      "function": "returnCard(address)",
      "arguments": [
        "0x7a68E92dF1aEF1F65c726810746Ed2a978434BbC"
      ],
      "transaction": {
        "type": "0x02",
        "from": "0xb54271d82813d21f8508ffffc005ededf72e1bf9",
        "to": "0xc7f2cf4845c6db0e1a1e91ed41bcd0fcc1b0e141",
        "gas": "0x73a2",
        "value": "0x0",
        "data": "0x056dc4fc0000000000000000000000007a68e92df1aef1f65c726810746ed2a978434bbc",
        "nonce": "0x5f",
        "accessList": []
      },
      "additionalContracts": [],
      "isFixedGasLimit": false
    },
    {
      "hash": "0x1c501d02e321715ed40cf982cbfafd96327869b1e369113f567bb80639301a03",
      "transactionType": "CALL",
      "contractName": "SLMinterOracle",
      "contractAddress": "0xC7f2Cf4845C6db0e1a1e91ED41Bcd0FcC1b0E141",
      "function": "returnCard(address)",
      "arguments": [
        "0x62Bd6F648Efbbe964Ce38592640C71a29d586eE9"
      ],
      "transaction": {
        "type": "0x02",
        "from": "0xb54271d82813d21f8508ffffc005ededf72e1bf9",
        "to": "0xc7f2cf4845c6db0e1a1e91ed41bcd0fcc1b0e141",
        "gas": "0x73a2",
        "value": "0x0",
        "data": "0x056dc4fc00000000000000000000000062bd6f648efbbe964ce38592640c71a29d586ee9",
        "nonce": "0x60",
        "accessList": []
      },
      "additionalContracts": [],
      "isFixedGasLimit": false
    },
    {
      "hash": "0xc0af0a92a739536b9d0b20f00d7eff1502476bb371ddf8cdd04dc8319dba384a",
      "transactionType": "CALL",
      "contractName": "SLMinterOracle",
      "contractAddress": "0xC7f2Cf4845C6db0e1a1e91ED41Bcd0FcC1b0E141",
      "function": "returnCard(address)",
      "arguments": [
        "0x67a6e25c585E57F8Ef1a573f734a124cE60cb583"
      ],
      "transaction": {
        "type": "0x02",
        "from": "0xb54271d82813d21f8508ffffc005ededf72e1bf9",
        "to": "0xc7f2cf4845c6db0e1a1e91ed41bcd0fcc1b0e141",
        "gas": "0x73a2",
        "value": "0x0",
        "data": "0x056dc4fc00000000000000000000000067a6e25c585e57f8ef1a573f734a124ce60cb583",
        "nonce": "0x61",
        "accessList": []
      },
      "additionalContracts": [],
      "isFixedGasLimit": false
    },
    {
      "hash": "0xf7a61b36eabc5909351931167be510dd7807691475224a8b3cad6f456bfda478",
      "transactionType": "CALL",
      "contractName": "SLMinterOracle",
      "contractAddress": "0xC7f2Cf4845C6db0e1a1e91ED41Bcd0FcC1b0E141",
      "function": "returnCard(address)",
      "arguments": [
        "0xb6087b053C85389A143E69B3f7420bed8059A5fd"
      ],
      "transaction": {
        "type": "0x02",
        "from": "0xb54271d82813d21f8508ffffc005ededf72e1bf9",
        "to": "0xc7f2cf4845c6db0e1a1e91ed41bcd0fcc1b0e141",
        "gas": "0x73a2",
        "value": "0x0",
        "data": "0x056dc4fc000000000000000000000000b6087b053c85389a143e69b3f7420bed8059a5fd",
        "nonce": "0x62",
        "accessList": []
      },
      "additionalContracts": [],
      "isFixedGasLimit": false
    },
    {
      "hash": "0x4ebdd23f8007c7c29b7aa1d32b59c8130e6d1067206f6f2e30fa81588df1578b",
      "transactionType": "CALL",
      "contractName": "SLERC20",
      "contractAddress": "0x7AaCc5300ec7Ac58fe86645D08f21b1BEcadf99a",
      "function": "approve(address,uint256)",
      "arguments": [
        "0xC532a74256D3Db42D0Bf7a0400fEFDbad7694008",
        "52000000000000000000000"
      ],
      "transaction": {
        "type": "0x02",
        "from": "0xb54271d82813d21f8508ffffc005ededf72e1bf9",
        "to": "0x7aacc5300ec7ac58fe86645d08f21b1becadf99a",
        "gas": "0x74c6",
        "value": "0x0",
        "data": "0x095ea7b3000000000000000000000000c532a74256d3db42d0bf7a0400fefdbad7694008000000000000000000000000000000000000000000000b02ecf74c3138800000",
        "nonce": "0x63",
        "accessList": []
      },
      "additionalContracts": [],
      "isFixedGasLimit": false
    },
    {
      "hash": "0x949c0b7a95ef9c65f88b35b6cb84c92590ab51ee3cf6209d95cb3c05e0122e06",
      "transactionType": "CALL",
      "contractName": "SLERC20",
      "contractAddress": "0x67cDE3E2d3e6e9d5413bD1Ecb01DC71BA3cF86E7",
      "function": "approve(address,uint256)",
      "arguments": [
        "0xC532a74256D3Db42D0Bf7a0400fEFDbad7694008",
        "2440000000000000000000"
      ],
      "transaction": {
        "type": "0x02",
        "from": "0xb54271d82813d21f8508ffffc005ededf72e1bf9",
        "to": "0x67cde3e2d3e6e9d5413bd1ecb01dc71ba3cf86e7",
        "gas": "0x74b7",
        "value": "0x0",
        "data": "0x095ea7b3000000000000000000000000c532a74256d3db42d0bf7a0400fefdbad769400800000000000000000000000000000000000000000000008445cd605371200000",
        "nonce": "0x64",
        "accessList": []
      },
      "additionalContracts": [],
      "isFixedGasLimit": false
    },
    {
      "hash": "0xfeab25787fd8ac35ed4cd0cf5121c23422898a9d7331f4c238c43419c240c910",
      "transactionType": "CALL",
      "contractName": "SLERC20",
      "contractAddress": "0x9bF642ef0bc3f1544b1776251AeAc4fF216E3384",
      "function": "approve(address,uint256)",
      "arguments": [
        "0xC532a74256D3Db42D0Bf7a0400fEFDbad7694008",
        "2300000000000000000000"
      ],
      "transaction": {
        "type": "0x02",
        "from": "0xb54271d82813d21f8508ffffc005ededf72e1bf9",
        "to": "0x9bf642ef0bc3f1544b1776251aeac4ff216e3384",
        "gas": "0x74b7",
        "value": "0x0",
        "data": "0x095ea7b3000000000000000000000000c532a74256d3db42d0bf7a0400fefdbad769400800000000000000000000000000000000000000000000007caee97613e6700000",
        "nonce": "0x65",
        "accessList": []
      },
      "additionalContracts": [],
      "isFixedGasLimit": false
    },
    {
      "hash": "0x36b94affe807428770b5782925c99687a6ffecd0e479a684679e6cbc9835fb26",
      "transactionType": "CALL",
      "contractName": "SLERC20",
      "contractAddress": "0xEedBb16327A403a5229b6F95217dE9f338d74846",
      "function": "approve(address,uint256)",
      "arguments": [
        "0xC532a74256D3Db42D0Bf7a0400fEFDbad7694008",
        "744000000000000000000"
      ],
      "transaction": {
        "type": "0x02",
        "from": "0xb54271d82813d21f8508ffffc005ededf72e1bf9",
        "to": "0xeedbb16327a403a5229b6f95217de9f338d74846",
        "gas": "0x74b7",
        "value": "0x0",
        "data": "0x095ea7b3000000000000000000000000c532a74256d3db42d0bf7a0400fefdbad76940080000000000000000000000000000000000000000000000285512fa1e7aa00000",
        "nonce": "0x66",
        "accessList": []
      },
      "additionalContracts": [],
      "isFixedGasLimit": false
    },
    {
      "hash": "0x4686b515b14295332e8c2a2b6aea49817df34d57dad7d1e2761447f2048da1eb",
      "transactionType": "CALL",
      "contractName": "SLERC20",
      "contractAddress": "0x2B4707A92412D58a82d89EeAD6A5C7e35ce61450",
      "function": "approve(address,uint256)",
      "arguments": [
        "0xC532a74256D3Db42D0Bf7a0400fEFDbad7694008",
        "3078000000000000000000"
      ],
      "transaction": {
        "type": "0x02",
        "from": "0xb54271d82813d21f8508ffffc005ededf72e1bf9",
        "to": "0x2b4707a92412d58a82d89eead6a5c7e35ce61450",
        "gas": "0x74b7",
        "value": "0x0",
        "data": "0x095ea7b3000000000000000000000000c532a74256d3db42d0bf7a0400fefdbad76940080000000000000000000000000000000000000000000000a6dbd4b40e9c580000",
        "nonce": "0x67",
        "accessList": []
      },
      "additionalContracts": [],
      "isFixedGasLimit": false
    },
    {
      "hash": "0xa69629b34d9f2ee107d553997329d75c2fb7df0a8606cdb4dc2b81578e793f35",
      "transactionType": "CALL",
      "contractName": "SLERC20",
      "contractAddress": "0x1e8b6a99b4824793639d2873366c56D445a5f08d",
      "function": "approve(address,uint256)",
      "arguments": [
        "0xC532a74256D3Db42D0Bf7a0400fEFDbad7694008",
        "2667000000000000000000"
      ],
      "transaction": {
        "type": "0x02",
        "from": "0xb54271d82813d21f8508ffffc005ededf72e1bf9",
        "to": "0x1e8b6a99b4824793639d2873366c56d445a5f08d",
        "gas": "0x74b7",
        "value": "0x0",
        "data": "0x095ea7b3000000000000000000000000c532a74256d3db42d0bf7a0400fefdbad7694008000000000000000000000000000000000000000000000090940f61a0decc0000",
        "nonce": "0x68",
        "accessList": []
      },
      "additionalContracts": [],
      "isFixedGasLimit": false
    },
    {
      "hash": "0x2907b5811aabeae246d14dc666e3b51c74e169905913496f2d217c72d4658fe6",
      "transactionType": "CALL",
      "contractName": "SLERC20",
      "contractAddress": "0x7a68E92dF1aEF1F65c726810746Ed2a978434BbC",
      "function": "approve(address,uint256)",
      "arguments": [
        "0xC532a74256D3Db42D0Bf7a0400fEFDbad7694008",
        "2280000000000000000000"
      ],
      "transaction": {
        "type": "0x02",
        "from": "0xb54271d82813d21f8508ffffc005ededf72e1bf9",
        "to": "0x7a68e92df1aef1f65c726810746ed2a978434bbc",
        "gas": "0x74b7",
        "value": "0x0",
        "data": "0x095ea7b3000000000000000000000000c532a74256d3db42d0bf7a0400fefdbad769400800000000000000000000000000000000000000000000007b995b300ad2a00000",
        "nonce": "0x69",
        "accessList": []
      },
      "additionalContracts": [],
      "isFixedGasLimit": false
    },
    {
      "hash": "0x877a09c27781bd1aeaf7ae70021839c11cf93880287533c0d68d43150eccbb5d",
      "transactionType": "CALL",
      "contractName": "SLERC20",
      "contractAddress": "0x62Bd6F648Efbbe964Ce38592640C71a29d586eE9",
      "function": "approve(address,uint256)",
      "arguments": [
        "0xC532a74256D3Db42D0Bf7a0400fEFDbad7694008",
        "2500000000000000000000"
      ],
      "transaction": {
        "type": "0x02",
        "from": "0xb54271d82813d21f8508ffffc005ededf72e1bf9",
        "to": "0x62bd6f648efbbe964ce38592640c71a29d586ee9",
        "gas": "0x74b7",
        "value": "0x0",
        "data": "0x095ea7b3000000000000000000000000c532a74256d3db42d0bf7a0400fefdbad76940080000000000000000000000000000000000000000000000878678326eac900000",
        "nonce": "0x6a",
        "accessList": []
      },
      "additionalContracts": [],
      "isFixedGasLimit": false
    },
    {
      "hash": "0xc5fe20013efdcb785db67205a5751bdefd18e0c47fbb24fd0291d63c83bd2e47",
      "transactionType": "CALL",
      "contractName": "SLERC20",
      "contractAddress": "0x67a6e25c585E57F8Ef1a573f734a124cE60cb583",
      "function": "approve(address,uint256)",
      "arguments": [
        "0xC532a74256D3Db42D0Bf7a0400fEFDbad7694008",
        "3080000000000000000000"
      ],
      "transaction": {
        "type": "0x02",
        "from": "0xb54271d82813d21f8508ffffc005ededf72e1bf9",
        "to": "0x67a6e25c585e57f8ef1a573f734a124ce60cb583",
        "gas": "0x74b7",
        "value": "0x0",
        "data": "0x095ea7b3000000000000000000000000c532a74256d3db42d0bf7a0400fefdbad76940080000000000000000000000000000000000000000000000a6f7962175eb200000",
        "nonce": "0x6b",
        "accessList": []
      },
      "additionalContracts": [],
      "isFixedGasLimit": false
    },
    {
      "hash": "0x3f501da55528e30a1f64fe68266fedf2568caf68f7ed19965cf08eb2ddb634c4",
      "transactionType": "CALL",
      "contractName": "SLERC20",
      "contractAddress": "0xb6087b053C85389A143E69B3f7420bed8059A5fd",
      "function": "approve(address,uint256)",
      "arguments": [
        "0xC532a74256D3Db42D0Bf7a0400fEFDbad7694008",
        "2500000000000000000000"
      ],
      "transaction": {
        "type": "0x02",
        "from": "0xb54271d82813d21f8508ffffc005ededf72e1bf9",
        "to": "0xb6087b053c85389a143e69b3f7420bed8059a5fd",
        "gas": "0x74b7",
        "value": "0x0",
        "data": "0x095ea7b3000000000000000000000000c532a74256d3db42d0bf7a0400fefdbad76940080000000000000000000000000000000000000000000000878678326eac900000",
        "nonce": "0x6c",
        "accessList": []
      },
      "additionalContracts": [],
      "isFixedGasLimit": false
    }
  ],
  "receipts": [
    {
      "transactionHash": "0xcf5d948cba5fa76623636f4c8a577507442d7ea6f9eba524cba5039165fcd0a7",
      "transactionIndex": "0x0",
      "blockHash": "0xc6307c1beb4443e2da01c8a8db0ddf622513de941029be02b295440f4cc73dff",
      "blockNumber": "0x56a909",
      "from": "0xB54271D82813D21F8508FFffc005EdeDf72E1Bf9",
      "to": "0xC7f2Cf4845C6db0e1a1e91ED41Bcd0FcC1b0E141",
      "cumulativeGasUsed": "0x57f8",
      "gasUsed": "0x57f8",
      "contractAddress": null,
      "logs": [],
      "status": "0x1",
      "logsBloom": "0x00000000000000000000000000000000000000000000000000000000000000000000000000000000000000000000000000000000000000000000000000000000000000000000000000000000000000000000000000000000000000000000000000000000000000000000000000000000000000000000000000000000000000000000000000000000000000000000000000000000000000000000000000000000000000000000000000000000000000000000000000000000000000000000000000000000000000000000000000000000000000000000000000000000000000000000000000000000000000000000000000000000000000000000000000000000",
      "type": "0x2",
      "effectiveGasPrice": "0xb4565030"
    },
    {
      "transactionHash": "0x573e89053c710e4c2b9921d4479d30c488f954f6d7fd2f5ff52cd3fd104057e4",
      "transactionIndex": "0x0",
      "blockHash": "0x7d9f184f7c7638835aa694dcc7666c68780e8b1e91a54f19122b05066db1faa3",
      "blockNumber": "0x56a90a",
      "from": "0xB54271D82813D21F8508FFffc005EdeDf72E1Bf9",
      "to": "0xC7f2Cf4845C6db0e1a1e91ED41Bcd0FcC1b0E141",
      "cumulativeGasUsed": "0x5834",
      "gasUsed": "0x5834",
      "contractAddress": null,
      "logs": [],
      "status": "0x1",
      "logsBloom": "0x00000000000000000000000000000000000000000000000000000000000000000000000000000000000000000000000000000000000000000000000000000000000000000000000000000000000000000000000000000000000000000000000000000000000000000000000000000000000000000000000000000000000000000000000000000000000000000000000000000000000000000000000000000000000000000000000000000000000000000000000000000000000000000000000000000000000000000000000000000000000000000000000000000000000000000000000000000000000000000000000000000000000000000000000000000000",
      "type": "0x2",
      "effectiveGasPrice": "0xb425a4a6"
    },
    {
      "transactionHash": "0xaed48faf6db91028cddf050d5568399abdfa316a7f2904963f40744964ab9ea1",
      "transactionIndex": "0x0",
      "blockHash": "0xa4f3678baa6182a70381a3c36033374940bc933a342233c1e997e5db7b787fef",
      "blockNumber": "0x56a90b",
      "from": "0xB54271D82813D21F8508FFffc005EdeDf72E1Bf9",
      "to": "0xC7f2Cf4845C6db0e1a1e91ED41Bcd0FcC1b0E141",
      "cumulativeGasUsed": "0x581c",
      "gasUsed": "0x581c",
      "contractAddress": null,
      "logs": [],
      "status": "0x1",
      "logsBloom": "0x00000000000000000000000000000000000000000000000000000000000000000000000000000000000000000000000000000000000000000000000000000000000000000000000000000000000000000000000000000000000000000000000000000000000000000000000000000000000000000000000000000000000000000000000000000000000000000000000000000000000000000000000000000000000000000000000000000000000000000000000000000000000000000000000000000000000000000000000000000000000000000000000000000000000000000000000000000000000000000000000000000000000000000000000000000000",
      "type": "0x2",
      "effectiveGasPrice": "0xb3fb0c42"
    },
    {
      "transactionHash": "0x044c7b95a6226097196afaa565de5ce3d85fdb4eb763a7a0707dce352d580703",
      "transactionIndex": "0x0",
      "blockHash": "0x078c2be541621491e018acf6cac5b190c4dfc739c5d5bc5e198f785ddcca57a6",
      "blockNumber": "0x56a90c",
      "from": "0xB54271D82813D21F8508FFffc005EdeDf72E1Bf9",
      "to": "0xC7f2Cf4845C6db0e1a1e91ED41Bcd0FcC1b0E141",
      "cumulativeGasUsed": "0x5810",
      "gasUsed": "0x5810",
      "contractAddress": null,
      "logs": [],
      "status": "0x1",
      "logsBloom": "0x00000000000000000000000000000000000000000000000000000000000000000000000000000000000000000000000000000000000000000000000000000000000000000000000000000000000000000000000000000000000000000000000000000000000000000000000000000000000000000000000000000000000000000000000000000000000000000000000000000000000000000000000000000000000000000000000000000000000000000000000000000000000000000000000000000000000000000000000000000000000000000000000000000000000000000000000000000000000000000000000000000000000000000000000000000000",
      "type": "0x2",
      "effectiveGasPrice": "0xb3d5c4da"
    },
    {
      "transactionHash": "0xdf43e574f7ed1ef4c810c8859f7105630dbb697a78b497d7fdf745e33a4aff24",
      "transactionIndex": "0x0",
      "blockHash": "0x1c72f7a45bf047a813114fa1219e8dada2404f0a5300caa0487401e6b446e6a6",
      "blockNumber": "0x56a90d",
      "from": "0xB54271D82813D21F8508FFffc005EdeDf72E1Bf9",
      "to": "0xC7f2Cf4845C6db0e1a1e91ED41Bcd0FcC1b0E141",
      "cumulativeGasUsed": "0x5858",
      "gasUsed": "0x5858",
      "contractAddress": null,
      "logs": [],
      "status": "0x1",
      "logsBloom": "0x00000000000000000000000000000000000000000000000000000000000000000000000000000000000000000000000000000000000000000000000000000000000000000000000000000000000000000000000000000000000000000000000000000000000000000000000000000000000000000000000000000000000000000000000000000000000000000000000000000000000000000000000000000000000000000000000000000000000000000000000000000000000000000000000000000000000000000000000000000000000000000000000000000000000000000000000000000000000000000000000000000000000000000000000000000000",
      "type": "0x2",
      "effectiveGasPrice": "0xb3b52492"
    },
    {
      "transactionHash": "0xa53e8be14b54dd14d821fe692eca748002c708baccdb52ee8173966768cc2bb7",
      "transactionIndex": "0x0",
      "blockHash": "0xf40cbd5e519c81d814729b6d90c96ac9b7c1a094a0413da5194d5406c990f34c",
      "blockNumber": "0x56a90e",
      "from": "0xB54271D82813D21F8508FFffc005EdeDf72E1Bf9",
      "to": "0xC7f2Cf4845C6db0e1a1e91ED41Bcd0FcC1b0E141",
      "cumulativeGasUsed": "0x5834",
      "gasUsed": "0x5834",
      "contractAddress": null,
      "logs": [],
      "status": "0x1",
      "logsBloom": "0x00000000000000000000000000000000000000000000000000000000000000000000000000000000000000000000000000000000000000000000000000000000000000000000000000000000000000000000000000000000000000000000000000000000000000000000000000000000000000000000000000000000000000000000000000000000000000000000000000000000000000000000000000000000000000000000000000000000000000000000000000000000000000000000000000000000000000000000000000000000000000000000000000000000000000000000000000000000000000000000000000000000000000000000000000000000",
      "type": "0x2",
      "effectiveGasPrice": "0xb39896ca"
    },
    {
      "transactionHash": "0x573ba3a3db5a82e649b1d24fd33ab2d7652840640c8bea4fd22b5f7ac1f41b2b",
      "transactionIndex": "0x1",
      "blockHash": "0xf40cbd5e519c81d814729b6d90c96ac9b7c1a094a0413da5194d5406c990f34c",
      "blockNumber": "0x56a90e",
      "from": "0xB54271D82813D21F8508FFffc005EdeDf72E1Bf9",
      "to": "0xC7f2Cf4845C6db0e1a1e91ED41Bcd0FcC1b0E141",
      "cumulativeGasUsed": "0xb044",
      "gasUsed": "0xb044",
      "contractAddress": null,
      "logs": [],
      "status": "0x1",
      "logsBloom": "0x00000000000000000000000000000000000000000000000000000000000000000000000000000000000000000000000000000000000000000000000000000000000000000000000000000000000000000000000000000000000000000000000000000000000000000000000000000000000000000000000000000000000000000000000000000000000000000000000000000000000000000000000000000000000000000000000000000000000000000000000000000000000000000000000000000000000000000000000000000000000000000000000000000000000000000000000000000000000000000000000000000000000000000000000000000000",
      "type": "0x2",
      "effectiveGasPrice": "0xb39896ca"
    },
    {
      "transactionHash": "0xea32d42b9921c993f99ed8bc02a955850013218d8c413108a0de8f942f3a5fac",
      "transactionIndex": "0x0",
      "blockHash": "0x7194bf96a80e8a728f8c33cbce9dc52246cca811465ed21ecc5f7edba0726a39",
      "blockNumber": "0x56a90f",
      "from": "0xB54271D82813D21F8508FFffc005EdeDf72E1Bf9",
      "to": "0xC7f2Cf4845C6db0e1a1e91ED41Bcd0FcC1b0E141",
      "cumulativeGasUsed": "0x581c",
      "gasUsed": "0x581c",
      "contractAddress": null,
      "logs": [],
      "status": "0x1",
      "logsBloom": "0x00000000000000000000000000000000000000000000000000000000000000000000000000000000000000000000000000000000000000000000000000000000000000000000000000000000000000000000000000000000000000000000000000000000000000000000000000000000000000000000000000000000000000000000000000000000000000000000000000000000000000000000000000000000000000000000000000000000000000000000000000000000000000000000000000000000000000000000000000000000000000000000000000000000000000000000000000000000000000000000000000000000000000000000000000000000",
      "type": "0x2",
      "effectiveGasPrice": "0xb37fa2f7"
    },
    {
      "transactionHash": "0xc44c06133c7ad455c6c5be837d39198452106c2f25658bd6496427a53e04fa4f",
      "transactionIndex": "0x1",
      "blockHash": "0x7194bf96a80e8a728f8c33cbce9dc52246cca811465ed21ecc5f7edba0726a39",
      "blockNumber": "0x56a90f",
      "from": "0xB54271D82813D21F8508FFffc005EdeDf72E1Bf9",
      "to": "0xC7f2Cf4845C6db0e1a1e91ED41Bcd0FcC1b0E141",
      "cumulativeGasUsed": "0xb050",
      "gasUsed": "0xb050",
      "contractAddress": null,
      "logs": [],
      "status": "0x1",
      "logsBloom": "0x00000000000000000000000000000000000000000000000000000000000000000000000000000000000000000000000000000000000000000000000000000000000000000000000000000000000000000000000000000000000000000000000000000000000000000000000000000000000000000000000000000000000000000000000000000000000000000000000000000000000000000000000000000000000000000000000000000000000000000000000000000000000000000000000000000000000000000000000000000000000000000000000000000000000000000000000000000000000000000000000000000000000000000000000000000000",
      "type": "0x2",
      "effectiveGasPrice": "0xb37fa2f7"
    },
    {
      "transactionHash": "0x54fe6f0ea332fa602335109a08ac3e3d7c9962e168ca8ccf346c9eceb0203d18",
      "transactionIndex": "0x2",
      "blockHash": "0x7194bf96a80e8a728f8c33cbce9dc52246cca811465ed21ecc5f7edba0726a39",
      "blockNumber": "0x56a90f",
      "from": "0xB54271D82813D21F8508FFffc005EdeDf72E1Bf9",
      "to": "0xC7f2Cf4845C6db0e1a1e91ED41Bcd0FcC1b0E141",
      "cumulativeGasUsed": "0x10848",
      "gasUsed": "0x10848",
      "contractAddress": null,
      "logs": [],
      "status": "0x1",
      "logsBloom": "0x00000000000000000000000000000000000000000000000000000000000000000000000000000000000000000000000000000000000000000000000000000000000000000000000000000000000000000000000000000000000000000000000000000000000000000000000000000000000000000000000000000000000000000000000000000000000000000000000000000000000000000000000000000000000000000000000000000000000000000000000000000000000000000000000000000000000000000000000000000000000000000000000000000000000000000000000000000000000000000000000000000000000000000000000000000000",
      "type": "0x2",
      "effectiveGasPrice": "0xb37fa2f7"
    },
    {
      "transactionHash": "0x2f09680457c54124c9e82b9fd99735241e15fd35d81c264fd08e222b7b9fb516",
      "transactionIndex": "0x0",
      "blockHash": "0x614888b44198f2d158a69e47765a8955db82868bdded4ee97730f01655235d6d",
      "blockNumber": "0x56a910",
      "from": "0xB54271D82813D21F8508FFffc005EdeDf72E1Bf9",
      "to": "0xC7f2Cf4845C6db0e1a1e91ED41Bcd0FcC1b0E141",
      "cumulativeGasUsed": "0x53b8",
      "gasUsed": "0x53b8",
      "contractAddress": null,
      "logs": [],
      "status": "0x1",
      "logsBloom": "0x00000000000000000000000000000000000000000000000000000000000000000000000000000000000000000000000000000000000000000000000000000000000000000000000000000000000000000000000000000000000000000000000000000000000000000000000000000000000000000000000000000000000000000000000000000000000000000000000000000000000000000000000000000000000000000000000000000000000000000000000000000000000000000000000000000000000000000000000000000000000000000000000000000000000000000000000000000000000000000000000000000000000000000000000000000000",
      "type": "0x2",
      "effectiveGasPrice": "0xb369d3a5"
    },
    {
      "transactionHash": "0x1b58993662353a7544e12f1456d99477bef9ed07c27b124cdc8300b70c3e30a2",
      "transactionIndex": "0x0",
      "blockHash": "0x91a7f83763490e9d778292ba26242046fc2113c0e0707e04465decbe57d7cb4a",
      "blockNumber": "0x56a911",
      "from": "0xB54271D82813D21F8508FFffc005EdeDf72E1Bf9",
      "to": "0xC7f2Cf4845C6db0e1a1e91ED41Bcd0FcC1b0E141",
      "cumulativeGasUsed": "0x53b8",
      "gasUsed": "0x53b8",
      "contractAddress": null,
      "logs": [],
      "status": "0x1",
      "logsBloom": "0x00000000000000000000000000000000000000000000000000000000000000000000000000000000000000000000000000000000000000000000000000000000000000000000000000000000000000000000000000000000000000000000000000000000000000000000000000000000000000000000000000000000000000000000000000000000000000000000000000000000000000000000000000000000000000000000000000000000000000000000000000000000000000000000000000000000000000000000000000000000000000000000000000000000000000000000000000000000000000000000000000000000000000000000000000000000",
      "type": "0x2",
      "effectiveGasPrice": "0xb356abf5"
    },
    {
      "transactionHash": "0x24c08ce70c7d77b8ef00517ceefb1ed58d6368edc585a6e1dc35e52e86a94107",
      "transactionIndex": "0x0",
      "blockHash": "0xb3a9e0ad3c98f3c3bcad83343868e37e6487b6c41379f14a37c0b3aa3e73bae0",
      "blockNumber": "0x56a912",
      "from": "0xB54271D82813D21F8508FFffc005EdeDf72E1Bf9",
      "to": "0xC7f2Cf4845C6db0e1a1e91ED41Bcd0FcC1b0E141",
      "cumulativeGasUsed": "0x53b8",
      "gasUsed": "0x53b8",
      "contractAddress": null,
      "logs": [],
      "status": "0x1",
      "logsBloom": "0x00000000000000000000000000000000000000000000000000000000000000000000000000000000000000000000000000000000000000000000000000000000000000000000000000000000000000000000000000000000000000000000000000000000000000000000000000000000000000000000000000000000000000000000000000000000000000000000000000000000000000000000000000000000000000000000000000000000000000000000000000000000000000000000000000000000000000000000000000000000000000000000000000000000000000000000000000000000000000000000000000000000000000000000000000000000",
      "type": "0x2",
      "effectiveGasPrice": "0xb345e85b"
    },
    {
      "transactionHash": "0x0440306f77be929256f0f64d6f9369d598808b409506ee0ba4c1e6a94378bdc5",
      "transactionIndex": "0x0",
      "blockHash": "0x5182d1c5537abd80008e749955de9f86743c646758b47ace93e7dd3eb401edae",
      "blockNumber": "0x56a913",
      "from": "0xB54271D82813D21F8508FFffc005EdeDf72E1Bf9",
      "to": "0xC7f2Cf4845C6db0e1a1e91ED41Bcd0FcC1b0E141",
      "cumulativeGasUsed": "0x53b8",
      "gasUsed": "0x53b8",
      "contractAddress": null,
      "logs": [],
      "status": "0x1",
      "logsBloom": "0x00000000000000000000000000000000000000000000000000000000000000000000000000000000000000000000000000000000000000000000000000000000000000000000000000000000000000000000000000000000000000000000000000000000000000000000000000000000000000000000000000000000000000000000000000000000000000000000000000000000000000000000000000000000000000000000000000000000000000000000000000000000000000000000000000000000000000000000000000000000000000000000000000000000000000000000000000000000000000000000000000000000000000000000000000000000",
      "type": "0x2",
      "effectiveGasPrice": "0xb3373c70"
    },
    {
      "transactionHash": "0x5366090d8c4141b3a51c0eaabb3326bcda18bb4b85633108e45c82e06752ddb8",
      "transactionIndex": "0x0",
      "blockHash": "0xb43bf48700bddf7d95098220d301237c919737a13410a1483b9b8b388a11eb97",
      "blockNumber": "0x56a914",
      "from": "0xB54271D82813D21F8508FFffc005EdeDf72E1Bf9",
      "to": "0xC7f2Cf4845C6db0e1a1e91ED41Bcd0FcC1b0E141",
      "cumulativeGasUsed": "0x53b8",
      "gasUsed": "0x53b8",
      "contractAddress": null,
      "logs": [],
      "status": "0x1",
      "logsBloom": "0x00000000000000000000000000000000000000000000000000000000000000000000000000000000000000000000000000000000000000000000000000000000000000000000000000000000000000000000000000000000000000000000000000000000000000000000000000000000000000000000000000000000000000000000000000000000000000000000000000000000000000000000000000000000000000000000000000000000000000000000000000000000000000000000000000000000000000000000000000000000000000000000000000000000000000000000000000000000000000000000000000000000000000000000000000000000",
      "type": "0x2",
      "effectiveGasPrice": "0xb32a6557"
    },
    {
      "transactionHash": "0x548da5144b7fa40ad4bcbd55c4ae16f3f0743cc176c5f6c7c353487fc0d5ac27",
      "transactionIndex": "0x0",
      "blockHash": "0x798bd9f45d638ac59067f8a304dd3f19e0db4d21445287b9b81d60ce55aba495",
      "blockNumber": "0x56a915",
      "from": "0xB54271D82813D21F8508FFffc005EdeDf72E1Bf9",
      "to": "0xC7f2Cf4845C6db0e1a1e91ED41Bcd0FcC1b0E141",
      "cumulativeGasUsed": "0x53b8",
      "gasUsed": "0x53b8",
      "contractAddress": null,
      "logs": [],
      "status": "0x1",
      "logsBloom": "0x00000000000000000000000000000000000000000000000000000000000000000000000000000000000000000000000000000000000000000000000000000000000000000000000000000000000000000000000000000000000000000000000000000000000000000000000000000000000000000000000000000000000000000000000000000000000000000000000000000000000000000000000000000000000000000000000000000000000000000000000000000000000000000000000000000000000000000000000000000000000000000000000000000000000000000000000000000000000000000000000000000000000000000000000000000000",
      "type": "0x2",
      "effectiveGasPrice": "0xb31f288a"
    },
    {
      "transactionHash": "0xcc168e3a5010625d943e03f2fff9f6020fc3d4125e95ebab04b5181a35534337",
      "transactionIndex": "0x0",
      "blockHash": "0x95881fcae570113e420b0ac42e107bbbc5ca8419b958e0f001c1592c12794070",
      "blockNumber": "0x56a916",
      "from": "0xB54271D82813D21F8508FFffc005EdeDf72E1Bf9",
      "to": "0xC7f2Cf4845C6db0e1a1e91ED41Bcd0FcC1b0E141",
      "cumulativeGasUsed": "0x53b8",
      "gasUsed": "0x53b8",
      "contractAddress": null,
      "logs": [],
      "status": "0x1",
      "logsBloom": "0x00000000000000000000000000000000000000000000000000000000000000000000000000000000000000000000000000000000000000000000000000000000000000000000000000000000000000000000000000000000000000000000000000000000000000000000000000000000000000000000000000000000000000000000000000000000000000000000000000000000000000000000000000000000000000000000000000000000000000000000000000000000000000000000000000000000000000000000000000000000000000000000000000000000000000000000000000000000000000000000000000000000000000000000000000000000",
      "type": "0x2",
      "effectiveGasPrice": "0xb31552d3"
    },
    {
      "transactionHash": "0x1c501d02e321715ed40cf982cbfafd96327869b1e369113f567bb80639301a03",
      "transactionIndex": "0x0",
      "blockHash": "0x2cc36915b7f580917e120ea740e156b3f9f8cabb4e8c4f295dd2a49332f6ec17",
      "blockNumber": "0x56a917",
      "from": "0xB54271D82813D21F8508FFffc005EdeDf72E1Bf9",
      "to": "0xC7f2Cf4845C6db0e1a1e91ED41Bcd0FcC1b0E141",
      "cumulativeGasUsed": "0x53b8",
      "gasUsed": "0x53b8",
      "contractAddress": null,
      "logs": [],
      "status": "0x1",
      "logsBloom": "0x00000000000000000000000000000000000000000000000000000000000000000000000000000000000000000000000000000000000000000000000000000000000000000000000000000000000000000000000000000000000000000000000000000000000000000000000000000000000000000000000000000000000000000000000000000000000000000000000000000000000000000000000000000000000000000000000000000000000000000000000000000000000000000000000000000000000000000000000000000000000000000000000000000000000000000000000000000000000000000000000000000000000000000000000000000000",
      "type": "0x2",
      "effectiveGasPrice": "0xb30cb760"
    },
    {
      "transactionHash": "0xc0af0a92a739536b9d0b20f00d7eff1502476bb371ddf8cdd04dc8319dba384a",
      "transactionIndex": "0x1",
      "blockHash": "0x2cc36915b7f580917e120ea740e156b3f9f8cabb4e8c4f295dd2a49332f6ec17",
      "blockNumber": "0x56a917",
      "from": "0xB54271D82813D21F8508FFffc005EdeDf72E1Bf9",
      "to": "0xC7f2Cf4845C6db0e1a1e91ED41Bcd0FcC1b0E141",
      "cumulativeGasUsed": "0xa770",
      "gasUsed": "0xa770",
      "contractAddress": null,
      "logs": [],
      "status": "0x1",
      "logsBloom": "0x00000000000000000000000000000000000000000000000000000000000000000000000000000000000000000000000000000000000000000000000000000000000000000000000000000000000000000000000000000000000000000000000000000000000000000000000000000000000000000000000000000000000000000000000000000000000000000000000000000000000000000000000000000000000000000000000000000000000000000000000000000000000000000000000000000000000000000000000000000000000000000000000000000000000000000000000000000000000000000000000000000000000000000000000000000000",
      "type": "0x2",
      "effectiveGasPrice": "0xb30cb760"
    },
    {
      "transactionHash": "0xf7a61b36eabc5909351931167be510dd7807691475224a8b3cad6f456bfda478",
      "transactionIndex": "0x0",
      "blockHash": "0xc548d85ced7495980a9576fbccc1bd1aa8322aae99e510936ddc17ae7969657c",
      "blockNumber": "0x56a918",
      "from": "0xB54271D82813D21F8508FFffc005EdeDf72E1Bf9",
      "to": "0xC7f2Cf4845C6db0e1a1e91ED41Bcd0FcC1b0E141",
      "cumulativeGasUsed": "0x53b8",
      "gasUsed": "0x53b8",
      "contractAddress": null,
      "logs": [],
      "status": "0x1",
      "logsBloom": "0x00000000000000000000000000000000000000000000000000000000000000000000000000000000000000000000000000000000000000000000000000000000000000000000000000000000000000000000000000000000000000000000000000000000000000000000000000000000000000000000000000000000000000000000000000000000000000000000000000000000000000000000000000000000000000000000000000000000000000000000000000000000000000000000000000000000000000000000000000000000000000000000000000000000000000000000000000000000000000000000000000000000000000000000000000000000",
      "type": "0x2",
      "effectiveGasPrice": "0xb30531b9"
    },
    {
      "transactionHash": "0x4ebdd23f8007c7c29b7aa1d32b59c8130e6d1067206f6f2e30fa81588df1578b",
      "transactionIndex": "0x0",
      "blockHash": "0x0e9e51da4921aba77f8096fd863837ad103ac201fbf1337a37707c4872fe5e70",
      "blockNumber": "0x56a919",
      "from": "0xB54271D82813D21F8508FFffc005EdeDf72E1Bf9",
      "to": "0x7AaCc5300ec7Ac58fe86645D08f21b1BEcadf99a",
      "cumulativeGasUsed": "0x548c",
      "gasUsed": "0x548c",
      "contractAddress": null,
      "logs": [],
      "status": "0x1",
      "logsBloom": "0x00000000000000000000000000000000000000000000000000000000000000000000000000000000000000000000000000000000000000000000000000000000000000000000000000000000000000000000000000000000000000000000000000000000000000000000000000000000000000000000000000000000000000000000000000000000000000000000000000000000000000000000000000000000000000000000000000000000000000000000000000000000000000000000000000000000000000000000000000000000000000000000000000000000000000000000000000000000000000000000000000000000000000000000000000000000",
      "type": "0x2",
      "effectiveGasPrice": "0xb2fe99ad"
    },
    {
      "transactionHash": "0x949c0b7a95ef9c65f88b35b6cb84c92590ab51ee3cf6209d95cb3c05e0122e06",
      "transactionIndex": "0x0",
      "blockHash": "0x87aa8dee1c43b480cbff8624eb8f724738e62bfeb32acfc7e4fab0ccd5d0ffbb",
      "blockNumber": "0x56a91a",
      "from": "0xB54271D82813D21F8508FFffc005EdeDf72E1Bf9",
      "to": "0x67cDE3E2d3e6e9d5413bD1Ecb01DC71BA3cF86E7",
      "cumulativeGasUsed": "0x5480",
      "gasUsed": "0x5480",
      "contractAddress": null,
      "logs": [],
      "status": "0x1",
      "logsBloom": "0x00000000000000000000000000000000000000000000000000000000000000000000000000000000000000000000000000000000000000000000000000000000000000000000000000000000000000000000000000000000000000000000000000000000000000000000000000000000000000000000000000000000000000000000000000000000000000000000000000000000000000000000000000000000000000000000000000000000000000000000000000000000000000000000000000000000000000000000000000000000000000000000000000000000000000000000000000000000000000000000000000000000000000000000000000000000",
      "type": "0x2",
      "effectiveGasPrice": "0xb2f8d45a"
    },
    {
      "transactionHash": "0xfeab25787fd8ac35ed4cd0cf5121c23422898a9d7331f4c238c43419c240c910",
      "transactionIndex": "0x0",
      "blockHash": "0x251ae06329f3e98cc1501c3b7ae34125d75f58e23e941f9efb28a0d6997e9047",
      "blockNumber": "0x56a91b",
      "from": "0xB54271D82813D21F8508FFffc005EdeDf72E1Bf9",
      "to": "0x9bF642ef0bc3f1544b1776251AeAc4fF216E3384",
      "cumulativeGasUsed": "0x5480",
      "gasUsed": "0x5480",
      "contractAddress": null,
      "logs": [],
      "status": "0x1",
      "logsBloom": "0x00000000000000000000000000000000000000000000000000000000000000000000000000000000000000000000000000000000000000000000000000000000000000000000000000000000000000000000000000000000000000000000000000000000000000000000000000000000000000000000000000000000000000000000000000000000000000000000000000000000000000000000000000000000000000000000000000000000000000000000000000000000000000000000000000000000000000000000000000000000000000000000000000000000000000000000000000000000000000000000000000000000000000000000000000000000",
      "type": "0x2",
      "effectiveGasPrice": "0xb2f3c76d"
    },
    {
      "transactionHash": "0x36b94affe807428770b5782925c99687a6ffecd0e479a684679e6cbc9835fb26",
      "transactionIndex": "0x1",
      "blockHash": "0x251ae06329f3e98cc1501c3b7ae34125d75f58e23e941f9efb28a0d6997e9047",
      "blockNumber": "0x56a91b",
      "from": "0xB54271D82813D21F8508FFffc005EdeDf72E1Bf9",
      "to": "0xEedBb16327A403a5229b6F95217dE9f338d74846",
      "cumulativeGasUsed": "0xa900",
      "gasUsed": "0xa900",
      "contractAddress": null,
      "logs": [],
      "status": "0x1",
      "logsBloom": "0x00000000000000000000000000000000000000000000000000000000000000000000000000000000000000000000000000000000000000000000000000000000000000000000000000000000000000000000000000000000000000000000000000000000000000000000000000000000000000000000000000000000000000000000000000000000000000000000000000000000000000000000000000000000000000000000000000000000000000000000000000000000000000000000000000000000000000000000000000000000000000000000000000000000000000000000000000000000000000000000000000000000000000000000000000000000",
      "type": "0x2",
      "effectiveGasPrice": "0xb2f3c76d"
    },
    {
      "transactionHash": "0x4686b515b14295332e8c2a2b6aea49817df34d57dad7d1e2761447f2048da1eb",
      "transactionIndex": "0x0",
      "blockHash": "0x8948b837d9b4153937825d4674c831125efa69298f01b578ffa910b11d0d8ac1",
      "blockNumber": "0x56a91c",
      "from": "0xB54271D82813D21F8508FFffc005EdeDf72E1Bf9",
      "to": "0x2B4707A92412D58a82d89EeAD6A5C7e35ce61450",
      "cumulativeGasUsed": "0x5480",
      "gasUsed": "0x5480",
      "contractAddress": null,
      "logs": [],
      "status": "0x1",
      "logsBloom": "0x00000000000000000000000000000000000000000000000000000000000000000000000000000000000000000000000000000000000000000000000000000000000000000000000000000000000000000000000000000000000000000000000000000000000000000000000000000000000000000000000000000000000000000000000000000000000000000000000000000000000000000000000000000000000000000000000000000000000000000000000000000000000000000000000000000000000000000000000000000000000000000000000000000000000000000000000000000000000000000000000000000000000000000000000000000000",
      "type": "0x2",
      "effectiveGasPrice": "0xb2ef5d85"
    },
    {
      "transactionHash": "0xa69629b34d9f2ee107d553997329d75c2fb7df0a8606cdb4dc2b81578e793f35",
      "transactionIndex": "0x0",
      "blockHash": "0x40574fcb33c0f12eb5ed66876bec79fbdb19cc86225543721360968d40e7f97a",
      "blockNumber": "0x56a91d",
      "from": "0xB54271D82813D21F8508FFffc005EdeDf72E1Bf9",
      "to": "0x1e8b6a99b4824793639d2873366c56D445a5f08d",
      "cumulativeGasUsed": "0x5480",
      "gasUsed": "0x5480",
      "contractAddress": null,
      "logs": [],
      "status": "0x1",
      "logsBloom": "0x00000000000000000000000000000000000000000000000000000000000000000000000000000000000000000000000000000000000000000000000000000000000000000000000000000000000000000000000000000000000000000000000000000000000000000000000000000000000000000000000000000000000000000000000000000000000000000000000000000000000000000000000000000000000000000000000000000000000000000000000000000000000000000000000000000000000000000000000000000000000000000000000000000000000000000000000000000000000000000000000000000000000000000000000000000000",
      "type": "0x2",
      "effectiveGasPrice": "0xb2eb7f03"
    },
    {
      "transactionHash": "0x2907b5811aabeae246d14dc666e3b51c74e169905913496f2d217c72d4658fe6",
      "transactionIndex": "0x1",
      "blockHash": "0x40574fcb33c0f12eb5ed66876bec79fbdb19cc86225543721360968d40e7f97a",
      "blockNumber": "0x56a91d",
      "from": "0xB54271D82813D21F8508FFffc005EdeDf72E1Bf9",
      "to": "0x7a68E92dF1aEF1F65c726810746Ed2a978434BbC",
      "cumulativeGasUsed": "0xa900",
      "gasUsed": "0xa900",
      "contractAddress": null,
      "logs": [],
      "status": "0x1",
      "logsBloom": "0x00000000000000000000000000000000000000000000000000000000000000000000000000000000000000000000000000000000000000000000000000000000000000000000000000000000000000000000000000000000000000000000000000000000000000000000000000000000000000000000000000000000000000000000000000000000000000000000000000000000000000000000000000000000000000000000000000000000000000000000000000000000000000000000000000000000000000000000000000000000000000000000000000000000000000000000000000000000000000000000000000000000000000000000000000000000",
      "type": "0x2",
      "effectiveGasPrice": "0xb2eb7f03"
    },
    {
      "transactionHash": "0x877a09c27781bd1aeaf7ae70021839c11cf93880287533c0d68d43150eccbb5d",
      "transactionIndex": "0x2",
      "blockHash": "0x40574fcb33c0f12eb5ed66876bec79fbdb19cc86225543721360968d40e7f97a",
      "blockNumber": "0x56a91d",
      "from": "0xB54271D82813D21F8508FFffc005EdeDf72E1Bf9",
      "to": "0x62Bd6F648Efbbe964Ce38592640C71a29d586eE9",
      "cumulativeGasUsed": "0xfd80",
      "gasUsed": "0xfd80",
      "contractAddress": null,
      "logs": [],
      "status": "0x1",
      "logsBloom": "0x00000000000000000000000000000000000000000000000000000000000000000000000000000000000000000000000000000000000000000000000000000000000000000000000000000000000000000000000000000000000000000000000000000000000000000000000000000000000000000000000000000000000000000000000000000000000000000000000000000000000000000000000000000000000000000000000000000000000000000000000000000000000000000000000000000000000000000000000000000000000000000000000000000000000000000000000000000000000000000000000000000000000000000000000000000000",
      "type": "0x2",
      "effectiveGasPrice": "0xb2eb7f03"
    },
    {
      "transactionHash": "0xc5fe20013efdcb785db67205a5751bdefd18e0c47fbb24fd0291d63c83bd2e47",
      "transactionIndex": "0x0",
      "blockHash": "0x3b3737cc5ec2cd6efc90c7c298774fbe7205100adbf978c7d4cf3da6f5b22d6d",
      "blockNumber": "0x56a91e",
      "from": "0xB54271D82813D21F8508FFffc005EdeDf72E1Bf9",
      "to": "0x67a6e25c585E57F8Ef1a573f734a124cE60cb583",
      "cumulativeGasUsed": "0x5480",
      "gasUsed": "0x5480",
      "contractAddress": null,
      "logs": [],
      "status": "0x1",
      "logsBloom": "0x00000000000000000000000000000000000000000000000000000000000000000000000000000000000000000000000000000000000000000000000000000000000000000000000000000000000000000000000000000000000000000000000000000000000000000000000000000000000000000000000000000000000000000000000000000000000000000000000000000000000000000000000000000000000000000000000000000000000000000000000000000000000000000000000000000000000000000000000000000000000000000000000000000000000000000000000000000000000000000000000000000000000000000000000000000000",
      "type": "0x2",
      "effectiveGasPrice": "0xb2e81ea5"
    },
    {
      "transactionHash": "0x3f501da55528e30a1f64fe68266fedf2568caf68f7ed19965cf08eb2ddb634c4",
      "transactionIndex": "0x0",
      "blockHash": "0x04705d8d3a454999c482a27eb78d12d53da26f50634624cc324dfc2feaf56046",
      "blockNumber": "0x56a91f",
      "from": "0xB54271D82813D21F8508FFffc005EdeDf72E1Bf9",
      "to": "0xb6087b053C85389A143E69B3f7420bed8059A5fd",
      "cumulativeGasUsed": "0x5480",
      "gasUsed": "0x5480",
      "contractAddress": null,
      "logs": [],
      "status": "0x1",
      "logsBloom": "0x00000000000000000000000000000000000000000000000000000000000000000000000000000000000000000000000000000000000000000000000000000000000000000000000000000000000000000000000000000000000000000000000000000000000000000000000000000000000000000000000000000000000000000000000000000000000000000000000000000000000000000000000000000000000000000000000000000000000000000000000000000000000000000000000000000000000000000000000000000000000000000000000000000000000000000000000000000000000000000000000000000000000000000000000000000000",
      "type": "0x2",
      "effectiveGasPrice": "0xb2e527a9"
    }
  ],
  "libraries": [],
  "pending": [],
  "returns": {},
  "timestamp": 1712894478,
  "chain": 11155111,
  "commit": "b4485ba"
}