{
  "transactions": [
    {
      "hash": "0x2db7ab96fc09b80c1aa76e4061383c4a494abdb205c3aaf8b680332895636b7c",
      "transactionType": "CALL",
      "contractName": "SLMinterOracle",
      "contractAddress": "0xc7f2cf4845c6db0e1a1e91ed41bcd0fcc1b0e141",
      "function": "createBrand(string,string,uint256,address)",
      "arguments": [
        "\"testing\"",
        "\"test\"",
        "54000",
        "0xAe443A7dbB2252Ee2AF1b4c9eEE755a1b2417ab4"
      ],
      "transaction": {
        "from": "0xae443a7dbb2252ee2af1b4c9eee755a1b2417ab4",
        "to": "0xc7f2cf4845c6db0e1a1e91ed41bcd0fcc1b0e141",
        "gas": "0x7992",
        "value": "0x0",
        "input": "0x920c46c3000000000000000000000000000000000000000000000000000000000000008000000000000000000000000000000000000000000000000000000000000000c0000000000000000000000000000000000000000000000000000000000000d2f0000000000000000000000000ae443a7dbb2252ee2af1b4c9eee755a1b2417ab4000000000000000000000000000000000000000000000000000000000000000774657374696e670000000000000000000000000000000000000000000000000000000000000000000000000000000000000000000000000000000000000000047465737400000000000000000000000000000000000000000000000000000000",
        "nonce": "0xe",
        "chainId": "0xaa36a7",
        "accessList": null,
        "type": null
      },
      "additionalContracts": [],
      "isFixedGasLimit": false
    }
  ],
  "receipts": [
    {
      "status": "0x1",
      "cumulativeGasUsed": "0x10441e1",
      "logs": [],
      "logsBloom": "0x00000000000000000000000000000000000000000000000000000000000000000000000000000000000000000000000000000000000000000000000000000000000000000000000000000000000000000000000000000000000000000000000000000000000000000000000000000000000000000000000000000000000000000000000000000000000000000000000000000000000000000000000000000000000000000000000000000000000000000000000000000000000000000000000000000000000000000000000000000000000000000000000000000000000000000000000000000000000000000000000000000000000000000000000000000000",
      "type": "0x2",
      "transactionHash": "0x2db7ab96fc09b80c1aa76e4061383c4a494abdb205c3aaf8b680332895636b7c",
      "transactionIndex": "0x79",
      "blockHash": "0x623e64331b82d8b5ab8a5caa6aed13f915c5297945a4bc8e951d331f1d30644d",
      "blockNumber": "0x56aa8b",
      "gasUsed": "0x5804",
      "effectiveGasPrice": "0x1dd547a5",
      "from": "0xae443a7dbb2252ee2af1b4c9eee755a1b2417ab4",
      "to": "0xc7f2cf4845c6db0e1a1e91ed41bcd0fcc1b0e141",
      "contractAddress": null
    }
  ],
  "libraries": [],
  "pending": [],
  "returns": {},
  "timestamp": 1712899127,
  "chain": 11155111,
  "commit": "b4485ba"
}