{
  "transactions": [
    {
      "hash": "0xa44957a0ad19dc99722e00fd2445ec7417ec0afebe9b7076753dc6325302e69b",
      "transactionType": "CALL",
      "contractName": "SLMinterOracle",
      "contractAddress": "0xC7f2Cf4845C6db0e1a1e91ED41Bcd0FcC1b0E141",
      "function": "createBrand(string,string,uint256,address)",
      "arguments": [
        "\"testing\"",
        "\"test\"",
        "54000",
        "0xAe443A7dbB2252Ee2AF1b4c9eEE755a1b2417ab4"
      ],
      "transaction": {
        "type": "0x02",
        "from": "0xae443a7dbb2252ee2af1b4c9eee755a1b2417ab4",
        "to": "0xc7f2cf4845c6db0e1a1e91ed41bcd0fcc1b0e141",
        "gas": "0x7992",
        "value": "0x0",
        "data": "0x920c46c3000000000000000000000000000000000000000000000000000000000000008000000000000000000000000000000000000000000000000000000000000000c0000000000000000000000000000000000000000000000000000000000000d2f0000000000000000000000000ae443a7dbb2252ee2af1b4c9eee755a1b2417ab4000000000000000000000000000000000000000000000000000000000000000774657374696e670000000000000000000000000000000000000000000000000000000000000000000000000000000000000000000000000000000000000000047465737400000000000000000000000000000000000000000000000000000000",
        "nonce": "0x2",
        "accessList": []
      },
      "additionalContracts": [],
      "isFixedGasLimit": false
    },
    {
      "hash": "0x38a611be0a7345d77e20b9ea7f1cda386a1026fc03f12437eadfc1d133f4eba4",
      "transactionType": "CALL",
      "contractName": "SLMinterOracle",
      "contractAddress": "0xC7f2Cf4845C6db0e1a1e91ED41Bcd0FcC1b0E141",
      "function": "createBrand(string,string,uint256,address)",
      "arguments": [
        "\"Delta\"",
        "\"Miles\"",
        "54000",
        "0xAe443A7dbB2252Ee2AF1b4c9eEE755a1b2417ab4"
      ],
      "transaction": {
        "type": "0x02",
        "from": "0xae443a7dbb2252ee2af1b4c9eee755a1b2417ab4",
        "to": "0xc7f2cf4845c6db0e1a1e91ed41bcd0fcc1b0e141",
        "gas": "0x7981",
        "value": "0x0",
        "data": "0x920c46c3000000000000000000000000000000000000000000000000000000000000008000000000000000000000000000000000000000000000000000000000000000c0000000000000000000000000000000000000000000000000000000000000d2f0000000000000000000000000ae443a7dbb2252ee2af1b4c9eee755a1b2417ab4000000000000000000000000000000000000000000000000000000000000000544656c746100000000000000000000000000000000000000000000000000000000000000000000000000000000000000000000000000000000000000000000054d696c6573000000000000000000000000000000000000000000000000000000",
        "nonce": "0x3",
        "accessList": []
      },
      "additionalContracts": [],
      "isFixedGasLimit": false
    },
    {
      "hash": "0xb60dcd9f00f3fc4d4b8e636c3e905d01a8455ab679aca4fc7a6ba73063311275",
      "transactionType": "CALL",
      "contractName": "SLMinterOracle",
      "contractAddress": "0xC7f2Cf4845C6db0e1a1e91ED41Bcd0FcC1b0E141",
      "function": "createBrand(string,string,uint256,address)",
      "arguments": [
        "\"Starbucks\"",
        "\"Points\"",
        "2476",
        "0xAe443A7dbB2252Ee2AF1b4c9eEE755a1b2417ab4"
      ],
      "transaction": {
        "type": "0x02",
        "from": "0xae443a7dbb2252ee2af1b4c9eee755a1b2417ab4",
        "to": "0xc7f2cf4845c6db0e1a1e91ed41bcd0fcc1b0e141",
        "gas": "0x79d4",
        "value": "0x0",
        "data": "0x920c46c3000000000000000000000000000000000000000000000000000000000000008000000000000000000000000000000000000000000000000000000000000000c000000000000000000000000000000000000000000000000000000000000009ac000000000000000000000000ae443a7dbb2252ee2af1b4c9eee755a1b2417ab40000000000000000000000000000000000000000000000000000000000000009537461726275636b7300000000000000000000000000000000000000000000000000000000000000000000000000000000000000000000000000000000000006506f696e74730000000000000000000000000000000000000000000000000000",
        "nonce": "0x4",
        "accessList": []
      },
      "additionalContracts": [],
      "isFixedGasLimit": false
    },
    {
      "hash": "0xe397f03daa96f0853b6b772a719b7218d41fc5754b6fface3b5817e92f9db7c1",
      "transactionType": "CALL",
      "contractName": "SLMinterOracle",
      "contractAddress": "0xC7f2Cf4845C6db0e1a1e91ED41Bcd0FcC1b0E141",
      "function": "createBrand(string,string,uint256,address)",
      "arguments": [
        "\"Walmart\"",
        "\"Points\"",
        "2300",
        "0xAe443A7dbB2252Ee2AF1b4c9eEE755a1b2417ab4"
      ],
      "transaction": {
        "type": "0x02",
        "from": "0xae443a7dbb2252ee2af1b4c9eee755a1b2417ab4",
        "to": "0xc7f2cf4845c6db0e1a1e91ed41bcd0fcc1b0e141",
        "gas": "0x79b2",
        "value": "0x0",
        "data": "0x920c46c3000000000000000000000000000000000000000000000000000000000000008000000000000000000000000000000000000000000000000000000000000000c000000000000000000000000000000000000000000000000000000000000008fc000000000000000000000000ae443a7dbb2252ee2af1b4c9eee755a1b2417ab4000000000000000000000000000000000000000000000000000000000000000757616c6d617274000000000000000000000000000000000000000000000000000000000000000000000000000000000000000000000000000000000000000006506f696e74730000000000000000000000000000000000000000000000000000",
        "nonce": "0x5",
        "accessList": []
      },
      "additionalContracts": [],
      "isFixedGasLimit": false
    },
    {
      "hash": "0x772d97192ebc979ab58f13d30a0a4fc28f5d27262655a0dd61a206b780b12548",
      "transactionType": "CALL",
      "contractName": "SLMinterOracle",
      "contractAddress": "0xC7f2Cf4845C6db0e1a1e91ED41Bcd0FcC1b0E141",
      "function": "createBrand(string,string,uint256,address)",
      "arguments": [
        "\"Shell\"",
        "\"Gallons\"",
        "744",
        "0xAe443A7dbB2252Ee2AF1b4c9eEE755a1b2417ab4"
      ],
      "transaction": {
        "type": "0x02",
        "from": "0xae443a7dbb2252ee2af1b4c9eee755a1b2417ab4",
        "to": "0xc7f2cf4845c6db0e1a1e91ed41bcd0fcc1b0e141",
        "gas": "0x79a2",
        "value": "0x0",
        "data": "0x920c46c3000000000000000000000000000000000000000000000000000000000000008000000000000000000000000000000000000000000000000000000000000000c000000000000000000000000000000000000000000000000000000000000002e8000000000000000000000000ae443a7dbb2252ee2af1b4c9eee755a1b2417ab400000000000000000000000000000000000000000000000000000000000000055368656c6c000000000000000000000000000000000000000000000000000000000000000000000000000000000000000000000000000000000000000000000747616c6c6f6e7300000000000000000000000000000000000000000000000000",
        "nonce": "0x6",
        "accessList": []
      },
      "additionalContracts": [],
      "isFixedGasLimit": false
    },
    {
      "hash": "0xde14a365d1c08cfcb51959bd3220b0f0e73679e9debdb336d583a532aba8f1e2",
      "transactionType": "CALL",
      "contractName": "SLMinterOracle",
      "contractAddress": "0xC7f2Cf4845C6db0e1a1e91ED41Bcd0FcC1b0E141",
      "function": "createBrand(string,string,uint256,address)",
      "arguments": [
        "\"Regal Cinema\"",
        "\"Points\"",
        "3078",
        "0xAe443A7dbB2252Ee2AF1b4c9eEE755a1b2417ab4"
      ],
      "transaction": {
        "type": "0x02",
        "from": "0xae443a7dbb2252ee2af1b4c9eee755a1b2417ab4",
        "to": "0xc7f2cf4845c6db0e1a1e91ed41bcd0fcc1b0e141",
        "gas": "0x7a05",
        "value": "0x0",
        "data": "0x920c46c3000000000000000000000000000000000000000000000000000000000000008000000000000000000000000000000000000000000000000000000000000000c00000000000000000000000000000000000000000000000000000000000000c06000000000000000000000000ae443a7dbb2252ee2af1b4c9eee755a1b2417ab4000000000000000000000000000000000000000000000000000000000000000c526567616c2043696e656d6100000000000000000000000000000000000000000000000000000000000000000000000000000000000000000000000000000006506f696e74730000000000000000000000000000000000000000000000000000",
        "nonce": "0x7",
        "accessList": []
      },
      "additionalContracts": [],
      "isFixedGasLimit": false
    },
    {
      "hash": "0x6fe4e2389768999d6982b1c049c45c9e82fdb44b7d2703d9335638a2aa0904c5",
      "transactionType": "CALL",
      "contractName": "SLMinterOracle",
      "contractAddress": "0xC7f2Cf4845C6db0e1a1e91ED41Bcd0FcC1b0E141",
      "function": "createBrand(string,string,uint256,address)",
      "arguments": [
        "\"McDonalds\"",
        "\"Points\"",
        "2667",
        "0xAe443A7dbB2252Ee2AF1b4c9eEE755a1b2417ab4"
      ],
      "transaction": {
        "type": "0x02",
        "from": "0xae443a7dbb2252ee2af1b4c9eee755a1b2417ab4",
        "to": "0xc7f2cf4845c6db0e1a1e91ed41bcd0fcc1b0e141",
        "gas": "0x79d4",
        "value": "0x0",
        "data": "0x920c46c3000000000000000000000000000000000000000000000000000000000000008000000000000000000000000000000000000000000000000000000000000000c00000000000000000000000000000000000000000000000000000000000000a6b000000000000000000000000ae443a7dbb2252ee2af1b4c9eee755a1b2417ab400000000000000000000000000000000000000000000000000000000000000094d63446f6e616c647300000000000000000000000000000000000000000000000000000000000000000000000000000000000000000000000000000000000006506f696e74730000000000000000000000000000000000000000000000000000",
        "nonce": "0x8",
        "accessList": []
      },
      "additionalContracts": [],
      "isFixedGasLimit": false
    },
    {
      "hash": "0xc161f297e8383d7c262cef3ff80aea30bfbaa44d80a9c1f8b059a86a398b438a",
      "transactionType": "CALL",
      "contractName": "SLMinterOracle",
      "contractAddress": "0xC7f2Cf4845C6db0e1a1e91ED41Bcd0FcC1b0E141",
      "function": "createBrand(string,string,uint256,address)",
      "arguments": [
        "\"Amazon\"",
        "\"Points\"",
        "2280",
        "0xAe443A7dbB2252Ee2AF1b4c9eEE755a1b2417ab4"
      ],
      "transaction": {
        "type": "0x02",
        "from": "0xae443a7dbb2252ee2af1b4c9eee755a1b2417ab4",
        "to": "0xc7f2cf4845c6db0e1a1e91ed41bcd0fcc1b0e141",
        "gas": "0x79a2",
        "value": "0x0",
        "data": "0x920c46c3000000000000000000000000000000000000000000000000000000000000008000000000000000000000000000000000000000000000000000000000000000c000000000000000000000000000000000000000000000000000000000000008e8000000000000000000000000ae443a7dbb2252ee2af1b4c9eee755a1b2417ab40000000000000000000000000000000000000000000000000000000000000006416d617a6f6e00000000000000000000000000000000000000000000000000000000000000000000000000000000000000000000000000000000000000000006506f696e74730000000000000000000000000000000000000000000000000000",
        "nonce": "0x9",
        "accessList": []
      },
      "additionalContracts": [],
      "isFixedGasLimit": false
    },
    {
      "hash": "0xf7d2d2648908d59edd55223e0f8207d7c1a2dd4763f29e8372662eb553d430dd",
      "transactionType": "CALL",
      "contractName": "SLMinterOracle",
      "contractAddress": "0xC7f2Cf4845C6db0e1a1e91ED41Bcd0FcC1b0E141",
      "function": "createBrand(string,string,uint256,address)",
      "arguments": [
        "\"Sephora\"",
        "\"Points\"",
        "2500",
        "0xAe443A7dbB2252Ee2AF1b4c9eEE755a1b2417ab4"
      ],
      "transaction": {
        "type": "0x02",
        "from": "0xae443a7dbb2252ee2af1b4c9eee755a1b2417ab4",
        "to": "0xc7f2cf4845c6db0e1a1e91ed41bcd0fcc1b0e141",
        "gas": "0x79b2",
        "value": "0x0",
        "data": "0x920c46c3000000000000000000000000000000000000000000000000000000000000008000000000000000000000000000000000000000000000000000000000000000c000000000000000000000000000000000000000000000000000000000000009c4000000000000000000000000ae443a7dbb2252ee2af1b4c9eee755a1b2417ab40000000000000000000000000000000000000000000000000000000000000007536570686f7261000000000000000000000000000000000000000000000000000000000000000000000000000000000000000000000000000000000000000006506f696e74730000000000000000000000000000000000000000000000000000",
        "nonce": "0xa",
        "accessList": []
      },
      "additionalContracts": [],
      "isFixedGasLimit": false
    },
    {
      "hash": "0x233ee0b16649f2c8ce159c9ab0c8cc2a23b6799602d27d9c482ac21d49b6e292",
      "transactionType": "CALL",
      "contractName": "SLMinterOracle",
      "contractAddress": "0xC7f2Cf4845C6db0e1a1e91ED41Bcd0FcC1b0E141",
      "function": "createBrand(string,string,uint256,address)",
      "arguments": [
        "\"Walgreens\"",
        "\"Points\"",
        "3080",
        "0xAe443A7dbB2252Ee2AF1b4c9eEE755a1b2417ab4"
      ],
      "transaction": {
        "type": "0x02",
        "from": "0xae443a7dbb2252ee2af1b4c9eee755a1b2417ab4",
        "to": "0xc7f2cf4845c6db0e1a1e91ed41bcd0fcc1b0e141",
        "gas": "0x79d4",
        "value": "0x0",
        "data": "0x920c46c3000000000000000000000000000000000000000000000000000000000000008000000000000000000000000000000000000000000000000000000000000000c00000000000000000000000000000000000000000000000000000000000000c08000000000000000000000000ae443a7dbb2252ee2af1b4c9eee755a1b2417ab4000000000000000000000000000000000000000000000000000000000000000957616c677265656e7300000000000000000000000000000000000000000000000000000000000000000000000000000000000000000000000000000000000006506f696e74730000000000000000000000000000000000000000000000000000",
        "nonce": "0xb",
        "accessList": []
      },
      "additionalContracts": [],
      "isFixedGasLimit": false
    },
    {
      "hash": "0x0dc2231d1d29c9272ac7c0d82869425b7deb723844e6109a5dcfac298bc1b2ba",
      "transactionType": "CALL",
      "contractName": "SLMinterOracle",
      "contractAddress": "0xC7f2Cf4845C6db0e1a1e91ED41Bcd0FcC1b0E141",
      "function": "createBrand(string,string,uint256,address)",
      "arguments": [
        "\"Lyft\"",
        "\"Points\"",
        "2500",
        "0xAe443A7dbB2252Ee2AF1b4c9eEE755a1b2417ab4"
      ],
      "transaction": {
        "type": "0x02",
        "from": "0xae443a7dbb2252ee2af1b4c9eee755a1b2417ab4",
        "to": "0xc7f2cf4845c6db0e1a1e91ed41bcd0fcc1b0e141",
        "gas": "0x7981",
        "value": "0x0",
        "data": "0x920c46c3000000000000000000000000000000000000000000000000000000000000008000000000000000000000000000000000000000000000000000000000000000c000000000000000000000000000000000000000000000000000000000000009c4000000000000000000000000ae443a7dbb2252ee2af1b4c9eee755a1b2417ab400000000000000000000000000000000000000000000000000000000000000044c796674000000000000000000000000000000000000000000000000000000000000000000000000000000000000000000000000000000000000000000000006506f696e74730000000000000000000000000000000000000000000000000000",
        "nonce": "0xc",
        "accessList": []
      },
      "additionalContracts": [],
      "isFixedGasLimit": false
    }
  ],
  "receipts": [
    {
      "transactionHash": "0xa44957a0ad19dc99722e00fd2445ec7417ec0afebe9b7076753dc6325302e69b",
      "transactionIndex": "0x13",
      "blockHash": "0x119ef599bd7328b939b125467525617ca24ed01aab78deee7fa5eeeb98cda4a8",
      "blockNumber": "0x56a9fb",
      "from": "0xAe443A7dbB2252Ee2AF1b4c9eEE755a1b2417ab4",
      "to": "0xC7f2Cf4845C6db0e1a1e91ED41Bcd0FcC1b0E141",
      "cumulativeGasUsed": "0x79a25",
      "gasUsed": "0x5804",
      "contractAddress": null,
      "logs": [],
      "status": "0x1",
      "logsBloom": "0x00000000000000000000000000000000000000000000000000000000000000000000000000000000000000000000000000000000000000000000000000000000000000000000000000000000000000000000000000000000000000000000000000000000000000000000000000000000000000000000000000000000000000000000000000000000000000000000000000000000000000000000000000000000000000000000000000000000000000000000000000000000000000000000000000000000000000000000000000000000000000000000000000000000000000000000000000000000000000000000000000000000000000000000000000000000",
      "type": "0x2",
      "effectiveGasPrice": "0xb2da9001"
    },
    {
      "transactionHash": "0x38a611be0a7345d77e20b9ea7f1cda386a1026fc03f12437eadfc1d133f4eba4",
      "transactionIndex": "0x14",
      "blockHash": "0x119ef599bd7328b939b125467525617ca24ed01aab78deee7fa5eeeb98cda4a8",
      "blockNumber": "0x56a9fb",
      "from": "0xAe443A7dbB2252Ee2AF1b4c9eEE755a1b2417ab4",
      "to": "0xC7f2Cf4845C6db0e1a1e91ED41Bcd0FcC1b0E141",
      "cumulativeGasUsed": "0x7f21d",
      "gasUsed": "0x57f8",
      "contractAddress": null,
      "logs": [],
      "status": "0x1",
      "logsBloom": "0x00000000000000000000000000000000000000000000000000000000000000000000000000000000000000000000000000000000000000000000000000000000000000000000000000000000000000000000000000000000000000000000000000000000000000000000000000000000000000000000000000000000000000000000000000000000000000000000000000000000000000000000000000000000000000000000000000000000000000000000000000000000000000000000000000000000000000000000000000000000000000000000000000000000000000000000000000000000000000000000000000000000000000000000000000000000",
      "type": "0x2",
      "effectiveGasPrice": "0xb2da9001"
    },
    {
      "transactionHash": "0xb60dcd9f00f3fc4d4b8e636c3e905d01a8455ab679aca4fc7a6ba73063311275",
      "transactionIndex": "0x15",
      "blockHash": "0x119ef599bd7328b939b125467525617ca24ed01aab78deee7fa5eeeb98cda4a8",
      "blockNumber": "0x56a9fb",
      "from": "0xAe443A7dbB2252Ee2AF1b4c9eEE755a1b2417ab4",
      "to": "0xC7f2Cf4845C6db0e1a1e91ED41Bcd0FcC1b0E141",
      "cumulativeGasUsed": "0x84a51",
      "gasUsed": "0x5834",
      "contractAddress": null,
      "logs": [],
      "status": "0x1",
      "logsBloom": "0x00000000000000000000000000000000000000000000000000000000000000000000000000000000000000000000000000000000000000000000000000000000000000000000000000000000000000000000000000000000000000000000000000000000000000000000000000000000000000000000000000000000000000000000000000000000000000000000000000000000000000000000000000000000000000000000000000000000000000000000000000000000000000000000000000000000000000000000000000000000000000000000000000000000000000000000000000000000000000000000000000000000000000000000000000000000",
      "type": "0x2",
      "effectiveGasPrice": "0xb2da9001"
    },
    {
      "transactionHash": "0xe397f03daa96f0853b6b772a719b7218d41fc5754b6fface3b5817e92f9db7c1",
      "transactionIndex": "0x16",
      "blockHash": "0x119ef599bd7328b939b125467525617ca24ed01aab78deee7fa5eeeb98cda4a8",
      "blockNumber": "0x56a9fb",
      "from": "0xAe443A7dbB2252Ee2AF1b4c9eEE755a1b2417ab4",
      "to": "0xC7f2Cf4845C6db0e1a1e91ED41Bcd0FcC1b0E141",
      "cumulativeGasUsed": "0x8a26d",
      "gasUsed": "0x581c",
      "contractAddress": null,
      "logs": [],
      "status": "0x1",
      "logsBloom": "0x00000000000000000000000000000000000000000000000000000000000000000000000000000000000000000000000000000000000000000000000000000000000000000000000000000000000000000000000000000000000000000000000000000000000000000000000000000000000000000000000000000000000000000000000000000000000000000000000000000000000000000000000000000000000000000000000000000000000000000000000000000000000000000000000000000000000000000000000000000000000000000000000000000000000000000000000000000000000000000000000000000000000000000000000000000000",
      "type": "0x2",
      "effectiveGasPrice": "0xb2da9001"
    },
    {
      "transactionHash": "0x772d97192ebc979ab58f13d30a0a4fc28f5d27262655a0dd61a206b780b12548",
      "transactionIndex": "0x17",
      "blockHash": "0x119ef599bd7328b939b125467525617ca24ed01aab78deee7fa5eeeb98cda4a8",
      "blockNumber": "0x56a9fb",
      "from": "0xAe443A7dbB2252Ee2AF1b4c9eEE755a1b2417ab4",
      "to": "0xC7f2Cf4845C6db0e1a1e91ED41Bcd0FcC1b0E141",
      "cumulativeGasUsed": "0x8fa7d",
      "gasUsed": "0x5810",
      "contractAddress": null,
      "logs": [],
      "status": "0x1",
      "logsBloom": "0x00000000000000000000000000000000000000000000000000000000000000000000000000000000000000000000000000000000000000000000000000000000000000000000000000000000000000000000000000000000000000000000000000000000000000000000000000000000000000000000000000000000000000000000000000000000000000000000000000000000000000000000000000000000000000000000000000000000000000000000000000000000000000000000000000000000000000000000000000000000000000000000000000000000000000000000000000000000000000000000000000000000000000000000000000000000",
      "type": "0x2",
      "effectiveGasPrice": "0xb2da9001"
    },
    {
      "transactionHash": "0xde14a365d1c08cfcb51959bd3220b0f0e73679e9debdb336d583a532aba8f1e2",
      "transactionIndex": "0x18",
      "blockHash": "0x119ef599bd7328b939b125467525617ca24ed01aab78deee7fa5eeeb98cda4a8",
      "blockNumber": "0x56a9fb",
      "from": "0xAe443A7dbB2252Ee2AF1b4c9eEE755a1b2417ab4",
      "to": "0xC7f2Cf4845C6db0e1a1e91ED41Bcd0FcC1b0E141",
      "cumulativeGasUsed": "0x952d5",
      "gasUsed": "0x5858",
      "contractAddress": null,
      "logs": [],
      "status": "0x1",
      "logsBloom": "0x00000000000000000000000000000000000000000000000000000000000000000000000000000000000000000000000000000000000000000000000000000000000000000000000000000000000000000000000000000000000000000000000000000000000000000000000000000000000000000000000000000000000000000000000000000000000000000000000000000000000000000000000000000000000000000000000000000000000000000000000000000000000000000000000000000000000000000000000000000000000000000000000000000000000000000000000000000000000000000000000000000000000000000000000000000000",
      "type": "0x2",
      "effectiveGasPrice": "0xb2da9001"
    },
    {
      "transactionHash": "0x6fe4e2389768999d6982b1c049c45c9e82fdb44b7d2703d9335638a2aa0904c5",
      "transactionIndex": "0x19",
      "blockHash": "0x119ef599bd7328b939b125467525617ca24ed01aab78deee7fa5eeeb98cda4a8",
      "blockNumber": "0x56a9fb",
      "from": "0xAe443A7dbB2252Ee2AF1b4c9eEE755a1b2417ab4",
      "to": "0xC7f2Cf4845C6db0e1a1e91ED41Bcd0FcC1b0E141",
      "cumulativeGasUsed": "0x9ab09",
      "gasUsed": "0x5834",
      "contractAddress": null,
      "logs": [],
      "status": "0x1",
      "logsBloom": "0x00000000000000000000000000000000000000000000000000000000000000000000000000000000000000000000000000000000000000000000000000000000000000000000000000000000000000000000000000000000000000000000000000000000000000000000000000000000000000000000000000000000000000000000000000000000000000000000000000000000000000000000000000000000000000000000000000000000000000000000000000000000000000000000000000000000000000000000000000000000000000000000000000000000000000000000000000000000000000000000000000000000000000000000000000000000",
      "type": "0x2",
      "effectiveGasPrice": "0xb2da9001"
    },
    {
      "transactionHash": "0xc161f297e8383d7c262cef3ff80aea30bfbaa44d80a9c1f8b059a86a398b438a",
      "transactionIndex": "0x1a",
      "blockHash": "0x119ef599bd7328b939b125467525617ca24ed01aab78deee7fa5eeeb98cda4a8",
      "blockNumber": "0x56a9fb",
      "from": "0xAe443A7dbB2252Ee2AF1b4c9eEE755a1b2417ab4",
      "to": "0xC7f2Cf4845C6db0e1a1e91ED41Bcd0FcC1b0E141",
      "cumulativeGasUsed": "0xa0319",
      "gasUsed": "0x5810",
      "contractAddress": null,
      "logs": [],
      "status": "0x1",
      "logsBloom": "0x00000000000000000000000000000000000000000000000000000000000000000000000000000000000000000000000000000000000000000000000000000000000000000000000000000000000000000000000000000000000000000000000000000000000000000000000000000000000000000000000000000000000000000000000000000000000000000000000000000000000000000000000000000000000000000000000000000000000000000000000000000000000000000000000000000000000000000000000000000000000000000000000000000000000000000000000000000000000000000000000000000000000000000000000000000000",
      "type": "0x2",
      "effectiveGasPrice": "0xb2da9001"
    },
    {
      "transactionHash": "0xf7d2d2648908d59edd55223e0f8207d7c1a2dd4763f29e8372662eb553d430dd",
      "transactionIndex": "0x1b",
      "blockHash": "0x119ef599bd7328b939b125467525617ca24ed01aab78deee7fa5eeeb98cda4a8",
      "blockNumber": "0x56a9fb",
      "from": "0xAe443A7dbB2252Ee2AF1b4c9eEE755a1b2417ab4",
      "to": "0xC7f2Cf4845C6db0e1a1e91ED41Bcd0FcC1b0E141",
      "cumulativeGasUsed": "0xa5b35",
      "gasUsed": "0x581c",
      "contractAddress": null,
      "logs": [],
      "status": "0x1",
      "logsBloom": "0x00000000000000000000000000000000000000000000000000000000000000000000000000000000000000000000000000000000000000000000000000000000000000000000000000000000000000000000000000000000000000000000000000000000000000000000000000000000000000000000000000000000000000000000000000000000000000000000000000000000000000000000000000000000000000000000000000000000000000000000000000000000000000000000000000000000000000000000000000000000000000000000000000000000000000000000000000000000000000000000000000000000000000000000000000000000",
      "type": "0x2",
      "effectiveGasPrice": "0xb2da9001"
    },
    {
      "transactionHash": "0x233ee0b16649f2c8ce159c9ab0c8cc2a23b6799602d27d9c482ac21d49b6e292",
      "transactionIndex": "0x1c",
      "blockHash": "0x119ef599bd7328b939b125467525617ca24ed01aab78deee7fa5eeeb98cda4a8",
      "blockNumber": "0x56a9fb",
      "from": "0xAe443A7dbB2252Ee2AF1b4c9eEE755a1b2417ab4",
      "to": "0xC7f2Cf4845C6db0e1a1e91ED41Bcd0FcC1b0E141",
      "cumulativeGasUsed": "0xab369",
      "gasUsed": "0x5834",
      "contractAddress": null,
      "logs": [],
      "status": "0x1",
      "logsBloom": "0x00000000000000000000000000000000000000000000000000000000000000000000000000000000000000000000000000000000000000000000000000000000000000000000000000000000000000000000000000000000000000000000000000000000000000000000000000000000000000000000000000000000000000000000000000000000000000000000000000000000000000000000000000000000000000000000000000000000000000000000000000000000000000000000000000000000000000000000000000000000000000000000000000000000000000000000000000000000000000000000000000000000000000000000000000000000",
      "type": "0x2",
      "effectiveGasPrice": "0xb2da9001"
    },
    {
      "transactionHash": "0x0dc2231d1d29c9272ac7c0d82869425b7deb723844e6109a5dcfac298bc1b2ba",
      "transactionIndex": "0x1d",
      "blockHash": "0x119ef599bd7328b939b125467525617ca24ed01aab78deee7fa5eeeb98cda4a8",
      "blockNumber": "0x56a9fb",
      "from": "0xAe443A7dbB2252Ee2AF1b4c9eEE755a1b2417ab4",
      "to": "0xC7f2Cf4845C6db0e1a1e91ED41Bcd0FcC1b0E141",
      "cumulativeGasUsed": "0xb0b61",
      "gasUsed": "0x57f8",
      "contractAddress": null,
      "logs": [],
      "status": "0x1",
      "logsBloom": "0x00000000000000000000000000000000000000000000000000000000000000000000000000000000000000000000000000000000000000000000000000000000000000000000000000000000000000000000000000000000000000000000000000000000000000000000000000000000000000000000000000000000000000000000000000000000000000000000000000000000000000000000000000000000000000000000000000000000000000000000000000000000000000000000000000000000000000000000000000000000000000000000000000000000000000000000000000000000000000000000000000000000000000000000000000000000",
      "type": "0x2",
      "effectiveGasPrice": "0xb2da9001"
    }
  ],
  "libraries": [],
  "pending": [],
  "returns": {},
  "timestamp": 1712897401,
  "chain": 11155111,
  "commit": "b4485ba"
}