{
  "transactions": [
    {
      "hash": "0xd42687b1c566215622561df76201dfcb23a4541082c429c974701e206631dd4e",
      "transactionType": "CALL",
      "contractName": "SLMinterOracle",
      "contractAddress": "0xC7f2Cf4845C6db0e1a1e91ED41Bcd0FcC1b0E141",
      "function": "createBrand(string,string,uint256,address)",
      "arguments": [
        "\"testing\"",
        "\"test\"",
        "54000",
        "0xAe443A7dbB2252Ee2AF1b4c9eEE755a1b2417ab4"
      ],
      "transaction": {
        "type": "0x02",
        "from": "0xae443a7dbb2252ee2af1b4c9eee755a1b2417ab4",
        "to": "0xc7f2cf4845c6db0e1a1e91ed41bcd0fcc1b0e141",
        "gas": "0x7992",
        "value": "0x0",
        "data": "0x920c46c3000000000000000000000000000000000000000000000000000000000000008000000000000000000000000000000000000000000000000000000000000000c0000000000000000000000000000000000000000000000000000000000000d2f0000000000000000000000000ae443a7dbb2252ee2af1b4c9eee755a1b2417ab4000000000000000000000000000000000000000000000000000000000000000774657374696e670000000000000000000000000000000000000000000000000000000000000000000000000000000000000000000000000000000000000000047465737400000000000000000000000000000000000000000000000000000000",
        "nonce": "0x0",
        "accessList": []
      },
      "additionalContracts": [],
      "isFixedGasLimit": false
    }
  ],
  "receipts": [
    {
      "transactionHash": "0xd42687b1c566215622561df76201dfcb23a4541082c429c974701e206631dd4e",
      "transactionIndex": "0x16",
      "blockHash": "0x656efdd276ec64d417ef773b7f249c4d88bfcf41de118baffd92de0346200acb",
      "blockNumber": "0x56a9e3",
      "from": "0xAe443A7dbB2252Ee2AF1b4c9eEE755a1b2417ab4",
      "to": "0xC7f2Cf4845C6db0e1a1e91ED41Bcd0FcC1b0E141",
      "cumulativeGasUsed": "0x9c36f",
      "gasUsed": "0x5804",
      "contractAddress": null,
      "logs": [],
      "status": "0x1",
      "logsBloom": "0x00000000000000000000000000000000000000000000000000000000000000000000000000000000000000000000000000000000000000000000000000000000000000000000000000000000000000000000000000000000000000000000000000000000000000000000000000000000000000000000000000000000000000000000000000000000000000000000000000000000000000000000000000000000000000000000000000000000000000000000000000000000000000000000000000000000000000000000000000000000000000000000000000000000000000000000000000000000000000000000000000000000000000000000000000000000",
      "type": "0x2",
      "effectiveGasPrice": "0xb2e0c9dc"
    }
  ],
  "libraries": [],
  "pending": [],
  "returns": {},
  "timestamp": 1712897113,
  "chain": 11155111,
  "commit": "b4485ba"
}