{
  "transactions": [
    {
      "hash": "0xa50bbd55f83363d45f1bcd4db7218c0dc946485baa200ca7517a338433cd7071",
      "transactionType": "CALL",
      "contractName": "SLMinterOracle",
      "contractAddress": "0xC7f2Cf4845C6db0e1a1e91ED41Bcd0FcC1b0E141",
      "function": "createBrand(string,string,uint256,address)",
      "arguments": [
        "\"Delta\"",
        "\"Miles\"",
        "54000",
        "0xB54271D82813D21F8508FFffc005EdeDf72E1Bf9"
      ],
      "transaction": {
        "type": "0x02",
        "from": "0xb54271d82813d21f8508ffffc005ededf72e1bf9",
        "to": "0xc7f2cf4845c6db0e1a1e91ed41bcd0fcc1b0e141",
        "gas": "0x7981",
        "value": "0x0",
        "data": "0x920c46c3000000000000000000000000000000000000000000000000000000000000008000000000000000000000000000000000000000000000000000000000000000c0000000000000000000000000000000000000000000000000000000000000d2f0000000000000000000000000b54271d82813d21f8508ffffc005ededf72e1bf9000000000000000000000000000000000000000000000000000000000000000544656c746100000000000000000000000000000000000000000000000000000000000000000000000000000000000000000000000000000000000000000000054d696c6573000000000000000000000000000000000000000000000000000000",
        "nonce": "0x6d",
        "accessList": []
      },
      "additionalContracts": [],
      "isFixedGasLimit": false
    },
    {
      "hash": "0xae21eab42001b99eaa828a385c720e5757d4605f4fb19ab748abf49ef75de520",
      "transactionType": "CALL",
      "contractName": "SLMinterOracle",
      "contractAddress": "0xC7f2Cf4845C6db0e1a1e91ED41Bcd0FcC1b0E141",
      "function": "createBrand(string,string,uint256,address)",
      "arguments": [
        "\"Starbucks\"",
        "\"Points\"",
        "2476",
        "0xB54271D82813D21F8508FFffc005EdeDf72E1Bf9"
      ],
      "transaction": {
        "type": "0x02",
        "from": "0xb54271d82813d21f8508ffffc005ededf72e1bf9",
        "to": "0xc7f2cf4845c6db0e1a1e91ed41bcd0fcc1b0e141",
        "gas": "0x79d4",
        "value": "0x0",
        "data": "0x920c46c3000000000000000000000000000000000000000000000000000000000000008000000000000000000000000000000000000000000000000000000000000000c000000000000000000000000000000000000000000000000000000000000009ac000000000000000000000000b54271d82813d21f8508ffffc005ededf72e1bf90000000000000000000000000000000000000000000000000000000000000009537461726275636b7300000000000000000000000000000000000000000000000000000000000000000000000000000000000000000000000000000000000006506f696e74730000000000000000000000000000000000000000000000000000",
        "nonce": "0x6e",
        "accessList": []
      },
      "additionalContracts": [],
      "isFixedGasLimit": false
    },
    {
      "hash": "0x10d699db3364fb0a796b664fab8a9462c2d6ea742fb7a1f696cc4ca5d9a11798",
      "transactionType": "CALL",
      "contractName": "SLMinterOracle",
      "contractAddress": "0xC7f2Cf4845C6db0e1a1e91ED41Bcd0FcC1b0E141",
      "function": "createBrand(string,string,uint256,address)",
      "arguments": [
        "\"Walmart\"",
        "\"Points\"",
        "2300",
        "0xB54271D82813D21F8508FFffc005EdeDf72E1Bf9"
      ],
      "transaction": {
        "type": "0x02",
        "from": "0xb54271d82813d21f8508ffffc005ededf72e1bf9",
        "to": "0xc7f2cf4845c6db0e1a1e91ed41bcd0fcc1b0e141",
        "gas": "0x79b2",
        "value": "0x0",
        "data": "0x920c46c3000000000000000000000000000000000000000000000000000000000000008000000000000000000000000000000000000000000000000000000000000000c000000000000000000000000000000000000000000000000000000000000008fc000000000000000000000000b54271d82813d21f8508ffffc005ededf72e1bf9000000000000000000000000000000000000000000000000000000000000000757616c6d617274000000000000000000000000000000000000000000000000000000000000000000000000000000000000000000000000000000000000000006506f696e74730000000000000000000000000000000000000000000000000000",
        "nonce": "0x6f",
        "accessList": []
      },
      "additionalContracts": [],
      "isFixedGasLimit": false
    },
    {
      "hash": "0xba2c8127a0efac8a90ed1344a9ccca4b3743c4b3737497435eb4a3a465635a43",
      "transactionType": "CALL",
      "contractName": "SLMinterOracle",
      "contractAddress": "0xC7f2Cf4845C6db0e1a1e91ED41Bcd0FcC1b0E141",
      "function": "createBrand(string,string,uint256,address)",
      "arguments": [
        "\"Shell\"",
        "\"Gallons\"",
        "744",
        "0xB54271D82813D21F8508FFffc005EdeDf72E1Bf9"
      ],
      "transaction": {
        "type": "0x02",
        "from": "0xb54271d82813d21f8508ffffc005ededf72e1bf9",
        "to": "0xc7f2cf4845c6db0e1a1e91ed41bcd0fcc1b0e141",
        "gas": "0x79a2",
        "value": "0x0",
        "data": "0x920c46c3000000000000000000000000000000000000000000000000000000000000008000000000000000000000000000000000000000000000000000000000000000c000000000000000000000000000000000000000000000000000000000000002e8000000000000000000000000b54271d82813d21f8508ffffc005ededf72e1bf900000000000000000000000000000000000000000000000000000000000000055368656c6c000000000000000000000000000000000000000000000000000000000000000000000000000000000000000000000000000000000000000000000747616c6c6f6e7300000000000000000000000000000000000000000000000000",
        "nonce": "0x70",
        "accessList": []
      },
      "additionalContracts": [],
      "isFixedGasLimit": false
    },
    {
      "hash": "0xe683a1dde450445bc7aae5b37baba0bbcc8096e25850e7c76f90ae232a24771f",
      "transactionType": "CALL",
      "contractName": "SLMinterOracle",
      "contractAddress": "0xC7f2Cf4845C6db0e1a1e91ED41Bcd0FcC1b0E141",
      "function": "createBrand(string,string,uint256,address)",
      "arguments": [
        "\"Regal Cinema\"",
        "\"Points\"",
        "3078",
        "0xB54271D82813D21F8508FFffc005EdeDf72E1Bf9"
      ],
      "transaction": {
        "type": "0x02",
        "from": "0xb54271d82813d21f8508ffffc005ededf72e1bf9",
        "to": "0xc7f2cf4845c6db0e1a1e91ed41bcd0fcc1b0e141",
        "gas": "0x7a05",
        "value": "0x0",
        "data": "0x920c46c3000000000000000000000000000000000000000000000000000000000000008000000000000000000000000000000000000000000000000000000000000000c00000000000000000000000000000000000000000000000000000000000000c06000000000000000000000000b54271d82813d21f8508ffffc005ededf72e1bf9000000000000000000000000000000000000000000000000000000000000000c526567616c2043696e656d6100000000000000000000000000000000000000000000000000000000000000000000000000000000000000000000000000000006506f696e74730000000000000000000000000000000000000000000000000000",
        "nonce": "0x71",
        "accessList": []
      },
      "additionalContracts": [],
      "isFixedGasLimit": false
    },
    {
      "hash": "0x693e013924c083941461754c5458f79b03e3c58cd0f491a12616687e064e6f13",
      "transactionType": "CALL",
      "contractName": "SLMinterOracle",
      "contractAddress": "0xC7f2Cf4845C6db0e1a1e91ED41Bcd0FcC1b0E141",
      "function": "createBrand(string,string,uint256,address)",
      "arguments": [
        "\"McDonalds\"",
        "\"Points\"",
        "2667",
        "0xB54271D82813D21F8508FFffc005EdeDf72E1Bf9"
      ],
      "transaction": {
        "type": "0x02",
        "from": "0xb54271d82813d21f8508ffffc005ededf72e1bf9",
        "to": "0xc7f2cf4845c6db0e1a1e91ed41bcd0fcc1b0e141",
        "gas": "0x79d4",
        "value": "0x0",
        "data": "0x920c46c3000000000000000000000000000000000000000000000000000000000000008000000000000000000000000000000000000000000000000000000000000000c00000000000000000000000000000000000000000000000000000000000000a6b000000000000000000000000b54271d82813d21f8508ffffc005ededf72e1bf900000000000000000000000000000000000000000000000000000000000000094d63446f6e616c647300000000000000000000000000000000000000000000000000000000000000000000000000000000000000000000000000000000000006506f696e74730000000000000000000000000000000000000000000000000000",
        "nonce": "0x72",
        "accessList": []
      },
      "additionalContracts": [],
      "isFixedGasLimit": false
    },
    {
      "hash": "0xdd45ede7d2be6325748342db79137911dc747e2f0052c4d32e42192f190da66b",
      "transactionType": "CALL",
      "contractName": "SLMinterOracle",
      "contractAddress": "0xC7f2Cf4845C6db0e1a1e91ED41Bcd0FcC1b0E141",
      "function": "createBrand(string,string,uint256,address)",
      "arguments": [
        "\"Amazon\"",
        "\"Points\"",
        "2280",
        "0xB54271D82813D21F8508FFffc005EdeDf72E1Bf9"
      ],
      "transaction": {
        "type": "0x02",
        "from": "0xb54271d82813d21f8508ffffc005ededf72e1bf9",
        "to": "0xc7f2cf4845c6db0e1a1e91ed41bcd0fcc1b0e141",
        "gas": "0x79a2",
        "value": "0x0",
        "data": "0x920c46c3000000000000000000000000000000000000000000000000000000000000008000000000000000000000000000000000000000000000000000000000000000c000000000000000000000000000000000000000000000000000000000000008e8000000000000000000000000b54271d82813d21f8508ffffc005ededf72e1bf90000000000000000000000000000000000000000000000000000000000000006416d617a6f6e00000000000000000000000000000000000000000000000000000000000000000000000000000000000000000000000000000000000000000006506f696e74730000000000000000000000000000000000000000000000000000",
        "nonce": "0x73",
        "accessList": []
      },
      "additionalContracts": [],
      "isFixedGasLimit": false
    },
    {
      "hash": "0x175fa13f1fe62a1ced6240dd3b84a88b12ede26b2473d6ad811efd362a7e49d4",
      "transactionType": "CALL",
      "contractName": "SLMinterOracle",
      "contractAddress": "0xC7f2Cf4845C6db0e1a1e91ED41Bcd0FcC1b0E141",
      "function": "createBrand(string,string,uint256,address)",
      "arguments": [
        "\"Sephora\"",
        "\"Points\"",
        "2500",
        "0xB54271D82813D21F8508FFffc005EdeDf72E1Bf9"
      ],
      "transaction": {
        "type": "0x02",
        "from": "0xb54271d82813d21f8508ffffc005ededf72e1bf9",
        "to": "0xc7f2cf4845c6db0e1a1e91ed41bcd0fcc1b0e141",
        "gas": "0x79b2",
        "value": "0x0",
        "data": "0x920c46c3000000000000000000000000000000000000000000000000000000000000008000000000000000000000000000000000000000000000000000000000000000c000000000000000000000000000000000000000000000000000000000000009c4000000000000000000000000b54271d82813d21f8508ffffc005ededf72e1bf90000000000000000000000000000000000000000000000000000000000000007536570686f7261000000000000000000000000000000000000000000000000000000000000000000000000000000000000000000000000000000000000000006506f696e74730000000000000000000000000000000000000000000000000000",
        "nonce": "0x74",
        "accessList": []
      },
      "additionalContracts": [],
      "isFixedGasLimit": false
    },
    {
      "hash": "0x3253786574ca6140d2f0bb1978d0fd3630ff7f71900dc0a8173abdcbc62be70a",
      "transactionType": "CALL",
      "contractName": "SLMinterOracle",
      "contractAddress": "0xC7f2Cf4845C6db0e1a1e91ED41Bcd0FcC1b0E141",
      "function": "createBrand(string,string,uint256,address)",
      "arguments": [
        "\"Walgreens\"",
        "\"Points\"",
        "3080",
        "0xB54271D82813D21F8508FFffc005EdeDf72E1Bf9"
      ],
      "transaction": {
        "type": "0x02",
        "from": "0xb54271d82813d21f8508ffffc005ededf72e1bf9",
        "to": "0xc7f2cf4845c6db0e1a1e91ed41bcd0fcc1b0e141",
        "gas": "0x79d4",
        "value": "0x0",
        "data": "0x920c46c3000000000000000000000000000000000000000000000000000000000000008000000000000000000000000000000000000000000000000000000000000000c00000000000000000000000000000000000000000000000000000000000000c08000000000000000000000000b54271d82813d21f8508ffffc005ededf72e1bf9000000000000000000000000000000000000000000000000000000000000000957616c677265656e7300000000000000000000000000000000000000000000000000000000000000000000000000000000000000000000000000000000000006506f696e74730000000000000000000000000000000000000000000000000000",
        "nonce": "0x75",
        "accessList": []
      },
      "additionalContracts": [],
      "isFixedGasLimit": false
    },
    {
      "hash": "0x4494254e8544a72a37185e64472726f398812fccbf7597a571866dcc1bdfb25a",
      "transactionType": "CALL",
      "contractName": "SLMinterOracle",
      "contractAddress": "0xC7f2Cf4845C6db0e1a1e91ED41Bcd0FcC1b0E141",
      "function": "createBrand(string,string,uint256,address)",
      "arguments": [
        "\"Lyft\"",
        "\"Points\"",
        "2500",
        "0xB54271D82813D21F8508FFffc005EdeDf72E1Bf9"
      ],
      "transaction": {
        "type": "0x02",
        "from": "0xb54271d82813d21f8508ffffc005ededf72e1bf9",
        "to": "0xc7f2cf4845c6db0e1a1e91ed41bcd0fcc1b0e141",
        "gas": "0x7981",
        "value": "0x0",
        "data": "0x920c46c3000000000000000000000000000000000000000000000000000000000000008000000000000000000000000000000000000000000000000000000000000000c000000000000000000000000000000000000000000000000000000000000009c4000000000000000000000000b54271d82813d21f8508ffffc005ededf72e1bf900000000000000000000000000000000000000000000000000000000000000044c796674000000000000000000000000000000000000000000000000000000000000000000000000000000000000000000000000000000000000000000000006506f696e74730000000000000000000000000000000000000000000000000000",
        "nonce": "0x76",
        "accessList": []
      },
      "additionalContracts": [],
      "isFixedGasLimit": false
    },
    {
      "hash": "0x4a3b384564aa7b80dd748a4588ac85fc7e098e729b25f68b72c62792e62d91df",
      "transactionType": "CALL",
      "contractName": "SLMinterOracle",
      "contractAddress": "0xC7f2Cf4845C6db0e1a1e91ED41Bcd0FcC1b0E141",
      "function": "returnCard(address)",
      "arguments": [
        "0x7AaCc5300ec7Ac58fe86645D08f21b1BEcadf99a"
      ],
      "transaction": {
        "type": "0x02",
        "from": "0xb54271d82813d21f8508ffffc005ededf72e1bf9",
        "to": "0xc7f2cf4845c6db0e1a1e91ed41bcd0fcc1b0e141",
        "gas": "0x73a2",
        "value": "0x0",
        "data": "0x056dc4fc0000000000000000000000007aacc5300ec7ac58fe86645d08f21b1becadf99a",
        "nonce": "0x77",
        "accessList": []
      },
      "additionalContracts": [],
      "isFixedGasLimit": false
    },
    {
      "hash": "0xc45202efc6934dbe7d387f22fd7fac007bc9f938ce9e3db1e4591f0f3cf4b8d8",
      "transactionType": "CALL",
      "contractName": "SLMinterOracle",
      "contractAddress": "0xC7f2Cf4845C6db0e1a1e91ED41Bcd0FcC1b0E141",
      "function": "returnCard(address)",
      "arguments": [
        "0x67cDE3E2d3e6e9d5413bD1Ecb01DC71BA3cF86E7"
      ],
      "transaction": {
        "type": "0x02",
        "from": "0xb54271d82813d21f8508ffffc005ededf72e1bf9",
        "to": "0xc7f2cf4845c6db0e1a1e91ed41bcd0fcc1b0e141",
        "gas": "0x73a2",
        "value": "0x0",
        "data": "0x056dc4fc00000000000000000000000067cde3e2d3e6e9d5413bd1ecb01dc71ba3cf86e7",
        "nonce": "0x78",
        "accessList": []
      },
      "additionalContracts": [],
      "isFixedGasLimit": false
    },
    {
      "hash": "0x438eca9fed85e89496eed0902a2f863e81dbe6c9d1e312e91281a8643b98d5e4",
      "transactionType": "CALL",
      "contractName": "SLMinterOracle",
      "contractAddress": "0xC7f2Cf4845C6db0e1a1e91ED41Bcd0FcC1b0E141",
      "function": "returnCard(address)",
      "arguments": [
        "0x9bF642ef0bc3f1544b1776251AeAc4fF216E3384"
      ],
      "transaction": {
        "type": "0x02",
        "from": "0xb54271d82813d21f8508ffffc005ededf72e1bf9",
        "to": "0xc7f2cf4845c6db0e1a1e91ed41bcd0fcc1b0e141",
        "gas": "0x73a2",
        "value": "0x0",
        "data": "0x056dc4fc0000000000000000000000009bf642ef0bc3f1544b1776251aeac4ff216e3384",
        "nonce": "0x79",
        "accessList": []
      },
      "additionalContracts": [],
      "isFixedGasLimit": false
    },
    {
      "hash": "0x1e9fdef761ef64a9a7c0c2968fe6d224cc4e2c4012740a2ca426aed9cefb1199",
      "transactionType": "CALL",
      "contractName": "SLMinterOracle",
      "contractAddress": "0xC7f2Cf4845C6db0e1a1e91ED41Bcd0FcC1b0E141",
      "function": "returnCard(address)",
      "arguments": [
        "0xEedBb16327A403a5229b6F95217dE9f338d74846"
      ],
      "transaction": {
        "type": "0x02",
        "from": "0xb54271d82813d21f8508ffffc005ededf72e1bf9",
        "to": "0xc7f2cf4845c6db0e1a1e91ed41bcd0fcc1b0e141",
        "gas": "0x73a2",
        "value": "0x0",
        "data": "0x056dc4fc000000000000000000000000eedbb16327a403a5229b6f95217de9f338d74846",
        "nonce": "0x7a",
        "accessList": []
      },
      "additionalContracts": [],
      "isFixedGasLimit": false
    },
    {
      "hash": "0xa1fccaff27d3cef7150fb29d350538000cb6563354f73e7b3804e2cb022b322c",
      "transactionType": "CALL",
      "contractName": "SLMinterOracle",
      "contractAddress": "0xC7f2Cf4845C6db0e1a1e91ED41Bcd0FcC1b0E141",
      "function": "returnCard(address)",
      "arguments": [
        "0x2B4707A92412D58a82d89EeAD6A5C7e35ce61450"
      ],
      "transaction": {
        "type": "0x02",
        "from": "0xb54271d82813d21f8508ffffc005ededf72e1bf9",
        "to": "0xc7f2cf4845c6db0e1a1e91ed41bcd0fcc1b0e141",
        "gas": "0x73a2",
        "value": "0x0",
        "data": "0x056dc4fc0000000000000000000000002b4707a92412d58a82d89eead6a5c7e35ce61450",
        "nonce": "0x7b",
        "accessList": []
      },
      "additionalContracts": [],
      "isFixedGasLimit": false
    },
    {
      "hash": "0xb0741ebc6a803a371d9026eac7efde075e8faca5b0b4f7e627a64b49ec49721e",
      "transactionType": "CALL",
      "contractName": "SLMinterOracle",
      "contractAddress": "0xC7f2Cf4845C6db0e1a1e91ED41Bcd0FcC1b0E141",
      "function": "returnCard(address)",
      "arguments": [
        "0x1e8b6a99b4824793639d2873366c56D445a5f08d"
      ],
      "transaction": {
        "type": "0x02",
        "from": "0xb54271d82813d21f8508ffffc005ededf72e1bf9",
        "to": "0xc7f2cf4845c6db0e1a1e91ed41bcd0fcc1b0e141",
        "gas": "0x73a2",
        "value": "0x0",
        "data": "0x056dc4fc0000000000000000000000001e8b6a99b4824793639d2873366c56d445a5f08d",
        "nonce": "0x7c",
        "accessList": []
      },
      "additionalContracts": [],
      "isFixedGasLimit": false
    },
    {
      "hash": "0x4ba04a50c379ba8cfd49c0a4bcff80f72725b717d56d3a98db5f6bc3f41f88eb",
      "transactionType": "CALL",
      "contractName": "SLMinterOracle",
      "contractAddress": "0xC7f2Cf4845C6db0e1a1e91ED41Bcd0FcC1b0E141",
      "function": "returnCard(address)",
      "arguments": [
        "0x7a68E92dF1aEF1F65c726810746Ed2a978434BbC"
      ],
      "transaction": {
        "type": "0x02",
        "from": "0xb54271d82813d21f8508ffffc005ededf72e1bf9",
        "to": "0xc7f2cf4845c6db0e1a1e91ed41bcd0fcc1b0e141",
        "gas": "0x73a2",
        "value": "0x0",
        "data": "0x056dc4fc0000000000000000000000007a68e92df1aef1f65c726810746ed2a978434bbc",
        "nonce": "0x7d",
        "accessList": []
      },
      "additionalContracts": [],
      "isFixedGasLimit": false
    },
    {
      "hash": "0x3bfd72b3e32dc38eb709b3902821a57c7ff24230cb88ba1d203b5d8bc774258b",
      "transactionType": "CALL",
      "contractName": "SLMinterOracle",
      "contractAddress": "0xC7f2Cf4845C6db0e1a1e91ED41Bcd0FcC1b0E141",
      "function": "returnCard(address)",
      "arguments": [
        "0x62Bd6F648Efbbe964Ce38592640C71a29d586eE9"
      ],
      "transaction": {
        "type": "0x02",
        "from": "0xb54271d82813d21f8508ffffc005ededf72e1bf9",
        "to": "0xc7f2cf4845c6db0e1a1e91ed41bcd0fcc1b0e141",
        "gas": "0x73a2",
        "value": "0x0",
        "data": "0x056dc4fc00000000000000000000000062bd6f648efbbe964ce38592640c71a29d586ee9",
        "nonce": "0x7e",
        "accessList": []
      },
      "additionalContracts": [],
      "isFixedGasLimit": false
    },
    {
      "hash": "0xb02f393d1d6209ac862b550a49e961721587877ae50e2e63419c74a40229a531",
      "transactionType": "CALL",
      "contractName": "SLMinterOracle",
      "contractAddress": "0xC7f2Cf4845C6db0e1a1e91ED41Bcd0FcC1b0E141",
      "function": "returnCard(address)",
      "arguments": [
        "0x67a6e25c585E57F8Ef1a573f734a124cE60cb583"
      ],
      "transaction": {
        "type": "0x02",
        "from": "0xb54271d82813d21f8508ffffc005ededf72e1bf9",
        "to": "0xc7f2cf4845c6db0e1a1e91ed41bcd0fcc1b0e141",
        "gas": "0x73a2",
        "value": "0x0",
        "data": "0x056dc4fc00000000000000000000000067a6e25c585e57f8ef1a573f734a124ce60cb583",
        "nonce": "0x7f",
        "accessList": []
      },
      "additionalContracts": [],
      "isFixedGasLimit": false
    },
    {
      "hash": "0x4a3609a5142864f4a6eaf1d6fbef30db286b3e5757c8b0ad1655f88dc2dc298e",
      "transactionType": "CALL",
      "contractName": "SLMinterOracle",
      "contractAddress": "0xC7f2Cf4845C6db0e1a1e91ED41Bcd0FcC1b0E141",
      "function": "returnCard(address)",
      "arguments": [
        "0xb6087b053C85389A143E69B3f7420bed8059A5fd"
      ],
      "transaction": {
        "type": "0x02",
        "from": "0xb54271d82813d21f8508ffffc005ededf72e1bf9",
        "to": "0xc7f2cf4845c6db0e1a1e91ed41bcd0fcc1b0e141",
        "gas": "0x73a2",
        "value": "0x0",
        "data": "0x056dc4fc000000000000000000000000b6087b053c85389a143e69b3f7420bed8059a5fd",
        "nonce": "0x80",
        "accessList": []
      },
      "additionalContracts": [],
      "isFixedGasLimit": false
    },
    {
      "hash": "0xbbf4fa8274d3fe09fb0c0c9b9cf5dbc0d56808786a2ac8eccc533d2933b2eb90",
      "transactionType": "CALL",
      "contractName": "SLERC20",
      "contractAddress": "0x7AaCc5300ec7Ac58fe86645D08f21b1BEcadf99a",
      "function": "approve(address,uint256)",
      "arguments": [
        "0xC532a74256D3Db42D0Bf7a0400fEFDbad7694008",
        "52000000000000000000000"
      ],
      "transaction": {
        "type": "0x02",
        "from": "0xb54271d82813d21f8508ffffc005ededf72e1bf9",
        "to": "0x7aacc5300ec7ac58fe86645d08f21b1becadf99a",
        "gas": "0x74c6",
        "value": "0x0",
        "data": "0x095ea7b3000000000000000000000000c532a74256d3db42d0bf7a0400fefdbad7694008000000000000000000000000000000000000000000000b02ecf74c3138800000",
        "nonce": "0x81",
        "accessList": []
      },
      "additionalContracts": [],
      "isFixedGasLimit": false
    },
    {
      "hash": "0xa76675b2a8528e234a7960d61ab13b9eb426e66bf1881c2cd95f423ac283f690",
      "transactionType": "CALL",
      "contractName": "SLERC20",
      "contractAddress": "0x67cDE3E2d3e6e9d5413bD1Ecb01DC71BA3cF86E7",
      "function": "approve(address,uint256)",
      "arguments": [
        "0xC532a74256D3Db42D0Bf7a0400fEFDbad7694008",
        "2440000000000000000000"
      ],
      "transaction": {
        "type": "0x02",
        "from": "0xb54271d82813d21f8508ffffc005ededf72e1bf9",
        "to": "0x67cde3e2d3e6e9d5413bd1ecb01dc71ba3cf86e7",
        "gas": "0x74b7",
        "value": "0x0",
        "data": "0x095ea7b3000000000000000000000000c532a74256d3db42d0bf7a0400fefdbad769400800000000000000000000000000000000000000000000008445cd605371200000",
        "nonce": "0x82",
        "accessList": []
      },
      "additionalContracts": [],
      "isFixedGasLimit": false
    },
    {
      "hash": "0x8e2c05f7d07d16cea90d3ec852a0a346372d64b28f2c594e68552811549f58ce",
      "transactionType": "CALL",
      "contractName": "SLERC20",
      "contractAddress": "0x9bF642ef0bc3f1544b1776251AeAc4fF216E3384",
      "function": "approve(address,uint256)",
      "arguments": [
        "0xC532a74256D3Db42D0Bf7a0400fEFDbad7694008",
        "2300000000000000000000"
      ],
      "transaction": {
        "type": "0x02",
        "from": "0xb54271d82813d21f8508ffffc005ededf72e1bf9",
        "to": "0x9bf642ef0bc3f1544b1776251aeac4ff216e3384",
        "gas": "0x74b7",
        "value": "0x0",
        "data": "0x095ea7b3000000000000000000000000c532a74256d3db42d0bf7a0400fefdbad769400800000000000000000000000000000000000000000000007caee97613e6700000",
        "nonce": "0x83",
        "accessList": []
      },
      "additionalContracts": [],
      "isFixedGasLimit": false
    },
    {
      "hash": "0x8c7006ca4140c7ab960572fa5e01de220419d5ea136dc8bd3f6478cce00430fb",
      "transactionType": "CALL",
      "contractName": "SLERC20",
      "contractAddress": "0xEedBb16327A403a5229b6F95217dE9f338d74846",
      "function": "approve(address,uint256)",
      "arguments": [
        "0xC532a74256D3Db42D0Bf7a0400fEFDbad7694008",
        "744000000000000000000"
      ],
      "transaction": {
        "type": "0x02",
        "from": "0xb54271d82813d21f8508ffffc005ededf72e1bf9",
        "to": "0xeedbb16327a403a5229b6f95217de9f338d74846",
        "gas": "0x74b7",
        "value": "0x0",
        "data": "0x095ea7b3000000000000000000000000c532a74256d3db42d0bf7a0400fefdbad76940080000000000000000000000000000000000000000000000285512fa1e7aa00000",
        "nonce": "0x84",
        "accessList": []
      },
      "additionalContracts": [],
      "isFixedGasLimit": false
    },
    {
      "hash": "0x5b3b5ac7909b9b094c06de47641feaad247ae607ad5c72efa88be19cf2725761",
      "transactionType": "CALL",
      "contractName": "SLERC20",
      "contractAddress": "0x2B4707A92412D58a82d89EeAD6A5C7e35ce61450",
      "function": "approve(address,uint256)",
      "arguments": [
        "0xC532a74256D3Db42D0Bf7a0400fEFDbad7694008",
        "3078000000000000000000"
      ],
      "transaction": {
        "type": "0x02",
        "from": "0xb54271d82813d21f8508ffffc005ededf72e1bf9",
        "to": "0x2b4707a92412d58a82d89eead6a5c7e35ce61450",
        "gas": "0x74b7",
        "value": "0x0",
        "data": "0x095ea7b3000000000000000000000000c532a74256d3db42d0bf7a0400fefdbad76940080000000000000000000000000000000000000000000000a6dbd4b40e9c580000",
        "nonce": "0x85",
        "accessList": []
      },
      "additionalContracts": [],
      "isFixedGasLimit": false
    },
    {
      "hash": "0x7ff75f9d0a23534755611b0184235317571fb131991a1ed4fe2719c5e4723e63",
      "transactionType": "CALL",
      "contractName": "SLERC20",
      "contractAddress": "0x1e8b6a99b4824793639d2873366c56D445a5f08d",
      "function": "approve(address,uint256)",
      "arguments": [
        "0xC532a74256D3Db42D0Bf7a0400fEFDbad7694008",
        "2667000000000000000000"
      ],
      "transaction": {
        "type": "0x02",
        "from": "0xb54271d82813d21f8508ffffc005ededf72e1bf9",
        "to": "0x1e8b6a99b4824793639d2873366c56d445a5f08d",
        "gas": "0x74b7",
        "value": "0x0",
        "data": "0x095ea7b3000000000000000000000000c532a74256d3db42d0bf7a0400fefdbad7694008000000000000000000000000000000000000000000000090940f61a0decc0000",
        "nonce": "0x86",
        "accessList": []
      },
      "additionalContracts": [],
      "isFixedGasLimit": false
    },
    {
      "hash": "0x0817edea4705970edd8915e207e943a438300deea7cdee226a28e0fd2cbfe94d",
      "transactionType": "CALL",
      "contractName": "SLERC20",
      "contractAddress": "0x7a68E92dF1aEF1F65c726810746Ed2a978434BbC",
      "function": "approve(address,uint256)",
      "arguments": [
        "0xC532a74256D3Db42D0Bf7a0400fEFDbad7694008",
        "2280000000000000000000"
      ],
      "transaction": {
        "type": "0x02",
        "from": "0xb54271d82813d21f8508ffffc005ededf72e1bf9",
        "to": "0x7a68e92df1aef1f65c726810746ed2a978434bbc",
        "gas": "0x74b7",
        "value": "0x0",
        "data": "0x095ea7b3000000000000000000000000c532a74256d3db42d0bf7a0400fefdbad769400800000000000000000000000000000000000000000000007b995b300ad2a00000",
        "nonce": "0x87",
        "accessList": []
      },
      "additionalContracts": [],
      "isFixedGasLimit": false
    },
    {
      "hash": "0xcfcd98c4f0790610e24eda0c0b1924f8360ad17a7ba6f592c754cc0278ad1511",
      "transactionType": "CALL",
      "contractName": "SLERC20",
      "contractAddress": "0x62Bd6F648Efbbe964Ce38592640C71a29d586eE9",
      "function": "approve(address,uint256)",
      "arguments": [
        "0xC532a74256D3Db42D0Bf7a0400fEFDbad7694008",
        "2500000000000000000000"
      ],
      "transaction": {
        "type": "0x02",
        "from": "0xb54271d82813d21f8508ffffc005ededf72e1bf9",
        "to": "0x62bd6f648efbbe964ce38592640c71a29d586ee9",
        "gas": "0x74b7",
        "value": "0x0",
        "data": "0x095ea7b3000000000000000000000000c532a74256d3db42d0bf7a0400fefdbad76940080000000000000000000000000000000000000000000000878678326eac900000",
        "nonce": "0x88",
        "accessList": []
      },
      "additionalContracts": [],
      "isFixedGasLimit": false
    },
    {
      "hash": "0x3601593e0930e911122f78fadf5df5f507302c8b05adb3d3ad1f48c39c65f6cb",
      "transactionType": "CALL",
      "contractName": "SLERC20",
      "contractAddress": "0x67a6e25c585E57F8Ef1a573f734a124cE60cb583",
      "function": "approve(address,uint256)",
      "arguments": [
        "0xC532a74256D3Db42D0Bf7a0400fEFDbad7694008",
        "3080000000000000000000"
      ],
      "transaction": {
        "type": "0x02",
        "from": "0xb54271d82813d21f8508ffffc005ededf72e1bf9",
        "to": "0x67a6e25c585e57f8ef1a573f734a124ce60cb583",
        "gas": "0x74b7",
        "value": "0x0",
        "data": "0x095ea7b3000000000000000000000000c532a74256d3db42d0bf7a0400fefdbad76940080000000000000000000000000000000000000000000000a6f7962175eb200000",
        "nonce": "0x89",
        "accessList": []
      },
      "additionalContracts": [],
      "isFixedGasLimit": false
    },
    {
      "hash": "0xe94807f38c6dc7bb7b0c9ac22c8689f91fe76ab98a90806d4e26a0471699e0a2",
      "transactionType": "CALL",
      "contractName": "SLERC20",
      "contractAddress": "0xb6087b053C85389A143E69B3f7420bed8059A5fd",
      "function": "approve(address,uint256)",
      "arguments": [
        "0xC532a74256D3Db42D0Bf7a0400fEFDbad7694008",
        "2500000000000000000000"
      ],
      "transaction": {
        "type": "0x02",
        "from": "0xb54271d82813d21f8508ffffc005ededf72e1bf9",
        "to": "0xb6087b053c85389a143e69b3f7420bed8059a5fd",
        "gas": "0x74b7",
        "value": "0x0",
        "data": "0x095ea7b3000000000000000000000000c532a74256d3db42d0bf7a0400fefdbad76940080000000000000000000000000000000000000000000000878678326eac900000",
        "nonce": "0x8a",
        "accessList": []
      },
      "additionalContracts": [],
      "isFixedGasLimit": false
    }
  ],
  "receipts": [
    {
      "transactionHash": "0xa50bbd55f83363d45f1bcd4db7218c0dc946485baa200ca7517a338433cd7071",
      "transactionIndex": "0x0",
      "blockHash": "0xe9b3cbdd1aecc5c0ceb9f0e828c4541a47b2b219ee0eaf72f5cb2e7ed9ab9242",
      "blockNumber": "0x56a982",
      "from": "0xB54271D82813D21F8508FFffc005EdeDf72E1Bf9",
      "to": "0xC7f2Cf4845C6db0e1a1e91ED41Bcd0FcC1b0E141",
      "cumulativeGasUsed": "0x57f8",
      "gasUsed": "0x57f8",
      "contractAddress": null,
      "logs": [],
      "status": "0x1",
      "logsBloom": "0x00000000000000000000000000000000000000000000000000000000000000000000000000000000000000000000000000000000000000000000000000000000000000000000000000000000000000000000000000000000000000000000000000000000000000000000000000000000000000000000000000000000000000000000000000000000000000000000000000000000000000000000000000000000000000000000000000000000000000000000000000000000000000000000000000000000000000000000000000000000000000000000000000000000000000000000000000000000000000000000000000000000000000000000000000000000",
      "type": "0x2",
      "effectiveGasPrice": "0xb2e7884f"
    },
    {
      "transactionHash": "0xae21eab42001b99eaa828a385c720e5757d4605f4fb19ab748abf49ef75de520",
      "transactionIndex": "0x0",
      "blockHash": "0x6265909e0d66e0d31892fd4186d9558c778ce976dbe8238ac9e5d4c6acbb72a1",
      "blockNumber": "0x56a983",
      "from": "0xB54271D82813D21F8508FFffc005EdeDf72E1Bf9",
      "to": "0xC7f2Cf4845C6db0e1a1e91ED41Bcd0FcC1b0E141",
      "cumulativeGasUsed": "0x5834",
      "gasUsed": "0x5834",
      "contractAddress": null,
      "logs": [],
      "status": "0x1",
      "logsBloom": "0x00000000000000000000000000000000000000000000000000000000000000000000000000000000000000000000000000000000000000000000000000000000000000000000000000000000000000000000000000000000000000000000000000000000000000000000000000000000000000000000000000000000000000000000000000000000000000000000000000000000000000000000000000000000000000000000000000000000000000000000000000000000000000000000000000000000000000000000000000000000000000000000000000000000000000000000000000000000000000000000000000000000000000000000000000000000",
      "type": "0x2",
      "effectiveGasPrice": "0xb2e4a423"
    },
    {
      "transactionHash": "0x10d699db3364fb0a796b664fab8a9462c2d6ea742fb7a1f696cc4ca5d9a11798",
      "transactionIndex": "0x0",
      "blockHash": "0xecab09fa9ecf473b7ddc98caea4334bbed9b0d44f914facda038a857b98945b4",
      "blockNumber": "0x56a984",
      "from": "0xB54271D82813D21F8508FFffc005EdeDf72E1Bf9",
      "to": "0xC7f2Cf4845C6db0e1a1e91ED41Bcd0FcC1b0E141",
      "cumulativeGasUsed": "0x581c",
      "gasUsed": "0x581c",
      "contractAddress": null,
      "logs": [],
      "status": "0x1",
      "logsBloom": "0x00000000000000000000000000000000000000000000000000000000000000000000000000000000000000000000000000000000000000000000000000000000000000000000000000000000000000000000000000000000000000000000000000000000000000000000000000000000000000000000000000000000000000000000000000000000000000000000000000000000000000000000000000000000000000000000000000000000000000000000000000000000000000000000000000000000000000000000000000000000000000000000000000000000000000000000000000000000000000000000000000000000000000000000000000000000",
      "type": "0x2",
      "effectiveGasPrice": "0xb2e21c59"
    },
    {
      "transactionHash": "0xba2c8127a0efac8a90ed1344a9ccca4b3743c4b3737497435eb4a3a465635a43",
      "transactionIndex": "0x0",
      "blockHash": "0x58c67f8a6c2163ccf8a3586854415c8df3337cbd5866a71619ff297172b06de5",
      "blockNumber": "0x56a985",
      "from": "0xB54271D82813D21F8508FFffc005EdeDf72E1Bf9",
      "to": "0xC7f2Cf4845C6db0e1a1e91ED41Bcd0FcC1b0E141",
      "cumulativeGasUsed": "0x5810",
      "gasUsed": "0x5810",
      "contractAddress": null,
      "logs": [],
      "status": "0x1",
      "logsBloom": "0x00000000000000000000000000000000000000000000000000000000000000000000000000000000000000000000000000000000000000000000000000000000000000000000000000000000000000000000000000000000000000000000000000000000000000000000000000000000000000000000000000000000000000000000000000000000000000000000000000000000000000000000000000000000000000000000000000000000000000000000000000000000000000000000000000000000000000000000000000000000000000000000000000000000000000000000000000000000000000000000000000000000000000000000000000000000",
      "type": "0x2",
      "effectiveGasPrice": "0xb2dfe569"
    },
    {
      "transactionHash": "0xe683a1dde450445bc7aae5b37baba0bbcc8096e25850e7c76f90ae232a24771f",
      "transactionIndex": "0x1",
      "blockHash": "0x58c67f8a6c2163ccf8a3586854415c8df3337cbd5866a71619ff297172b06de5",
      "blockNumber": "0x56a985",
      "from": "0xB54271D82813D21F8508FFffc005EdeDf72E1Bf9",
      "to": "0xC7f2Cf4845C6db0e1a1e91ED41Bcd0FcC1b0E141",
      "cumulativeGasUsed": "0xb068",
      "gasUsed": "0xb068",
      "contractAddress": null,
      "logs": [],
      "status": "0x1",
      "logsBloom": "0x00000000000000000000000000000000000000000000000000000000000000000000000000000000000000000000000000000000000000000000000000000000000000000000000000000000000000000000000000000000000000000000000000000000000000000000000000000000000000000000000000000000000000000000000000000000000000000000000000000000000000000000000000000000000000000000000000000000000000000000000000000000000000000000000000000000000000000000000000000000000000000000000000000000000000000000000000000000000000000000000000000000000000000000000000000000",
      "type": "0x2",
      "effectiveGasPrice": "0xb2dfe569"
    },
    {
      "transactionHash": "0x693e013924c083941461754c5458f79b03e3c58cd0f491a12616687e064e6f13",
      "transactionIndex": "0x2",
      "blockHash": "0x58c67f8a6c2163ccf8a3586854415c8df3337cbd5866a71619ff297172b06de5",
      "blockNumber": "0x56a985",
      "from": "0xB54271D82813D21F8508FFffc005EdeDf72E1Bf9",
      "to": "0xC7f2Cf4845C6db0e1a1e91ED41Bcd0FcC1b0E141",
      "cumulativeGasUsed": "0x1089c",
      "gasUsed": "0x1089c",
      "contractAddress": null,
      "logs": [],
      "status": "0x1",
      "logsBloom": "0x00000000000000000000000000000000000000000000000000000000000000000000000000000000000000000000000000000000000000000000000000000000000000000000000000000000000000000000000000000000000000000000000000000000000000000000000000000000000000000000000000000000000000000000000000000000000000000000000000000000000000000000000000000000000000000000000000000000000000000000000000000000000000000000000000000000000000000000000000000000000000000000000000000000000000000000000000000000000000000000000000000000000000000000000000000000",
      "type": "0x2",
      "effectiveGasPrice": "0xb2dfe569"
    },
    {
      "transactionHash": "0xdd45ede7d2be6325748342db79137911dc747e2f0052c4d32e42192f190da66b",
      "transactionIndex": "0x3",
      "blockHash": "0x58c67f8a6c2163ccf8a3586854415c8df3337cbd5866a71619ff297172b06de5",
      "blockNumber": "0x56a985",
      "from": "0xB54271D82813D21F8508FFffc005EdeDf72E1Bf9",
      "to": "0xC7f2Cf4845C6db0e1a1e91ED41Bcd0FcC1b0E141",
      "cumulativeGasUsed": "0x160ac",
      "gasUsed": "0x160ac",
      "contractAddress": null,
      "logs": [],
      "status": "0x1",
      "logsBloom": "0x00000000000000000000000000000000000000000000000000000000000000000000000000000000000000000000000000000000000000000000000000000000000000000000000000000000000000000000000000000000000000000000000000000000000000000000000000000000000000000000000000000000000000000000000000000000000000000000000000000000000000000000000000000000000000000000000000000000000000000000000000000000000000000000000000000000000000000000000000000000000000000000000000000000000000000000000000000000000000000000000000000000000000000000000000000000",
      "type": "0x2",
      "effectiveGasPrice": "0xb2dfe569"
    },
    {
      "transactionHash": "0x175fa13f1fe62a1ced6240dd3b84a88b12ede26b2473d6ad811efd362a7e49d4",
      "transactionIndex": "0x0",
      "blockHash": "0x78b178be722cec9ee40c4631702f79ef758ee088e23e9db1b397afeaffb4f99a",
      "blockNumber": "0x56a986",
      "from": "0xB54271D82813D21F8508FFffc005EdeDf72E1Bf9",
      "to": "0xC7f2Cf4845C6db0e1a1e91ED41Bcd0FcC1b0E141",
      "cumulativeGasUsed": "0x581c",
      "gasUsed": "0x581c",
      "contractAddress": null,
      "logs": [],
      "status": "0x1",
      "logsBloom": "0x00000000000000000000000000000000000000000000000000000000000000000000000000000000000000000000000000000000000000000000000000000000000000000000000000000000000000000000000000000000000000000000000000000000000000000000000000000000000000000000000000000000000000000000000000000000000000000000000000000000000000000000000000000000000000000000000000000000000000000000000000000000000000000000000000000000000000000000000000000000000000000000000000000000000000000000000000000000000000000000000000000000000000000000000000000000",
      "type": "0x2",
      "effectiveGasPrice": "0xb2ddf77a"
    },
    {
      "transactionHash": "0x3253786574ca6140d2f0bb1978d0fd3630ff7f71900dc0a8173abdcbc62be70a",
      "transactionIndex": "0x0",
      "blockHash": "0xca89fbf8904e0ff836345fb233c02a8123d4b612c0a495dc5bf3402268515c2c",
      "blockNumber": "0x56a987",
      "from": "0xB54271D82813D21F8508FFffc005EdeDf72E1Bf9",
      "to": "0xC7f2Cf4845C6db0e1a1e91ED41Bcd0FcC1b0E141",
      "cumulativeGasUsed": "0x5834",
      "gasUsed": "0x5834",
      "contractAddress": null,
      "logs": [],
      "status": "0x1",
      "logsBloom": "0x00000000000000000000000000000000000000000000000000000000000000000000000000000000000000000000000000000000000000000000000000000000000000000000000000000000000000000000000000000000000000000000000000000000000000000000000000000000000000000000000000000000000000000000000000000000000000000000000000000000000000000000000000000000000000000000000000000000000000000000000000000000000000000000000000000000000000000000000000000000000000000000000000000000000000000000000000000000000000000000000000000000000000000000000000000000",
      "type": "0x2",
      "effectiveGasPrice": "0xb2dc44f3"
    },
    {
      "transactionHash": "0x4494254e8544a72a37185e64472726f398812fccbf7597a571866dcc1bdfb25a",
      "transactionIndex": "0x1",
      "blockHash": "0xca89fbf8904e0ff836345fb233c02a8123d4b612c0a495dc5bf3402268515c2c",
      "blockNumber": "0x56a987",
      "from": "0xB54271D82813D21F8508FFffc005EdeDf72E1Bf9",
      "to": "0xC7f2Cf4845C6db0e1a1e91ED41Bcd0FcC1b0E141",
      "cumulativeGasUsed": "0xb02c",
      "gasUsed": "0xb02c",
      "contractAddress": null,
      "logs": [],
      "status": "0x1",
      "logsBloom": "0x00000000000000000000000000000000000000000000000000000000000000000000000000000000000000000000000000000000000000000000000000000000000000000000000000000000000000000000000000000000000000000000000000000000000000000000000000000000000000000000000000000000000000000000000000000000000000000000000000000000000000000000000000000000000000000000000000000000000000000000000000000000000000000000000000000000000000000000000000000000000000000000000000000000000000000000000000000000000000000000000000000000000000000000000000000000",
      "type": "0x2",
      "effectiveGasPrice": "0xb2dc44f3"
    },
    {
      "transactionHash": "0x4a3b384564aa7b80dd748a4588ac85fc7e098e729b25f68b72c62792e62d91df",
      "transactionIndex": "0x0",
      "blockHash": "0x7cba20586954635cc08d0ccef0f088ea3b3b4e8e37bd5d2b0673dcf06b59fe89",
      "blockNumber": "0x56a988",
      "from": "0xB54271D82813D21F8508FFffc005EdeDf72E1Bf9",
      "to": "0xC7f2Cf4845C6db0e1a1e91ED41Bcd0FcC1b0E141",
      "cumulativeGasUsed": "0x53b8",
      "gasUsed": "0x53b8",
      "contractAddress": null,
      "logs": [],
      "status": "0x1",
      "logsBloom": "0x00000000000000000000000000000000000000000000000000000000000000000000000000000000000000000000000000000000000000000000000000000000000000000000000000000000000000000000000000000000000000000000000000000000000000000000000000000000000000000000000000000000000000000000000000000000000000000000000000000000000000000000000000000000000000000000000000000000000000000000000000000000000000000000000000000000000000000000000000000000000000000000000000000000000000000000000000000000000000000000000000000000000000000000000000000000",
      "type": "0x2",
      "effectiveGasPrice": "0xb2dac93a"
    },
    {
      "transactionHash": "0xc45202efc6934dbe7d387f22fd7fac007bc9f938ce9e3db1e4591f0f3cf4b8d8",
      "transactionIndex": "0x1",
      "blockHash": "0x7cba20586954635cc08d0ccef0f088ea3b3b4e8e37bd5d2b0673dcf06b59fe89",
      "blockNumber": "0x56a988",
      "from": "0xB54271D82813D21F8508FFffc005EdeDf72E1Bf9",
      "to": "0xC7f2Cf4845C6db0e1a1e91ED41Bcd0FcC1b0E141",
      "cumulativeGasUsed": "0xa770",
      "gasUsed": "0xa770",
      "contractAddress": null,
      "logs": [],
      "status": "0x1",
      "logsBloom": "0x00000000000000000000000000000000000000000000000000000000000000000000000000000000000000000000000000000000000000000000000000000000000000000000000000000000000000000000000000000000000000000000000000000000000000000000000000000000000000000000000000000000000000000000000000000000000000000000000000000000000000000000000000000000000000000000000000000000000000000000000000000000000000000000000000000000000000000000000000000000000000000000000000000000000000000000000000000000000000000000000000000000000000000000000000000000",
      "type": "0x2",
      "effectiveGasPrice": "0xb2dac93a"
    },
    {
      "transactionHash": "0x438eca9fed85e89496eed0902a2f863e81dbe6c9d1e312e91281a8643b98d5e4",
      "transactionIndex": "0x0",
      "blockHash": "0x8e1b38ac8ffeb8a5b14a17b8aa15cf764f8206f2a07d0520c0038be8bf8e5fd6",
      "blockNumber": "0x56a989",
      "from": "0xB54271D82813D21F8508FFffc005EdeDf72E1Bf9",
      "to": "0xC7f2Cf4845C6db0e1a1e91ED41Bcd0FcC1b0E141",
      "cumulativeGasUsed": "0x53b8",
      "gasUsed": "0x53b8",
      "contractAddress": null,
      "logs": [],
      "status": "0x1",
      "logsBloom": "0x00000000000000000000000000000000000000000000000000000000000000000000000000000000000000000000000000000000000000000000000000000000000000000000000000000000000000000000000000000000000000000000000000000000000000000000000000000000000000000000000000000000000000000000000000000000000000000000000000000000000000000000000000000000000000000000000000000000000000000000000000000000000000000000000000000000000000000000000000000000000000000000000000000000000000000000000000000000000000000000000000000000000000000000000000000000",
      "type": "0x2",
      "effectiveGasPrice": "0xb2d97cc7"
    },
    {
      "transactionHash": "0x1e9fdef761ef64a9a7c0c2968fe6d224cc4e2c4012740a2ca426aed9cefb1199",
      "transactionIndex": "0x0",
      "blockHash": "0x01977c8f50840a81752d2bad04ea8f5138298d63a6c62549ad7f74ccfac8731b",
      "blockNumber": "0x56a98a",
      "from": "0xB54271D82813D21F8508FFffc005EdeDf72E1Bf9",
      "to": "0xC7f2Cf4845C6db0e1a1e91ED41Bcd0FcC1b0E141",
      "cumulativeGasUsed": "0x53b8",
      "gasUsed": "0x53b8",
      "contractAddress": null,
      "logs": [],
      "status": "0x1",
      "logsBloom": "0x00000000000000000000000000000000000000000000000000000000000000000000000000000000000000000000000000000000000000000000000000000000000000000000000000000000000000000000000000000000000000000000000000000000000000000000000000000000000000000000000000000000000000000000000000000000000000000000000000000000000000000000000000000000000000000000000000000000000000000000000000000000000000000000000000000000000000000000000000000000000000000000000000000000000000000000000000000000000000000000000000000000000000000000000000000000",
      "type": "0x2",
      "effectiveGasPrice": "0xb2d85959"
    },
    {
      "transactionHash": "0xa1fccaff27d3cef7150fb29d350538000cb6563354f73e7b3804e2cb022b322c",
      "transactionIndex": "0x0",
      "blockHash": "0x7b3c28b2559b22f83e0b882e3f9d142b08016866eff7aa59537a975242f34f06",
      "blockNumber": "0x56a98b",
      "from": "0xB54271D82813D21F8508FFffc005EdeDf72E1Bf9",
      "to": "0xC7f2Cf4845C6db0e1a1e91ED41Bcd0FcC1b0E141",
      "cumulativeGasUsed": "0x53b8",
      "gasUsed": "0x53b8",
      "contractAddress": null,
      "logs": [],
      "status": "0x1",
      "logsBloom": "0x00000000000000000000000000000000000000000000000000000000000000000000000000000000000000000000000000000000000000000000000000000000000000000000000000000000000000000000000000000000000000000000000000000000000000000000000000000000000000000000000000000000000000000000000000000000000000000000000000000000000000000000000000000000000000000000000000000000000000000000000000000000000000000000000000000000000000000000000000000000000000000000000000000000000000000000000000000000000000000000000000000000000000000000000000000000",
      "type": "0x2",
      "effectiveGasPrice": "0xb2d75a4c"
    },
    {
      "transactionHash": "0xb0741ebc6a803a371d9026eac7efde075e8faca5b0b4f7e627a64b49ec49721e",
      "transactionIndex": "0x1",
      "blockHash": "0x7b3c28b2559b22f83e0b882e3f9d142b08016866eff7aa59537a975242f34f06",
      "blockNumber": "0x56a98b",
      "from": "0xB54271D82813D21F8508FFffc005EdeDf72E1Bf9",
      "to": "0xC7f2Cf4845C6db0e1a1e91ED41Bcd0FcC1b0E141",
      "cumulativeGasUsed": "0xa770",
      "gasUsed": "0xa770",
      "contractAddress": null,
      "logs": [],
      "status": "0x1",
      "logsBloom": "0x00000000000000000000000000000000000000000000000000000000000000000000000000000000000000000000000000000000000000000000000000000000000000000000000000000000000000000000000000000000000000000000000000000000000000000000000000000000000000000000000000000000000000000000000000000000000000000000000000000000000000000000000000000000000000000000000000000000000000000000000000000000000000000000000000000000000000000000000000000000000000000000000000000000000000000000000000000000000000000000000000000000000000000000000000000000",
      "type": "0x2",
      "effectiveGasPrice": "0xb2d75a4c"
    },
    {
      "transactionHash": "0x4ba04a50c379ba8cfd49c0a4bcff80f72725b717d56d3a98db5f6bc3f41f88eb",
      "transactionIndex": "0x2",
      "blockHash": "0x7b3c28b2559b22f83e0b882e3f9d142b08016866eff7aa59537a975242f34f06",
      "blockNumber": "0x56a98b",
      "from": "0xB54271D82813D21F8508FFffc005EdeDf72E1Bf9",
      "to": "0xC7f2Cf4845C6db0e1a1e91ED41Bcd0FcC1b0E141",
      "cumulativeGasUsed": "0xfb28",
      "gasUsed": "0xfb28",
      "contractAddress": null,
      "logs": [],
      "status": "0x1",
      "logsBloom": "0x00000000000000000000000000000000000000000000000000000000000000000000000000000000000000000000000000000000000000000000000000000000000000000000000000000000000000000000000000000000000000000000000000000000000000000000000000000000000000000000000000000000000000000000000000000000000000000000000000000000000000000000000000000000000000000000000000000000000000000000000000000000000000000000000000000000000000000000000000000000000000000000000000000000000000000000000000000000000000000000000000000000000000000000000000000000",
      "type": "0x2",
      "effectiveGasPrice": "0xb2d75a4c"
    },
    {
      "transactionHash": "0x3bfd72b3e32dc38eb709b3902821a57c7ff24230cb88ba1d203b5d8bc774258b",
      "transactionIndex": "0x3",
      "blockHash": "0x7b3c28b2559b22f83e0b882e3f9d142b08016866eff7aa59537a975242f34f06",
      "blockNumber": "0x56a98b",
      "from": "0xB54271D82813D21F8508FFffc005EdeDf72E1Bf9",
      "to": "0xC7f2Cf4845C6db0e1a1e91ED41Bcd0FcC1b0E141",
      "cumulativeGasUsed": "0x14ee0",
      "gasUsed": "0x14ee0",
      "contractAddress": null,
      "logs": [],
      "status": "0x1",
      "logsBloom": "0x00000000000000000000000000000000000000000000000000000000000000000000000000000000000000000000000000000000000000000000000000000000000000000000000000000000000000000000000000000000000000000000000000000000000000000000000000000000000000000000000000000000000000000000000000000000000000000000000000000000000000000000000000000000000000000000000000000000000000000000000000000000000000000000000000000000000000000000000000000000000000000000000000000000000000000000000000000000000000000000000000000000000000000000000000000000",
      "type": "0x2",
      "effectiveGasPrice": "0xb2d75a4c"
    },
    {
      "transactionHash": "0xb02f393d1d6209ac862b550a49e961721587877ae50e2e63419c74a40229a531",
      "transactionIndex": "0x4",
      "blockHash": "0x7b3c28b2559b22f83e0b882e3f9d142b08016866eff7aa59537a975242f34f06",
      "blockNumber": "0x56a98b",
      "from": "0xB54271D82813D21F8508FFffc005EdeDf72E1Bf9",
      "to": "0xC7f2Cf4845C6db0e1a1e91ED41Bcd0FcC1b0E141",
      "cumulativeGasUsed": "0x1a298",
      "gasUsed": "0x1a298",
      "contractAddress": null,
      "logs": [],
      "status": "0x1",
      "logsBloom": "0x00000000000000000000000000000000000000000000000000000000000000000000000000000000000000000000000000000000000000000000000000000000000000000000000000000000000000000000000000000000000000000000000000000000000000000000000000000000000000000000000000000000000000000000000000000000000000000000000000000000000000000000000000000000000000000000000000000000000000000000000000000000000000000000000000000000000000000000000000000000000000000000000000000000000000000000000000000000000000000000000000000000000000000000000000000000",
      "type": "0x2",
      "effectiveGasPrice": "0xb2d75a4c"
    },
    {
      "transactionHash": "0x4a3609a5142864f4a6eaf1d6fbef30db286b3e5757c8b0ad1655f88dc2dc298e",
      "transactionIndex": "0x5",
      "blockHash": "0x7b3c28b2559b22f83e0b882e3f9d142b08016866eff7aa59537a975242f34f06",
      "blockNumber": "0x56a98b",
      "from": "0xB54271D82813D21F8508FFffc005EdeDf72E1Bf9",
      "to": "0xC7f2Cf4845C6db0e1a1e91ED41Bcd0FcC1b0E141",
      "cumulativeGasUsed": "0x1f650",
      "gasUsed": "0x1f650",
      "contractAddress": null,
      "logs": [],
      "status": "0x1",
      "logsBloom": "0x00000000000000000000000000000000000000000000000000000000000000000000000000000000000000000000000000000000000000000000000000000000000000000000000000000000000000000000000000000000000000000000000000000000000000000000000000000000000000000000000000000000000000000000000000000000000000000000000000000000000000000000000000000000000000000000000000000000000000000000000000000000000000000000000000000000000000000000000000000000000000000000000000000000000000000000000000000000000000000000000000000000000000000000000000000000",
      "type": "0x2",
      "effectiveGasPrice": "0xb2d75a4c"
    },
    {
      "transactionHash": "0xbbf4fa8274d3fe09fb0c0c9b9cf5dbc0d56808786a2ac8eccc533d2933b2eb90",
      "transactionIndex": "0x6",
      "blockHash": "0x7b3c28b2559b22f83e0b882e3f9d142b08016866eff7aa59537a975242f34f06",
      "blockNumber": "0x56a98b",
      "from": "0xB54271D82813D21F8508FFffc005EdeDf72E1Bf9",
      "to": "0x7AaCc5300ec7Ac58fe86645D08f21b1BEcadf99a",
      "cumulativeGasUsed": "0x24adc",
      "gasUsed": "0x24adc",
      "contractAddress": null,
      "logs": [],
      "status": "0x1",
      "logsBloom": "0x00000000000000000000000000000000000000000000000000000000000000000000000000000000000000000000000000000000000000000000000000000000000000000000000000000000000000000000000000000000000000000000000000000000000000000000000000000000000000000000000000000000000000000000000000000000000000000000000000000000000000000000000000000000000000000000000000000000000000000000000000000000000000000000000000000000000000000000000000000000000000000000000000000000000000000000000000000000000000000000000000000000000000000000000000000000",
      "type": "0x2",
      "effectiveGasPrice": "0xb2d75a4c"
    },
    {
      "transactionHash": "0xa76675b2a8528e234a7960d61ab13b9eb426e66bf1881c2cd95f423ac283f690",
      "transactionIndex": "0x0",
      "blockHash": "0x997e9340b96e91521ae34c46b42656e923ea4e8d7371525b35a16c1156cca916",
      "blockNumber": "0x56a98c",
      "from": "0xB54271D82813D21F8508FFffc005EdeDf72E1Bf9",
      "to": "0x67cDE3E2d3e6e9d5413bD1Ecb01DC71BA3cF86E7",
      "cumulativeGasUsed": "0x5480",
      "gasUsed": "0x5480",
      "contractAddress": null,
      "logs": [],
      "status": "0x1",
      "logsBloom": "0x00000000000000000000000000000000000000000000000000000000000000000000000000000000000000000000000000000000000000000000000000000000000000000000000000000000000000000000000000000000000000000000000000000000000000000000000000000000000000000000000000000000000000000000000000000000000000000000000000000000000000000000000000000000000000000000000000000000000000000000000000000000000000000000000000000000000000000000000000000000000000000000000000000000000000000000000000000000000000000000000000000000000000000000000000000000",
      "type": "0x2",
      "effectiveGasPrice": "0xb2d67d00"
    },
    {
      "transactionHash": "0x8e2c05f7d07d16cea90d3ec852a0a346372d64b28f2c594e68552811549f58ce",
      "transactionIndex": "0x1",
      "blockHash": "0x997e9340b96e91521ae34c46b42656e923ea4e8d7371525b35a16c1156cca916",
      "blockNumber": "0x56a98c",
      "from": "0xB54271D82813D21F8508FFffc005EdeDf72E1Bf9",
      "to": "0x9bF642ef0bc3f1544b1776251AeAc4fF216E3384",
      "cumulativeGasUsed": "0xa900",
      "gasUsed": "0xa900",
      "contractAddress": null,
      "logs": [],
      "status": "0x1",
      "logsBloom": "0x00000000000000000000000000000000000000000000000000000000000000000000000000000000000000000000000000000000000000000000000000000000000000000000000000000000000000000000000000000000000000000000000000000000000000000000000000000000000000000000000000000000000000000000000000000000000000000000000000000000000000000000000000000000000000000000000000000000000000000000000000000000000000000000000000000000000000000000000000000000000000000000000000000000000000000000000000000000000000000000000000000000000000000000000000000000",
      "type": "0x2",
      "effectiveGasPrice": "0xb2d67d00"
    },
    {
      "transactionHash": "0x8c7006ca4140c7ab960572fa5e01de220419d5ea136dc8bd3f6478cce00430fb",
      "transactionIndex": "0x0",
      "blockHash": "0xcf8e40b07a2cfb01e85238dd4f74b686cb881a615d6a6ac08a8e63c8acfc5e7d",
      "blockNumber": "0x56a98d",
      "from": "0xB54271D82813D21F8508FFffc005EdeDf72E1Bf9",
      "to": "0xEedBb16327A403a5229b6F95217dE9f338d74846",
      "cumulativeGasUsed": "0x5480",
      "gasUsed": "0x5480",
      "contractAddress": null,
      "logs": [],
      "status": "0x1",
      "logsBloom": "0x00000000000000000000000000000000000000000000000000000000000000000000000000000000000000000000000000000000000000000000000000000000000000000000000000000000000000000000000000000000000000000000000000000000000000000000000000000000000000000000000000000000000000000000000000000000000000000000000000000000000000000000000000000000000000000000000000000000000000000000000000000000000000000000000000000000000000000000000000000000000000000000000000000000000000000000000000000000000000000000000000000000000000000000000000000000",
      "type": "0x2",
      "effectiveGasPrice": "0xb2d5b9b1"
    },
    {
      "transactionHash": "0x5b3b5ac7909b9b094c06de47641feaad247ae607ad5c72efa88be19cf2725761",
      "transactionIndex": "0x1",
      "blockHash": "0xcf8e40b07a2cfb01e85238dd4f74b686cb881a615d6a6ac08a8e63c8acfc5e7d",
      "blockNumber": "0x56a98d",
      "from": "0xB54271D82813D21F8508FFffc005EdeDf72E1Bf9",
      "to": "0x2B4707A92412D58a82d89EeAD6A5C7e35ce61450",
      "cumulativeGasUsed": "0xa900",
      "gasUsed": "0xa900",
      "contractAddress": null,
      "logs": [],
      "status": "0x1",
      "logsBloom": "0x00000000000000000000000000000000000000000000000000000000000000000000000000000000000000000000000000000000000000000000000000000000000000000000000000000000000000000000000000000000000000000000000000000000000000000000000000000000000000000000000000000000000000000000000000000000000000000000000000000000000000000000000000000000000000000000000000000000000000000000000000000000000000000000000000000000000000000000000000000000000000000000000000000000000000000000000000000000000000000000000000000000000000000000000000000000",
      "type": "0x2",
      "effectiveGasPrice": "0xb2d5b9b1"
    },
    {
      "transactionHash": "0x7ff75f9d0a23534755611b0184235317571fb131991a1ed4fe2719c5e4723e63",
      "transactionIndex": "0x0",
      "blockHash": "0xa7c34e8b280a54bb7fff7a8dd67cb70c5700d4fea058d70f0c0a8b97a0ff5d7d",
      "blockNumber": "0x56a98e",
      "from": "0xB54271D82813D21F8508FFffc005EdeDf72E1Bf9",
      "to": "0x1e8b6a99b4824793639d2873366c56D445a5f08d",
      "cumulativeGasUsed": "0x5480",
      "gasUsed": "0x5480",
      "contractAddress": null,
      "logs": [],
      "status": "0x1",
      "logsBloom": "0x00000000000000000000000000000000000000000000000000000000000000000000000000000000000000000000000000000000000000000000000000000000000000000000000000000000000000000000000000000000000000000000000000000000000000000000000000000000000000000000000000000000000000000000000000000000000000000000000000000000000000000000000000000000000000000000000000000000000000000000000000000000000000000000000000000000000000000000000000000000000000000000000000000000000000000000000000000000000000000000000000000000000000000000000000000000",
      "type": "0x2",
      "effectiveGasPrice": "0xb2d50eba"
    },
    {
      "transactionHash": "0x0817edea4705970edd8915e207e943a438300deea7cdee226a28e0fd2cbfe94d",
      "transactionIndex": "0x1",
      "blockHash": "0xa7c34e8b280a54bb7fff7a8dd67cb70c5700d4fea058d70f0c0a8b97a0ff5d7d",
      "blockNumber": "0x56a98e",
      "from": "0xB54271D82813D21F8508FFffc005EdeDf72E1Bf9",
      "to": "0x7a68E92dF1aEF1F65c726810746Ed2a978434BbC",
      "cumulativeGasUsed": "0xa900",
      "gasUsed": "0xa900",
      "contractAddress": null,
      "logs": [],
      "status": "0x1",
      "logsBloom": "0x00000000000000000000000000000000000000000000000000000000000000000000000000000000000000000000000000000000000000000000000000000000000000000000000000000000000000000000000000000000000000000000000000000000000000000000000000000000000000000000000000000000000000000000000000000000000000000000000000000000000000000000000000000000000000000000000000000000000000000000000000000000000000000000000000000000000000000000000000000000000000000000000000000000000000000000000000000000000000000000000000000000000000000000000000000000",
      "type": "0x2",
      "effectiveGasPrice": "0xb2d50eba"
    },
    {
      "transactionHash": "0xcfcd98c4f0790610e24eda0c0b1924f8360ad17a7ba6f592c754cc0278ad1511",
      "transactionIndex": "0x2",
      "blockHash": "0xa7c34e8b280a54bb7fff7a8dd67cb70c5700d4fea058d70f0c0a8b97a0ff5d7d",
      "blockNumber": "0x56a98e",
      "from": "0xB54271D82813D21F8508FFffc005EdeDf72E1Bf9",
      "to": "0x62Bd6F648Efbbe964Ce38592640C71a29d586eE9",
      "cumulativeGasUsed": "0xfd80",
      "gasUsed": "0xfd80",
      "contractAddress": null,
      "logs": [],
      "status": "0x1",
      "logsBloom": "0x00000000000000000000000000000000000000000000000000000000000000000000000000000000000000000000000000000000000000000000000000000000000000000000000000000000000000000000000000000000000000000000000000000000000000000000000000000000000000000000000000000000000000000000000000000000000000000000000000000000000000000000000000000000000000000000000000000000000000000000000000000000000000000000000000000000000000000000000000000000000000000000000000000000000000000000000000000000000000000000000000000000000000000000000000000000",
      "type": "0x2",
      "effectiveGasPrice": "0xb2d50eba"
    },
    {
      "transactionHash": "0x3601593e0930e911122f78fadf5df5f507302c8b05adb3d3ad1f48c39c65f6cb",
      "transactionIndex": "0x0",
      "blockHash": "0xa990095aa87daba693b3af11b13f35955faf0895292239e4e5cc92eb3af9e3c8",
      "blockNumber": "0x56a98f",
      "from": "0xB54271D82813D21F8508FFffc005EdeDf72E1Bf9",
      "to": "0x67a6e25c585E57F8Ef1a573f734a124cE60cb583",
      "cumulativeGasUsed": "0x5480",
      "gasUsed": "0x5480",
      "contractAddress": null,
      "logs": [],
      "status": "0x1",
      "logsBloom": "0x00000000000000000000000000000000000000000000000000000000000000000000000000000000000000000000000000000000000000000000000000000000000000000000000000000000000000000000000000000000000000000000000000000000000000000000000000000000000000000000000000000000000000000000000000000000000000000000000000000000000000000000000000000000000000000000000000000000000000000000000000000000000000000000000000000000000000000000000000000000000000000000000000000000000000000000000000000000000000000000000000000000000000000000000000000000",
      "type": "0x2",
      "effectiveGasPrice": "0xb2d47949"
    },
    {
      "transactionHash": "0xe94807f38c6dc7bb7b0c9ac22c8689f91fe76ab98a90806d4e26a0471699e0a2",
      "transactionIndex": "0x0",
      "blockHash": "0xfc59cae02b66fc92a3288a0a319b94986f35340ebd2e216d871fe599f0796758",
      "blockNumber": "0x56a990",
      "from": "0xB54271D82813D21F8508FFffc005EdeDf72E1Bf9",
      "to": "0xb6087b053C85389A143E69B3f7420bed8059A5fd",
      "cumulativeGasUsed": "0x5480",
      "gasUsed": "0x5480",
      "contractAddress": null,
      "logs": [],
      "status": "0x1",
      "logsBloom": "0x00000000000000000000000000000000000000000000000000000000000000000000000000000000000000000000000000000000000000000000000000000000000000000000000000000000000000000000000000000000000000000000000000000000000000000000000000000000000000000000000000000000000000000000000000000000000000000000000000000000000000000000000000000000000000000000000000000000000000000000000000000000000000000000000000000000000000000000000000000000000000000000000000000000000000000000000000000000000000000000000000000000000000000000000000000000",
      "type": "0x2",
      "effectiveGasPrice": "0xb2d3f611"
    }
  ],
  "libraries": [],
  "pending": [],
  "returns": {},
  "timestamp": 1712896253,
  "chain": 11155111,
  "commit": "b4485ba"
}