{
  "transactions": [
    {
      "hash": "0x5a4c943b8cd54b0092a89cb917b6325bec3321bd6a725f4ddbdd00654aa5c851",
      "transactionType": "CALL",
      "contractName": "SLMinterOracle",
      "contractAddress": "0xC7f2Cf4845C6db0e1a1e91ED41Bcd0FcC1b0E141",
      "function": "createBrand(string,string,uint256,address)",
      "arguments": [
        "\"Delta\"",
        "\"Miles\"",
        "54000",
        "0xB54271D82813D21F8508FFffc005EdeDf72E1Bf9"
      ],
      "transaction": {
        "type": "0x02",
        "from": "0xb54271d82813d21f8508ffffc005ededf72e1bf9",
        "to": "0xc7f2cf4845c6db0e1a1e91ed41bcd0fcc1b0e141",
        "gas": "0x7981",
        "value": "0x0",
        "data": "0x920c46c3000000000000000000000000000000000000000000000000000000000000008000000000000000000000000000000000000000000000000000000000000000c0000000000000000000000000000000000000000000000000000000000000d2f0000000000000000000000000b54271d82813d21f8508ffffc005ededf72e1bf9000000000000000000000000000000000000000000000000000000000000000544656c746100000000000000000000000000000000000000000000000000000000000000000000000000000000000000000000000000000000000000000000054d696c6573000000000000000000000000000000000000000000000000000000",
        "nonce": "0x4f",
        "accessList": []
      },
      "additionalContracts": [],
      "isFixedGasLimit": false
    },
    {
      "hash": "0x9d3dac3571ad74e70d8bbaac4511474517c2093f7c854e7fe3cb0795707c5974",
      "transactionType": "CALL",
      "contractName": "SLMinterOracle",
      "contractAddress": "0xC7f2Cf4845C6db0e1a1e91ED41Bcd0FcC1b0E141",
      "function": "createBrand(string,string,uint256,address)",
      "arguments": [
        "\"Starbucks\"",
        "\"Points\"",
        "2476",
        "0xB54271D82813D21F8508FFffc005EdeDf72E1Bf9"
      ],
      "transaction": {
        "type": "0x02",
        "from": "0xb54271d82813d21f8508ffffc005ededf72e1bf9",
        "to": "0xc7f2cf4845c6db0e1a1e91ed41bcd0fcc1b0e141",
        "gas": "0x79d4",
        "value": "0x0",
        "data": "0x920c46c3000000000000000000000000000000000000000000000000000000000000008000000000000000000000000000000000000000000000000000000000000000c000000000000000000000000000000000000000000000000000000000000009ac000000000000000000000000b54271d82813d21f8508ffffc005ededf72e1bf90000000000000000000000000000000000000000000000000000000000000009537461726275636b7300000000000000000000000000000000000000000000000000000000000000000000000000000000000000000000000000000000000006506f696e74730000000000000000000000000000000000000000000000000000",
        "nonce": "0x50",
        "accessList": []
      },
      "additionalContracts": [],
      "isFixedGasLimit": false
    },
    {
      "hash": "0x63599a01428a100c57dcee3d9614c3a7fd09a6b6f45a1545a5c15b701ef6a77b",
      "transactionType": "CALL",
      "contractName": "SLMinterOracle",
      "contractAddress": "0xC7f2Cf4845C6db0e1a1e91ED41Bcd0FcC1b0E141",
      "function": "createBrand(string,string,uint256,address)",
      "arguments": [
        "\"Walmart\"",
        "\"Points\"",
        "2300",
        "0xB54271D82813D21F8508FFffc005EdeDf72E1Bf9"
      ],
      "transaction": {
        "type": "0x02",
        "from": "0xb54271d82813d21f8508ffffc005ededf72e1bf9",
        "to": "0xc7f2cf4845c6db0e1a1e91ed41bcd0fcc1b0e141",
        "gas": "0x79b2",
        "value": "0x0",
        "data": "0x920c46c3000000000000000000000000000000000000000000000000000000000000008000000000000000000000000000000000000000000000000000000000000000c000000000000000000000000000000000000000000000000000000000000008fc000000000000000000000000b54271d82813d21f8508ffffc005ededf72e1bf9000000000000000000000000000000000000000000000000000000000000000757616c6d617274000000000000000000000000000000000000000000000000000000000000000000000000000000000000000000000000000000000000000006506f696e74730000000000000000000000000000000000000000000000000000",
        "nonce": "0x51",
        "accessList": []
      },
      "additionalContracts": [],
      "isFixedGasLimit": false
    },
    {
      "hash": "0x6d9c110d1c6ca8bf1339098d240aa836b65abef5eed00ee4601d6b25cc7f5e05",
      "transactionType": "CALL",
      "contractName": "SLMinterOracle",
      "contractAddress": "0xC7f2Cf4845C6db0e1a1e91ED41Bcd0FcC1b0E141",
      "function": "createBrand(string,string,uint256,address)",
      "arguments": [
        "\"Shell\"",
        "\"Gallons\"",
        "744",
        "0xB54271D82813D21F8508FFffc005EdeDf72E1Bf9"
      ],
      "transaction": {
        "type": "0x02",
        "from": "0xb54271d82813d21f8508ffffc005ededf72e1bf9",
        "to": "0xc7f2cf4845c6db0e1a1e91ed41bcd0fcc1b0e141",
        "gas": "0x79a2",
        "value": "0x0",
        "data": "0x920c46c3000000000000000000000000000000000000000000000000000000000000008000000000000000000000000000000000000000000000000000000000000000c000000000000000000000000000000000000000000000000000000000000002e8000000000000000000000000b54271d82813d21f8508ffffc005ededf72e1bf900000000000000000000000000000000000000000000000000000000000000055368656c6c000000000000000000000000000000000000000000000000000000000000000000000000000000000000000000000000000000000000000000000747616c6c6f6e7300000000000000000000000000000000000000000000000000",
        "nonce": "0x52",
        "accessList": []
      },
      "additionalContracts": [],
      "isFixedGasLimit": false
    },
    {
      "hash": "0xfb8cc813f7e863f1792af2a2e4e9c5dfa10cc4b58b9747eca1067332c7ed6621",
      "transactionType": "CALL",
      "contractName": "SLMinterOracle",
      "contractAddress": "0xC7f2Cf4845C6db0e1a1e91ED41Bcd0FcC1b0E141",
      "function": "createBrand(string,string,uint256,address)",
      "arguments": [
        "\"Regal Cinema\"",
        "\"Points\"",
        "3078",
        "0xB54271D82813D21F8508FFffc005EdeDf72E1Bf9"
      ],
      "transaction": {
        "type": "0x02",
        "from": "0xb54271d82813d21f8508ffffc005ededf72e1bf9",
        "to": "0xc7f2cf4845c6db0e1a1e91ed41bcd0fcc1b0e141",
        "gas": "0x7a05",
        "value": "0x0",
        "data": "0x920c46c3000000000000000000000000000000000000000000000000000000000000008000000000000000000000000000000000000000000000000000000000000000c00000000000000000000000000000000000000000000000000000000000000c06000000000000000000000000b54271d82813d21f8508ffffc005ededf72e1bf9000000000000000000000000000000000000000000000000000000000000000c526567616c2043696e656d6100000000000000000000000000000000000000000000000000000000000000000000000000000000000000000000000000000006506f696e74730000000000000000000000000000000000000000000000000000",
        "nonce": "0x53",
        "accessList": []
      },
      "additionalContracts": [],
      "isFixedGasLimit": false
    },
    {
      "hash": "0x10e94d815a5d5c44975574661965a14dfa392f420e863eb703db6f34855ba5cc",
      "transactionType": "CALL",
      "contractName": "SLMinterOracle",
      "contractAddress": "0xC7f2Cf4845C6db0e1a1e91ED41Bcd0FcC1b0E141",
      "function": "createBrand(string,string,uint256,address)",
      "arguments": [
        "\"McDonalds\"",
        "\"Points\"",
        "2667",
        "0xB54271D82813D21F8508FFffc005EdeDf72E1Bf9"
      ],
      "transaction": {
        "type": "0x02",
        "from": "0xb54271d82813d21f8508ffffc005ededf72e1bf9",
        "to": "0xc7f2cf4845c6db0e1a1e91ed41bcd0fcc1b0e141",
        "gas": "0x79d4",
        "value": "0x0",
        "data": "0x920c46c3000000000000000000000000000000000000000000000000000000000000008000000000000000000000000000000000000000000000000000000000000000c00000000000000000000000000000000000000000000000000000000000000a6b000000000000000000000000b54271d82813d21f8508ffffc005ededf72e1bf900000000000000000000000000000000000000000000000000000000000000094d63446f6e616c647300000000000000000000000000000000000000000000000000000000000000000000000000000000000000000000000000000000000006506f696e74730000000000000000000000000000000000000000000000000000",
        "nonce": "0x54",
        "accessList": []
      },
      "additionalContracts": [],
      "isFixedGasLimit": false
    },
    {
      "hash": "0x6f64d333290c34ee5a1abb7ff27322135de399712bfe9354718db29874833a42",
      "transactionType": "CALL",
      "contractName": "SLMinterOracle",
      "contractAddress": "0xC7f2Cf4845C6db0e1a1e91ED41Bcd0FcC1b0E141",
      "function": "createBrand(string,string,uint256,address)",
      "arguments": [
        "\"Amazon\"",
        "\"Points\"",
        "2280",
        "0xB54271D82813D21F8508FFffc005EdeDf72E1Bf9"
      ],
      "transaction": {
        "type": "0x02",
        "from": "0xb54271d82813d21f8508ffffc005ededf72e1bf9",
        "to": "0xc7f2cf4845c6db0e1a1e91ed41bcd0fcc1b0e141",
        "gas": "0x79a2",
        "value": "0x0",
        "data": "0x920c46c3000000000000000000000000000000000000000000000000000000000000008000000000000000000000000000000000000000000000000000000000000000c000000000000000000000000000000000000000000000000000000000000008e8000000000000000000000000b54271d82813d21f8508ffffc005ededf72e1bf90000000000000000000000000000000000000000000000000000000000000006416d617a6f6e00000000000000000000000000000000000000000000000000000000000000000000000000000000000000000000000000000000000000000006506f696e74730000000000000000000000000000000000000000000000000000",
        "nonce": "0x55",
        "accessList": []
      },
      "additionalContracts": [],
      "isFixedGasLimit": false
    },
    {
      "hash": "0xa4f84d53bd7f9b992cdec5f4d21931c64652566bdeca9fb5c6d81c457de25d01",
      "transactionType": "CALL",
      "contractName": "SLMinterOracle",
      "contractAddress": "0xC7f2Cf4845C6db0e1a1e91ED41Bcd0FcC1b0E141",
      "function": "createBrand(string,string,uint256,address)",
      "arguments": [
        "\"Sephora\"",
        "\"Points\"",
        "2500",
        "0xB54271D82813D21F8508FFffc005EdeDf72E1Bf9"
      ],
      "transaction": {
        "type": "0x02",
        "from": "0xb54271d82813d21f8508ffffc005ededf72e1bf9",
        "to": "0xc7f2cf4845c6db0e1a1e91ed41bcd0fcc1b0e141",
        "gas": "0x79b2",
        "value": "0x0",
        "data": "0x920c46c3000000000000000000000000000000000000000000000000000000000000008000000000000000000000000000000000000000000000000000000000000000c000000000000000000000000000000000000000000000000000000000000009c4000000000000000000000000b54271d82813d21f8508ffffc005ededf72e1bf90000000000000000000000000000000000000000000000000000000000000007536570686f7261000000000000000000000000000000000000000000000000000000000000000000000000000000000000000000000000000000000000000006506f696e74730000000000000000000000000000000000000000000000000000",
        "nonce": "0x56",
        "accessList": []
      },
      "additionalContracts": [],
      "isFixedGasLimit": false
    },
    {
      "hash": "0x1f4be9a27e0b96f656b92d4a2b17d5f8ddd99a8472c7703ac28d59c687440275",
      "transactionType": "CALL",
      "contractName": "SLMinterOracle",
      "contractAddress": "0xC7f2Cf4845C6db0e1a1e91ED41Bcd0FcC1b0E141",
      "function": "createBrand(string,string,uint256,address)",
      "arguments": [
        "\"Walgreens\"",
        "\"Points\"",
        "3080",
        "0xB54271D82813D21F8508FFffc005EdeDf72E1Bf9"
      ],
      "transaction": {
        "type": "0x02",
        "from": "0xb54271d82813d21f8508ffffc005ededf72e1bf9",
        "to": "0xc7f2cf4845c6db0e1a1e91ed41bcd0fcc1b0e141",
        "gas": "0x79d4",
        "value": "0x0",
        "data": "0x920c46c3000000000000000000000000000000000000000000000000000000000000008000000000000000000000000000000000000000000000000000000000000000c00000000000000000000000000000000000000000000000000000000000000c08000000000000000000000000b54271d82813d21f8508ffffc005ededf72e1bf9000000000000000000000000000000000000000000000000000000000000000957616c677265656e7300000000000000000000000000000000000000000000000000000000000000000000000000000000000000000000000000000000000006506f696e74730000000000000000000000000000000000000000000000000000",
        "nonce": "0x57",
        "accessList": []
      },
      "additionalContracts": [],
      "isFixedGasLimit": false
    },
    {
      "hash": "0xd133c5f997afe80a6f187ae3be1173d5f51968933614566c1e43393d78085e5b",
      "transactionType": "CALL",
      "contractName": "SLMinterOracle",
      "contractAddress": "0xC7f2Cf4845C6db0e1a1e91ED41Bcd0FcC1b0E141",
      "function": "createBrand(string,string,uint256,address)",
      "arguments": [
        "\"Lyft\"",
        "\"Points\"",
        "2500",
        "0xB54271D82813D21F8508FFffc005EdeDf72E1Bf9"
      ],
      "transaction": {
        "type": "0x02",
        "from": "0xb54271d82813d21f8508ffffc005ededf72e1bf9",
        "to": "0xc7f2cf4845c6db0e1a1e91ed41bcd0fcc1b0e141",
        "gas": "0x7981",
        "value": "0x0",
        "data": "0x920c46c3000000000000000000000000000000000000000000000000000000000000008000000000000000000000000000000000000000000000000000000000000000c000000000000000000000000000000000000000000000000000000000000009c4000000000000000000000000b54271d82813d21f8508ffffc005ededf72e1bf900000000000000000000000000000000000000000000000000000000000000044c796674000000000000000000000000000000000000000000000000000000000000000000000000000000000000000000000000000000000000000000000006506f696e74730000000000000000000000000000000000000000000000000000",
        "nonce": "0x58",
        "accessList": []
      },
      "additionalContracts": [],
      "isFixedGasLimit": false
    },
    {
      "hash": "0x2d3934a37ff9d1747ecba335b79e9ee1126b808fd0ddb75a523441a908748692",
      "transactionType": "CALL",
      "contractName": "SLMinterOracle",
      "contractAddress": "0xC7f2Cf4845C6db0e1a1e91ED41Bcd0FcC1b0E141",
      "function": "returnCard(address)",
      "arguments": [
        "0x7AaCc5300ec7Ac58fe86645D08f21b1BEcadf99a"
      ],
      "transaction": {
        "type": "0x02",
        "from": "0xb54271d82813d21f8508ffffc005ededf72e1bf9",
        "to": "0xc7f2cf4845c6db0e1a1e91ed41bcd0fcc1b0e141",
        "gas": "0x73a2",
        "value": "0x0",
        "data": "0x056dc4fc0000000000000000000000007aacc5300ec7ac58fe86645d08f21b1becadf99a",
        "nonce": "0x59",
        "accessList": []
      },
      "additionalContracts": [],
      "isFixedGasLimit": false
    },
    {
      "hash": "0x5fc462d9fee2bbb463fbf1de628bb4a5d13e8831e98caff806f24e84395d76b7",
      "transactionType": "CALL",
      "contractName": "SLMinterOracle",
      "contractAddress": "0xC7f2Cf4845C6db0e1a1e91ED41Bcd0FcC1b0E141",
      "function": "returnCard(address)",
      "arguments": [
        "0x67cDE3E2d3e6e9d5413bD1Ecb01DC71BA3cF86E7"
      ],
      "transaction": {
        "type": "0x02",
        "from": "0xb54271d82813d21f8508ffffc005ededf72e1bf9",
        "to": "0xc7f2cf4845c6db0e1a1e91ed41bcd0fcc1b0e141",
        "gas": "0x73a2",
        "value": "0x0",
        "data": "0x056dc4fc00000000000000000000000067cde3e2d3e6e9d5413bd1ecb01dc71ba3cf86e7",
        "nonce": "0x5a",
        "accessList": []
      },
      "additionalContracts": [],
      "isFixedGasLimit": false
    },
    {
      "hash": "0x061160f668ae09e9ab53e536f86fef264424191baf3fe1efeabc7c28c6db5fc8",
      "transactionType": "CALL",
      "contractName": "SLMinterOracle",
      "contractAddress": "0xC7f2Cf4845C6db0e1a1e91ED41Bcd0FcC1b0E141",
      "function": "returnCard(address)",
      "arguments": [
        "0x9bF642ef0bc3f1544b1776251AeAc4fF216E3384"
      ],
      "transaction": {
        "type": "0x02",
        "from": "0xb54271d82813d21f8508ffffc005ededf72e1bf9",
        "to": "0xc7f2cf4845c6db0e1a1e91ed41bcd0fcc1b0e141",
        "gas": "0x73a2",
        "value": "0x0",
        "data": "0x056dc4fc0000000000000000000000009bf642ef0bc3f1544b1776251aeac4ff216e3384",
        "nonce": "0x5b",
        "accessList": []
      },
      "additionalContracts": [],
      "isFixedGasLimit": false
    },
    {
      "hash": "0xf578d2a02c81053db4c605ea069d4c90afe5c54a88ba88e06ec70f9a2a9a441b",
      "transactionType": "CALL",
      "contractName": "SLMinterOracle",
      "contractAddress": "0xC7f2Cf4845C6db0e1a1e91ED41Bcd0FcC1b0E141",
      "function": "returnCard(address)",
      "arguments": [
        "0xEedBb16327A403a5229b6F95217dE9f338d74846"
      ],
      "transaction": {
        "type": "0x02",
        "from": "0xb54271d82813d21f8508ffffc005ededf72e1bf9",
        "to": "0xc7f2cf4845c6db0e1a1e91ed41bcd0fcc1b0e141",
        "gas": "0x73a2",
        "value": "0x0",
        "data": "0x056dc4fc000000000000000000000000eedbb16327a403a5229b6f95217de9f338d74846",
        "nonce": "0x5c",
        "accessList": []
      },
      "additionalContracts": [],
      "isFixedGasLimit": false
    },
    {
      "hash": "0xef27c08a1b6e11114c7f62095e9e572fb1edfe2908f025269f350ba2b834aec0",
      "transactionType": "CALL",
      "contractName": "SLMinterOracle",
      "contractAddress": "0xC7f2Cf4845C6db0e1a1e91ED41Bcd0FcC1b0E141",
      "function": "returnCard(address)",
      "arguments": [
        "0x2B4707A92412D58a82d89EeAD6A5C7e35ce61450"
      ],
      "transaction": {
        "type": "0x02",
        "from": "0xb54271d82813d21f8508ffffc005ededf72e1bf9",
        "to": "0xc7f2cf4845c6db0e1a1e91ed41bcd0fcc1b0e141",
        "gas": "0x73a2",
        "value": "0x0",
        "data": "0x056dc4fc0000000000000000000000002b4707a92412d58a82d89eead6a5c7e35ce61450",
        "nonce": "0x5d",
        "accessList": []
      },
      "additionalContracts": [],
      "isFixedGasLimit": false
    },
    {
      "hash": "0xb3acf2cffffef0eb90467f55f573620124000ccc6e146cfa16195ca9ef103377",
      "transactionType": "CALL",
      "contractName": "SLMinterOracle",
      "contractAddress": "0xC7f2Cf4845C6db0e1a1e91ED41Bcd0FcC1b0E141",
      "function": "returnCard(address)",
      "arguments": [
        "0x1e8b6a99b4824793639d2873366c56D445a5f08d"
      ],
      "transaction": {
        "type": "0x02",
        "from": "0xb54271d82813d21f8508ffffc005ededf72e1bf9",
        "to": "0xc7f2cf4845c6db0e1a1e91ed41bcd0fcc1b0e141",
        "gas": "0x73a2",
        "value": "0x0",
        "data": "0x056dc4fc0000000000000000000000001e8b6a99b4824793639d2873366c56d445a5f08d",
        "nonce": "0x5e",
        "accessList": []
      },
      "additionalContracts": [],
      "isFixedGasLimit": false
    },
    {
      "hash": "0x64e2052e39bf5f8ede3548976dec5e21ba01d586da87d9923b98b8f53363efd8",
      "transactionType": "CALL",
      "contractName": "SLMinterOracle",
      "contractAddress": "0xC7f2Cf4845C6db0e1a1e91ED41Bcd0FcC1b0E141",
      "function": "returnCard(address)",
      "arguments": [
        "0x7a68E92dF1aEF1F65c726810746Ed2a978434BbC"
      ],
      "transaction": {
        "type": "0x02",
        "from": "0xb54271d82813d21f8508ffffc005ededf72e1bf9",
        "to": "0xc7f2cf4845c6db0e1a1e91ed41bcd0fcc1b0e141",
        "gas": "0x73a2",
        "value": "0x0",
        "data": "0x056dc4fc0000000000000000000000007a68e92df1aef1f65c726810746ed2a978434bbc",
        "nonce": "0x5f",
        "accessList": []
      },
      "additionalContracts": [],
      "isFixedGasLimit": false
    },
    {
      "hash": "0x03365b0a49b2ba0aa67a5c6be63cb1853c1adacc1f1f1d1e703f4f35d00baada",
      "transactionType": "CALL",
      "contractName": "SLMinterOracle",
      "contractAddress": "0xC7f2Cf4845C6db0e1a1e91ED41Bcd0FcC1b0E141",
      "function": "returnCard(address)",
      "arguments": [
        "0x62Bd6F648Efbbe964Ce38592640C71a29d586eE9"
      ],
      "transaction": {
        "type": "0x02",
        "from": "0xb54271d82813d21f8508ffffc005ededf72e1bf9",
        "to": "0xc7f2cf4845c6db0e1a1e91ed41bcd0fcc1b0e141",
        "gas": "0x73a2",
        "value": "0x0",
        "data": "0x056dc4fc00000000000000000000000062bd6f648efbbe964ce38592640c71a29d586ee9",
        "nonce": "0x60",
        "accessList": []
      },
      "additionalContracts": [],
      "isFixedGasLimit": false
    },
    {
      "hash": "0xba5db84a8b4e4dd29deb6704d41f6313036fba97c4ae49cc164af0355c4e91e0",
      "transactionType": "CALL",
      "contractName": "SLMinterOracle",
      "contractAddress": "0xC7f2Cf4845C6db0e1a1e91ED41Bcd0FcC1b0E141",
      "function": "returnCard(address)",
      "arguments": [
        "0x67a6e25c585E57F8Ef1a573f734a124cE60cb583"
      ],
      "transaction": {
        "type": "0x02",
        "from": "0xb54271d82813d21f8508ffffc005ededf72e1bf9",
        "to": "0xc7f2cf4845c6db0e1a1e91ed41bcd0fcc1b0e141",
        "gas": "0x73a2",
        "value": "0x0",
        "data": "0x056dc4fc00000000000000000000000067a6e25c585e57f8ef1a573f734a124ce60cb583",
        "nonce": "0x61",
        "accessList": []
      },
      "additionalContracts": [],
      "isFixedGasLimit": false
    },
    {
      "hash": "0xb2d4b711075c4c48e23262f0a8e6eaf2dd7647cd116ac90b738aff89a393ab0a",
      "transactionType": "CALL",
      "contractName": "SLMinterOracle",
      "contractAddress": "0xC7f2Cf4845C6db0e1a1e91ED41Bcd0FcC1b0E141",
      "function": "returnCard(address)",
      "arguments": [
        "0xb6087b053C85389A143E69B3f7420bed8059A5fd"
      ],
      "transaction": {
        "type": "0x02",
        "from": "0xb54271d82813d21f8508ffffc005ededf72e1bf9",
        "to": "0xc7f2cf4845c6db0e1a1e91ed41bcd0fcc1b0e141",
        "gas": "0x73a2",
        "value": "0x0",
        "data": "0x056dc4fc000000000000000000000000b6087b053c85389a143e69b3f7420bed8059a5fd",
        "nonce": "0x62",
        "accessList": []
      },
      "additionalContracts": [],
      "isFixedGasLimit": false
    },
    {
      "hash": "0xa123872a53225219cd16deb8f992e85e3ccf348667fcd5e9cc1b3767e88c3d77",
      "transactionType": "CALL",
      "contractName": "SLERC20",
      "contractAddress": "0x7AaCc5300ec7Ac58fe86645D08f21b1BEcadf99a",
      "function": "approve(address,uint256)",
      "arguments": [
        "0xC532a74256D3Db42D0Bf7a0400fEFDbad7694008",
        "52000000000000000000000"
      ],
      "transaction": {
        "type": "0x02",
        "from": "0xb54271d82813d21f8508ffffc005ededf72e1bf9",
        "to": "0x7aacc5300ec7ac58fe86645d08f21b1becadf99a",
        "gas": "0x74c6",
        "value": "0x0",
        "data": "0x095ea7b3000000000000000000000000c532a74256d3db42d0bf7a0400fefdbad7694008000000000000000000000000000000000000000000000b02ecf74c3138800000",
        "nonce": "0x63",
        "accessList": []
      },
      "additionalContracts": [],
      "isFixedGasLimit": false
    },
    {
      "hash": "0xc2e922cc3cac77eac6e9a72f5ab9c12369d357e473cdb0f5b1b61cb7f957085f",
      "transactionType": "CALL",
      "contractName": "SLERC20",
      "contractAddress": "0x67cDE3E2d3e6e9d5413bD1Ecb01DC71BA3cF86E7",
      "function": "approve(address,uint256)",
      "arguments": [
        "0xC532a74256D3Db42D0Bf7a0400fEFDbad7694008",
        "2440000000000000000000"
      ],
      "transaction": {
        "type": "0x02",
        "from": "0xb54271d82813d21f8508ffffc005ededf72e1bf9",
        "to": "0x67cde3e2d3e6e9d5413bd1ecb01dc71ba3cf86e7",
        "gas": "0x74b7",
        "value": "0x0",
        "data": "0x095ea7b3000000000000000000000000c532a74256d3db42d0bf7a0400fefdbad769400800000000000000000000000000000000000000000000008445cd605371200000",
        "nonce": "0x64",
        "accessList": []
      },
      "additionalContracts": [],
      "isFixedGasLimit": false
    },
    {
      "hash": "0xaadad441330aa74b6825564870db7cf7b493d2f8d273450a7742c093617081fe",
      "transactionType": "CALL",
      "contractName": "SLERC20",
      "contractAddress": "0x9bF642ef0bc3f1544b1776251AeAc4fF216E3384",
      "function": "approve(address,uint256)",
      "arguments": [
        "0xC532a74256D3Db42D0Bf7a0400fEFDbad7694008",
        "2300000000000000000000"
      ],
      "transaction": {
        "type": "0x02",
        "from": "0xb54271d82813d21f8508ffffc005ededf72e1bf9",
        "to": "0x9bf642ef0bc3f1544b1776251aeac4ff216e3384",
        "gas": "0x74b7",
        "value": "0x0",
        "data": "0x095ea7b3000000000000000000000000c532a74256d3db42d0bf7a0400fefdbad769400800000000000000000000000000000000000000000000007caee97613e6700000",
        "nonce": "0x65",
        "accessList": []
      },
      "additionalContracts": [],
      "isFixedGasLimit": false
    },
    {
      "hash": "0x28c71a36eaa41dc949cce64a696436ddc0fc0e57299a91b31104d7ea1da9814d",
      "transactionType": "CALL",
      "contractName": "SLERC20",
      "contractAddress": "0xEedBb16327A403a5229b6F95217dE9f338d74846",
      "function": "approve(address,uint256)",
      "arguments": [
        "0xC532a74256D3Db42D0Bf7a0400fEFDbad7694008",
        "744000000000000000000"
      ],
      "transaction": {
        "type": "0x02",
        "from": "0xb54271d82813d21f8508ffffc005ededf72e1bf9",
        "to": "0xeedbb16327a403a5229b6f95217de9f338d74846",
        "gas": "0x74b7",
        "value": "0x0",
        "data": "0x095ea7b3000000000000000000000000c532a74256d3db42d0bf7a0400fefdbad76940080000000000000000000000000000000000000000000000285512fa1e7aa00000",
        "nonce": "0x66",
        "accessList": []
      },
      "additionalContracts": [],
      "isFixedGasLimit": false
    },
    {
      "hash": "0x9b0046f46ae3f1e3d5f5547e7b0376c2d4f3ba067b1c7f9ec85e6e884aabc2af",
      "transactionType": "CALL",
      "contractName": "SLERC20",
      "contractAddress": "0x2B4707A92412D58a82d89EeAD6A5C7e35ce61450",
      "function": "approve(address,uint256)",
      "arguments": [
        "0xC532a74256D3Db42D0Bf7a0400fEFDbad7694008",
        "3078000000000000000000"
      ],
      "transaction": {
        "type": "0x02",
        "from": "0xb54271d82813d21f8508ffffc005ededf72e1bf9",
        "to": "0x2b4707a92412d58a82d89eead6a5c7e35ce61450",
        "gas": "0x74b7",
        "value": "0x0",
        "data": "0x095ea7b3000000000000000000000000c532a74256d3db42d0bf7a0400fefdbad76940080000000000000000000000000000000000000000000000a6dbd4b40e9c580000",
        "nonce": "0x67",
        "accessList": []
      },
      "additionalContracts": [],
      "isFixedGasLimit": false
    },
    {
      "hash": "0x9e805c960178c0dbe63494e58815d0f4ec1c30daadf5d7b8cd0a4bbc40f56f30",
      "transactionType": "CALL",
      "contractName": "SLERC20",
      "contractAddress": "0x1e8b6a99b4824793639d2873366c56D445a5f08d",
      "function": "approve(address,uint256)",
      "arguments": [
        "0xC532a74256D3Db42D0Bf7a0400fEFDbad7694008",
        "2667000000000000000000"
      ],
      "transaction": {
        "type": "0x02",
        "from": "0xb54271d82813d21f8508ffffc005ededf72e1bf9",
        "to": "0x1e8b6a99b4824793639d2873366c56d445a5f08d",
        "gas": "0x74b7",
        "value": "0x0",
        "data": "0x095ea7b3000000000000000000000000c532a74256d3db42d0bf7a0400fefdbad7694008000000000000000000000000000000000000000000000090940f61a0decc0000",
        "nonce": "0x68",
        "accessList": []
      },
      "additionalContracts": [],
      "isFixedGasLimit": false
    },
    {
      "hash": "0x4b11ee1d1df111b4bb06a39fa1caf2fd63feb716eee16005772bdcd8166994a1",
      "transactionType": "CALL",
      "contractName": "SLERC20",
      "contractAddress": "0x7a68E92dF1aEF1F65c726810746Ed2a978434BbC",
      "function": "approve(address,uint256)",
      "arguments": [
        "0xC532a74256D3Db42D0Bf7a0400fEFDbad7694008",
        "2280000000000000000000"
      ],
      "transaction": {
        "type": "0x02",
        "from": "0xb54271d82813d21f8508ffffc005ededf72e1bf9",
        "to": "0x7a68e92df1aef1f65c726810746ed2a978434bbc",
        "gas": "0x74b7",
        "value": "0x0",
        "data": "0x095ea7b3000000000000000000000000c532a74256d3db42d0bf7a0400fefdbad769400800000000000000000000000000000000000000000000007b995b300ad2a00000",
        "nonce": "0x69",
        "accessList": []
      },
      "additionalContracts": [],
      "isFixedGasLimit": false
    },
    {
      "hash": "0x7e5be1035444a738addf97e2313c588cbcc56e6e3316694c1ad9ea64f0b3c7ca",
      "transactionType": "CALL",
      "contractName": "SLERC20",
      "contractAddress": "0x62Bd6F648Efbbe964Ce38592640C71a29d586eE9",
      "function": "approve(address,uint256)",
      "arguments": [
        "0xC532a74256D3Db42D0Bf7a0400fEFDbad7694008",
        "2500000000000000000000"
      ],
      "transaction": {
        "type": "0x02",
        "from": "0xb54271d82813d21f8508ffffc005ededf72e1bf9",
        "to": "0x62bd6f648efbbe964ce38592640c71a29d586ee9",
        "gas": "0x74b7",
        "value": "0x0",
        "data": "0x095ea7b3000000000000000000000000c532a74256d3db42d0bf7a0400fefdbad76940080000000000000000000000000000000000000000000000878678326eac900000",
        "nonce": "0x6a",
        "accessList": []
      },
      "additionalContracts": [],
      "isFixedGasLimit": false
    },
    {
      "hash": "0xb9c19df6f686e4c1a95e5e6f8e621637c8b37adf00280a38cc938135e4d2b793",
      "transactionType": "CALL",
      "contractName": "SLERC20",
      "contractAddress": "0x67a6e25c585E57F8Ef1a573f734a124cE60cb583",
      "function": "approve(address,uint256)",
      "arguments": [
        "0xC532a74256D3Db42D0Bf7a0400fEFDbad7694008",
        "3080000000000000000000"
      ],
      "transaction": {
        "type": "0x02",
        "from": "0xb54271d82813d21f8508ffffc005ededf72e1bf9",
        "to": "0x67a6e25c585e57f8ef1a573f734a124ce60cb583",
        "gas": "0x74b7",
        "value": "0x0",
        "data": "0x095ea7b3000000000000000000000000c532a74256d3db42d0bf7a0400fefdbad76940080000000000000000000000000000000000000000000000a6f7962175eb200000",
        "nonce": "0x6b",
        "accessList": []
      },
      "additionalContracts": [],
      "isFixedGasLimit": false
    },
    {
      "hash": "0xba2a3f42169fccd55c9014117e130d50c92ec4402bfa9efe81be4b9864433c31",
      "transactionType": "CALL",
      "contractName": "SLERC20",
      "contractAddress": "0xb6087b053C85389A143E69B3f7420bed8059A5fd",
      "function": "approve(address,uint256)",
      "arguments": [
        "0xC532a74256D3Db42D0Bf7a0400fEFDbad7694008",
        "2500000000000000000000"
      ],
      "transaction": {
        "type": "0x02",
        "from": "0xb54271d82813d21f8508ffffc005ededf72e1bf9",
        "to": "0xb6087b053c85389a143e69b3f7420bed8059a5fd",
        "gas": "0x74b7",
        "value": "0x0",
        "data": "0x095ea7b3000000000000000000000000c532a74256d3db42d0bf7a0400fefdbad76940080000000000000000000000000000000000000000000000878678326eac900000",
        "nonce": "0x6c",
        "accessList": []
      },
      "additionalContracts": [],
      "isFixedGasLimit": false
    }
  ],
  "receipts": [
    {
      "transactionHash": "0x5a4c943b8cd54b0092a89cb917b6325bec3321bd6a725f4ddbdd00654aa5c851",
      "transactionIndex": "0x0",
      "blockHash": "0xb02e1732fea5c77f119e522a1fa53fdbb0bb120960a1942687c886b55e2951c2",
      "blockNumber": "0x56a975",
      "from": "0xB54271D82813D21F8508FFffc005EdeDf72E1Bf9",
      "to": "0xC7f2Cf4845C6db0e1a1e91ED41Bcd0FcC1b0E141",
      "cumulativeGasUsed": "0x57f8",
      "gasUsed": "0x57f8",
      "contractAddress": null,
      "logs": [],
      "status": "0x1",
      "logsBloom": "0x00000000000000000000000000000000000000000000000000000000000000000000000000000000000000000000000000000000000000000000000000000000000000000000000000000000000000000000000000000000000000000000000000000000000000000000000000000000000000000000000000000000000000000000000000000000000000000000000000000000000000000000000000000000000000000000000000000000000000000000000000000000000000000000000000000000000000000000000000000000000000000000000000000000000000000000000000000000000000000000000000000000000000000000000000000000",
      "type": "0x2",
      "effectiveGasPrice": "0xb352fd6a"
    },
    {
      "transactionHash": "0x9d3dac3571ad74e70d8bbaac4511474517c2093f7c854e7fe3cb0795707c5974",
      "transactionIndex": "0x0",
      "blockHash": "0x3ea4c5d0b26a5c5a650a74cee50c4d4472dd5cd3b3d217b99c9eabe2cca5834e",
      "blockNumber": "0x56a976",
      "from": "0xB54271D82813D21F8508FFffc005EdeDf72E1Bf9",
      "to": "0xC7f2Cf4845C6db0e1a1e91ED41Bcd0FcC1b0E141",
      "cumulativeGasUsed": "0x5834",
      "gasUsed": "0x5834",
      "contractAddress": null,
      "logs": [],
      "status": "0x1",
      "logsBloom": "0x00000000000000000000000000000000000000000000000000000000000000000000000000000000000000000000000000000000000000000000000000000000000000000000000000000000000000000000000000000000000000000000000000000000000000000000000000000000000000000000000000000000000000000000000000000000000000000000000000000000000000000000000000000000000000000000000000000000000000000000000000000000000000000000000000000000000000000000000000000000000000000000000000000000000000000000000000000000000000000000000000000000000000000000000000000000",
      "type": "0x2",
      "effectiveGasPrice": "0xb342afc4"
    },
    {
      "transactionHash": "0x63599a01428a100c57dcee3d9614c3a7fd09a6b6f45a1545a5c15b701ef6a77b",
      "transactionIndex": "0x1",
      "blockHash": "0x3ea4c5d0b26a5c5a650a74cee50c4d4472dd5cd3b3d217b99c9eabe2cca5834e",
      "blockNumber": "0x56a976",
      "from": "0xB54271D82813D21F8508FFffc005EdeDf72E1Bf9",
      "to": "0xC7f2Cf4845C6db0e1a1e91ED41Bcd0FcC1b0E141",
      "cumulativeGasUsed": "0xb050",
      "gasUsed": "0xb050",
      "contractAddress": null,
      "logs": [],
      "status": "0x1",
      "logsBloom": "0x00000000000000000000000000000000000000000000000000000000000000000000000000000000000000000000000000000000000000000000000000000000000000000000000000000000000000000000000000000000000000000000000000000000000000000000000000000000000000000000000000000000000000000000000000000000000000000000000000000000000000000000000000000000000000000000000000000000000000000000000000000000000000000000000000000000000000000000000000000000000000000000000000000000000000000000000000000000000000000000000000000000000000000000000000000000",
      "type": "0x2",
      "effectiveGasPrice": "0xb342afc4"
    },
    {
      "transactionHash": "0x6d9c110d1c6ca8bf1339098d240aa836b65abef5eed00ee4601d6b25cc7f5e05",
      "transactionIndex": "0x2",
      "blockHash": "0x3ea4c5d0b26a5c5a650a74cee50c4d4472dd5cd3b3d217b99c9eabe2cca5834e",
      "blockNumber": "0x56a976",
      "from": "0xB54271D82813D21F8508FFffc005EdeDf72E1Bf9",
      "to": "0xC7f2Cf4845C6db0e1a1e91ED41Bcd0FcC1b0E141",
      "cumulativeGasUsed": "0x10860",
      "gasUsed": "0x10860",
      "contractAddress": null,
      "logs": [],
      "status": "0x1",
      "logsBloom": "0x00000000000000000000000000000000000000000000000000000000000000000000000000000000000000000000000000000000000000000000000000000000000000000000000000000000000000000000000000000000000000000000000000000000000000000000000000000000000000000000000000000000000000000000000000000000000000000000000000000000000000000000000000000000000000000000000000000000000000000000000000000000000000000000000000000000000000000000000000000000000000000000000000000000000000000000000000000000000000000000000000000000000000000000000000000000",
      "type": "0x2",
      "effectiveGasPrice": "0xb342afc4"
    },
    {
      "transactionHash": "0xfb8cc813f7e863f1792af2a2e4e9c5dfa10cc4b58b9747eca1067332c7ed6621",
      "transactionIndex": "0x3",
      "blockHash": "0x3ea4c5d0b26a5c5a650a74cee50c4d4472dd5cd3b3d217b99c9eabe2cca5834e",
      "blockNumber": "0x56a976",
      "from": "0xB54271D82813D21F8508FFffc005EdeDf72E1Bf9",
      "to": "0xC7f2Cf4845C6db0e1a1e91ED41Bcd0FcC1b0E141",
      "cumulativeGasUsed": "0x160b8",
      "gasUsed": "0x160b8",
      "contractAddress": null,
      "logs": [],
      "status": "0x1",
      "logsBloom": "0x00000000000000000000000000000000000000000000000000000000000000000000000000000000000000000000000000000000000000000000000000000000000000000000000000000000000000000000000000000000000000000000000000000000000000000000000000000000000000000000000000000000000000000000000000000000000000000000000000000000000000000000000000000000000000000000000000000000000000000000000000000000000000000000000000000000000000000000000000000000000000000000000000000000000000000000000000000000000000000000000000000000000000000000000000000000",
      "type": "0x2",
      "effectiveGasPrice": "0xb342afc4"
    },
    {
      "transactionHash": "0x10e94d815a5d5c44975574661965a14dfa392f420e863eb703db6f34855ba5cc",
      "transactionIndex": "0x4",
      "blockHash": "0x3ea4c5d0b26a5c5a650a74cee50c4d4472dd5cd3b3d217b99c9eabe2cca5834e",
      "blockNumber": "0x56a976",
      "from": "0xB54271D82813D21F8508FFffc005EdeDf72E1Bf9",
      "to": "0xC7f2Cf4845C6db0e1a1e91ED41Bcd0FcC1b0E141",
      "cumulativeGasUsed": "0x1b8ec",
      "gasUsed": "0x1b8ec",
      "contractAddress": null,
      "logs": [],
      "status": "0x1",
      "logsBloom": "0x00000000000000000000000000000000000000000000000000000000000000000000000000000000000000000000000000000000000000000000000000000000000000000000000000000000000000000000000000000000000000000000000000000000000000000000000000000000000000000000000000000000000000000000000000000000000000000000000000000000000000000000000000000000000000000000000000000000000000000000000000000000000000000000000000000000000000000000000000000000000000000000000000000000000000000000000000000000000000000000000000000000000000000000000000000000",
      "type": "0x2",
      "effectiveGasPrice": "0xb342afc4"
    },
    {
      "transactionHash": "0x6f64d333290c34ee5a1abb7ff27322135de399712bfe9354718db29874833a42",
      "transactionIndex": "0x5",
      "blockHash": "0x3ea4c5d0b26a5c5a650a74cee50c4d4472dd5cd3b3d217b99c9eabe2cca5834e",
      "blockNumber": "0x56a976",
      "from": "0xB54271D82813D21F8508FFffc005EdeDf72E1Bf9",
      "to": "0xC7f2Cf4845C6db0e1a1e91ED41Bcd0FcC1b0E141",
      "cumulativeGasUsed": "0x210fc",
      "gasUsed": "0x210fc",
      "contractAddress": null,
      "logs": [],
      "status": "0x1",
      "logsBloom": "0x00000000000000000000000000000000000000000000000000000000000000000000000000000000000000000000000000000000000000000000000000000000000000000000000000000000000000000000000000000000000000000000000000000000000000000000000000000000000000000000000000000000000000000000000000000000000000000000000000000000000000000000000000000000000000000000000000000000000000000000000000000000000000000000000000000000000000000000000000000000000000000000000000000000000000000000000000000000000000000000000000000000000000000000000000000000",
      "type": "0x2",
      "effectiveGasPrice": "0xb342afc4"
    },
    {
      "transactionHash": "0xa4f84d53bd7f9b992cdec5f4d21931c64652566bdeca9fb5c6d81c457de25d01",
      "transactionIndex": "0x6",
      "blockHash": "0x3ea4c5d0b26a5c5a650a74cee50c4d4472dd5cd3b3d217b99c9eabe2cca5834e",
      "blockNumber": "0x56a976",
      "from": "0xB54271D82813D21F8508FFffc005EdeDf72E1Bf9",
      "to": "0xC7f2Cf4845C6db0e1a1e91ED41Bcd0FcC1b0E141",
      "cumulativeGasUsed": "0x26918",
      "gasUsed": "0x26918",
      "contractAddress": null,
      "logs": [],
      "status": "0x1",
      "logsBloom": "0x00000000000000000000000000000000000000000000000000000000000000000000000000000000000000000000000000000000000000000000000000000000000000000000000000000000000000000000000000000000000000000000000000000000000000000000000000000000000000000000000000000000000000000000000000000000000000000000000000000000000000000000000000000000000000000000000000000000000000000000000000000000000000000000000000000000000000000000000000000000000000000000000000000000000000000000000000000000000000000000000000000000000000000000000000000000",
      "type": "0x2",
      "effectiveGasPrice": "0xb342afc4"
    },
    {
      "transactionHash": "0x1f4be9a27e0b96f656b92d4a2b17d5f8ddd99a8472c7703ac28d59c687440275",
      "transactionIndex": "0x0",
      "blockHash": "0x9246d6b3e6429f96fee2e9b1f66fe0332b2ac3628be26cfaaacddb13b139d82a",
      "blockNumber": "0x56a977",
      "from": "0xB54271D82813D21F8508FFffc005EdeDf72E1Bf9",
      "to": "0xC7f2Cf4845C6db0e1a1e91ED41Bcd0FcC1b0E141",
      "cumulativeGasUsed": "0x5834",
      "gasUsed": "0x5834",
      "contractAddress": null,
      "logs": [],
      "status": "0x1",
      "logsBloom": "0x00000000000000000000000000000000000000000000000000000000000000000000000000000000000000000000000000000000000000000000000000000000000000000000000000000000000000000000000000000000000000000000000000000000000000000000000000000000000000000000000000000000000000000000000000000000000000000000000000000000000000000000000000000000000000000000000000000000000000000000000000000000000000000000000000000000000000000000000000000000000000000000000000000000000000000000000000000000000000000000000000000000000000000000000000000000",
      "type": "0x2",
      "effectiveGasPrice": "0xb3348c13"
    },
    {
      "transactionHash": "0xd133c5f997afe80a6f187ae3be1173d5f51968933614566c1e43393d78085e5b",
      "transactionIndex": "0x0",
      "blockHash": "0x6bc08afa054c687f4d4759517180dd151319894206346856cc401da2aec6b1f0",
      "blockNumber": "0x56a978",
      "from": "0xB54271D82813D21F8508FFffc005EdeDf72E1Bf9",
      "to": "0xC7f2Cf4845C6db0e1a1e91ED41Bcd0FcC1b0E141",
      "cumulativeGasUsed": "0x57f8",
      "gasUsed": "0x57f8",
      "contractAddress": null,
      "logs": [],
      "status": "0x1",
      "logsBloom": "0x00000000000000000000000000000000000000000000000000000000000000000000000000000000000000000000000000000000000000000000000000000000000000000000000000000000000000000000000000000000000000000000000000000000000000000000000000000000000000000000000000000000000000000000000000000000000000000000000000000000000000000000000000000000000000000000000000000000000000000000000000000000000000000000000000000000000000000000000000000000000000000000000000000000000000000000000000000000000000000000000000000000000000000000000000000000",
      "type": "0x2",
      "effectiveGasPrice": "0xb3280b25"
    },
    {
      "transactionHash": "0x2d3934a37ff9d1747ecba335b79e9ee1126b808fd0ddb75a523441a908748692",
      "transactionIndex": "0x0",
      "blockHash": "0xd40c5c3564fa8bdc969d748f0c97c919fb30faf3496ccf49e376559dc5dfb721",
      "blockNumber": "0x56a979",
      "from": "0xB54271D82813D21F8508FFffc005EdeDf72E1Bf9",
      "to": "0xC7f2Cf4845C6db0e1a1e91ED41Bcd0FcC1b0E141",
      "cumulativeGasUsed": "0x53b8",
      "gasUsed": "0x53b8",
      "contractAddress": null,
      "logs": [],
      "status": "0x1",
      "logsBloom": "0x00000000000000000000000000000000000000000000000000000000000000000000000000000000000000000000000000000000000000000000000000000000000000000000000000000000000000000000000000000000000000000000000000000000000000000000000000000000000000000000000000000000000000000000000000000000000000000000000000000000000000000000000000000000000000000000000000000000000000000000000000000000000000000000000000000000000000000000000000000000000000000000000000000000000000000000000000000000000000000000000000000000000000000000000000000000",
      "type": "0x2",
      "effectiveGasPrice": "0xb31d19b7"
    },
    {
      "transactionHash": "0x5fc462d9fee2bbb463fbf1de628bb4a5d13e8831e98caff806f24e84395d76b7",
      "transactionIndex": "0x0",
      "blockHash": "0x13a6240e13e82b2ec1f64fb87b92fa7e44b569bff23340d2d680d69c56473589",
      "blockNumber": "0x56a97a",
      "from": "0xB54271D82813D21F8508FFffc005EdeDf72E1Bf9",
      "to": "0xC7f2Cf4845C6db0e1a1e91ED41Bcd0FcC1b0E141",
      "cumulativeGasUsed": "0x53b8",
      "gasUsed": "0x53b8",
      "contractAddress": null,
      "logs": [],
      "status": "0x1",
      "logsBloom": "0x00000000000000000000000000000000000000000000000000000000000000000000000000000000000000000000000000000000000000000000000000000000000000000000000000000000000000000000000000000000000000000000000000000000000000000000000000000000000000000000000000000000000000000000000000000000000000000000000000000000000000000000000000000000000000000000000000000000000000000000000000000000000000000000000000000000000000000000000000000000000000000000000000000000000000000000000000000000000000000000000000000000000000000000000000000000",
      "type": "0x2",
      "effectiveGasPrice": "0xb31385c3"
    },
    {
      "transactionHash": "0x061160f668ae09e9ab53e536f86fef264424191baf3fe1efeabc7c28c6db5fc8",
      "transactionIndex": "0x0",
      "blockHash": "0xb711d3eed7182b169bc7d4b19b4bf9e48a004b42a74fc8f5e8011fd362e8b7f8",
      "blockNumber": "0x56a97b",
      "from": "0xB54271D82813D21F8508FFffc005EdeDf72E1Bf9",
      "to": "0xC7f2Cf4845C6db0e1a1e91ED41Bcd0FcC1b0E141",
      "cumulativeGasUsed": "0x53b8",
      "gasUsed": "0x53b8",
      "contractAddress": null,
      "logs": [],
      "status": "0x1",
      "logsBloom": "0x00000000000000000000000000000000000000000000000000000000000000000000000000000000000000000000000000000000000000000000000000000000000000000000000000000000000000000000000000000000000000000000000000000000000000000000000000000000000000000000000000000000000000000000000000000000000000000000000000000000000000000000000000000000000000000000000000000000000000000000000000000000000000000000000000000000000000000000000000000000000000000000000000000000000000000000000000000000000000000000000000000000000000000000000000000000",
      "type": "0x2",
      "effectiveGasPrice": "0xb30b23dd"
    },
    {
      "transactionHash": "0xf578d2a02c81053db4c605ea069d4c90afe5c54a88ba88e06ec70f9a2a9a441b",
      "transactionIndex": "0x1",
      "blockHash": "0xb711d3eed7182b169bc7d4b19b4bf9e48a004b42a74fc8f5e8011fd362e8b7f8",
      "blockNumber": "0x56a97b",
      "from": "0xB54271D82813D21F8508FFffc005EdeDf72E1Bf9",
      "to": "0xC7f2Cf4845C6db0e1a1e91ED41Bcd0FcC1b0E141",
      "cumulativeGasUsed": "0xa770",
      "gasUsed": "0xa770",
      "contractAddress": null,
      "logs": [],
      "status": "0x1",
      "logsBloom": "0x00000000000000000000000000000000000000000000000000000000000000000000000000000000000000000000000000000000000000000000000000000000000000000000000000000000000000000000000000000000000000000000000000000000000000000000000000000000000000000000000000000000000000000000000000000000000000000000000000000000000000000000000000000000000000000000000000000000000000000000000000000000000000000000000000000000000000000000000000000000000000000000000000000000000000000000000000000000000000000000000000000000000000000000000000000000",
      "type": "0x2",
      "effectiveGasPrice": "0xb30b23dd"
    },
    {
      "transactionHash": "0xef27c08a1b6e11114c7f62095e9e572fb1edfe2908f025269f350ba2b834aec0",
      "transactionIndex": "0x2",
      "blockHash": "0xb711d3eed7182b169bc7d4b19b4bf9e48a004b42a74fc8f5e8011fd362e8b7f8",
      "blockNumber": "0x56a97b",
      "from": "0xB54271D82813D21F8508FFffc005EdeDf72E1Bf9",
      "to": "0xC7f2Cf4845C6db0e1a1e91ED41Bcd0FcC1b0E141",
      "cumulativeGasUsed": "0xfb28",
      "gasUsed": "0xfb28",
      "contractAddress": null,
      "logs": [],
      "status": "0x1",
      "logsBloom": "0x00000000000000000000000000000000000000000000000000000000000000000000000000000000000000000000000000000000000000000000000000000000000000000000000000000000000000000000000000000000000000000000000000000000000000000000000000000000000000000000000000000000000000000000000000000000000000000000000000000000000000000000000000000000000000000000000000000000000000000000000000000000000000000000000000000000000000000000000000000000000000000000000000000000000000000000000000000000000000000000000000000000000000000000000000000000",
      "type": "0x2",
      "effectiveGasPrice": "0xb30b23dd"
    },
    {
      "transactionHash": "0xb3acf2cffffef0eb90467f55f573620124000ccc6e146cfa16195ca9ef103377",
      "transactionIndex": "0x3",
      "blockHash": "0xb711d3eed7182b169bc7d4b19b4bf9e48a004b42a74fc8f5e8011fd362e8b7f8",
      "blockNumber": "0x56a97b",
      "from": "0xB54271D82813D21F8508FFffc005EdeDf72E1Bf9",
      "to": "0xC7f2Cf4845C6db0e1a1e91ED41Bcd0FcC1b0E141",
      "cumulativeGasUsed": "0x14ee0",
      "gasUsed": "0x14ee0",
      "contractAddress": null,
      "logs": [],
      "status": "0x1",
      "logsBloom": "0x00000000000000000000000000000000000000000000000000000000000000000000000000000000000000000000000000000000000000000000000000000000000000000000000000000000000000000000000000000000000000000000000000000000000000000000000000000000000000000000000000000000000000000000000000000000000000000000000000000000000000000000000000000000000000000000000000000000000000000000000000000000000000000000000000000000000000000000000000000000000000000000000000000000000000000000000000000000000000000000000000000000000000000000000000000000",
      "type": "0x2",
      "effectiveGasPrice": "0xb30b23dd"
    },
    {
      "transactionHash": "0x64e2052e39bf5f8ede3548976dec5e21ba01d586da87d9923b98b8f53363efd8",
      "transactionIndex": "0x4",
      "blockHash": "0xb711d3eed7182b169bc7d4b19b4bf9e48a004b42a74fc8f5e8011fd362e8b7f8",
      "blockNumber": "0x56a97b",
      "from": "0xB54271D82813D21F8508FFffc005EdeDf72E1Bf9",
      "to": "0xC7f2Cf4845C6db0e1a1e91ED41Bcd0FcC1b0E141",
      "cumulativeGasUsed": "0x1a298",
      "gasUsed": "0x1a298",
      "contractAddress": null,
      "logs": [],
      "status": "0x1",
      "logsBloom": "0x00000000000000000000000000000000000000000000000000000000000000000000000000000000000000000000000000000000000000000000000000000000000000000000000000000000000000000000000000000000000000000000000000000000000000000000000000000000000000000000000000000000000000000000000000000000000000000000000000000000000000000000000000000000000000000000000000000000000000000000000000000000000000000000000000000000000000000000000000000000000000000000000000000000000000000000000000000000000000000000000000000000000000000000000000000000",
      "type": "0x2",
      "effectiveGasPrice": "0xb30b23dd"
    },
    {
      "transactionHash": "0x03365b0a49b2ba0aa67a5c6be63cb1853c1adacc1f1f1d1e703f4f35d00baada",
      "transactionIndex": "0x5",
      "blockHash": "0xb711d3eed7182b169bc7d4b19b4bf9e48a004b42a74fc8f5e8011fd362e8b7f8",
      "blockNumber": "0x56a97b",
      "from": "0xB54271D82813D21F8508FFffc005EdeDf72E1Bf9",
      "to": "0xC7f2Cf4845C6db0e1a1e91ED41Bcd0FcC1b0E141",
      "cumulativeGasUsed": "0x1f650",
      "gasUsed": "0x1f650",
      "contractAddress": null,
      "logs": [],
      "status": "0x1",
      "logsBloom": "0x00000000000000000000000000000000000000000000000000000000000000000000000000000000000000000000000000000000000000000000000000000000000000000000000000000000000000000000000000000000000000000000000000000000000000000000000000000000000000000000000000000000000000000000000000000000000000000000000000000000000000000000000000000000000000000000000000000000000000000000000000000000000000000000000000000000000000000000000000000000000000000000000000000000000000000000000000000000000000000000000000000000000000000000000000000000",
      "type": "0x2",
      "effectiveGasPrice": "0xb30b23dd"
    },
    {
      "transactionHash": "0xba5db84a8b4e4dd29deb6704d41f6313036fba97c4ae49cc164af0355c4e91e0",
      "transactionIndex": "0x0",
      "blockHash": "0x467212488f2c5fcd8951acd984d02204c7da3277f533fccb448e16f4e2613a12",
      "blockNumber": "0x56a97c",
      "from": "0xB54271D82813D21F8508FFffc005EdeDf72E1Bf9",
      "to": "0xC7f2Cf4845C6db0e1a1e91ED41Bcd0FcC1b0E141",
      "cumulativeGasUsed": "0x53b8",
      "gasUsed": "0x53b8",
      "contractAddress": null,
      "logs": [],
      "status": "0x1",
      "logsBloom": "0x00000000000000000000000000000000000000000000000000000000000000000000000000000000000000000000000000000000000000000000000000000000000000000000000000000000000000000000000000000000000000000000000000000000000000000000000000000000000000000000000000000000000000000000000000000000000000000000000000000000000000000000000000000000000000000000000000000000000000000000000000000000000000000000000000000000000000000000000000000000000000000000000000000000000000000000000000000000000000000000000000000000000000000000000000000000",
      "type": "0x2",
      "effectiveGasPrice": "0xb303db41"
    },
    {
      "transactionHash": "0xb2d4b711075c4c48e23262f0a8e6eaf2dd7647cd116ac90b738aff89a393ab0a",
      "transactionIndex": "0x0",
      "blockHash": "0x0707df93aaddef5e1bd50239aef487d93c20a76758ddf6a4675bb3292cbca652",
      "blockNumber": "0x56a97d",
      "from": "0xB54271D82813D21F8508FFffc005EdeDf72E1Bf9",
      "to": "0xC7f2Cf4845C6db0e1a1e91ED41Bcd0FcC1b0E141",
      "cumulativeGasUsed": "0x53b8",
      "gasUsed": "0x53b8",
      "contractAddress": null,
      "logs": [],
      "status": "0x1",
      "logsBloom": "0x00000000000000000000000000000000000000000000000000000000000000000000000000000000000000000000000000000000000000000000000000000000000000000000000000000000000000000000000000000000000000000000000000000000000000000000000000000000000000000000000000000000000000000000000000000000000000000000000000000000000000000000000000000000000000000000000000000000000000000000000000000000000000000000000000000000000000000000000000000000000000000000000000000000000000000000000000000000000000000000000000000000000000000000000000000000",
      "type": "0x2",
      "effectiveGasPrice": "0xb2fd6df4"
    },
    {
      "transactionHash": "0xa123872a53225219cd16deb8f992e85e3ccf348667fcd5e9cc1b3767e88c3d77",
      "transactionIndex": "0x1",
      "blockHash": "0x0707df93aaddef5e1bd50239aef487d93c20a76758ddf6a4675bb3292cbca652",
      "blockNumber": "0x56a97d",
      "from": "0xB54271D82813D21F8508FFffc005EdeDf72E1Bf9",
      "to": "0x7AaCc5300ec7Ac58fe86645D08f21b1BEcadf99a",
      "cumulativeGasUsed": "0xa844",
      "gasUsed": "0xa844",
      "contractAddress": null,
      "logs": [],
      "status": "0x1",
      "logsBloom": "0x00000000000000000000000000000000000000000000000000000000000000000000000000000000000000000000000000000000000000000000000000000000000000000000000000000000000000000000000000000000000000000000000000000000000000000000000000000000000000000000000000000000000000000000000000000000000000000000000000000000000000000000000000000000000000000000000000000000000000000000000000000000000000000000000000000000000000000000000000000000000000000000000000000000000000000000000000000000000000000000000000000000000000000000000000000000",
      "type": "0x2",
      "effectiveGasPrice": "0xb2fd6df4"
    },
    {
      "transactionHash": "0xc2e922cc3cac77eac6e9a72f5ab9c12369d357e473cdb0f5b1b61cb7f957085f",
      "transactionIndex": "0x0",
      "blockHash": "0x5056e1b5aa4a5ca95fd929c27e646ce6d4f2bd58c1b80eb3cc60db10d6009640",
      "blockNumber": "0x56a97e",
      "from": "0xB54271D82813D21F8508FFffc005EdeDf72E1Bf9",
      "to": "0x67cDE3E2d3e6e9d5413bD1Ecb01DC71BA3cF86E7",
      "cumulativeGasUsed": "0x5480",
      "gasUsed": "0x5480",
      "contractAddress": null,
      "logs": [],
      "status": "0x1",
      "logsBloom": "0x00000000000000000000000000000000000000000000000000000000000000000000000000000000000000000000000000000000000000000000000000000000000000000000000000000000000000000000000000000000000000000000000000000000000000000000000000000000000000000000000000000000000000000000000000000000000000000000000000000000000000000000000000000000000000000000000000000000000000000000000000000000000000000000000000000000000000000000000000000000000000000000000000000000000000000000000000000000000000000000000000000000000000000000000000000000",
      "type": "0x2",
      "effectiveGasPrice": "0xb2f7d01a"
    },
    {
      "transactionHash": "0xaadad441330aa74b6825564870db7cf7b493d2f8d273450a7742c093617081fe",
      "transactionIndex": "0x0",
      "blockHash": "0x4c81a887b4bed106aa34faffc7df95f8842f32c4d8e2d88af61183a82842aed5",
      "blockNumber": "0x56a97f",
      "from": "0xB54271D82813D21F8508FFffc005EdeDf72E1Bf9",
      "to": "0x9bF642ef0bc3f1544b1776251AeAc4fF216E3384",
      "cumulativeGasUsed": "0x5480",
      "gasUsed": "0x5480",
      "contractAddress": null,
      "logs": [],
      "status": "0x1",
      "logsBloom": "0x00000000000000000000000000000000000000000000000000000000000000000000000000000000000000000000000000000000000000000000000000000000000000000000000000000000000000000000000000000000000000000000000000000000000000000000000000000000000000000000000000000000000000000000000000000000000000000000000000000000000000000000000000000000000000000000000000000000000000000000000000000000000000000000000000000000000000000000000000000000000000000000000000000000000000000000000000000000000000000000000000000000000000000000000000000000",
      "type": "0x2",
      "effectiveGasPrice": "0xb2f2e3a9"
    },
    {
      "transactionHash": "0x28c71a36eaa41dc949cce64a696436ddc0fc0e57299a91b31104d7ea1da9814d",
      "transactionIndex": "0x1",
      "blockHash": "0x4c81a887b4bed106aa34faffc7df95f8842f32c4d8e2d88af61183a82842aed5",
      "blockNumber": "0x56a97f",
      "from": "0xB54271D82813D21F8508FFffc005EdeDf72E1Bf9",
      "to": "0xEedBb16327A403a5229b6F95217dE9f338d74846",
      "cumulativeGasUsed": "0xa900",
      "gasUsed": "0xa900",
      "contractAddress": null,
      "logs": [],
      "status": "0x1",
      "logsBloom": "0x00000000000000000000000000000000000000000000000000000000000000000000000000000000000000000000000000000000000000000000000000000000000000000000000000000000000000000000000000000000000000000000000000000000000000000000000000000000000000000000000000000000000000000000000000000000000000000000000000000000000000000000000000000000000000000000000000000000000000000000000000000000000000000000000000000000000000000000000000000000000000000000000000000000000000000000000000000000000000000000000000000000000000000000000000000000",
      "type": "0x2",
      "effectiveGasPrice": "0xb2f2e3a9"
    },
    {
      "transactionHash": "0x9b0046f46ae3f1e3d5f5547e7b0376c2d4f3ba067b1c7f9ec85e6e884aabc2af",
      "transactionIndex": "0x2",
      "blockHash": "0x4c81a887b4bed106aa34faffc7df95f8842f32c4d8e2d88af61183a82842aed5",
      "blockNumber": "0x56a97f",
      "from": "0xB54271D82813D21F8508FFffc005EdeDf72E1Bf9",
      "to": "0x2B4707A92412D58a82d89EeAD6A5C7e35ce61450",
      "cumulativeGasUsed": "0xfd80",
      "gasUsed": "0xfd80",
      "contractAddress": null,
      "logs": [],
      "status": "0x1",
      "logsBloom": "0x00000000000000000000000000000000000000000000000000000000000000000000000000000000000000000000000000000000000000000000000000000000000000000000000000000000000000000000000000000000000000000000000000000000000000000000000000000000000000000000000000000000000000000000000000000000000000000000000000000000000000000000000000000000000000000000000000000000000000000000000000000000000000000000000000000000000000000000000000000000000000000000000000000000000000000000000000000000000000000000000000000000000000000000000000000000",
      "type": "0x2",
      "effectiveGasPrice": "0xb2f2e3a9"
    },
    {
      "transactionHash": "0x9e805c960178c0dbe63494e58815d0f4ec1c30daadf5d7b8cd0a4bbc40f56f30",
      "transactionIndex": "0x0",
      "blockHash": "0x556cbc7571124d79979e0f25eb7d5bbeb74a801f41ec29a27231732b8b379e4f",
      "blockNumber": "0x56a980",
      "from": "0xB54271D82813D21F8508FFffc005EdeDf72E1Bf9",
      "to": "0x1e8b6a99b4824793639d2873366c56D445a5f08d",
      "cumulativeGasUsed": "0x5480",
      "gasUsed": "0x5480",
      "contractAddress": null,
      "logs": [],
      "status": "0x1",
      "logsBloom": "0x00000000000000000000000000000000000000000000000000000000000000000000000000000000000000000000000000000000000000000000000000000000000000000000000000000000000000000000000000000000000000000000000000000000000000000000000000000000000000000000000000000000000000000000000000000000000000000000000000000000000000000000000000000000000000000000000000000000000000000000000000000000000000000000000000000000000000000000000000000000000000000000000000000000000000000000000000000000000000000000000000000000000000000000000000000000",
      "type": "0x2",
      "effectiveGasPrice": "0xb2ee97bc"
    },
    {
      "transactionHash": "0x4b11ee1d1df111b4bb06a39fa1caf2fd63feb716eee16005772bdcd8166994a1",
      "transactionIndex": "0x1",
      "blockHash": "0x556cbc7571124d79979e0f25eb7d5bbeb74a801f41ec29a27231732b8b379e4f",
      "blockNumber": "0x56a980",
      "from": "0xB54271D82813D21F8508FFffc005EdeDf72E1Bf9",
      "to": "0x7a68E92dF1aEF1F65c726810746Ed2a978434BbC",
      "cumulativeGasUsed": "0xa900",
      "gasUsed": "0xa900",
      "contractAddress": null,
      "logs": [],
      "status": "0x1",
      "logsBloom": "0x00000000000000000000000000000000000000000000000000000000000000000000000000000000000000000000000000000000000000000000000000000000000000000000000000000000000000000000000000000000000000000000000000000000000000000000000000000000000000000000000000000000000000000000000000000000000000000000000000000000000000000000000000000000000000000000000000000000000000000000000000000000000000000000000000000000000000000000000000000000000000000000000000000000000000000000000000000000000000000000000000000000000000000000000000000000",
      "type": "0x2",
      "effectiveGasPrice": "0xb2ee97bc"
    },
    {
      "transactionHash": "0x7e5be1035444a738addf97e2313c588cbcc56e6e3316694c1ad9ea64f0b3c7ca",
      "transactionIndex": "0x2",
      "blockHash": "0x556cbc7571124d79979e0f25eb7d5bbeb74a801f41ec29a27231732b8b379e4f",
      "blockNumber": "0x56a980",
      "from": "0xB54271D82813D21F8508FFffc005EdeDf72E1Bf9",
      "to": "0x62Bd6F648Efbbe964Ce38592640C71a29d586eE9",
      "cumulativeGasUsed": "0xfd80",
      "gasUsed": "0xfd80",
      "contractAddress": null,
      "logs": [],
      "status": "0x1",
      "logsBloom": "0x00000000000000000000000000000000000000000000000000000000000000000000000000000000000000000000000000000000000000000000000000000000000000000000000000000000000000000000000000000000000000000000000000000000000000000000000000000000000000000000000000000000000000000000000000000000000000000000000000000000000000000000000000000000000000000000000000000000000000000000000000000000000000000000000000000000000000000000000000000000000000000000000000000000000000000000000000000000000000000000000000000000000000000000000000000000",
      "type": "0x2",
      "effectiveGasPrice": "0xb2ee97bc"
    },
    {
      "transactionHash": "0xb9c19df6f686e4c1a95e5e6f8e621637c8b37adf00280a38cc938135e4d2b793",
      "transactionIndex": "0x0",
      "blockHash": "0xb2b9ac0d80a38720a83fc5f7e7e902a29f24cd70c05fdb5a66025b4d7114f8ba",
      "blockNumber": "0x56a981",
      "from": "0xB54271D82813D21F8508FFffc005EdeDf72E1Bf9",
      "to": "0x67a6e25c585E57F8Ef1a573f734a124cE60cb583",
      "cumulativeGasUsed": "0x5480",
      "gasUsed": "0x5480",
      "contractAddress": null,
      "logs": [],
      "status": "0x1",
      "logsBloom": "0x00000000000000000000000000000000000000000000000000000000000000000000000000000000000000000000000000000000000000000000000000000000000000000000000000000000000000000000000000000000000000000000000000000000000000000000000000000000000000000000000000000000000000000000000000000000000000000000000000000000000000000000000000000000000000000000000000000000000000000000000000000000000000000000000000000000000000000000000000000000000000000000000000000000000000000000000000000000000000000000000000000000000000000000000000000000",
      "type": "0x2",
      "effectiveGasPrice": "0xb2ead4b4"
    },
    {
      "transactionHash": "0xba2a3f42169fccd55c9014117e130d50c92ec4402bfa9efe81be4b9864433c31",
      "transactionIndex": "0x1",
      "blockHash": "0xb2b9ac0d80a38720a83fc5f7e7e902a29f24cd70c05fdb5a66025b4d7114f8ba",
      "blockNumber": "0x56a981",
      "from": "0xB54271D82813D21F8508FFffc005EdeDf72E1Bf9",
      "to": "0xb6087b053C85389A143E69B3f7420bed8059A5fd",
      "cumulativeGasUsed": "0xa900",
      "gasUsed": "0xa900",
      "contractAddress": null,
      "logs": [],
      "status": "0x1",
      "logsBloom": "0x00000000000000000000000000000000000000000000000000000000000000000000000000000000000000000000000000000000000000000000000000000000000000000000000000000000000000000000000000000000000000000000000000000000000000000000000000000000000000000000000000000000000000000000000000000000000000000000000000000000000000000000000000000000000000000000000000000000000000000000000000000000000000000000000000000000000000000000000000000000000000000000000000000000000000000000000000000000000000000000000000000000000000000000000000000000",
      "type": "0x2",
      "effectiveGasPrice": "0xb2ead4b4"
    }
  ],
  "libraries": [],
  "pending": [],
  "returns": {},
  "timestamp": 1712895788,
  "chain": 11155111,
  "commit": "b4485ba"
}