{
  "transactions": [
    {
      "hash": "0x5605a6cfb4861efb44638cd183b1f583d3d5c14fb55bf940743fdb1abd509e09",
      "transactionType": "CALL",
      "contractName": "SLMinterOracle",
      "contractAddress": "0xC7f2Cf4845C6db0e1a1e91ED41Bcd0FcC1b0E141",
      "function": "createBrand(string,string,uint256,address)",
      "arguments": [
        "\"testing\"",
        "\"test\"",
        "54000",
        "0xAe443A7dbB2252Ee2AF1b4c9eEE755a1b2417ab4"
      ],
      "transaction": {
        "type": "0x02",
        "from": "0xae443a7dbb2252ee2af1b4c9eee755a1b2417ab4",
        "to": "0xc7f2cf4845c6db0e1a1e91ed41bcd0fcc1b0e141",
        "gas": "0x7992",
        "value": "0x0",
        "data": "0x920c46c3000000000000000000000000000000000000000000000000000000000000008000000000000000000000000000000000000000000000000000000000000000c0000000000000000000000000000000000000000000000000000000000000d2f0000000000000000000000000ae443a7dbb2252ee2af1b4c9eee755a1b2417ab4000000000000000000000000000000000000000000000000000000000000000774657374696e670000000000000000000000000000000000000000000000000000000000000000000000000000000000000000000000000000000000000000047465737400000000000000000000000000000000000000000000000000000000",
        "nonce": "0x1f",
        "accessList": []
      },
      "additionalContracts": [],
      "isFixedGasLimit": false
    }
  ],
  "receipts": [
    {
      "transactionHash": "0x5605a6cfb4861efb44638cd183b1f583d3d5c14fb55bf940743fdb1abd509e09",
      "transactionIndex": "0x0",
      "blockHash": "0x3cc3fe419b4db7f390fae1d5f7d4001570f58e3f262965ef73f1020e72718e46",
      "blockNumber": "0x56a9cd",
      "from": "0xAe443A7dbB2252Ee2AF1b4c9eEE755a1b2417ab4",
      "to": "0xC7f2Cf4845C6db0e1a1e91ED41Bcd0FcC1b0E141",
      "cumulativeGasUsed": "0x5804",
      "gasUsed": "0x5804",
      "contractAddress": null,
      "logs": [],
      "status": "0x1",
      "logsBloom": "0x00000000000000000000000000000000000000000000000000000000000000000000000000000000000000000000000000000000000000000000000000000000000000000000000000000000000000000000000000000000000000000000000000000000000000000000000000000000000000000000000000000000000000000000000000000000000000000000000000000000000000000000000000000000000000000000000000000000000000000000000000000000000000000000000000000000000000000000000000000000000000000000000000000000000000000000000000000000000000000000000000000000000000000000000000000000",
      "type": "0x2",
      "effectiveGasPrice": "0xb2d75f5c"
    }
  ],
  "libraries": [],
  "pending": [],
  "returns": {},
  "timestamp": 1712897065,
  "chain": 11155111,
  "commit": "b4485ba"
}