{
  "transactions": [
    {
      "hash": "0x57188399f1f538bb0b62eda6661c2ce1a03f33c880cea7ac8ed1d5b7ff5928b5",
      "transactionType": "CALL",
      "contractName": "SLMinterOracle",
      "contractAddress": "0xC7f2Cf4845C6db0e1a1e91ED41Bcd0FcC1b0E141",
      "function": "createBrand(string,string,uint256,address)",
      "arguments": [
        "\"Delta\"",
        "\"Miles\"",
        "54000",
        "0xB54271D82813D21F8508FFffc005EdeDf72E1Bf9"
      ],
      "transaction": {
        "type": "0x02",
        "from": "0xb54271d82813d21f8508ffffc005ededf72e1bf9",
        "to": "0xc7f2cf4845c6db0e1a1e91ed41bcd0fcc1b0e141",
        "gas": "0x7981",
        "value": "0x0",
        "data": "0x920c46c3000000000000000000000000000000000000000000000000000000000000008000000000000000000000000000000000000000000000000000000000000000c0000000000000000000000000000000000000000000000000000000000000d2f0000000000000000000000000b54271d82813d21f8508ffffc005ededf72e1bf9000000000000000000000000000000000000000000000000000000000000000544656c746100000000000000000000000000000000000000000000000000000000000000000000000000000000000000000000000000000000000000000000054d696c6573000000000000000000000000000000000000000000000000000000",
        "nonce": "0x31",
        "accessList": []
      },
      "additionalContracts": [],
      "isFixedGasLimit": false
    },
    {
      "hash": "0x9197679af50d38a8610dab21f57648da8ad0c8d5ef8b61cb1baa9ea05e86ab1f",
      "transactionType": "CALL",
      "contractName": "SLMinterOracle",
      "contractAddress": "0xC7f2Cf4845C6db0e1a1e91ED41Bcd0FcC1b0E141",
      "function": "createBrand(string,string,uint256,address)",
      "arguments": [
        "\"Starbucks\"",
        "\"Points\"",
        "2476",
        "0xB54271D82813D21F8508FFffc005EdeDf72E1Bf9"
      ],
      "transaction": {
        "type": "0x02",
        "from": "0xb54271d82813d21f8508ffffc005ededf72e1bf9",
        "to": "0xc7f2cf4845c6db0e1a1e91ed41bcd0fcc1b0e141",
        "gas": "0x79d4",
        "value": "0x0",
        "data": "0x920c46c3000000000000000000000000000000000000000000000000000000000000008000000000000000000000000000000000000000000000000000000000000000c000000000000000000000000000000000000000000000000000000000000009ac000000000000000000000000b54271d82813d21f8508ffffc005ededf72e1bf90000000000000000000000000000000000000000000000000000000000000009537461726275636b7300000000000000000000000000000000000000000000000000000000000000000000000000000000000000000000000000000000000006506f696e74730000000000000000000000000000000000000000000000000000",
        "nonce": "0x32",
        "accessList": []
      },
      "additionalContracts": [],
      "isFixedGasLimit": false
    },
    {
      "hash": "0x6f09cd0305ab37c61dd172db518cda0588a631468a934b3c6dba4ba3b966f7d4",
      "transactionType": "CALL",
      "contractName": "SLMinterOracle",
      "contractAddress": "0xC7f2Cf4845C6db0e1a1e91ED41Bcd0FcC1b0E141",
      "function": "createBrand(string,string,uint256,address)",
      "arguments": [
        "\"Walmart\"",
        "\"Points\"",
        "2300",
        "0xB54271D82813D21F8508FFffc005EdeDf72E1Bf9"
      ],
      "transaction": {
        "type": "0x02",
        "from": "0xb54271d82813d21f8508ffffc005ededf72e1bf9",
        "to": "0xc7f2cf4845c6db0e1a1e91ed41bcd0fcc1b0e141",
        "gas": "0x79b2",
        "value": "0x0",
        "data": "0x920c46c3000000000000000000000000000000000000000000000000000000000000008000000000000000000000000000000000000000000000000000000000000000c000000000000000000000000000000000000000000000000000000000000008fc000000000000000000000000b54271d82813d21f8508ffffc005ededf72e1bf9000000000000000000000000000000000000000000000000000000000000000757616c6d617274000000000000000000000000000000000000000000000000000000000000000000000000000000000000000000000000000000000000000006506f696e74730000000000000000000000000000000000000000000000000000",
        "nonce": "0x33",
        "accessList": []
      },
      "additionalContracts": [],
      "isFixedGasLimit": false
    },
    {
      "hash": "0xa65a7839d49802e7c677dbfbedfb0f8c33d223db04111fd1326f1bfc2295bd01",
      "transactionType": "CALL",
      "contractName": "SLMinterOracle",
      "contractAddress": "0xC7f2Cf4845C6db0e1a1e91ED41Bcd0FcC1b0E141",
      "function": "createBrand(string,string,uint256,address)",
      "arguments": [
        "\"Shell\"",
        "\"Gallons\"",
        "744",
        "0xB54271D82813D21F8508FFffc005EdeDf72E1Bf9"
      ],
      "transaction": {
        "type": "0x02",
        "from": "0xb54271d82813d21f8508ffffc005ededf72e1bf9",
        "to": "0xc7f2cf4845c6db0e1a1e91ed41bcd0fcc1b0e141",
        "gas": "0x79a2",
        "value": "0x0",
        "data": "0x920c46c3000000000000000000000000000000000000000000000000000000000000008000000000000000000000000000000000000000000000000000000000000000c000000000000000000000000000000000000000000000000000000000000002e8000000000000000000000000b54271d82813d21f8508ffffc005ededf72e1bf900000000000000000000000000000000000000000000000000000000000000055368656c6c000000000000000000000000000000000000000000000000000000000000000000000000000000000000000000000000000000000000000000000747616c6c6f6e7300000000000000000000000000000000000000000000000000",
        "nonce": "0x34",
        "accessList": []
      },
      "additionalContracts": [],
      "isFixedGasLimit": false
    },
    {
      "hash": "0x750ffb4f94067b4f0af895552b7c596bb97ef9b3c8506800889da6917c6ab6db",
      "transactionType": "CALL",
      "contractName": "SLMinterOracle",
      "contractAddress": "0xC7f2Cf4845C6db0e1a1e91ED41Bcd0FcC1b0E141",
      "function": "createBrand(string,string,uint256,address)",
      "arguments": [
        "\"Regal Cinema\"",
        "\"Points\"",
        "3078",
        "0xB54271D82813D21F8508FFffc005EdeDf72E1Bf9"
      ],
      "transaction": {
        "type": "0x02",
        "from": "0xb54271d82813d21f8508ffffc005ededf72e1bf9",
        "to": "0xc7f2cf4845c6db0e1a1e91ed41bcd0fcc1b0e141",
        "gas": "0x7a05",
        "value": "0x0",
        "data": "0x920c46c3000000000000000000000000000000000000000000000000000000000000008000000000000000000000000000000000000000000000000000000000000000c00000000000000000000000000000000000000000000000000000000000000c06000000000000000000000000b54271d82813d21f8508ffffc005ededf72e1bf9000000000000000000000000000000000000000000000000000000000000000c526567616c2043696e656d6100000000000000000000000000000000000000000000000000000000000000000000000000000000000000000000000000000006506f696e74730000000000000000000000000000000000000000000000000000",
        "nonce": "0x35",
        "accessList": []
      },
      "additionalContracts": [],
      "isFixedGasLimit": false
    },
    {
      "hash": "0x6842ba38b08f8be468a84ecde3025871e117dfe164ce6049726d279b07e649b7",
      "transactionType": "CALL",
      "contractName": "SLMinterOracle",
      "contractAddress": "0xC7f2Cf4845C6db0e1a1e91ED41Bcd0FcC1b0E141",
      "function": "createBrand(string,string,uint256,address)",
      "arguments": [
        "\"McDonalds\"",
        "\"Points\"",
        "2667",
        "0xB54271D82813D21F8508FFffc005EdeDf72E1Bf9"
      ],
      "transaction": {
        "type": "0x02",
        "from": "0xb54271d82813d21f8508ffffc005ededf72e1bf9",
        "to": "0xc7f2cf4845c6db0e1a1e91ed41bcd0fcc1b0e141",
        "gas": "0x79d4",
        "value": "0x0",
        "data": "0x920c46c3000000000000000000000000000000000000000000000000000000000000008000000000000000000000000000000000000000000000000000000000000000c00000000000000000000000000000000000000000000000000000000000000a6b000000000000000000000000b54271d82813d21f8508ffffc005ededf72e1bf900000000000000000000000000000000000000000000000000000000000000094d63446f6e616c647300000000000000000000000000000000000000000000000000000000000000000000000000000000000000000000000000000000000006506f696e74730000000000000000000000000000000000000000000000000000",
        "nonce": "0x36",
        "accessList": []
      },
      "additionalContracts": [],
      "isFixedGasLimit": false
    },
    {
      "hash": "0xaee96c8fb57e58bbef7a2ebc3ba5a46cc8a8ed381962d7e366a3132dc36a339c",
      "transactionType": "CALL",
      "contractName": "SLMinterOracle",
      "contractAddress": "0xC7f2Cf4845C6db0e1a1e91ED41Bcd0FcC1b0E141",
      "function": "createBrand(string,string,uint256,address)",
      "arguments": [
        "\"Amazon\"",
        "\"Points\"",
        "2280",
        "0xB54271D82813D21F8508FFffc005EdeDf72E1Bf9"
      ],
      "transaction": {
        "type": "0x02",
        "from": "0xb54271d82813d21f8508ffffc005ededf72e1bf9",
        "to": "0xc7f2cf4845c6db0e1a1e91ed41bcd0fcc1b0e141",
        "gas": "0x79a2",
        "value": "0x0",
        "data": "0x920c46c3000000000000000000000000000000000000000000000000000000000000008000000000000000000000000000000000000000000000000000000000000000c000000000000000000000000000000000000000000000000000000000000008e8000000000000000000000000b54271d82813d21f8508ffffc005ededf72e1bf90000000000000000000000000000000000000000000000000000000000000006416d617a6f6e00000000000000000000000000000000000000000000000000000000000000000000000000000000000000000000000000000000000000000006506f696e74730000000000000000000000000000000000000000000000000000",
        "nonce": "0x37",
        "accessList": []
      },
      "additionalContracts": [],
      "isFixedGasLimit": false
    },
    {
      "hash": "0x8546c9b7dd71b48f8f86158ec6d782af0c51fa2accfd16964c57f51312a7c900",
      "transactionType": "CALL",
      "contractName": "SLMinterOracle",
      "contractAddress": "0xC7f2Cf4845C6db0e1a1e91ED41Bcd0FcC1b0E141",
      "function": "createBrand(string,string,uint256,address)",
      "arguments": [
        "\"Sephora\"",
        "\"Points\"",
        "2500",
        "0xB54271D82813D21F8508FFffc005EdeDf72E1Bf9"
      ],
      "transaction": {
        "type": "0x02",
        "from": "0xb54271d82813d21f8508ffffc005ededf72e1bf9",
        "to": "0xc7f2cf4845c6db0e1a1e91ed41bcd0fcc1b0e141",
        "gas": "0x79b2",
        "value": "0x0",
        "data": "0x920c46c3000000000000000000000000000000000000000000000000000000000000008000000000000000000000000000000000000000000000000000000000000000c000000000000000000000000000000000000000000000000000000000000009c4000000000000000000000000b54271d82813d21f8508ffffc005ededf72e1bf90000000000000000000000000000000000000000000000000000000000000007536570686f7261000000000000000000000000000000000000000000000000000000000000000000000000000000000000000000000000000000000000000006506f696e74730000000000000000000000000000000000000000000000000000",
        "nonce": "0x38",
        "accessList": []
      },
      "additionalContracts": [],
      "isFixedGasLimit": false
    },
    {
      "hash": "0x1187d444a874a2cef477e630633d8e48de15198a824f178aa7ad3249418aa3c4",
      "transactionType": "CALL",
      "contractName": "SLMinterOracle",
      "contractAddress": "0xC7f2Cf4845C6db0e1a1e91ED41Bcd0FcC1b0E141",
      "function": "createBrand(string,string,uint256,address)",
      "arguments": [
        "\"Walgreens\"",
        "\"Points\"",
        "3080",
        "0xB54271D82813D21F8508FFffc005EdeDf72E1Bf9"
      ],
      "transaction": {
        "type": "0x02",
        "from": "0xb54271d82813d21f8508ffffc005ededf72e1bf9",
        "to": "0xc7f2cf4845c6db0e1a1e91ed41bcd0fcc1b0e141",
        "gas": "0x79d4",
        "value": "0x0",
        "data": "0x920c46c3000000000000000000000000000000000000000000000000000000000000008000000000000000000000000000000000000000000000000000000000000000c00000000000000000000000000000000000000000000000000000000000000c08000000000000000000000000b54271d82813d21f8508ffffc005ededf72e1bf9000000000000000000000000000000000000000000000000000000000000000957616c677265656e7300000000000000000000000000000000000000000000000000000000000000000000000000000000000000000000000000000000000006506f696e74730000000000000000000000000000000000000000000000000000",
        "nonce": "0x39",
        "accessList": []
      },
      "additionalContracts": [],
      "isFixedGasLimit": false
    },
    {
      "hash": "0x9515cfeeeefcc05187f3b75f8786e6e6a1a9bb833cb372bcf8eae62008112dfa",
      "transactionType": "CALL",
      "contractName": "SLMinterOracle",
      "contractAddress": "0xC7f2Cf4845C6db0e1a1e91ED41Bcd0FcC1b0E141",
      "function": "createBrand(string,string,uint256,address)",
      "arguments": [
        "\"Lyft\"",
        "\"Points\"",
        "2500",
        "0xB54271D82813D21F8508FFffc005EdeDf72E1Bf9"
      ],
      "transaction": {
        "type": "0x02",
        "from": "0xb54271d82813d21f8508ffffc005ededf72e1bf9",
        "to": "0xc7f2cf4845c6db0e1a1e91ed41bcd0fcc1b0e141",
        "gas": "0x7981",
        "value": "0x0",
        "data": "0x920c46c3000000000000000000000000000000000000000000000000000000000000008000000000000000000000000000000000000000000000000000000000000000c000000000000000000000000000000000000000000000000000000000000009c4000000000000000000000000b54271d82813d21f8508ffffc005ededf72e1bf900000000000000000000000000000000000000000000000000000000000000044c796674000000000000000000000000000000000000000000000000000000000000000000000000000000000000000000000000000000000000000000000006506f696e74730000000000000000000000000000000000000000000000000000",
        "nonce": "0x3a",
        "accessList": []
      },
      "additionalContracts": [],
      "isFixedGasLimit": false
    },
    {
      "hash": "0x4b1c2e05b90a143d1bfbd5e1cb03cef54e693f4abf6c4beb82333e020e6fc5b3",
      "transactionType": "CALL",
      "contractName": "SLMinterOracle",
      "contractAddress": "0xC7f2Cf4845C6db0e1a1e91ED41Bcd0FcC1b0E141",
      "function": "returnCard(address)",
      "arguments": [
        "0x7AaCc5300ec7Ac58fe86645D08f21b1BEcadf99a"
      ],
      "transaction": {
        "type": "0x02",
        "from": "0xb54271d82813d21f8508ffffc005ededf72e1bf9",
        "to": "0xc7f2cf4845c6db0e1a1e91ed41bcd0fcc1b0e141",
        "gas": "0x73a2",
        "value": "0x0",
        "data": "0x056dc4fc0000000000000000000000007aacc5300ec7ac58fe86645d08f21b1becadf99a",
        "nonce": "0x3b",
        "accessList": []
      },
      "additionalContracts": [],
      "isFixedGasLimit": false
    },
    {
      "hash": "0x251703b1a086cb829b7f22ebdb9a3b6b3303190db59bdb0b897b8a3729af6f1b",
      "transactionType": "CALL",
      "contractName": "SLMinterOracle",
      "contractAddress": "0xC7f2Cf4845C6db0e1a1e91ED41Bcd0FcC1b0E141",
      "function": "returnCard(address)",
      "arguments": [
        "0x67cDE3E2d3e6e9d5413bD1Ecb01DC71BA3cF86E7"
      ],
      "transaction": {
        "type": "0x02",
        "from": "0xb54271d82813d21f8508ffffc005ededf72e1bf9",
        "to": "0xc7f2cf4845c6db0e1a1e91ed41bcd0fcc1b0e141",
        "gas": "0x73a2",
        "value": "0x0",
        "data": "0x056dc4fc00000000000000000000000067cde3e2d3e6e9d5413bd1ecb01dc71ba3cf86e7",
        "nonce": "0x3c",
        "accessList": []
      },
      "additionalContracts": [],
      "isFixedGasLimit": false
    },
    {
      "hash": "0x9ec034b97e95a2bd7ad13b3069daad96c03184d8a14b6b0553557158d70dae9e",
      "transactionType": "CALL",
      "contractName": "SLMinterOracle",
      "contractAddress": "0xC7f2Cf4845C6db0e1a1e91ED41Bcd0FcC1b0E141",
      "function": "returnCard(address)",
      "arguments": [
        "0x9bF642ef0bc3f1544b1776251AeAc4fF216E3384"
      ],
      "transaction": {
        "type": "0x02",
        "from": "0xb54271d82813d21f8508ffffc005ededf72e1bf9",
        "to": "0xc7f2cf4845c6db0e1a1e91ed41bcd0fcc1b0e141",
        "gas": "0x73a2",
        "value": "0x0",
        "data": "0x056dc4fc0000000000000000000000009bf642ef0bc3f1544b1776251aeac4ff216e3384",
        "nonce": "0x3d",
        "accessList": []
      },
      "additionalContracts": [],
      "isFixedGasLimit": false
    },
    {
      "hash": "0x71369423a3186c8e4d6a94a24ef01669e087316bec10719d97ad207869402119",
      "transactionType": "CALL",
      "contractName": "SLMinterOracle",
      "contractAddress": "0xC7f2Cf4845C6db0e1a1e91ED41Bcd0FcC1b0E141",
      "function": "returnCard(address)",
      "arguments": [
        "0xEedBb16327A403a5229b6F95217dE9f338d74846"
      ],
      "transaction": {
        "type": "0x02",
        "from": "0xb54271d82813d21f8508ffffc005ededf72e1bf9",
        "to": "0xc7f2cf4845c6db0e1a1e91ed41bcd0fcc1b0e141",
        "gas": "0x73a2",
        "value": "0x0",
        "data": "0x056dc4fc000000000000000000000000eedbb16327a403a5229b6f95217de9f338d74846",
        "nonce": "0x3e",
        "accessList": []
      },
      "additionalContracts": [],
      "isFixedGasLimit": false
    },
    {
      "hash": "0x281828f240ce9517ac6f16a501be5982ed95a9dab3e710c5e3b1e45c9e6a1ace",
      "transactionType": "CALL",
      "contractName": "SLMinterOracle",
      "contractAddress": "0xC7f2Cf4845C6db0e1a1e91ED41Bcd0FcC1b0E141",
      "function": "returnCard(address)",
      "arguments": [
        "0x2B4707A92412D58a82d89EeAD6A5C7e35ce61450"
      ],
      "transaction": {
        "type": "0x02",
        "from": "0xb54271d82813d21f8508ffffc005ededf72e1bf9",
        "to": "0xc7f2cf4845c6db0e1a1e91ed41bcd0fcc1b0e141",
        "gas": "0x73a2",
        "value": "0x0",
        "data": "0x056dc4fc0000000000000000000000002b4707a92412d58a82d89eead6a5c7e35ce61450",
        "nonce": "0x3f",
        "accessList": []
      },
      "additionalContracts": [],
      "isFixedGasLimit": false
    },
    {
      "hash": "0xba29b254dc0169f3dd74bed0107dccbbb242b02ac7e31d54fd21a03f1e126664",
      "transactionType": "CALL",
      "contractName": "SLMinterOracle",
      "contractAddress": "0xC7f2Cf4845C6db0e1a1e91ED41Bcd0FcC1b0E141",
      "function": "returnCard(address)",
      "arguments": [
        "0x1e8b6a99b4824793639d2873366c56D445a5f08d"
      ],
      "transaction": {
        "type": "0x02",
        "from": "0xb54271d82813d21f8508ffffc005ededf72e1bf9",
        "to": "0xc7f2cf4845c6db0e1a1e91ed41bcd0fcc1b0e141",
        "gas": "0x73a2",
        "value": "0x0",
        "data": "0x056dc4fc0000000000000000000000001e8b6a99b4824793639d2873366c56d445a5f08d",
        "nonce": "0x40",
        "accessList": []
      },
      "additionalContracts": [],
      "isFixedGasLimit": false
    },
    {
      "hash": "0x4f534202f45c64774c28452148c3db6faf3f3de7760b3f273469fe0a75e0d266",
      "transactionType": "CALL",
      "contractName": "SLMinterOracle",
      "contractAddress": "0xC7f2Cf4845C6db0e1a1e91ED41Bcd0FcC1b0E141",
      "function": "returnCard(address)",
      "arguments": [
        "0x7a68E92dF1aEF1F65c726810746Ed2a978434BbC"
      ],
      "transaction": {
        "type": "0x02",
        "from": "0xb54271d82813d21f8508ffffc005ededf72e1bf9",
        "to": "0xc7f2cf4845c6db0e1a1e91ed41bcd0fcc1b0e141",
        "gas": "0x73a2",
        "value": "0x0",
        "data": "0x056dc4fc0000000000000000000000007a68e92df1aef1f65c726810746ed2a978434bbc",
        "nonce": "0x41",
        "accessList": []
      },
      "additionalContracts": [],
      "isFixedGasLimit": false
    },
    {
      "hash": "0x76ae1d39b3eff0f1ae6cba1c0d7799ee065988f7dd655abc773498ff4ac5c5d4",
      "transactionType": "CALL",
      "contractName": "SLMinterOracle",
      "contractAddress": "0xC7f2Cf4845C6db0e1a1e91ED41Bcd0FcC1b0E141",
      "function": "returnCard(address)",
      "arguments": [
        "0x62Bd6F648Efbbe964Ce38592640C71a29d586eE9"
      ],
      "transaction": {
        "type": "0x02",
        "from": "0xb54271d82813d21f8508ffffc005ededf72e1bf9",
        "to": "0xc7f2cf4845c6db0e1a1e91ed41bcd0fcc1b0e141",
        "gas": "0x73a2",
        "value": "0x0",
        "data": "0x056dc4fc00000000000000000000000062bd6f648efbbe964ce38592640c71a29d586ee9",
        "nonce": "0x42",
        "accessList": []
      },
      "additionalContracts": [],
      "isFixedGasLimit": false
    },
    {
      "hash": "0x95fa82c8c581045fa694ddaa9b4d5a504687ea4cf778f807845161c0a3dcc6a1",
      "transactionType": "CALL",
      "contractName": "SLMinterOracle",
      "contractAddress": "0xC7f2Cf4845C6db0e1a1e91ED41Bcd0FcC1b0E141",
      "function": "returnCard(address)",
      "arguments": [
        "0x67a6e25c585E57F8Ef1a573f734a124cE60cb583"
      ],
      "transaction": {
        "type": "0x02",
        "from": "0xb54271d82813d21f8508ffffc005ededf72e1bf9",
        "to": "0xc7f2cf4845c6db0e1a1e91ed41bcd0fcc1b0e141",
        "gas": "0x73a2",
        "value": "0x0",
        "data": "0x056dc4fc00000000000000000000000067a6e25c585e57f8ef1a573f734a124ce60cb583",
        "nonce": "0x43",
        "accessList": []
      },
      "additionalContracts": [],
      "isFixedGasLimit": false
    },
    {
      "hash": "0x81f51b2d06897475ac0aac5f8f0c894f7529b2b038fa3c25c74ba8599a34a2d5",
      "transactionType": "CALL",
      "contractName": "SLMinterOracle",
      "contractAddress": "0xC7f2Cf4845C6db0e1a1e91ED41Bcd0FcC1b0E141",
      "function": "returnCard(address)",
      "arguments": [
        "0xb6087b053C85389A143E69B3f7420bed8059A5fd"
      ],
      "transaction": {
        "type": "0x02",
        "from": "0xb54271d82813d21f8508ffffc005ededf72e1bf9",
        "to": "0xc7f2cf4845c6db0e1a1e91ed41bcd0fcc1b0e141",
        "gas": "0x73a2",
        "value": "0x0",
        "data": "0x056dc4fc000000000000000000000000b6087b053c85389a143e69b3f7420bed8059a5fd",
        "nonce": "0x44",
        "accessList": []
      },
      "additionalContracts": [],
      "isFixedGasLimit": false
    },
    {
      "hash": "0xa74661e2eb9d5f780b1c1a20a2cdd0532e61c251b96856d450e03a2e430e65d9",
      "transactionType": "CALL",
      "contractName": "SLERC20",
      "contractAddress": "0x7AaCc5300ec7Ac58fe86645D08f21b1BEcadf99a",
      "function": "approve(address,uint256)",
      "arguments": [
        "0xC532a74256D3Db42D0Bf7a0400fEFDbad7694008",
        "52000000000000000000000"
      ],
      "transaction": {
        "type": "0x02",
        "from": "0xb54271d82813d21f8508ffffc005ededf72e1bf9",
        "to": "0x7aacc5300ec7ac58fe86645d08f21b1becadf99a",
        "gas": "0x74c6",
        "value": "0x0",
        "data": "0x095ea7b3000000000000000000000000c532a74256d3db42d0bf7a0400fefdbad7694008000000000000000000000000000000000000000000000b02ecf74c3138800000",
        "nonce": "0x45",
        "accessList": []
      },
      "additionalContracts": [],
      "isFixedGasLimit": false
    },
    {
      "hash": "0x880ad608c852dd895911c43f72d9631876bfc4510e2c8ec929b938bd451d33c6",
      "transactionType": "CALL",
      "contractName": "SLERC20",
      "contractAddress": "0x67cDE3E2d3e6e9d5413bD1Ecb01DC71BA3cF86E7",
      "function": "approve(address,uint256)",
      "arguments": [
        "0xC532a74256D3Db42D0Bf7a0400fEFDbad7694008",
        "2440000000000000000000"
      ],
      "transaction": {
        "type": "0x02",
        "from": "0xb54271d82813d21f8508ffffc005ededf72e1bf9",
        "to": "0x67cde3e2d3e6e9d5413bd1ecb01dc71ba3cf86e7",
        "gas": "0x74b7",
        "value": "0x0",
        "data": "0x095ea7b3000000000000000000000000c532a74256d3db42d0bf7a0400fefdbad769400800000000000000000000000000000000000000000000008445cd605371200000",
        "nonce": "0x46",
        "accessList": []
      },
      "additionalContracts": [],
      "isFixedGasLimit": false
    },
    {
      "hash": "0x82190f0b5652f389034ae2ed5003514301a639899661b7c53532e5ccefc6a735",
      "transactionType": "CALL",
      "contractName": "SLERC20",
      "contractAddress": "0x9bF642ef0bc3f1544b1776251AeAc4fF216E3384",
      "function": "approve(address,uint256)",
      "arguments": [
        "0xC532a74256D3Db42D0Bf7a0400fEFDbad7694008",
        "2300000000000000000000"
      ],
      "transaction": {
        "type": "0x02",
        "from": "0xb54271d82813d21f8508ffffc005ededf72e1bf9",
        "to": "0x9bf642ef0bc3f1544b1776251aeac4ff216e3384",
        "gas": "0x74b7",
        "value": "0x0",
        "data": "0x095ea7b3000000000000000000000000c532a74256d3db42d0bf7a0400fefdbad769400800000000000000000000000000000000000000000000007caee97613e6700000",
        "nonce": "0x47",
        "accessList": []
      },
      "additionalContracts": [],
      "isFixedGasLimit": false
    },
    {
      "hash": "0x86e380ab959ed610e1b671d3d001c46c146f56ab9357f6ea10519bf2b80eb817",
      "transactionType": "CALL",
      "contractName": "SLERC20",
      "contractAddress": "0xEedBb16327A403a5229b6F95217dE9f338d74846",
      "function": "approve(address,uint256)",
      "arguments": [
        "0xC532a74256D3Db42D0Bf7a0400fEFDbad7694008",
        "744000000000000000000"
      ],
      "transaction": {
        "type": "0x02",
        "from": "0xb54271d82813d21f8508ffffc005ededf72e1bf9",
        "to": "0xeedbb16327a403a5229b6f95217de9f338d74846",
        "gas": "0x74b7",
        "value": "0x0",
        "data": "0x095ea7b3000000000000000000000000c532a74256d3db42d0bf7a0400fefdbad76940080000000000000000000000000000000000000000000000285512fa1e7aa00000",
        "nonce": "0x48",
        "accessList": []
      },
      "additionalContracts": [],
      "isFixedGasLimit": false
    },
    {
      "hash": "0x95a45979470d4b52a1f387ae0b7e3114cac414fe34a654e8f56f405a895f2720",
      "transactionType": "CALL",
      "contractName": "SLERC20",
      "contractAddress": "0x2B4707A92412D58a82d89EeAD6A5C7e35ce61450",
      "function": "approve(address,uint256)",
      "arguments": [
        "0xC532a74256D3Db42D0Bf7a0400fEFDbad7694008",
        "3078000000000000000000"
      ],
      "transaction": {
        "type": "0x02",
        "from": "0xb54271d82813d21f8508ffffc005ededf72e1bf9",
        "to": "0x2b4707a92412d58a82d89eead6a5c7e35ce61450",
        "gas": "0x74b7",
        "value": "0x0",
        "data": "0x095ea7b3000000000000000000000000c532a74256d3db42d0bf7a0400fefdbad76940080000000000000000000000000000000000000000000000a6dbd4b40e9c580000",
        "nonce": "0x49",
        "accessList": []
      },
      "additionalContracts": [],
      "isFixedGasLimit": false
    },
    {
      "hash": "0xa16dfe433cfa74aebdf6691d743000234940f7193c516d773aa84e4587bd31d3",
      "transactionType": "CALL",
      "contractName": "SLERC20",
      "contractAddress": "0x1e8b6a99b4824793639d2873366c56D445a5f08d",
      "function": "approve(address,uint256)",
      "arguments": [
        "0xC532a74256D3Db42D0Bf7a0400fEFDbad7694008",
        "2667000000000000000000"
      ],
      "transaction": {
        "type": "0x02",
        "from": "0xb54271d82813d21f8508ffffc005ededf72e1bf9",
        "to": "0x1e8b6a99b4824793639d2873366c56d445a5f08d",
        "gas": "0x74b7",
        "value": "0x0",
        "data": "0x095ea7b3000000000000000000000000c532a74256d3db42d0bf7a0400fefdbad7694008000000000000000000000000000000000000000000000090940f61a0decc0000",
        "nonce": "0x4a",
        "accessList": []
      },
      "additionalContracts": [],
      "isFixedGasLimit": false
    },
    {
      "hash": "0x06337aba34398fdde78d88c7c0a7fc41eead554ad12eeed9bdf26ac48743f4a8",
      "transactionType": "CALL",
      "contractName": "SLERC20",
      "contractAddress": "0x7a68E92dF1aEF1F65c726810746Ed2a978434BbC",
      "function": "approve(address,uint256)",
      "arguments": [
        "0xC532a74256D3Db42D0Bf7a0400fEFDbad7694008",
        "2280000000000000000000"
      ],
      "transaction": {
        "type": "0x02",
        "from": "0xb54271d82813d21f8508ffffc005ededf72e1bf9",
        "to": "0x7a68e92df1aef1f65c726810746ed2a978434bbc",
        "gas": "0x74b7",
        "value": "0x0",
        "data": "0x095ea7b3000000000000000000000000c532a74256d3db42d0bf7a0400fefdbad769400800000000000000000000000000000000000000000000007b995b300ad2a00000",
        "nonce": "0x4b",
        "accessList": []
      },
      "additionalContracts": [],
      "isFixedGasLimit": false
    },
    {
      "hash": "0xcf1d9ff68e47babb73009518f73b2448b6a7fd85aa65f69722e3b18878b4e3e8",
      "transactionType": "CALL",
      "contractName": "SLERC20",
      "contractAddress": "0x62Bd6F648Efbbe964Ce38592640C71a29d586eE9",
      "function": "approve(address,uint256)",
      "arguments": [
        "0xC532a74256D3Db42D0Bf7a0400fEFDbad7694008",
        "2500000000000000000000"
      ],
      "transaction": {
        "type": "0x02",
        "from": "0xb54271d82813d21f8508ffffc005ededf72e1bf9",
        "to": "0x62bd6f648efbbe964ce38592640c71a29d586ee9",
        "gas": "0x74b7",
        "value": "0x0",
        "data": "0x095ea7b3000000000000000000000000c532a74256d3db42d0bf7a0400fefdbad76940080000000000000000000000000000000000000000000000878678326eac900000",
        "nonce": "0x4c",
        "accessList": []
      },
      "additionalContracts": [],
      "isFixedGasLimit": false
    },
    {
      "hash": "0xf097bbc536d4729ddfd66fbb9326bc637015bb20906d91604aadf598e66cedc1",
      "transactionType": "CALL",
      "contractName": "SLERC20",
      "contractAddress": "0x67a6e25c585E57F8Ef1a573f734a124cE60cb583",
      "function": "approve(address,uint256)",
      "arguments": [
        "0xC532a74256D3Db42D0Bf7a0400fEFDbad7694008",
        "3080000000000000000000"
      ],
      "transaction": {
        "type": "0x02",
        "from": "0xb54271d82813d21f8508ffffc005ededf72e1bf9",
        "to": "0x67a6e25c585e57f8ef1a573f734a124ce60cb583",
        "gas": "0x74b7",
        "value": "0x0",
        "data": "0x095ea7b3000000000000000000000000c532a74256d3db42d0bf7a0400fefdbad76940080000000000000000000000000000000000000000000000a6f7962175eb200000",
        "nonce": "0x4d",
        "accessList": []
      },
      "additionalContracts": [],
      "isFixedGasLimit": false
    },
    {
      "hash": "0x1159fe4dc9692776b8ac8c1cbf153d9e033530eb8a8bf473d99bd08dcfb07b12",
      "transactionType": "CALL",
      "contractName": "SLERC20",
      "contractAddress": "0xb6087b053C85389A143E69B3f7420bed8059A5fd",
      "function": "approve(address,uint256)",
      "arguments": [
        "0xC532a74256D3Db42D0Bf7a0400fEFDbad7694008",
        "2500000000000000000000"
      ],
      "transaction": {
        "type": "0x02",
        "from": "0xb54271d82813d21f8508ffffc005ededf72e1bf9",
        "to": "0xb6087b053c85389a143e69b3f7420bed8059a5fd",
        "gas": "0x74b7",
        "value": "0x0",
        "data": "0x095ea7b3000000000000000000000000c532a74256d3db42d0bf7a0400fefdbad76940080000000000000000000000000000000000000000000000878678326eac900000",
        "nonce": "0x4e",
        "accessList": []
      },
      "additionalContracts": [],
      "isFixedGasLimit": false
    }
  ],
  "receipts": [
    {
      "transactionHash": "0x57188399f1f538bb0b62eda6661c2ce1a03f33c880cea7ac8ed1d5b7ff5928b5",
      "transactionIndex": "0x0",
      "blockHash": "0x04feb5380d439caa96d069d1d0415ff3bcf0ecac0ae255d0dd4d02e247a104ba",
      "blockNumber": "0x56a895",
      "from": "0xB54271D82813D21F8508FFffc005EdeDf72E1Bf9",
      "to": "0xC7f2Cf4845C6db0e1a1e91ED41Bcd0FcC1b0E141",
      "cumulativeGasUsed": "0x57f8",
      "gasUsed": "0x57f8",
      "contractAddress": null,
      "logs": [],
      "status": "0x1",
      "logsBloom": "0x00000000000000000000000000000000000000000000000000000000000000000000000000000000000000000000000000000000000000000000000000000000000000000000000000000000000000000000000000000000000000000000000000000000000000000000000000000000000000000000000000000000000000000000000000000000000000000000000000000000000000000000000000000000000000000000000000000000000000000000000000000000000000000000000000000000000000000000000000000000000000000000000000000000000000000000000000000000000000000000000000000000000000000000000000000000",
      "type": "0x2",
      "effectiveGasPrice": "0xbfb9fd08"
    },
    {
      "transactionHash": "0x9197679af50d38a8610dab21f57648da8ad0c8d5ef8b61cb1baa9ea05e86ab1f",
      "transactionIndex": "0x1",
      "blockHash": "0x04feb5380d439caa96d069d1d0415ff3bcf0ecac0ae255d0dd4d02e247a104ba",
      "blockNumber": "0x56a895",
      "from": "0xB54271D82813D21F8508FFffc005EdeDf72E1Bf9",
      "to": "0xC7f2Cf4845C6db0e1a1e91ED41Bcd0FcC1b0E141",
      "cumulativeGasUsed": "0xb02c",
      "gasUsed": "0xb02c",
      "contractAddress": null,
      "logs": [],
      "status": "0x1",
      "logsBloom": "0x00000000000000000000000000000000000000000000000000000000000000000000000000000000000000000000000000000000000000000000000000000000000000000000000000000000000000000000000000000000000000000000000000000000000000000000000000000000000000000000000000000000000000000000000000000000000000000000000000000000000000000000000000000000000000000000000000000000000000000000000000000000000000000000000000000000000000000000000000000000000000000000000000000000000000000000000000000000000000000000000000000000000000000000000000000000",
      "type": "0x2",
      "effectiveGasPrice": "0xbfb9fd08"
    },
    {
      "transactionHash": "0x6f09cd0305ab37c61dd172db518cda0588a631468a934b3c6dba4ba3b966f7d4",
      "transactionIndex": "0x2",
      "blockHash": "0x04feb5380d439caa96d069d1d0415ff3bcf0ecac0ae255d0dd4d02e247a104ba",
      "blockNumber": "0x56a895",
      "from": "0xB54271D82813D21F8508FFffc005EdeDf72E1Bf9",
      "to": "0xC7f2Cf4845C6db0e1a1e91ED41Bcd0FcC1b0E141",
      "cumulativeGasUsed": "0x10848",
      "gasUsed": "0x10848",
      "contractAddress": null,
      "logs": [],
      "status": "0x1",
      "logsBloom": "0x00000000000000000000000000000000000000000000000000000000000000000000000000000000000000000000000000000000000000000000000000000000000000000000000000000000000000000000000000000000000000000000000000000000000000000000000000000000000000000000000000000000000000000000000000000000000000000000000000000000000000000000000000000000000000000000000000000000000000000000000000000000000000000000000000000000000000000000000000000000000000000000000000000000000000000000000000000000000000000000000000000000000000000000000000000000",
      "type": "0x2",
      "effectiveGasPrice": "0xbfb9fd08"
    },
    {
      "transactionHash": "0xa65a7839d49802e7c677dbfbedfb0f8c33d223db04111fd1326f1bfc2295bd01",
      "transactionIndex": "0x3",
      "blockHash": "0x04feb5380d439caa96d069d1d0415ff3bcf0ecac0ae255d0dd4d02e247a104ba",
      "blockNumber": "0x56a895",
      "from": "0xB54271D82813D21F8508FFffc005EdeDf72E1Bf9",
      "to": "0xC7f2Cf4845C6db0e1a1e91ED41Bcd0FcC1b0E141",
      "cumulativeGasUsed": "0x16058",
      "gasUsed": "0x16058",
      "contractAddress": null,
      "logs": [],
      "status": "0x1",
      "logsBloom": "0x00000000000000000000000000000000000000000000000000000000000000000000000000000000000000000000000000000000000000000000000000000000000000000000000000000000000000000000000000000000000000000000000000000000000000000000000000000000000000000000000000000000000000000000000000000000000000000000000000000000000000000000000000000000000000000000000000000000000000000000000000000000000000000000000000000000000000000000000000000000000000000000000000000000000000000000000000000000000000000000000000000000000000000000000000000000",
      "type": "0x2",
      "effectiveGasPrice": "0xbfb9fd08"
    },
    {
      "transactionHash": "0x750ffb4f94067b4f0af895552b7c596bb97ef9b3c8506800889da6917c6ab6db",
      "transactionIndex": "0x4",
      "blockHash": "0x04feb5380d439caa96d069d1d0415ff3bcf0ecac0ae255d0dd4d02e247a104ba",
      "blockNumber": "0x56a895",
      "from": "0xB54271D82813D21F8508FFffc005EdeDf72E1Bf9",
      "to": "0xC7f2Cf4845C6db0e1a1e91ED41Bcd0FcC1b0E141",
      "cumulativeGasUsed": "0x1b8b0",
      "gasUsed": "0x1b8b0",
      "contractAddress": null,
      "logs": [],
      "status": "0x1",
      "logsBloom": "0x00000000000000000000000000000000000000000000000000000000000000000000000000000000000000000000000000000000000000000000000000000000000000000000000000000000000000000000000000000000000000000000000000000000000000000000000000000000000000000000000000000000000000000000000000000000000000000000000000000000000000000000000000000000000000000000000000000000000000000000000000000000000000000000000000000000000000000000000000000000000000000000000000000000000000000000000000000000000000000000000000000000000000000000000000000000",
      "type": "0x2",
      "effectiveGasPrice": "0xbfb9fd08"
    },
    {
      "transactionHash": "0x6842ba38b08f8be468a84ecde3025871e117dfe164ce6049726d279b07e649b7",
      "transactionIndex": "0x0",
      "blockHash": "0x78697fffdd1c5c62fd4b72cbbcabf257d29bc838d3bc03d318fe91b601477be0",
      "blockNumber": "0x56a897",
      "from": "0xB54271D82813D21F8508FFffc005EdeDf72E1Bf9",
      "to": "0xC7f2Cf4845C6db0e1a1e91ED41Bcd0FcC1b0E141",
      "cumulativeGasUsed": "0x5834",
      "gasUsed": "0x5834",
      "contractAddress": null,
      "logs": [],
      "status": "0x1",
      "logsBloom": "0x00000000000000000000000000000000000000000000000000000000000000000000000000000000000000000000000000000000000000000000000000000000000000000000000000000000000000000000000000000000000000000000000000000000000000000000000000000000000000000000000000000000000000000000000000000000000000000000000000000000000000000000000000000000000000000000000000000000000000000000000000000000000000000000000000000000000000000000000000000000000000000000000000000000000000000000000000000000000000000000000000000000000000000000000000000000",
      "type": "0x2",
      "effectiveGasPrice": "0xbcb5f3e4"
    },
    {
      "transactionHash": "0xaee96c8fb57e58bbef7a2ebc3ba5a46cc8a8ed381962d7e366a3132dc36a339c",
      "transactionIndex": "0x1",
      "blockHash": "0x78697fffdd1c5c62fd4b72cbbcabf257d29bc838d3bc03d318fe91b601477be0",
      "blockNumber": "0x56a897",
      "from": "0xB54271D82813D21F8508FFffc005EdeDf72E1Bf9",
      "to": "0xC7f2Cf4845C6db0e1a1e91ED41Bcd0FcC1b0E141",
      "cumulativeGasUsed": "0xb044",
      "gasUsed": "0xb044",
      "contractAddress": null,
      "logs": [],
      "status": "0x1",
      "logsBloom": "0x00000000000000000000000000000000000000000000000000000000000000000000000000000000000000000000000000000000000000000000000000000000000000000000000000000000000000000000000000000000000000000000000000000000000000000000000000000000000000000000000000000000000000000000000000000000000000000000000000000000000000000000000000000000000000000000000000000000000000000000000000000000000000000000000000000000000000000000000000000000000000000000000000000000000000000000000000000000000000000000000000000000000000000000000000000000",
      "type": "0x2",
      "effectiveGasPrice": "0xbcb5f3e4"
    },
    {
      "transactionHash": "0x8546c9b7dd71b48f8f86158ec6d782af0c51fa2accfd16964c57f51312a7c900",
      "transactionIndex": "0x2",
      "blockHash": "0x78697fffdd1c5c62fd4b72cbbcabf257d29bc838d3bc03d318fe91b601477be0",
      "blockNumber": "0x56a897",
      "from": "0xB54271D82813D21F8508FFffc005EdeDf72E1Bf9",
      "to": "0xC7f2Cf4845C6db0e1a1e91ED41Bcd0FcC1b0E141",
      "cumulativeGasUsed": "0x10860",
      "gasUsed": "0x10860",
      "contractAddress": null,
      "logs": [],
      "status": "0x1",
      "logsBloom": "0x00000000000000000000000000000000000000000000000000000000000000000000000000000000000000000000000000000000000000000000000000000000000000000000000000000000000000000000000000000000000000000000000000000000000000000000000000000000000000000000000000000000000000000000000000000000000000000000000000000000000000000000000000000000000000000000000000000000000000000000000000000000000000000000000000000000000000000000000000000000000000000000000000000000000000000000000000000000000000000000000000000000000000000000000000000000",
      "type": "0x2",
      "effectiveGasPrice": "0xbcb5f3e4"
    },
    {
      "transactionHash": "0x1187d444a874a2cef477e630633d8e48de15198a824f178aa7ad3249418aa3c4",
      "transactionIndex": "0x0",
      "blockHash": "0x6aa3db0e7688f64413ad09df550a6badf7838aca59f0550ba31ebc85ed5f8f7e",
      "blockNumber": "0x56a898",
      "from": "0xB54271D82813D21F8508FFffc005EdeDf72E1Bf9",
      "to": "0xC7f2Cf4845C6db0e1a1e91ED41Bcd0FcC1b0E141",
      "cumulativeGasUsed": "0x5834",
      "gasUsed": "0x5834",
      "contractAddress": null,
      "logs": [],
      "status": "0x1",
      "logsBloom": "0x00000000000000000000000000000000000000000000000000000000000000000000000000000000000000000000000000000000000000000000000000000000000000000000000000000000000000000000000000000000000000000000000000000000000000000000000000000000000000000000000000000000000000000000000000000000000000000000000000000000000000000000000000000000000000000000000000000000000000000000000000000000000000000000000000000000000000000000000000000000000000000000000000000000000000000000000000000000000000000000000000000000000000000000000000000000",
      "type": "0x2",
      "effectiveGasPrice": "0xbb7aaef7"
    },
    {
      "transactionHash": "0x9515cfeeeefcc05187f3b75f8786e6e6a1a9bb833cb372bcf8eae62008112dfa",
      "transactionIndex": "0x0",
      "blockHash": "0x601d3dba34d41e9301f045ccbe50b87392b60ee0e39709f15ca8265cc719c285",
      "blockNumber": "0x56a899",
      "from": "0xB54271D82813D21F8508FFffc005EdeDf72E1Bf9",
      "to": "0xC7f2Cf4845C6db0e1a1e91ED41Bcd0FcC1b0E141",
      "cumulativeGasUsed": "0x57f8",
      "gasUsed": "0x57f8",
      "contractAddress": null,
      "logs": [],
      "status": "0x1",
      "logsBloom": "0x00000000000000000000000000000000000000000000000000000000000000000000000000000000000000000000000000000000000000000000000000000000000000000000000000000000000000000000000000000000000000000000000000000000000000000000000000000000000000000000000000000000000000000000000000000000000000000000000000000000000000000000000000000000000000000000000000000000000000000000000000000000000000000000000000000000000000000000000000000000000000000000000000000000000000000000000000000000000000000000000000000000000000000000000000000000",
      "type": "0x2",
      "effectiveGasPrice": "0xba65cfb4"
    },
    {
      "transactionHash": "0x4b1c2e05b90a143d1bfbd5e1cb03cef54e693f4abf6c4beb82333e020e6fc5b3",
      "transactionIndex": "0x1",
      "blockHash": "0x601d3dba34d41e9301f045ccbe50b87392b60ee0e39709f15ca8265cc719c285",
      "blockNumber": "0x56a899",
      "from": "0xB54271D82813D21F8508FFffc005EdeDf72E1Bf9",
      "to": "0xC7f2Cf4845C6db0e1a1e91ED41Bcd0FcC1b0E141",
      "cumulativeGasUsed": "0xabb0",
      "gasUsed": "0xabb0",
      "contractAddress": null,
      "logs": [],
      "status": "0x1",
      "logsBloom": "0x00000000000000000000000000000000000000000000000000000000000000000000000000000000000000000000000000000000000000000000000000000000000000000000000000000000000000000000000000000000000000000000000000000000000000000000000000000000000000000000000000000000000000000000000000000000000000000000000000000000000000000000000000000000000000000000000000000000000000000000000000000000000000000000000000000000000000000000000000000000000000000000000000000000000000000000000000000000000000000000000000000000000000000000000000000000",
      "type": "0x2",
      "effectiveGasPrice": "0xba65cfb4"
    },
    {
      "transactionHash": "0x251703b1a086cb829b7f22ebdb9a3b6b3303190db59bdb0b897b8a3729af6f1b",
      "transactionIndex": "0x0",
      "blockHash": "0xb036c22c769f9717f948e41a5a9e362297039d82c7ce39adcb990462b387d9b4",
      "blockNumber": "0x56a89a",
      "from": "0xB54271D82813D21F8508FFffc005EdeDf72E1Bf9",
      "to": "0xC7f2Cf4845C6db0e1a1e91ED41Bcd0FcC1b0E141",
      "cumulativeGasUsed": "0x53b8",
      "gasUsed": "0x53b8",
      "contractAddress": null,
      "logs": [],
      "status": "0x1",
      "logsBloom": "0x00000000000000000000000000000000000000000000000000000000000000000000000000000000000000000000000000000000000000000000000000000000000000000000000000000000000000000000000000000000000000000000000000000000000000000000000000000000000000000000000000000000000000000000000000000000000000000000000000000000000000000000000000000000000000000000000000000000000000000000000000000000000000000000000000000000000000000000000000000000000000000000000000000000000000000000000000000000000000000000000000000000000000000000000000000000",
      "type": "0x2",
      "effectiveGasPrice": "0xb973d788"
    },
    {
      "transactionHash": "0x9ec034b97e95a2bd7ad13b3069daad96c03184d8a14b6b0553557158d70dae9e",
      "transactionIndex": "0x1",
      "blockHash": "0xb036c22c769f9717f948e41a5a9e362297039d82c7ce39adcb990462b387d9b4",
      "blockNumber": "0x56a89a",
      "from": "0xB54271D82813D21F8508FFffc005EdeDf72E1Bf9",
      "to": "0xC7f2Cf4845C6db0e1a1e91ED41Bcd0FcC1b0E141",
      "cumulativeGasUsed": "0xa770",
      "gasUsed": "0xa770",
      "contractAddress": null,
      "logs": [],
      "status": "0x1",
      "logsBloom": "0x00000000000000000000000000000000000000000000000000000000000000000000000000000000000000000000000000000000000000000000000000000000000000000000000000000000000000000000000000000000000000000000000000000000000000000000000000000000000000000000000000000000000000000000000000000000000000000000000000000000000000000000000000000000000000000000000000000000000000000000000000000000000000000000000000000000000000000000000000000000000000000000000000000000000000000000000000000000000000000000000000000000000000000000000000000000",
      "type": "0x2",
      "effectiveGasPrice": "0xb973d788"
    },
    {
      "transactionHash": "0x71369423a3186c8e4d6a94a24ef01669e087316bec10719d97ad207869402119",
      "transactionIndex": "0x2",
      "blockHash": "0xb036c22c769f9717f948e41a5a9e362297039d82c7ce39adcb990462b387d9b4",
      "blockNumber": "0x56a89a",
      "from": "0xB54271D82813D21F8508FFffc005EdeDf72E1Bf9",
      "to": "0xC7f2Cf4845C6db0e1a1e91ED41Bcd0FcC1b0E141",
      "cumulativeGasUsed": "0xfb28",
      "gasUsed": "0xfb28",
      "contractAddress": null,
      "logs": [],
      "status": "0x1",
      "logsBloom": "0x00000000000000000000000000000000000000000000000000000000000000000000000000000000000000000000000000000000000000000000000000000000000000000000000000000000000000000000000000000000000000000000000000000000000000000000000000000000000000000000000000000000000000000000000000000000000000000000000000000000000000000000000000000000000000000000000000000000000000000000000000000000000000000000000000000000000000000000000000000000000000000000000000000000000000000000000000000000000000000000000000000000000000000000000000000000",
      "type": "0x2",
      "effectiveGasPrice": "0xb973d788"
    },
    {
      "transactionHash": "0x281828f240ce9517ac6f16a501be5982ed95a9dab3e710c5e3b1e45c9e6a1ace",
      "transactionIndex": "0x3",
      "blockHash": "0xb036c22c769f9717f948e41a5a9e362297039d82c7ce39adcb990462b387d9b4",
      "blockNumber": "0x56a89a",
      "from": "0xB54271D82813D21F8508FFffc005EdeDf72E1Bf9",
      "to": "0xC7f2Cf4845C6db0e1a1e91ED41Bcd0FcC1b0E141",
      "cumulativeGasUsed": "0x14ee0",
      "gasUsed": "0x14ee0",
      "contractAddress": null,
      "logs": [],
      "status": "0x1",
      "logsBloom": "0x00000000000000000000000000000000000000000000000000000000000000000000000000000000000000000000000000000000000000000000000000000000000000000000000000000000000000000000000000000000000000000000000000000000000000000000000000000000000000000000000000000000000000000000000000000000000000000000000000000000000000000000000000000000000000000000000000000000000000000000000000000000000000000000000000000000000000000000000000000000000000000000000000000000000000000000000000000000000000000000000000000000000000000000000000000000",
      "type": "0x2",
      "effectiveGasPrice": "0xb973d788"
    },
    {
      "transactionHash": "0xba29b254dc0169f3dd74bed0107dccbbb242b02ac7e31d54fd21a03f1e126664",
      "transactionIndex": "0x0",
      "blockHash": "0xfc612a8428ab69f965039df3418f79e852aa47df10b89853956b124bb2b8374a",
      "blockNumber": "0x56a89b",
      "from": "0xB54271D82813D21F8508FFffc005EdeDf72E1Bf9",
      "to": "0xC7f2Cf4845C6db0e1a1e91ED41Bcd0FcC1b0E141",
      "cumulativeGasUsed": "0x53b8",
      "gasUsed": "0x53b8",
      "contractAddress": null,
      "logs": [],
      "status": "0x1",
      "logsBloom": "0x00000000000000000000000000000000000000000000000000000000000000000000000000000000000000000000000000000000000000000000000000000000000000000000000000000000000000000000000000000000000000000000000000000000000000000000000000000000000000000000000000000000000000000000000000000000000000000000000000000000000000000000000000000000000000000000000000000000000000000000000000000000000000000000000000000000000000000000000000000000000000000000000000000000000000000000000000000000000000000000000000000000000000000000000000000000",
      "type": "0x2",
      "effectiveGasPrice": "0xb8a09f27"
    },
    {
      "transactionHash": "0x4f534202f45c64774c28452148c3db6faf3f3de7760b3f273469fe0a75e0d266",
      "transactionIndex": "0x1",
      "blockHash": "0xfc612a8428ab69f965039df3418f79e852aa47df10b89853956b124bb2b8374a",
      "blockNumber": "0x56a89b",
      "from": "0xB54271D82813D21F8508FFffc005EdeDf72E1Bf9",
      "to": "0xC7f2Cf4845C6db0e1a1e91ED41Bcd0FcC1b0E141",
      "cumulativeGasUsed": "0xa770",
      "gasUsed": "0xa770",
      "contractAddress": null,
      "logs": [],
      "status": "0x1",
      "logsBloom": "0x00000000000000000000000000000000000000000000000000000000000000000000000000000000000000000000000000000000000000000000000000000000000000000000000000000000000000000000000000000000000000000000000000000000000000000000000000000000000000000000000000000000000000000000000000000000000000000000000000000000000000000000000000000000000000000000000000000000000000000000000000000000000000000000000000000000000000000000000000000000000000000000000000000000000000000000000000000000000000000000000000000000000000000000000000000000",
      "type": "0x2",
      "effectiveGasPrice": "0xb8a09f27"
    },
    {
      "transactionHash": "0x76ae1d39b3eff0f1ae6cba1c0d7799ee065988f7dd655abc773498ff4ac5c5d4",
      "transactionIndex": "0x2",
      "blockHash": "0xfc612a8428ab69f965039df3418f79e852aa47df10b89853956b124bb2b8374a",
      "blockNumber": "0x56a89b",
      "from": "0xB54271D82813D21F8508FFffc005EdeDf72E1Bf9",
      "to": "0xC7f2Cf4845C6db0e1a1e91ED41Bcd0FcC1b0E141",
      "cumulativeGasUsed": "0xfb28",
      "gasUsed": "0xfb28",
      "contractAddress": null,
      "logs": [],
      "status": "0x1",
      "logsBloom": "0x00000000000000000000000000000000000000000000000000000000000000000000000000000000000000000000000000000000000000000000000000000000000000000000000000000000000000000000000000000000000000000000000000000000000000000000000000000000000000000000000000000000000000000000000000000000000000000000000000000000000000000000000000000000000000000000000000000000000000000000000000000000000000000000000000000000000000000000000000000000000000000000000000000000000000000000000000000000000000000000000000000000000000000000000000000000",
      "type": "0x2",
      "effectiveGasPrice": "0xb8a09f27"
    },
    {
      "transactionHash": "0x95fa82c8c581045fa694ddaa9b4d5a504687ea4cf778f807845161c0a3dcc6a1",
      "transactionIndex": "0x0",
      "blockHash": "0xbc5846189995743434a1e66c03b7f44e688cf40eed8dc803b432eb1f3006c429",
      "blockNumber": "0x56a89c",
      "from": "0xB54271D82813D21F8508FFffc005EdeDf72E1Bf9",
      "to": "0xC7f2Cf4845C6db0e1a1e91ED41Bcd0FcC1b0E141",
      "cumulativeGasUsed": "0x53b8",
      "gasUsed": "0x53b8",
      "contractAddress": null,
      "logs": [],
      "status": "0x1",
      "logsBloom": "0x00000000000000000000000000000000000000000000000000000000000000000000000000000000000000000000000000000000000000000000000000000000000000000000000000000000000000000000000000000000000000000000000000000000000000000000000000000000000000000000000000000000000000000000000000000000000000000000000000000000000000000000000000000000000000000000000000000000000000000000000000000000000000000000000000000000000000000000000000000000000000000000000000000000000000000000000000000000000000000000000000000000000000000000000000000000",
      "type": "0x2",
      "effectiveGasPrice": "0xb7e76325"
    },
    {
      "transactionHash": "0x81f51b2d06897475ac0aac5f8f0c894f7529b2b038fa3c25c74ba8599a34a2d5",
      "transactionIndex": "0x1",
      "blockHash": "0xbc5846189995743434a1e66c03b7f44e688cf40eed8dc803b432eb1f3006c429",
      "blockNumber": "0x56a89c",
      "from": "0xB54271D82813D21F8508FFffc005EdeDf72E1Bf9",
      "to": "0xC7f2Cf4845C6db0e1a1e91ED41Bcd0FcC1b0E141",
      "cumulativeGasUsed": "0xa770",
      "gasUsed": "0xa770",
      "contractAddress": null,
      "logs": [],
      "status": "0x1",
      "logsBloom": "0x00000000000000000000000000000000000000000000000000000000000000000000000000000000000000000000000000000000000000000000000000000000000000000000000000000000000000000000000000000000000000000000000000000000000000000000000000000000000000000000000000000000000000000000000000000000000000000000000000000000000000000000000000000000000000000000000000000000000000000000000000000000000000000000000000000000000000000000000000000000000000000000000000000000000000000000000000000000000000000000000000000000000000000000000000000000",
      "type": "0x2",
      "effectiveGasPrice": "0xb7e76325"
    },
    {
      "transactionHash": "0xa74661e2eb9d5f780b1c1a20a2cdd0532e61c251b96856d450e03a2e430e65d9",
      "transactionIndex": "0x2",
      "blockHash": "0xbc5846189995743434a1e66c03b7f44e688cf40eed8dc803b432eb1f3006c429",
      "blockNumber": "0x56a89c",
      "from": "0xB54271D82813D21F8508FFffc005EdeDf72E1Bf9",
      "to": "0x7AaCc5300ec7Ac58fe86645D08f21b1BEcadf99a",
      "cumulativeGasUsed": "0xfbfc",
      "gasUsed": "0xfbfc",
      "contractAddress": null,
      "logs": [],
      "status": "0x1",
      "logsBloom": "0x00000000000000000000000000000000000000000000000000000000000000000000000000000000000000000000000000000000000000000000000000000000000000000000000000000000000000000000000000000000000000000000000000000000000000000000000000000000000000000000000000000000000000000000000000000000000000000000000000000000000000000000000000000000000000000000000000000000000000000000000000000000000000000000000000000000000000000000000000000000000000000000000000000000000000000000000000000000000000000000000000000000000000000000000000000000",
      "type": "0x2",
      "effectiveGasPrice": "0xb7e76325"
    },
    {
      "transactionHash": "0x880ad608c852dd895911c43f72d9631876bfc4510e2c8ec929b938bd451d33c6",
      "transactionIndex": "0x3",
      "blockHash": "0xbc5846189995743434a1e66c03b7f44e688cf40eed8dc803b432eb1f3006c429",
      "blockNumber": "0x56a89c",
      "from": "0xB54271D82813D21F8508FFffc005EdeDf72E1Bf9",
      "to": "0x67cDE3E2d3e6e9d5413bD1Ecb01DC71BA3cF86E7",
      "cumulativeGasUsed": "0x1507c",
      "gasUsed": "0x1507c",
      "contractAddress": null,
      "logs": [],
      "status": "0x1",
      "logsBloom": "0x00000000000000000000000000000000000000000000000000000000000000000000000000000000000000000000000000000000000000000000000000000000000000000000000000000000000000000000000000000000000000000000000000000000000000000000000000000000000000000000000000000000000000000000000000000000000000000000000000000000000000000000000000000000000000000000000000000000000000000000000000000000000000000000000000000000000000000000000000000000000000000000000000000000000000000000000000000000000000000000000000000000000000000000000000000000",
      "type": "0x2",
      "effectiveGasPrice": "0xb7e76325"
    },
    {
      "transactionHash": "0x82190f0b5652f389034ae2ed5003514301a639899661b7c53532e5ccefc6a735",
      "transactionIndex": "0x0",
      "blockHash": "0x21a4d43e6d218fb9c026e3844ace9fa5323fb244e684036a8cbd9df9a72ae292",
      "blockNumber": "0x56a89d",
      "from": "0xB54271D82813D21F8508FFffc005EdeDf72E1Bf9",
      "to": "0x9bF642ef0bc3f1544b1776251AeAc4fF216E3384",
      "cumulativeGasUsed": "0x5480",
      "gasUsed": "0x5480",
      "contractAddress": null,
      "logs": [],
      "status": "0x1",
      "logsBloom": "0x00000000000000000000000000000000000000000000000000000000000000000000000000000000000000000000000000000000000000000000000000000000000000000000000000000000000000000000000000000000000000000000000000000000000000000000000000000000000000000000000000000000000000000000000000000000000000000000000000000000000000000000000000000000000000000000000000000000000000000000000000000000000000000000000000000000000000000000000000000000000000000000000000000000000000000000000000000000000000000000000000000000000000000000000000000000",
      "type": "0x2",
      "effectiveGasPrice": "0xb74571f4"
    },
    {
      "transactionHash": "0x86e380ab959ed610e1b671d3d001c46c146f56ab9357f6ea10519bf2b80eb817",
      "transactionIndex": "0x0",
      "blockHash": "0xbec5790a45662cd6658d360efcebf3adcf577ae204e26c51c5cd12e8ab4c3cca",
      "blockNumber": "0x56a89e",
      "from": "0xB54271D82813D21F8508FFffc005EdeDf72E1Bf9",
      "to": "0xEedBb16327A403a5229b6F95217dE9f338d74846",
      "cumulativeGasUsed": "0x5480",
      "gasUsed": "0x5480",
      "contractAddress": null,
      "logs": [],
      "status": "0x1",
      "logsBloom": "0x00000000000000000000000000000000000000000000000000000000000000000000000000000000000000000000000000000000000000000000000000000000000000000000000000000000000000000000000000000000000000000000000000000000000000000000000000000000000000000000000000000000000000000000000000000000000000000000000000000000000000000000000000000000000000000000000000000000000000000000000000000000000000000000000000000000000000000000000000000000000000000000000000000000000000000000000000000000000000000000000000000000000000000000000000000000",
      "type": "0x2",
      "effectiveGasPrice": "0xb6b7041f"
    },
    {
      "transactionHash": "0x95a45979470d4b52a1f387ae0b7e3114cac414fe34a654e8f56f405a895f2720",
      "transactionIndex": "0x0",
      "blockHash": "0x91dc0084593524c068f285eadd542c28b6e263b09f4228a8808d1b1d0444fe13",
      "blockNumber": "0x56a89f",
      "from": "0xB54271D82813D21F8508FFffc005EdeDf72E1Bf9",
      "to": "0x2B4707A92412D58a82d89EeAD6A5C7e35ce61450",
      "cumulativeGasUsed": "0x5480",
      "gasUsed": "0x5480",
      "contractAddress": null,
      "logs": [],
      "status": "0x1",
      "logsBloom": "0x00000000000000000000000000000000000000000000000000000000000000000000000000000000000000000000000000000000000000000000000000000000000000000000000000000000000000000000000000000000000000000000000000000000000000000000000000000000000000000000000000000000000000000000000000000000000000000000000000000000000000000000000000000000000000000000000000000000000000000000000000000000000000000000000000000000000000000000000000000000000000000000000000000000000000000000000000000000000000000000000000000000000000000000000000000000",
      "type": "0x2",
      "effectiveGasPrice": "0xb63a5d72"
    },
    {
      "transactionHash": "0xa16dfe433cfa74aebdf6691d743000234940f7193c516d773aa84e4587bd31d3",
      "transactionIndex": "0x0",
      "blockHash": "0x77c7158fef963353ca6ac9135753fcba839c8f1adbfee0fd5c6d86b0d66b9f8a",
      "blockNumber": "0x56a8a0",
      "from": "0xB54271D82813D21F8508FFffc005EdeDf72E1Bf9",
      "to": "0x1e8b6a99b4824793639d2873366c56D445a5f08d",
      "cumulativeGasUsed": "0x5480",
      "gasUsed": "0x5480",
      "contractAddress": null,
      "logs": [],
      "status": "0x1",
      "logsBloom": "0x00000000000000000000000000000000000000000000000000000000000000000000000000000000000000000000000000000000000000000000000000000000000000000000000000000000000000000000000000000000000000000000000000000000000000000000000000000000000000000000000000000000000000000000000000000000000000000000000000000000000000000000000000000000000000000000000000000000000000000000000000000000000000000000000000000000000000000000000000000000000000000000000000000000000000000000000000000000000000000000000000000000000000000000000000000000",
      "type": "0x2",
      "effectiveGasPrice": "0xb5cd45da"
    },
    {
      "transactionHash": "0x06337aba34398fdde78d88c7c0a7fc41eead554ad12eeed9bdf26ac48743f4a8",
      "transactionIndex": "0x1",
      "blockHash": "0x77c7158fef963353ca6ac9135753fcba839c8f1adbfee0fd5c6d86b0d66b9f8a",
      "blockNumber": "0x56a8a0",
      "from": "0xB54271D82813D21F8508FFffc005EdeDf72E1Bf9",
      "to": "0x7a68E92dF1aEF1F65c726810746Ed2a978434BbC",
      "cumulativeGasUsed": "0xa900",
      "gasUsed": "0xa900",
      "contractAddress": null,
      "logs": [],
      "status": "0x1",
      "logsBloom": "0x00000000000000000000000000000000000000000000000000000000000000000000000000000000000000000000000000000000000000000000000000000000000000000000000000000000000000000000000000000000000000000000000000000000000000000000000000000000000000000000000000000000000000000000000000000000000000000000000000000000000000000000000000000000000000000000000000000000000000000000000000000000000000000000000000000000000000000000000000000000000000000000000000000000000000000000000000000000000000000000000000000000000000000000000000000000",
      "type": "0x2",
      "effectiveGasPrice": "0xb5cd45da"
    },
    {
      "transactionHash": "0xcf1d9ff68e47babb73009518f73b2448b6a7fd85aa65f69722e3b18878b4e3e8",
      "transactionIndex": "0x2",
      "blockHash": "0x77c7158fef963353ca6ac9135753fcba839c8f1adbfee0fd5c6d86b0d66b9f8a",
      "blockNumber": "0x56a8a0",
      "from": "0xB54271D82813D21F8508FFffc005EdeDf72E1Bf9",
      "to": "0x62Bd6F648Efbbe964Ce38592640C71a29d586eE9",
      "cumulativeGasUsed": "0xfd80",
      "gasUsed": "0xfd80",
      "contractAddress": null,
      "logs": [],
      "status": "0x1",
      "logsBloom": "0x00000000000000000000000000000000000000000000000000000000000000000000000000000000000000000000000000000000000000000000000000000000000000000000000000000000000000000000000000000000000000000000000000000000000000000000000000000000000000000000000000000000000000000000000000000000000000000000000000000000000000000000000000000000000000000000000000000000000000000000000000000000000000000000000000000000000000000000000000000000000000000000000000000000000000000000000000000000000000000000000000000000000000000000000000000000",
      "type": "0x2",
      "effectiveGasPrice": "0xb5cd45da"
    },
    {
      "transactionHash": "0xf097bbc536d4729ddfd66fbb9326bc637015bb20906d91604aadf598e66cedc1",
      "transactionIndex": "0x3",
      "blockHash": "0x77c7158fef963353ca6ac9135753fcba839c8f1adbfee0fd5c6d86b0d66b9f8a",
      "blockNumber": "0x56a8a0",
      "from": "0xB54271D82813D21F8508FFffc005EdeDf72E1Bf9",
      "to": "0x67a6e25c585E57F8Ef1a573f734a124cE60cb583",
      "cumulativeGasUsed": "0x15200",
      "gasUsed": "0x15200",
      "contractAddress": null,
      "logs": [],
      "status": "0x1",
      "logsBloom": "0x00000000000000000000000000000000000000000000000000000000000000000000000000000000000000000000000000000000000000000000000000000000000000000000000000000000000000000000000000000000000000000000000000000000000000000000000000000000000000000000000000000000000000000000000000000000000000000000000000000000000000000000000000000000000000000000000000000000000000000000000000000000000000000000000000000000000000000000000000000000000000000000000000000000000000000000000000000000000000000000000000000000000000000000000000000000",
      "type": "0x2",
      "effectiveGasPrice": "0xb5cd45da"
    },
    {
      "transactionHash": "0x1159fe4dc9692776b8ac8c1cbf153d9e033530eb8a8bf473d99bd08dcfb07b12",
      "transactionIndex": "0x0",
      "blockHash": "0x4a7237451abacc5aadb4fe373c1f94f2235c0dde0cc9f2aba2691433f499f173",
      "blockNumber": "0x56a8a1",
      "from": "0xB54271D82813D21F8508FFffc005EdeDf72E1Bf9",
      "to": "0xb6087b053C85389A143E69B3f7420bed8059A5fd",
      "cumulativeGasUsed": "0x5480",
      "gasUsed": "0x5480",
      "contractAddress": null,
      "logs": [],
      "status": "0x1",
      "logsBloom": "0x00000000000000000000000000000000000000000000000000000000000000000000000000000000000000000000000000000000000000000000000000000000000000000000000000000000000000000000000000000000000000000000000000000000000000000000000000000000000000000000000000000000000000000000000000000000000000000000000000000000000000000000000000000000000000000000000000000000000000000000000000000000000000000000000000000000000000000000000000000000000000000000000000000000000000000000000000000000000000000000000000000000000000000000000000000000",
      "type": "0x2",
      "effectiveGasPrice": "0xb56e3611"
    }
  ],
  "libraries": [],
  "pending": [],
  "returns": {},
  "timestamp": 1712893911,
  "chain": 11155111,
  "commit": "b4485ba"
}