{
  "transactions": [
    {
      "hash": "0xedc1758fe43fe9a751b9ae667f47d5d59428a44f70f3f587269d8c19ab5ecd47",
      "transactionType": "CALL",
      "contractName": "SLMinterOracle",
      "contractAddress": "0xC7f2Cf4845C6db0e1a1e91ED41Bcd0FcC1b0E141",
      "function": "createBrand(string,string,uint256,address)",
      "arguments": [
        "\"Delta\"",
        "\"Miles\"",
        "54000",
        "0xB54271D82813D21F8508FFffc005EdeDf72E1Bf9"
      ],
      "transaction": {
        "type": "0x02",
        "from": "0xb54271d82813d21f8508ffffc005ededf72e1bf9",
        "to": "0xc7f2cf4845c6db0e1a1e91ed41bcd0fcc1b0e141",
        "gas": "0x7981",
        "value": "0x0",
        "data": "0x920c46c3000000000000000000000000000000000000000000000000000000000000008000000000000000000000000000000000000000000000000000000000000000c0000000000000000000000000000000000000000000000000000000000000d2f0000000000000000000000000b54271d82813d21f8508ffffc005ededf72e1bf9000000000000000000000000000000000000000000000000000000000000000544656c746100000000000000000000000000000000000000000000000000000000000000000000000000000000000000000000000000000000000000000000054d696c6573000000000000000000000000000000000000000000000000000000",
        "nonce": "0x82",
        "accessList": []
      },
      "additionalContracts": [],
      "isFixedGasLimit": false
    },
    {
      "hash": null,
      "transactionType": "CALL",
      "contractName": "SLMinterOracle",
      "contractAddress": "0xC7f2Cf4845C6db0e1a1e91ED41Bcd0FcC1b0E141",
      "function": "createBrand(string,string,uint256,address)",
      "arguments": [
        "\"Starbucks\"",
        "\"Points\"",
        "2476",
        "0xB54271D82813D21F8508FFffc005EdeDf72E1Bf9"
      ],
      "transaction": {
        "type": "0x02",
        "from": "0xb54271d82813d21f8508ffffc005ededf72e1bf9",
        "to": "0xc7f2cf4845c6db0e1a1e91ed41bcd0fcc1b0e141",
        "gas": "0x79d4",
        "value": "0x0",
        "data": "0x920c46c3000000000000000000000000000000000000000000000000000000000000008000000000000000000000000000000000000000000000000000000000000000c000000000000000000000000000000000000000000000000000000000000009ac000000000000000000000000b54271d82813d21f8508ffffc005ededf72e1bf90000000000000000000000000000000000000000000000000000000000000009537461726275636b7300000000000000000000000000000000000000000000000000000000000000000000000000000000000000000000000000000000000006506f696e74730000000000000000000000000000000000000000000000000000",
        "nonce": "0x83",
        "accessList": []
      },
      "additionalContracts": [],
      "isFixedGasLimit": false
    },
    {
      "hash": null,
      "transactionType": "CALL",
      "contractName": "SLMinterOracle",
      "contractAddress": "0xC7f2Cf4845C6db0e1a1e91ED41Bcd0FcC1b0E141",
      "function": "createBrand(string,string,uint256,address)",
      "arguments": [
        "\"Walmart\"",
        "\"Points\"",
        "2300",
        "0xB54271D82813D21F8508FFffc005EdeDf72E1Bf9"
      ],
      "transaction": {
        "type": "0x02",
        "from": "0xb54271d82813d21f8508ffffc005ededf72e1bf9",
        "to": "0xc7f2cf4845c6db0e1a1e91ed41bcd0fcc1b0e141",
        "gas": "0x79b2",
        "value": "0x0",
        "data": "0x920c46c3000000000000000000000000000000000000000000000000000000000000008000000000000000000000000000000000000000000000000000000000000000c000000000000000000000000000000000000000000000000000000000000008fc000000000000000000000000b54271d82813d21f8508ffffc005ededf72e1bf9000000000000000000000000000000000000000000000000000000000000000757616c6d617274000000000000000000000000000000000000000000000000000000000000000000000000000000000000000000000000000000000000000006506f696e74730000000000000000000000000000000000000000000000000000",
        "nonce": "0x84",
        "accessList": []
      },
      "additionalContracts": [],
      "isFixedGasLimit": false
    },
    {
      "hash": null,
      "transactionType": "CALL",
      "contractName": "SLMinterOracle",
      "contractAddress": "0xC7f2Cf4845C6db0e1a1e91ED41Bcd0FcC1b0E141",
      "function": "createBrand(string,string,uint256,address)",
      "arguments": [
        "\"Shell\"",
        "\"Gallons\"",
        "744",
        "0xB54271D82813D21F8508FFffc005EdeDf72E1Bf9"
      ],
      "transaction": {
        "type": "0x02",
        "from": "0xb54271d82813d21f8508ffffc005ededf72e1bf9",
        "to": "0xc7f2cf4845c6db0e1a1e91ed41bcd0fcc1b0e141",
        "gas": "0x79a2",
        "value": "0x0",
        "data": "0x920c46c3000000000000000000000000000000000000000000000000000000000000008000000000000000000000000000000000000000000000000000000000000000c000000000000000000000000000000000000000000000000000000000000002e8000000000000000000000000b54271d82813d21f8508ffffc005ededf72e1bf900000000000000000000000000000000000000000000000000000000000000055368656c6c000000000000000000000000000000000000000000000000000000000000000000000000000000000000000000000000000000000000000000000747616c6c6f6e7300000000000000000000000000000000000000000000000000",
        "nonce": "0x85",
        "accessList": []
      },
      "additionalContracts": [],
      "isFixedGasLimit": false
    },
    {
      "hash": null,
      "transactionType": "CALL",
      "contractName": "SLMinterOracle",
      "contractAddress": "0xC7f2Cf4845C6db0e1a1e91ED41Bcd0FcC1b0E141",
      "function": "createBrand(string,string,uint256,address)",
      "arguments": [
        "\"Regal Cinema\"",
        "\"Points\"",
        "3078",
        "0xB54271D82813D21F8508FFffc005EdeDf72E1Bf9"
      ],
      "transaction": {
        "type": "0x02",
        "from": "0xb54271d82813d21f8508ffffc005ededf72e1bf9",
        "to": "0xc7f2cf4845c6db0e1a1e91ed41bcd0fcc1b0e141",
        "gas": "0x7a05",
        "value": "0x0",
        "data": "0x920c46c3000000000000000000000000000000000000000000000000000000000000008000000000000000000000000000000000000000000000000000000000000000c00000000000000000000000000000000000000000000000000000000000000c06000000000000000000000000b54271d82813d21f8508ffffc005ededf72e1bf9000000000000000000000000000000000000000000000000000000000000000c526567616c2043696e656d6100000000000000000000000000000000000000000000000000000000000000000000000000000000000000000000000000000006506f696e74730000000000000000000000000000000000000000000000000000",
        "nonce": "0x86",
        "accessList": []
      },
      "additionalContracts": [],
      "isFixedGasLimit": false
    },
    {
      "hash": null,
      "transactionType": "CALL",
      "contractName": "SLMinterOracle",
      "contractAddress": "0xC7f2Cf4845C6db0e1a1e91ED41Bcd0FcC1b0E141",
      "function": "createBrand(string,string,uint256,address)",
      "arguments": [
        "\"McDonalds\"",
        "\"Points\"",
        "2667",
        "0xB54271D82813D21F8508FFffc005EdeDf72E1Bf9"
      ],
      "transaction": {
        "type": "0x02",
        "from": "0xb54271d82813d21f8508ffffc005ededf72e1bf9",
        "to": "0xc7f2cf4845c6db0e1a1e91ed41bcd0fcc1b0e141",
        "gas": "0x79d4",
        "value": "0x0",
        "data": "0x920c46c3000000000000000000000000000000000000000000000000000000000000008000000000000000000000000000000000000000000000000000000000000000c00000000000000000000000000000000000000000000000000000000000000a6b000000000000000000000000b54271d82813d21f8508ffffc005ededf72e1bf900000000000000000000000000000000000000000000000000000000000000094d63446f6e616c647300000000000000000000000000000000000000000000000000000000000000000000000000000000000000000000000000000000000006506f696e74730000000000000000000000000000000000000000000000000000",
        "nonce": "0x87",
        "accessList": []
      },
      "additionalContracts": [],
      "isFixedGasLimit": false
    },
    {
      "hash": null,
      "transactionType": "CALL",
      "contractName": "SLMinterOracle",
      "contractAddress": "0xC7f2Cf4845C6db0e1a1e91ED41Bcd0FcC1b0E141",
      "function": "createBrand(string,string,uint256,address)",
      "arguments": [
        "\"Amazon\"",
        "\"Points\"",
        "2280",
        "0xB54271D82813D21F8508FFffc005EdeDf72E1Bf9"
      ],
      "transaction": {
        "type": "0x02",
        "from": "0xb54271d82813d21f8508ffffc005ededf72e1bf9",
        "to": "0xc7f2cf4845c6db0e1a1e91ed41bcd0fcc1b0e141",
        "gas": "0x79a2",
        "value": "0x0",
        "data": "0x920c46c3000000000000000000000000000000000000000000000000000000000000008000000000000000000000000000000000000000000000000000000000000000c000000000000000000000000000000000000000000000000000000000000008e8000000000000000000000000b54271d82813d21f8508ffffc005ededf72e1bf90000000000000000000000000000000000000000000000000000000000000006416d617a6f6e00000000000000000000000000000000000000000000000000000000000000000000000000000000000000000000000000000000000000000006506f696e74730000000000000000000000000000000000000000000000000000",
        "nonce": "0x88",
        "accessList": []
      },
      "additionalContracts": [],
      "isFixedGasLimit": false
    },
    {
      "hash": null,
      "transactionType": "CALL",
      "contractName": "SLMinterOracle",
      "contractAddress": "0xC7f2Cf4845C6db0e1a1e91ED41Bcd0FcC1b0E141",
      "function": "createBrand(string,string,uint256,address)",
      "arguments": [
        "\"Sephora\"",
        "\"Points\"",
        "2500",
        "0xB54271D82813D21F8508FFffc005EdeDf72E1Bf9"
      ],
      "transaction": {
        "type": "0x02",
        "from": "0xb54271d82813d21f8508ffffc005ededf72e1bf9",
        "to": "0xc7f2cf4845c6db0e1a1e91ed41bcd0fcc1b0e141",
        "gas": "0x79b2",
        "value": "0x0",
        "data": "0x920c46c3000000000000000000000000000000000000000000000000000000000000008000000000000000000000000000000000000000000000000000000000000000c000000000000000000000000000000000000000000000000000000000000009c4000000000000000000000000b54271d82813d21f8508ffffc005ededf72e1bf90000000000000000000000000000000000000000000000000000000000000007536570686f7261000000000000000000000000000000000000000000000000000000000000000000000000000000000000000000000000000000000000000006506f696e74730000000000000000000000000000000000000000000000000000",
        "nonce": "0x89",
        "accessList": []
      },
      "additionalContracts": [],
      "isFixedGasLimit": false
    },
    {
      "hash": null,
      "transactionType": "CALL",
      "contractName": "SLMinterOracle",
      "contractAddress": "0xC7f2Cf4845C6db0e1a1e91ED41Bcd0FcC1b0E141",
      "function": "createBrand(string,string,uint256,address)",
      "arguments": [
        "\"Walgreens\"",
        "\"Points\"",
        "3080",
        "0xB54271D82813D21F8508FFffc005EdeDf72E1Bf9"
      ],
      "transaction": {
        "type": "0x02",
        "from": "0xb54271d82813d21f8508ffffc005ededf72e1bf9",
        "to": "0xc7f2cf4845c6db0e1a1e91ed41bcd0fcc1b0e141",
        "gas": "0x79d4",
        "value": "0x0",
        "data": "0x920c46c3000000000000000000000000000000000000000000000000000000000000008000000000000000000000000000000000000000000000000000000000000000c00000000000000000000000000000000000000000000000000000000000000c08000000000000000000000000b54271d82813d21f8508ffffc005ededf72e1bf9000000000000000000000000000000000000000000000000000000000000000957616c677265656e7300000000000000000000000000000000000000000000000000000000000000000000000000000000000000000000000000000000000006506f696e74730000000000000000000000000000000000000000000000000000",
        "nonce": "0x8a",
        "accessList": []
      },
      "additionalContracts": [],
      "isFixedGasLimit": false
    },
    {
      "hash": null,
      "transactionType": "CALL",
      "contractName": "SLMinterOracle",
      "contractAddress": "0xC7f2Cf4845C6db0e1a1e91ED41Bcd0FcC1b0E141",
      "function": "createBrand(string,string,uint256,address)",
      "arguments": [
        "\"Lyft\"",
        "\"Points\"",
        "2500",
        "0xB54271D82813D21F8508FFffc005EdeDf72E1Bf9"
      ],
      "transaction": {
        "type": "0x02",
        "from": "0xb54271d82813d21f8508ffffc005ededf72e1bf9",
        "to": "0xc7f2cf4845c6db0e1a1e91ed41bcd0fcc1b0e141",
        "gas": "0x7981",
        "value": "0x0",
        "data": "0x920c46c3000000000000000000000000000000000000000000000000000000000000008000000000000000000000000000000000000000000000000000000000000000c000000000000000000000000000000000000000000000000000000000000009c4000000000000000000000000b54271d82813d21f8508ffffc005ededf72e1bf900000000000000000000000000000000000000000000000000000000000000044c796674000000000000000000000000000000000000000000000000000000000000000000000000000000000000000000000000000000000000000000000006506f696e74730000000000000000000000000000000000000000000000000000",
        "nonce": "0x8b",
        "accessList": []
      },
      "additionalContracts": [],
      "isFixedGasLimit": false
    },
    {
      "hash": null,
      "transactionType": "CALL",
      "contractName": "SLMinterOracle",
      "contractAddress": "0xC7f2Cf4845C6db0e1a1e91ED41Bcd0FcC1b0E141",
      "function": "returnCard(address)",
      "arguments": [
        "0x7AaCc5300ec7Ac58fe86645D08f21b1BEcadf99a"
      ],
      "transaction": {
        "type": "0x02",
        "from": "0xb54271d82813d21f8508ffffc005ededf72e1bf9",
        "to": "0xc7f2cf4845c6db0e1a1e91ed41bcd0fcc1b0e141",
        "gas": "0x73a2",
        "value": "0x0",
        "data": "0x056dc4fc0000000000000000000000007aacc5300ec7ac58fe86645d08f21b1becadf99a",
        "nonce": "0x8c",
        "accessList": []
      },
      "additionalContracts": [],
      "isFixedGasLimit": false
    },
    {
      "hash": null,
      "transactionType": "CALL",
      "contractName": "SLMinterOracle",
      "contractAddress": "0xC7f2Cf4845C6db0e1a1e91ED41Bcd0FcC1b0E141",
      "function": "returnCard(address)",
      "arguments": [
        "0x67cDE3E2d3e6e9d5413bD1Ecb01DC71BA3cF86E7"
      ],
      "transaction": {
        "type": "0x02",
        "from": "0xb54271d82813d21f8508ffffc005ededf72e1bf9",
        "to": "0xc7f2cf4845c6db0e1a1e91ed41bcd0fcc1b0e141",
        "gas": "0x73a2",
        "value": "0x0",
        "data": "0x056dc4fc00000000000000000000000067cde3e2d3e6e9d5413bd1ecb01dc71ba3cf86e7",
        "nonce": "0x8d",
        "accessList": []
      },
      "additionalContracts": [],
      "isFixedGasLimit": false
    },
    {
      "hash": null,
      "transactionType": "CALL",
      "contractName": "SLMinterOracle",
      "contractAddress": "0xC7f2Cf4845C6db0e1a1e91ED41Bcd0FcC1b0E141",
      "function": "returnCard(address)",
      "arguments": [
        "0x9bF642ef0bc3f1544b1776251AeAc4fF216E3384"
      ],
      "transaction": {
        "type": "0x02",
        "from": "0xb54271d82813d21f8508ffffc005ededf72e1bf9",
        "to": "0xc7f2cf4845c6db0e1a1e91ed41bcd0fcc1b0e141",
        "gas": "0x73a2",
        "value": "0x0",
        "data": "0x056dc4fc0000000000000000000000009bf642ef0bc3f1544b1776251aeac4ff216e3384",
        "nonce": "0x8e",
        "accessList": []
      },
      "additionalContracts": [],
      "isFixedGasLimit": false
    },
    {
      "hash": null,
      "transactionType": "CALL",
      "contractName": "SLMinterOracle",
      "contractAddress": "0xC7f2Cf4845C6db0e1a1e91ED41Bcd0FcC1b0E141",
      "function": "returnCard(address)",
      "arguments": [
        "0xEedBb16327A403a5229b6F95217dE9f338d74846"
      ],
      "transaction": {
        "type": "0x02",
        "from": "0xb54271d82813d21f8508ffffc005ededf72e1bf9",
        "to": "0xc7f2cf4845c6db0e1a1e91ed41bcd0fcc1b0e141",
        "gas": "0x73a2",
        "value": "0x0",
        "data": "0x056dc4fc000000000000000000000000eedbb16327a403a5229b6f95217de9f338d74846",
        "nonce": "0x8f",
        "accessList": []
      },
      "additionalContracts": [],
      "isFixedGasLimit": false
    },
    {
      "hash": null,
      "transactionType": "CALL",
      "contractName": "SLMinterOracle",
      "contractAddress": "0xC7f2Cf4845C6db0e1a1e91ED41Bcd0FcC1b0E141",
      "function": "returnCard(address)",
      "arguments": [
        "0x2B4707A92412D58a82d89EeAD6A5C7e35ce61450"
      ],
      "transaction": {
        "type": "0x02",
        "from": "0xb54271d82813d21f8508ffffc005ededf72e1bf9",
        "to": "0xc7f2cf4845c6db0e1a1e91ed41bcd0fcc1b0e141",
        "gas": "0x73a2",
        "value": "0x0",
        "data": "0x056dc4fc0000000000000000000000002b4707a92412d58a82d89eead6a5c7e35ce61450",
        "nonce": "0x90",
        "accessList": []
      },
      "additionalContracts": [],
      "isFixedGasLimit": false
    },
    {
      "hash": null,
      "transactionType": "CALL",
      "contractName": "SLMinterOracle",
      "contractAddress": "0xC7f2Cf4845C6db0e1a1e91ED41Bcd0FcC1b0E141",
      "function": "returnCard(address)",
      "arguments": [
        "0x1e8b6a99b4824793639d2873366c56D445a5f08d"
      ],
      "transaction": {
        "type": "0x02",
        "from": "0xb54271d82813d21f8508ffffc005ededf72e1bf9",
        "to": "0xc7f2cf4845c6db0e1a1e91ed41bcd0fcc1b0e141",
        "gas": "0x73a2",
        "value": "0x0",
        "data": "0x056dc4fc0000000000000000000000001e8b6a99b4824793639d2873366c56d445a5f08d",
        "nonce": "0x91",
        "accessList": []
      },
      "additionalContracts": [],
      "isFixedGasLimit": false
    },
    {
      "hash": null,
      "transactionType": "CALL",
      "contractName": "SLMinterOracle",
      "contractAddress": "0xC7f2Cf4845C6db0e1a1e91ED41Bcd0FcC1b0E141",
      "function": "returnCard(address)",
      "arguments": [
        "0x7a68E92dF1aEF1F65c726810746Ed2a978434BbC"
      ],
      "transaction": {
        "type": "0x02",
        "from": "0xb54271d82813d21f8508ffffc005ededf72e1bf9",
        "to": "0xc7f2cf4845c6db0e1a1e91ed41bcd0fcc1b0e141",
        "gas": "0x73a2",
        "value": "0x0",
        "data": "0x056dc4fc0000000000000000000000007a68e92df1aef1f65c726810746ed2a978434bbc",
        "nonce": "0x92",
        "accessList": []
      },
      "additionalContracts": [],
      "isFixedGasLimit": false
    },
    {
      "hash": null,
      "transactionType": "CALL",
      "contractName": "SLMinterOracle",
      "contractAddress": "0xC7f2Cf4845C6db0e1a1e91ED41Bcd0FcC1b0E141",
      "function": "returnCard(address)",
      "arguments": [
        "0x62Bd6F648Efbbe964Ce38592640C71a29d586eE9"
      ],
      "transaction": {
        "type": "0x02",
        "from": "0xb54271d82813d21f8508ffffc005ededf72e1bf9",
        "to": "0xc7f2cf4845c6db0e1a1e91ed41bcd0fcc1b0e141",
        "gas": "0x73a2",
        "value": "0x0",
        "data": "0x056dc4fc00000000000000000000000062bd6f648efbbe964ce38592640c71a29d586ee9",
        "nonce": "0x93",
        "accessList": []
      },
      "additionalContracts": [],
      "isFixedGasLimit": false
    },
    {
      "hash": null,
      "transactionType": "CALL",
      "contractName": "SLMinterOracle",
      "contractAddress": "0xC7f2Cf4845C6db0e1a1e91ED41Bcd0FcC1b0E141",
      "function": "returnCard(address)",
      "arguments": [
        "0x67a6e25c585E57F8Ef1a573f734a124cE60cb583"
      ],
      "transaction": {
        "type": "0x02",
        "from": "0xb54271d82813d21f8508ffffc005ededf72e1bf9",
        "to": "0xc7f2cf4845c6db0e1a1e91ed41bcd0fcc1b0e141",
        "gas": "0x73a2",
        "value": "0x0",
        "data": "0x056dc4fc00000000000000000000000067a6e25c585e57f8ef1a573f734a124ce60cb583",
        "nonce": "0x94",
        "accessList": []
      },
      "additionalContracts": [],
      "isFixedGasLimit": false
    },
    {
      "hash": null,
      "transactionType": "CALL",
      "contractName": "SLMinterOracle",
      "contractAddress": "0xC7f2Cf4845C6db0e1a1e91ED41Bcd0FcC1b0E141",
      "function": "returnCard(address)",
      "arguments": [
        "0xb6087b053C85389A143E69B3f7420bed8059A5fd"
      ],
      "transaction": {
        "type": "0x02",
        "from": "0xb54271d82813d21f8508ffffc005ededf72e1bf9",
        "to": "0xc7f2cf4845c6db0e1a1e91ed41bcd0fcc1b0e141",
        "gas": "0x73a2",
        "value": "0x0",
        "data": "0x056dc4fc000000000000000000000000b6087b053c85389a143e69b3f7420bed8059a5fd",
        "nonce": "0x95",
        "accessList": []
      },
      "additionalContracts": [],
      "isFixedGasLimit": false
    },
    {
      "hash": null,
      "transactionType": "CALL",
      "contractName": "SLERC20",
      "contractAddress": "0x7AaCc5300ec7Ac58fe86645D08f21b1BEcadf99a",
      "function": "approve(address,uint256)",
      "arguments": [
        "0xC532a74256D3Db42D0Bf7a0400fEFDbad7694008",
        "52000000000000000000000"
      ],
      "transaction": {
        "type": "0x02",
        "from": "0xb54271d82813d21f8508ffffc005ededf72e1bf9",
        "to": "0x7aacc5300ec7ac58fe86645d08f21b1becadf99a",
        "gas": "0x74c6",
        "value": "0x0",
        "data": "0x095ea7b3000000000000000000000000c532a74256d3db42d0bf7a0400fefdbad7694008000000000000000000000000000000000000000000000b02ecf74c3138800000",
        "nonce": "0x96",
        "accessList": []
      },
      "additionalContracts": [],
      "isFixedGasLimit": false
    },
    {
      "hash": null,
      "transactionType": "CALL",
      "contractName": "SLERC20",
      "contractAddress": "0x67cDE3E2d3e6e9d5413bD1Ecb01DC71BA3cF86E7",
      "function": "approve(address,uint256)",
      "arguments": [
        "0xC532a74256D3Db42D0Bf7a0400fEFDbad7694008",
        "2440000000000000000000"
      ],
      "transaction": {
        "type": "0x02",
        "from": "0xb54271d82813d21f8508ffffc005ededf72e1bf9",
        "to": "0x67cde3e2d3e6e9d5413bd1ecb01dc71ba3cf86e7",
        "gas": "0x74b7",
        "value": "0x0",
        "data": "0x095ea7b3000000000000000000000000c532a74256d3db42d0bf7a0400fefdbad769400800000000000000000000000000000000000000000000008445cd605371200000",
        "nonce": "0x97",
        "accessList": []
      },
      "additionalContracts": [],
      "isFixedGasLimit": false
    },
    {
      "hash": null,
      "transactionType": "CALL",
      "contractName": "SLERC20",
      "contractAddress": "0x9bF642ef0bc3f1544b1776251AeAc4fF216E3384",
      "function": "approve(address,uint256)",
      "arguments": [
        "0xC532a74256D3Db42D0Bf7a0400fEFDbad7694008",
        "2300000000000000000000"
      ],
      "transaction": {
        "type": "0x02",
        "from": "0xb54271d82813d21f8508ffffc005ededf72e1bf9",
        "to": "0x9bf642ef0bc3f1544b1776251aeac4ff216e3384",
        "gas": "0x74b7",
        "value": "0x0",
        "data": "0x095ea7b3000000000000000000000000c532a74256d3db42d0bf7a0400fefdbad769400800000000000000000000000000000000000000000000007caee97613e6700000",
        "nonce": "0x98",
        "accessList": []
      },
      "additionalContracts": [],
      "isFixedGasLimit": false
    },
    {
      "hash": null,
      "transactionType": "CALL",
      "contractName": "SLERC20",
      "contractAddress": "0xEedBb16327A403a5229b6F95217dE9f338d74846",
      "function": "approve(address,uint256)",
      "arguments": [
        "0xC532a74256D3Db42D0Bf7a0400fEFDbad7694008",
        "744000000000000000000"
      ],
      "transaction": {
        "type": "0x02",
        "from": "0xb54271d82813d21f8508ffffc005ededf72e1bf9",
        "to": "0xeedbb16327a403a5229b6f95217de9f338d74846",
        "gas": "0x74b7",
        "value": "0x0",
        "data": "0x095ea7b3000000000000000000000000c532a74256d3db42d0bf7a0400fefdbad76940080000000000000000000000000000000000000000000000285512fa1e7aa00000",
        "nonce": "0x99",
        "accessList": []
      },
      "additionalContracts": [],
      "isFixedGasLimit": false
    },
    {
      "hash": null,
      "transactionType": "CALL",
      "contractName": "SLERC20",
      "contractAddress": "0x2B4707A92412D58a82d89EeAD6A5C7e35ce61450",
      "function": "approve(address,uint256)",
      "arguments": [
        "0xC532a74256D3Db42D0Bf7a0400fEFDbad7694008",
        "3078000000000000000000"
      ],
      "transaction": {
        "type": "0x02",
        "from": "0xb54271d82813d21f8508ffffc005ededf72e1bf9",
        "to": "0x2b4707a92412d58a82d89eead6a5c7e35ce61450",
        "gas": "0x74b7",
        "value": "0x0",
        "data": "0x095ea7b3000000000000000000000000c532a74256d3db42d0bf7a0400fefdbad76940080000000000000000000000000000000000000000000000a6dbd4b40e9c580000",
        "nonce": "0x9a",
        "accessList": []
      },
      "additionalContracts": [],
      "isFixedGasLimit": false
    },
    {
      "hash": null,
      "transactionType": "CALL",
      "contractName": "SLERC20",
      "contractAddress": "0x1e8b6a99b4824793639d2873366c56D445a5f08d",
      "function": "approve(address,uint256)",
      "arguments": [
        "0xC532a74256D3Db42D0Bf7a0400fEFDbad7694008",
        "2667000000000000000000"
      ],
      "transaction": {
        "type": "0x02",
        "from": "0xb54271d82813d21f8508ffffc005ededf72e1bf9",
        "to": "0x1e8b6a99b4824793639d2873366c56d445a5f08d",
        "gas": "0x74b7",
        "value": "0x0",
        "data": "0x095ea7b3000000000000000000000000c532a74256d3db42d0bf7a0400fefdbad7694008000000000000000000000000000000000000000000000090940f61a0decc0000",
        "nonce": "0x9b",
        "accessList": []
      },
      "additionalContracts": [],
      "isFixedGasLimit": false
    },
    {
      "hash": null,
      "transactionType": "CALL",
      "contractName": "SLERC20",
      "contractAddress": "0x7a68E92dF1aEF1F65c726810746Ed2a978434BbC",
      "function": "approve(address,uint256)",
      "arguments": [
        "0xC532a74256D3Db42D0Bf7a0400fEFDbad7694008",
        "2280000000000000000000"
      ],
      "transaction": {
        "type": "0x02",
        "from": "0xb54271d82813d21f8508ffffc005ededf72e1bf9",
        "to": "0x7a68e92df1aef1f65c726810746ed2a978434bbc",
        "gas": "0x74b7",
        "value": "0x0",
        "data": "0x095ea7b3000000000000000000000000c532a74256d3db42d0bf7a0400fefdbad769400800000000000000000000000000000000000000000000007b995b300ad2a00000",
        "nonce": "0x9c",
        "accessList": []
      },
      "additionalContracts": [],
      "isFixedGasLimit": false
    },
    {
      "hash": null,
      "transactionType": "CALL",
      "contractName": "SLERC20",
      "contractAddress": "0x62Bd6F648Efbbe964Ce38592640C71a29d586eE9",
      "function": "approve(address,uint256)",
      "arguments": [
        "0xC532a74256D3Db42D0Bf7a0400fEFDbad7694008",
        "2500000000000000000000"
      ],
      "transaction": {
        "type": "0x02",
        "from": "0xb54271d82813d21f8508ffffc005ededf72e1bf9",
        "to": "0x62bd6f648efbbe964ce38592640c71a29d586ee9",
        "gas": "0x74b7",
        "value": "0x0",
        "data": "0x095ea7b3000000000000000000000000c532a74256d3db42d0bf7a0400fefdbad76940080000000000000000000000000000000000000000000000878678326eac900000",
        "nonce": "0x9d",
        "accessList": []
      },
      "additionalContracts": [],
      "isFixedGasLimit": false
    },
    {
      "hash": null,
      "transactionType": "CALL",
      "contractName": "SLERC20",
      "contractAddress": "0x67a6e25c585E57F8Ef1a573f734a124cE60cb583",
      "function": "approve(address,uint256)",
      "arguments": [
        "0xC532a74256D3Db42D0Bf7a0400fEFDbad7694008",
        "3080000000000000000000"
      ],
      "transaction": {
        "type": "0x02",
        "from": "0xb54271d82813d21f8508ffffc005ededf72e1bf9",
        "to": "0x67a6e25c585e57f8ef1a573f734a124ce60cb583",
        "gas": "0x74b7",
        "value": "0x0",
        "data": "0x095ea7b3000000000000000000000000c532a74256d3db42d0bf7a0400fefdbad76940080000000000000000000000000000000000000000000000a6f7962175eb200000",
        "nonce": "0x9e",
        "accessList": []
      },
      "additionalContracts": [],
      "isFixedGasLimit": false
    },
    {
      "hash": null,
      "transactionType": "CALL",
      "contractName": "SLERC20",
      "contractAddress": "0xb6087b053C85389A143E69B3f7420bed8059A5fd",
      "function": "approve(address,uint256)",
      "arguments": [
        "0xC532a74256D3Db42D0Bf7a0400fEFDbad7694008",
        "2500000000000000000000"
      ],
      "transaction": {
        "type": "0x02",
        "from": "0xb54271d82813d21f8508ffffc005ededf72e1bf9",
        "to": "0xb6087b053c85389a143e69b3f7420bed8059a5fd",
        "gas": "0x74b7",
        "value": "0x0",
        "data": "0x095ea7b3000000000000000000000000c532a74256d3db42d0bf7a0400fefdbad76940080000000000000000000000000000000000000000000000878678326eac900000",
        "nonce": "0x9f",
        "accessList": []
      },
      "additionalContracts": [],
      "isFixedGasLimit": false
    }
  ],
  "receipts": [],
  "libraries": [],
  "pending": [
    "0xedc1758fe43fe9a751b9ae667f47d5d59428a44f70f3f587269d8c19ab5ecd47"
  ],
  "returns": {},
  "timestamp": 1712895651,
  "chain": 11155111,
  "commit": "b4485ba"
}